:0200000270008C
:108000007C7F002009CC070031CC070033CC07006F
:1080100035CC070037CC070039CC07000000000042
:10802000000000000000000000000000A58A07001A
:108030003DCC0700000000003FCC0700BD890700D1
:10804000A98B070043CC0700D1C9070043CC070028
:1080500043CC070043CC070043CC070043CC0700C8
:1080600043CC070043CC070043CC070043CC0700B8
:1080700043CC070043CC070043CC070043CC0700A8
:1080800043CC0700F5AE070043CC070043CC070004
:10809000ADAF070043CC0700D988070043CC0700E9
:1080A00043CC070043CC070043CC070043CC070078
:1080B00043CC070043CC0700000000000000000094
:1080C00043CC070043CC070043CC070043CC070058
:1080D00043CC070043CC070043CC0700000000005E
:1080E0000000000000000000000000000000000090
:1080F0000000000000000000000000000000000080
:10810000000000000000000000000000000000006F
:10811000000000000000000000000000000000005F
:10812000000000000000000000000000000000004F
:10813000000000000000000000000000000000003F
:10814000000000000000000000000000000000002F
:10815000000000000000000000000000000000001F
:10816000000000000000000000000000000000000F
:1081700000000000000000000000000000000000FF
:1081800000000000000000000000000000000000EF
:1081900000000000000000000000000000000000DF
:1081A00000000000000000000000000000000000CF
:1081B00000000000000000000000000000000000BF
:1081C00000000000000000000000000000000000AF
:1081D000000000000000000000000000000000009F
:1081E000000000000000000000000000000000008F
:1081F000000000000000000000000000000000007F
:1082000008B50548054B1B1A062B00D808BD044BC2
:10821000002BFBD09847F9E79030002093300020E6
:108220000000000008B50748074B1B1A9B1003EB22
:10823000D373591000D108BD044A002AFBD09047DF
:10824000F9E700BF903000209030002000000000CF
:1082500010B5064C237843B9FFF7D2FF044B13B196
:108260000448AFF300800123237010BD903000203C
:108270000000000018D3070008B5074B1BB10748E2
:108280000749AFF300800748036813B1064B03B1F9
:108290009847BDE80840C5E70000000018D3070074
:1082A000943000208C30002000000000134B002B85
:1082B00008BF114B9D46A3F5803A00218B460F461F
:1082C0001148124A121A00F07BF80D4B002B00D017
:1082D00098470C4B002B00D0984700200021040049
:1082E0000D000B4800F016F800F044F820002900BB
:1082F00000F070F900F014F8000008007C7F002006
:10830000000000000000000090300020705B0020A2
:1083100049830700014600200246034600F058B892
:1083200008B5074B044613B1002100F0ADF8054B2A
:108330001868836A03B19847204600F009F900BF26
:10834000898407004CD2070038B5084D084C641BDF
:10835000A41005EB840524B155F8043D013C984771
:10836000F9E7BDE8384004F069BF00BF883000205D
:108370008C30002070B50E4B0E4DED1AAD10002460
:108380001E46AC4204D056F8242090470134F8E74A
:1083900004F04EFF084D094BED1AAD1000241E46A7
:1083A000AC4204D056F8242090470134F8E770BD61
:1083B0008430002084300020883000208430002069
:1083C00002440346934202D003F8011BFAE77047C8
:1083D0002DE9F843294D2C6806460F4691469846EC
:1083E0000CB9274C2C6063681F2B12DD254B1BB981
:1083F0004FF0FF30BDE8F8838C20AFF300800446D7
:108400000028F5D000232A68026043602860C0F885
:1084100088304EB3D4F8880078B91A4B002BE7D0D7
:108420004FF48470AFF300800028E1D00023C0F83F
:108430000031C0F80431C4F88800656840F8259020
:10844000012300EB850203FA05F5D0F80031022E76
:1084500043EA0503C0F80031C2F8808004D1D0F8A7
:1084600004311D43C0F8045163685A1C0233626032
:10847000002044F82370BDE8F88300BF38310020A5
:10848000AC300020000000002DE9F74F82468946FD
:108490002D4F3C68002C54D06268D4F8885002F10B
:1084A0000208561E05EB820B04EB8808002E36DB13
:1084B000B9F1000F04D065B3DBF87C204A4528D120
:1084C000616858F8042C01398E4216BF002166609D
:1084D00048F8041CEAB1636801932DB10121D5F875
:1084E0000001B140014201D190470BE0D5F80401F1
:1084F000014204D150465BF8041C904702E05BF84F
:10850000040C90476268019B9342C1D13A68A24231
:10851000BED1013EABF1040BA8F10408C6E70B4B3A
:108520007BB1626823684AB943B13B6015B1284604
:10853000AFF300802046AFF30080AAE727461C4631
:10854000A8E703B0BDE8F08F38310020000000003C
:10855000FEE700BFBFF34F8F054A064BD16801F419
:10856000E0610B43D360BFF34F8F00BFFDE700BF57
:1085700000ED00E00400FA054BDF704710DF7047A4
:1085800011DF704713DF704718DF704760DF7047F7
:1085900069DF704761DF704708B5034B1B68DB0775
:1085A00000D500BEFFF7D6FFF0ED00E0014B1878D4
:1085B000704700BF3C3100201FB5002110226846E3
:1085C000FFF7FEFE022368460093FFF7DDFF05B0CC
:1085D0005DF804FB2DE9F0414FF0804386B0D3F8FD
:1085E0001C55D3F81C25B5F1B1014D424D41B12ABE
:1085F00006D0D3F81C35B3F1A8025342534100E032
:1086000001238D4C8D4E23704FF08042D2F81C1503
:108610007BB94E290DD0D2F81C15572909D03168E5
:1086200008688749884205D1D2F8003403F0010375
:1086300000E001231F4623B14FF080430022C3F81E
:108640001C25804B40F20B22C3F840257E4B1B6853
:10865000B3F5F02F02D0002002F04CFF00F050F9EB
:1086600000F030FC002000F0B1F900F0A1FC78B17E
:10867000052000F0ABF900F0ADFC08B102F03AFFC4
:1086800000F0CEFC08B102F035FF062000F09EF9A4
:108690001FB91E2000F028F900E0012043F2080372
:1086A00000F00107186800F055FB804647B938B163
:1086B0003368634A1A60384642F2283100F01CFCE5
:1086C000336800221A601FB9B8F1000F40F09A8099
:1086D0002378002B00F08580082000F077F90DB991
:1086E000FFF76AFF4FF4F020FFF74CFF08B102F0EC
:1086F00001FF564B56491868019001A8FFF73EFF4D
:1087000008B102F0F7FE534A92F81633EC215B09E8
:1087100041FA03F3DB0708D54F4B9968002900F0B5
:1087200086801A6842F480021A604C4B0293002142
:108730000C2203A8FFF744FE01238DF80C308DF8BE
:108740000D304020002303A9029A8DF80E308DF8D9
:108750000F30FFF71DFF08B102F0CCFE00210C2204
:1087600003A8FFF72DFE9DF80C30029A43F0010399
:10877000A02003A98DF80C30FFF70AFF08B102F022
:10878000B9FE00210C2203A8FFF71AFE01238DF881
:108790000C302320F72303A9029AADF80E30FFF71F
:1087A000F7FE08B102F0A6FE00210C2203A8FFF795
:1087B00007FE01238DF80C308DF80E3020200623A3
:1087C00003A9029AADF81030FFF7E2FE08B102F0FB
:1087D00091FE02A8FFF7DAFE08B102F08BFE012538
:1087E00005E0022000F0F2F8012000F0EFF8207818
:1087F000002100F081FB08B102F07CFE23780BB170
:10880000FFF7BEFE00F0BEF843F20803186800F060
:10881000A1FA50B100F0CCFB38B90DB9FFF7CCFE8E
:1088200043F20803186800F09BFBFFF793FE4FF438
:108830008003136079E700BF3C31002060300020E6
:10884000D51A5A0000A000401410001050D20700A2
:108850009985070000E100E0645B00200030002003
:1088600010B5FEB04FF4FA7301A80DF10201ADF896
:108870000230FFF78FFE044690B9BDF80430102B8C
:1088800005D0112B09D1084B1870082003E0064BC6
:1088900001221A70072000F099F801A800F054FE98
:1088A00020467EB010BD00BF3D31002013B501A8A9
:1088B000FFF762FE044610B9019801F09BFD2046C7
:1088C00002B010BD08B5FFF7CBFF0528FBD1FFF7BD
:1088D000EDFF0528F7D108BD00200146014A02F04E
:1088E00075BD00BFC58807004FF0A043D3F8103511
:1088F00023FA00F000F0010080F001007047000052
:1089000008B54FF0804301220021DA60C3F8181542
:108910009A604FF0A043154AC3F87827144B4FF4E0
:10892000C85043F00103984708201E21114A02F065
:1089300029FD08B102F0DEFD02F088FC0E4A0F4B63
:10894000E02182F8231018684FF47A73B0FBF3F03B
:108950000138B0F1807F07D2094B586082F82310AC
:1089600000229A6007221A6008BD00BF0C000300B5
:1089700060D207004431002000ED00E07830002094
:1089800010E000E00C4B00221A604FF40032C3F8F4
:108990007021F03303F1C04303F53C534FF48032B0
:1089A000C3F84823C3F8082301225A609A604FF0A5
:1089B0008043DA60704700BF10E000E0024B1A68A5
:1089C00001321A60704700BF40310020704700003C
:1089D00038B50C4C21684B1C054612D00A484FF4A0
:1089E000805204F005FC48B115B1206800F014F97C
:1089F000206805494FF4806200F026F94FF0FF33FC
:108A0000236038BD64300020343300202DE9F84362
:108A10000F4E20F47F64376824F00F04BC420546F3
:108A20008946904609D01846FFF7D2FF09483460BE
:108A300021464FF4805204F0EAFB0648C5F30B05CB
:108A4000284449464246BDE8F84304F0E0BB00BF75
:108A5000643000203433002038B50D46E8B90B6887
:108A6000CBB10F4CA3420ED0E21A3B2A06D83D22CE
:108A700012F1FF3207D3D15CA154F9E72046194621
:108A80003C2204F0C4FB06483C21002202F07CFD9D
:108A90000023A08702E00E2300E001232B6038BDF5
:108AA000807F0020074A6FF002039E4502D1EFF35A
:108AB000098101E0EFF308818869A0F102000078E4
:108AC000104700BF598A070038B50546A8B10D4CBC
:108AD0003C212046002202F057FDA38F83420ED195
:108AE000234604F13C0253F8041B45F8041B93424F
:108AF000F9D10130A087002038BD0E2038BD0B20F1
:108B000038BD00BF807F00200B2938B504461546CC
:108B100001D8092038BD038900EB43030A33C21A88
:108B20000A44D2B21648012A0270F2D921448B427B
:108B3000EFD81946134804F06AFB2388522B1AD148
:108B4000AB0704D062884AF6AF539A4213D1218909
:108B500000238B420DD204EB43024FF6FE70528984
:108B600082420AD043F20C00013300889042F0D1D7
:108B700003E00B2038BD0F2038BD002038BD00BFFA
:108B80003E4300203443002008B5002202F0FCFCE4
:108B9000044B5A781B7843EA0223984214BF0B20F7
:108BA000002008BD3443002010B54FF08043D3F8B7
:108BB0000443610709D5D3F8082103F5847322B172
:108BC00000221A600C4B1B689847A20607D50B4B76
:108BD0001A6822B100201860094B1B689847630689
:108BE00008D5084B1A682AB100221A60044B0120EC
:108BF0001B68984710BD00BF40430020140100408F
:108C00004443002018010040024BD3F80034002BED
:108C1000FAD0704700E0014010B50A4C0223C4F8B6
:108C20000435BFF36F8FBFF34F8FC4F80805FFF70C
:108C3000EBFF0023C4F80435BFF36F8FBFF34F8FF2
:108C400010BD00BF00E00140114B2DE9F0419046FE
:108C5000012207460E46C3F80425BFF36F8FBFF30A
:108C60004F8F00240D1F444507D055F8042FAB1B30
:108C70000134DA51FFF7C8FFF5E7054B0022C3F8CE
:108C80000425BFF36F8FBFF34F8FBDE8F08100BFA6
:108C900000E0014011DF704713DF7047064B187882
:108CA000012803D1012904BF0221197012B1104615
:108CB00002F020BC704700BF4943002008B50B4BB1
:108CC000D3F800343BB902F0E5FB094B1B78023BBB
:108CD000022BF4D808BD002303F5C071034A0548F0
:108CE00042F821000133082BF6D1ECE700000140E7
:108CF000494300203546526E08B5FFF757FC88B14E
:108D000011481C2101F01DFC08B102F0F3FB0E48D4
:108D10000E491C22002301F001FC98B1BDE8084077
:108D200002F0E8BB4FF4FE20FFF776FF07224FF476
:108D3000FE200649FFF788FF054B1A78012A04BF79
:108D400002221A7008BD00BF684300204C43002077
:108D50004943002007B50368013301D1002014E026
:108D600001A800F08BF9019B1A88012AF6D15888D6
:108D700030B143F2080299681068002202F004FC46
:108D8000019B5B881B1A5842584103B05DF804FBF5
:108D900084B02DE9F34108AC84E80F009DF8204031
:108DA000BDF82280099F0A9E0B9D01A800F066F97C
:108DB00044B9384B0122FF21A3F802809D601A803C
:108DC00099803EE0012C13D1324BF2192A449A606B
:108DD000A5221A80FF229A800C9AA3F80280DF60F5
:108DE0001E615D619A612C4B1C70FFF785FF4BE0A3
:108DF000032C0DD1019A274B118819805188926854
:108E00009A60AA2259809A80DF601E615D6117E036
:108E1000022C19D1019A1F4B1188A52905D10022D6
:108E20005A809A60FF221A8004E019805188926863
:108E300059809A60FF229A800022DA601A615A6192
:108E40000122154B1A70D0E7052C0CD1FFF7AEFBB1
:108E500010B100F071FD01E000F00AFA08B102F073
:108E600049FB03220EE0042C09D10A4B00229A6030
:108E70005A80FF221A80019A92889A80B5E7062CC0
:108E800002D10422044B1A7002B0BDE8F04104B0D4
:108E9000704700BF4C4300204943002000B5084BF9
:108EA0001B7889B043B905238DF80C30079B0093DC
:108EB00003AB0FCBFFF76CFF09B05DF804FB00BFFD
:108EC000484300201FB5002101A80C22FFF778FAC3
:108ED000074B019301F0E2FA30B906494FF4FE2343
:108EE00001A84B6001F006FB05B05DF804FB00BF74
:108EF0009D8C070068430020F8B506460F4600F039
:108F0000AFFF18BB16B100F053FC1BE0C7B1104B0C
:108F1000104A11481E70314602F0CAF94FF400435E
:108F20004FF4FA700021E3FB07014FF47A7200233B
:108F300003F088FE044621460848324602F0CAF98A
:108F400000F072F90446FFF7B9FE2046F8BD00BFF5
:108F5000484300209D8E070070D207007043002018
:108F600010B5FFF797FE08B102F0C4FA0F4B19686D
:108F70000023012202FA03F0084207D003F01F0089
:108F80005C0982402034094840F824200133272B13
:108F9000EFD143F208042068FFF77EFE08B102F02B
:108FA000A9FA2068BDE8104000F06EB800E100E0CA
:108FB00007B501A800F062F8019B1A88A52A05D020
:108FC0009888B0F1AA035842584100E0012003B04C
:108FD0005DF804FB10B501F064F950B10E4B0F4879
:108FE00043F00103984701F0E1F838B102F082FA4A
:108FF00004E001F039F90028F0D110BD01F051F979
:1090000008B102F077FA01F015F9044608B102F050
:1090100071FA204610BD00BF80D2070000A8610091
:1090200010B588B003AC204600211422FFF7C8F920
:1090300002238DF80C300023009394E80F00FFF713
:10904000A7FEFFF73BFE002008B010BD13B5044695
:1090500001A800F013F8019B1A8822805A886280C8
:109060009A68A2609A88A280DA68E2601A6922612E
:109070005A6962619B69A36102B010BD014B036034
:10908000704700BF00F00700F0B50346186880F392
:1090900008885868FF2464B2EFF30585002D01D1DC
:1090A000A64600472546064621273FBAF0B40024CD
:1090B000002500260027F0B4F92040B2004700BF89
:1090C000F0BD00BF73B502A8002340F8043D0DF1C8
:1090D0000201ADF8023002F097FE30BB019C25780A
:1090E0006DB31A4B93F83020032A1E4629D003464D
:1090F0000C215943154A705898B95318555092F895
:1091000030100131C9B282F83010BDF80220920847
:10911000013A04345A609C6001460D4A02F056F947
:1091200003E00133042BE3D11846019B5BB150B13E
:10913000184602F085FE30B102F0DCF903E00720AA
:10914000F3E70420F1E702B070BD00BF90430020B8
:109150009991070011B1084602F0CCB970470000A0
:1091600010B50C2141430B4B5A185C5890687CB1E8
:1091700093F83040013CE4B283F8304000245C5066
:1091800004389460546002F05BFE08B102F0B2F95A
:10919000002010BD9043002038B5214B01221A70E9
:1091A000204C94F83030002B38D0002523687BB356
:1091B000013B042B26D8DFE803F0102507031C0031
:1091C000204600F0EFFE1DE0A3686360204600F03B
:1091D00091FEB8B102F08EF914E0204600F06AFF6B
:1091E00000F046FF08B102F085F90520FFF7EEFB1D
:1091F00008E000F091FF00F0B3FF0620BDE8384022
:10920000FFF7E4BBE8B2FFF7ABFF08B102F072F979
:109210000135042D04F10C04C8D1C1E738BD00BFED
:1092200048430020904300200E4808B5002380F8F2
:1092300030300022C250C1180C33302B8A604A6093
:10924000F7D1094800F050FE02F078FD08B102F0B5
:1092500051F9064802F05EFD08B102F04BF900201A
:1092600008BD00BF9043002055910700C59007003E
:1092700008B50020FFF774FF0120FFF771FF0220FF
:10928000FFF76EFF0320FFF76BFFBDE8084002F019
:109290009BBD837842781B0443EA02230278C0789E
:1092A000134343EA006070476CDF70476DDF70471F
:1092B0006EDF70476FDF704772DF704773DF704794
:1092C00074DF704776DF704777DF70477ADF70476B
:1092D0007CDF70477FDF704786DF70478FDF704726
:1092E00090DF7047AFDF7047B0DF7047B1DF704786
:1092F000B2DF7047B5DF704764DF704766DF7047E5
:109300000C2813D8DFE800F007121212121209120B
:109310001412120D0B000120704703207047042027
:109320007047042914BF06200520704706207047A7
:109330000220704702F0DEB810B50446084603214B
:10934000FFF7DEFF03210246204601F0D3FA18B1F1
:10935000BDE8104002F0CEB810BD0000032810B5E3
:1093600014461AD0042826D149B1134B18884FF659
:10937000FF7398421FD01321FFF7A4FF16E0104699
:1093800002F05CF908B102F0B5F80C4B1B68A3427F
:1093900011D10B480321012206E008460121FFF705
:1093A000AFFF02460648012101F0A4FA18B1BDE85A
:1093B000104002F09FB810BD68300020D04300205C
:1093C00008440020F8B50A4CA3889E181D2E1546A7
:1093D0000DDC2768FE1802F1010E07F803E070703B
:1093E000B01C03F014FFA38802331D44A580F8BD10
:1093F000D8430020F0B5494F3D7893B0002D40F0A0
:109400008B80474C294620461022FEF7D9FF454B5A
:1094100023600CA829461822FEF7D2FF28230E93BA
:10942000414B1B7801268DF8306006AC002B35D0FF
:1094300029463E4D102202A8FEF7C2FFE81D02A9F0
:10944000102203F0D5FE48B3394831460560FFF7D6
:109450002FFF08B102F04EF8364B264603F1100EEE
:1094600018685968324603C2083373451646F7D167
:109470002868AA880A903048AB79ADF82C200021E2
:1094800001228DF82E300460FFF714FF08B102F0BE
:1094900031F803238DF84430042300E006238DF8CF
:1094A000063041F23053ADF80830244B0DF107017E
:1094B0009B798DF80A30224602A8FFF71DFF012094
:1094C00002460DF10601FFF77DFF1D4803F0A8FEDF
:1094D0001B49C2B20920FFF775FF06202146102262
:1094E000FFF770FF17480E490CAAFFF7E5FE08B119
:1094F00002F000F8134C012021780422FFF7E4FE6B
:1095000008B101F0F7FF20780121FFF7D7FE08B17D
:1095100001F0F0FF01233B7013B0F0BDCD430020FC
:10952000D8430020E8430020C443002040440020EA
:109530007C44002047440020C84300200844002009
:1095400090D207006A300020F0B50446B1B08E48D2
:10955000214601F003FA2388212B00F0F98026D858
:10956000112B36D00CD8012B00F09580102B40F039
:109570000881864BA2881A80854B00221A7000E170
:10958000142B00F0A4801A2B00F0B080132B40F0B5
:10959000F880804A03AC9379106891888DF8223066
:1095A0000790D31DADF82010173226462AE0512B24
:1095B00077D005D8232B00F0C480262B4DD0E0E0D7
:1095C000552B00F0D080562B3DD0522B40F0D98047
:1095D0008CE08023ADF824306C4C6F4B2088322215
:1095E0001A6010A909AA0123FFF782FE08B101F051
:1095F00081FF6A4B1B780BB9FFF7FCFE4FF6FF7338
:109600002380BEE018685968254603C50833934295
:109610002C46F7D1624B09AA03F1180715461868C2
:109620005968144603C40833BB422246F7D1186870
:10963000564B206018885B4A1596852110AB14950F
:10964000FFF748FE97E0A379002B40F09A804F4B3C
:1096500013211888FFF736FE8DE0237A012B40F0A6
:1096600090804B4B00221A704B4B196801391960DE
:1096700071B910AC20461422FEF7A2FE05238DF826
:109680004030149B009394E80F00FFF781FB78E0D3
:10969000FFF7B0FE75E03D4B00211888FFF72EFE66
:1096A00069E0A379002B6CD0A27B043A022A68D827
:1096B000022B18BF01238DF840304FF4C173ADF871
:1096C0004430324B10A91888FFF70EFE53E0314AA0
:1096D000258A518DA08802F118038D420CBF1946CE
:1096E000002107320023FFF7F7FD44E0274B1C88D9
:1096F0004FF6FF75AC4242D02B4B19782046D9B1BA
:109700002A4908220123FFF7F1FD0146002833D141
:1097100020460A460223FFF7E9FD68BB20460C21DC
:109720002A46FFF7DFFD43F20203984229D00828BA
:1097300027D011281FD124E00A460B46FFF7D6FD9B
:1097400019E0124B002118880A46FFF7C9FD12E004
:1097500000238DF840308DF841300C4B10A918884B
:10976000FFF7BCFD0DE0E188084BF72928BFF72182
:109770001888FFF7BFFD20B101F0BCFE01E0082012
:10978000FAE731B0F0BD00BF084400206830002087
:10979000CD430020404400206C300020884400204D
:1097A0005844002038440020C44300207444002062
:1097B00010B5544A544800231370544A94B013709F
:1097C00000F092FB01F0FAFE002840F0988050482B
:1097D000FFF77AF918B94F4B01221A7010E004A86C
:1097E000FFF764FD08B101F085FE9DF8113004A873
:1097F00001338DF81130FFF757FD08B101F07AFE03
:109800009DF804304448012262F3030314AC62F370
:10981000071304F84C3D03F003FD3F4982B2204694
:10982000FFF756FD08B101F065FE04A800210822EB
:10983000FEF7C6FD0823ADF810301823ADF812303E
:109840000023ADF8143004A84FF4C873ADF81630F7
:10985000FFF73CFD08B101F04DFE002120460C222F
:10986000FEF7AEFD0823ADF804302C4B02932C48D4
:109870002C4B0393214600F07BFE08B101F03AFE29
:10988000294C0021402204A8FEF79AFD204603F04F
:10989000C7FC0594254CADF81000204603F0C0FC31
:1098A0000794234CADF81800204603F0B9FC9DF84E
:1098B0004C30ADF83000012262F3030362F307136A
:1098C0008DF84C309DF84D300D9403F0F0036FF39C
:1098D000071304A88DF84D3001F068F9154B1A787C
:1098E000032102F0F00261F306126FF3C7121A703F
:1098F00007225A7010229A70FFF77CFD002014B0E6
:1099000010BD00BF884400205D930700CC430020B9
:1099100040440020C443002090D2070089990700EA
:10992000084400203593070097D207009DD2070016
:10993000A3D207003844002010B50F4B01221A7043
:109940000E4B18884FF6FF73984206D01321FFF78D
:10995000B9FC78B101F0CEFD0CE0094B1A781C4639
:1099600042B1084B1878FFF7ABFC08B101F0C2FD1B
:1099700000232370002010BD8844002068300020A0
:10998000CD4300206A300020F0B50B7889B0054641
:109990000C46092B00F21581DFE813F027002E009A
:1099A00041000A0013002000FE00060145000C01E2
:1099B00000F0B2FB0421FFF7A3FC04210246284675
:1099C0002AE0FFF7B9FF08B101F094FD00F0C8FBF1
:1099D000002800F0F68000F0DBFBF2E0FFF7ACFFC0
:1099E0000028F8D001F086FDF5E7774B01221A70C8
:1099F0004B681A78754B14E0734B02261E704B6847
:109A00001B78012B40F0DD8000F032FB3146FFF780
:109A100077FC02462846314600F06CFFCEE06A4BE8
:109A200003221A70CDE00520FEF7D0FF664B1E78AA
:109A3000022E2ED0032E51D0012E40F0C28004AF52
:109A4000002110223846FEF7BBFC604B0C221B782D
:109A50008DF8103001A80021FEF7B2FC237A02979E
:109A600003220C2B0192D5D164682046FFF711FC2C
:109A70000590201DFFF70DFC069004F10800FFF78C
:109A800008FC079001A800F035FA002800F0998042
:109A9000BCE7237A13F003060DD0C6F104060022BA
:109AA00060680132591C0027B242C9B2C75401D2C2
:109AB0000B46F5E721720123049363680693237A2A
:109AC00004A89B08059300F0F5FA002879D002213C
:109AD000FFF716FC0221024628469DE7207A8307FD
:109AE00003D028463146324696E7394E019031463A
:109AF00001F07AFD014678B96168019A306803F097
:109B000086FB019801F0D6FD014628B901A930462F
:109B100001F0E0FD014608B128463AE00423049331
:109B2000019B9B08059304A83368069300F03AFA5A
:109B3000074640B9274B217A1A680A441A60264B17
:109B400032681A603DE0092819D1224B217A1A683F
:109B500011441960214B1B78002B32D0204B1A88FE
:109B6000013A92B21A801C465ABB284600F086FE83
:109B700008B101F0BFFC1B4B1B88238021E030683B
:109B800001F05CFD014610B12846FFF7D5FB2846E1
:109B90003946FFF7D1FB14E0104B01221A70114A2D
:109BA0008B8813800E4A03E00C4A002313700D4A81
:109BB000138006E0074B196800F024FE08B101F09D
:109BC00099FC09B0F0BD00BFCC430020CE4300207B
:109BD0008C44002084440020D04300208044002096
:109BE000D44300203E44002018DF70470129F8B517
:109BF0000D4614461F4602D003290CD01AE0114B23
:109C00001B78052B16D1104B1D689DB11146042001
:109C10003A46A8470EE00B4E3378022B0AD10B4B85
:109C20005B689847084B35701E681EB12846214670
:109C30003A46B04724B12046BDE8F84001F05ABC8E
:109C4000F8BD00BF9844002090440020D844002074
:109C500000B5084B89B001221A7005238DF80C302D
:109C6000079B009303AB0FCBFFF792F809B05DF8A9
:109C700004FB00BFA444002000B589B003238DF885
:109C80000C300A4B1B88ADF80E30094B5A68049211
:109C90009A68DB680693079B0093059203AB0FCB92
:109CA000FFF776F8002009B05DF804FB9644002029
:109CB000C844002000B589B001238DF80C300B4B4F
:109CC0001B88ADF80E3043F208031A68084B596838
:109CD00004919968DB6806930591009203AB0FCB62
:109CE000FFF756F8002009B05DF804FB9644002009
:109CF000C844002010B588B003AC204600211422CF
:109D0000FEF75EFB04238DF80C300023009394E8EB
:109D10000F00FFF73DF808B010BD000030B589B066
:109D200003AC204600211422FEF74AFB094B1B8896
:109D3000ADF80E30084BDB6806930025079B8DF8C5
:109D40000C50009394E80F00FFF722F8284609B062
:109D500030BD00BF96440020C8440020174B37B5E3
:109D6000174C1C60174B02221A70FEF71FFC164B93
:109D700048B12046196800F0E4FBE8B103B0BDE843
:109D8000304001F0B7BB1B681D0BC3F30B0303B1DD
:109D900001350024AC4208D043F20803186800EBF8
:109DA0000430FEF739FF0134F4E700220092044842
:109DB00003211346FFF71AFF03B030BD24450020EE
:109DC0009C440020984400202C45002010B50B4BEB
:109DD0001B788BB90A4801F0C5FA08B101F08AFB7B
:109DE00007484FF41601002201F074FA044608B146
:109DF00001F080FB204610BD082010BDA4440020C7
:109E0000A8440020F0B585B005461F4696080323F8
:109E100068460C468DE8280002910396FFF7E4FEA1
:109E2000E0B1B4F5805F11D8012368468DE82800C1
:109E300002940396FFF7D8FE80B9032368468DE8A5
:109E4000280002940396FFF7CFFE07E0E81BE11B12
:109E50003A463B46FFF7D6FF0028E5D005B0F0BDF7
:109E60007FB500210C2201A8FEF7AAFA154B019339
:109E7000154B164E164D00241C70164B314601A88A
:109E80001C8000F037FB014608B12C7018E043F24B
:109E9000080311481B68114A736001F009FA08B100
:109EA00001F028FB0E484FF41601002201F012FACF
:109EB00008B101F01FFB0B4B0020186001232B7031
:109EC00004B070BDED9B0700944400209C4400202A
:109ED0009844002096440020C8D20700519C0700F7
:109EE000A844002028450020014B1860704700BF9F
:109EF0009044002070B54368214C0FCB84E80F00DC
:109F00002378590701D59A0732D161681C488E071A
:109F10002ED1826895072BD1C068840728D11144BF
:109F200001441848B2F5E04F0160064622D843F2DA
:109F300008021268C2F5E22291421BD8124C134A61
:109F40002260134A6260DA0701D5124B03E09B07D7
:109F50004CBF114B114BA360114B1B78012B0BD144
:109F6000FFF734FF054648B923683068984705E095
:109F7000062070BD0C2070BD082070BD284670BD45
:109F8000C84400202C450020D84400205D9D0700D7
:109F9000F59C0700B59C0700799C07001D9D0700F4
:109FA000984400202DE9F347064600284BD08368EB
:109FB0009B074AD12A4B1B78052B48D1294D446871
:109FC0002B68A400E118284B1A6891422F469A4644
:109FD00004D94FF0FF332B600C203DE0FFF7F6FE75
:109FE000002839D1B668DFF88490FEF7DFFA8046A2
:109FF00040B1D9F800002B683146224600F08EFAB5
:10A0000090B129E043F208022B68106831461844E9
:10A0100022464346FEF7FAFC0094D9F800000121DD
:10A0200042463346FFF7E2FD3B681C44DAF8003055
:10A030003C609C420DD1FEF7B9FA044658B9FEF7D0
:10A04000C7FC204608E00E2006E0102004E00820AF
:10A0500002E0092000E0002002B0BDE8F08700BF68
:10A0600098440020284500202C450020244500204D
:10A0700070B50B4B1D6885B90A4E3378042B0CD193
:10A08000094C0A4B0A4821781A78FEF73DFD10B9B1
:10A090000523337070BD257070BD082070BD00BFF2
:10A0A000284500209844002094440020C844002003
:10A0B000E4440020F8B5144B1A78032A074602D06E
:10A0C000042A02D019E004221A70104B1B68A3B9AD
:10A0D000FFF77CFE044690B90D4D7E682B78B600E4
:10A0E0009A19402A0DD80B48B9681844324603F033
:10A0F0008EF82B781E442E7001E00820F8BD204613
:10A10000F8BD0920F8BD00BF984400202845002074
:10A1100094440020E444002038B50D4C2378052BEE
:10A1200014D10C4B0C4D1A682B689A420ED10623A1
:10A130002370FFF74BFE50B9084B29681B6858681D
:10A14000FEF722FD18B90723237038BD082038BD5B
:10A1500098440020284500202C450020244500205C
:10A1600008B5084B1B78072B09D1074801F0FAF80E
:10A1700008B101F0BFF9054B9B68984708BD08205E
:10A1800008BD00BF98440020A8440020D844002007
:10A1900000B589B006238DF80C30079B009303AB04
:10A1A0000FCBFEF7F5FD09B05DF804FBF0B58DB0FF
:10A1B00005A8FEF74BFF089C002C38D00B9D04F53A
:10A1C0008053AB4227D943F20803A5F580571B689B
:10A1D000A3424FEA570708D37A00501902F580517D
:10A1E0003B46A21AFFF70EFE20E007F5805301263A
:10A1F00001A80196029303930496FFF7F5FCA8B912
:10A200004FF4805301A80196029303930496FFF73D
:10A21000EBFC58B9E0E701230193A4084FF4805305
:10A2200001A8029503930494FFF7DEFC0446204640
:10A230000DB0F0BD00B58DB005A8FEF707FF099879
:10A2400078B1089B1BB943F208031B6801E00B9A25
:10A25000134480080022039001A801920293FFF7A3
:10A26000C3FC0DB05DF804FB00B58DB005A8FEF78A
:10A27000EDFE099890B1089B1BB943F208031B68D7
:10A2800001E00B9A134403228008019204904FF4DA
:10A29000F02201A802920393FFF7A6FC0DB05DF82F
:10A2A00004FB10B58CB005A8FEF7D0FE089A32B3B7
:10A2B0000B9802F58053834213D943F208031B68BD
:10A2C00093421BD3A0F580535B0823F47F6323F0F4
:10A2D0000F035C00204404F58051121BFFF792FD30
:10A2E0000AE00323019303904FF48053920801A8DE
:10A2F00002930492FFF778FC024600E00E2210461B
:10A300000CB010BD29DF704728DF704737B50B460A
:10A31000024608465C6850F80C5F09780094034CCC
:10A320005B6954F82540A04703B030BD24460020A7
:10A3300070B5184A1378182101FB03210B1D097908
:10A340001869012916460DD0032921D14FF08053F9
:10A350001B699BB2B0FBF3F00F4B1B681844FFF76F
:10A36000D3FF11E00C4A5D68146859699B682403A7
:10A370002A1BB2F5805F18442144204434BF920860
:10A380004FF48062FFF7BEFF18B90123B37070BDB0
:10A390000F2070BD304500203846002070B5144CA9
:10A3A00065780A2D21D026783544EDB2092D88BF75
:10A3B0000A3D4FF0180688BFEDB206FB054505F1D2
:10A3C00010062871AA6103C986E80300AB60049BEC
:10A3D000EB60A3780BB1002003E0FFF7A9FF112881
:10A3E000F9D063780133637070BD042070BD00BF85
:10A3F0003045002070B5274B9A781C46002A48D07B
:10A40000002202289A7002D0032833D070BD1D7834
:10A41000182101FB0531204B8E681868043101308A
:10A42000B6EB003F18601AD81A606378013B63707E
:10A430006B1CDBB2092B88BFA5F109030020237038
:10A44000FFF764FF182303FB05452B4600222A7102
:10A4500043F8082F04219960DA60AA615A60637892
:10A460000C4DB3B1AB78A3B9FFF762FF88B11128E7
:10A4700006D170BD1A78182101FB02310D2003E0CE
:10A480002B78182202FB03510431BDE87040FFF71E
:10A490003DBF70BD3045002038460020114A0023E2
:10A4A0001360114A13705370937002F1180302F590
:10A4B00084720020042103F8140C43F8100C43F8B4
:10A4C000081C43F8040C186043F80C0C1833934232
:10A4D000EFD1064B1860064B186058609860D86042
:10A4E000704700BF38460020304500203446002029
:10A4F00024460020074A1368042B08D00B60591C1F
:10A500001160054A016842F8231000207047184680
:10A51000704700BF344600202446002073B515461E
:10A52000CA180A43920706460C4607D100933146E3
:10A5300022462B460120FFF731FF00E0102002B039
:10A5400070BD13B5002204460B460092214603203D
:10A55000FFF724FF02B010BDA8DF7047AADF7047E5
:10A56000ADDF7047AEDF7047B0DF704762DF704726
:10A570002DE9F047884694B00546002800F0368162
:10A58000002900F033814B68002B00F02F814FF63B
:10A59000FF730380994B04AA03F11006174618684D
:10A5A0005968144603C40833B3422246F7D114AEA7
:10A5B00041F2305338460DF10A0126F8483DFFF7C5
:10A5C000D5FF002840F01481012031462A1DFFF7F5
:10A5D000C3FF0446002840F00C819DF80A30AB719F
:10A5E00021461C220DA8FDF7EBFE9DF834300E9499
:10A5F00043F004038DF8343001AFAB798DF80E30A1
:10A60000214641F232530322384610941194129499
:10A610001394ADF80C30FDF7D3FE9DF8043064F3CD
:10A62000030364F307138DF804309DF80530012609
:10A6300066F3030366F307138DF805309DF80630C3
:10A6400066F3420364F3C30364F30413DBB23343DE
:10A650002146142208A88DF806300DF10C09FDF7EB
:10A66000AFFE4FF0140AA888ADF828400DA908AA3B
:10A6700005F10803ADF82A400C94CDF82090099715
:10A68000ADF82CA0FFF76AFF0446002840F0B18027
:10A6900021461C220DA8FDF793FE9DF834300E9440
:10A6A00043F018038DF83430AB798DF80E30214625
:10A6B00041F23153032238461094119412941394AA
:10A6C000ADF80C30FDF77CFE9DF8043064F3030315
:10A6D00064F307138DF804309DF8053066F3030327
:10A6E00066F307138DF805309DF8063066F34203D4
:10A6F00064F3C303DBB243F011032146524608A8BA
:10A700008DF80630FDF75CFE1723ADF82C30A888D5
:10A71000ADF828400DA908AA05F11003ADF82A40AC
:10A720000C94CDF820900997FFF718FF04460028F5
:10A730005FD121461C220DA8FDF742FE9DF8343062
:10A740000E9443F002038DF83430AB798DF80E305F
:10A75000214641F234530322384610941194129446
:10A760001394ADF80C30FDF72BFE9DF8043066F322
:10A77000030366F307138DF804309DF8053064F386
:10A78000030364F307138DF805309DF8063066F374
:10A79000420364F3C30364F30413DBB2334321467F
:10A7A000524608A88DF80630FDF70AFE0223ADF8E0
:10A7B0002830ADF82C30A888ADF82A400DA908AA99
:10A7C00005F12003CDF820900997CDF83080FFF7F0
:10A7D000C5FE044668B9D8F80430AB62D8F8083032
:10A7E00003B1EB62064B01221A7002E00E2400E076
:10A7F0000446204614B0BDE8F08700BFCCD2070065
:10A800003C46002070B5054686B070B302884FF60E
:10A81000FF739A422BD0174B1B7843B3164CC1F3EE
:10A820000720E1702071C1F30740090E07231022B1
:10A8300001266071A17102A800216370ADF8063095
:10A840002270A670FDF7BCFD2B8AADF808300023FE
:10A85000ADF80C3028888DF80A600DF1060302A9C6
:10A8600004930594FFF77EFE02E00E2000E008202E
:10A8700006B070BD3C4600203D46002030B5054680
:10A8800087B068B302884FF6FF739A422AD0174BFD
:10A890001B783BB3164C11232370C1F3072361705F
:10A8A000A370C1F30743090EE3702171052302A8C9
:10A8B00000211022ADF80630FDF782FD2B8AADF89D
:10A8C000083001238DF80A300023ADF80C302888B9
:10A8D00005940DF1060302A90493FFF743FE02E07D
:10A8E0000E2000E0082007B030BD00BF3C4600202D
:10A8F0003D46002030B5044687B030B300884FF69F
:10A90000FF73984223D0134B1B7803B3124D1023CF
:10A9100069700321ADF80610AA7002A81A4600213A
:10A920002B70FDF74DFD238AADF8083001238DF81B
:10A930000A300023ADF80C30208805950DF1060390
:10A9400002A90493FFF70EFE02E00E2000E00820AB
:10A9500007B030BD3C4600203D46002070B50D4696
:10A9600088B00446002800F0C380002900F0C080B1
:10A97000826A002A00F0BC800B88112B1BD004D8FF
:10A98000102B40F0B5808B8817E0502B02D0512B54
:10A9900015D0ADE0C9880389994240F0A980082309
:10A9A0008DF81030123535F8023C8DF818300595C9
:10A9B00004A990479CE04FF6FF73238098E08B79C1
:10A9C000022B40F095800A89038A9A4240F09080D9
:10A9D0008B7B043B022B40F28B809DF8163043F0BA
:10A9E00001038DF816300B8AADF818304B8AADF89C
:10A9F0001A30022601F114030822002101A88DF863
:10AA000010600793FDF7DCFC00230DEB03020292BC
:10AA10002088A18AADF8046001AAADF80630FFF7DE
:10AA20009FFD064618B1E36A2BB1984703E09DF8F5
:10AA30000030DB0708D440F2FD132088ADF8143055
:10AA400004A9FFF791FD4FE0ADF8140004A9208898
:10AA5000FFF78AFD002847D1297D4B1E072B3FD8E1
:10AA6000DFE803F0040E1D1F21233C256B8A8DF8BF
:10AA70000460012B02D82046012109E0012309E0EE
:10AA80006A8A01239A428DF8043003D820460221B5
:10AA9000062227E015358DF80C30029519E00223C7
:10AAA00015E0032313E0042311E005230FE06B8A74
:10AAB000022B02D82046082113E0AA7D6B7D43EAD1
:10AAC0000223ADF808300BB9072300E006238DF808
:10AAD0000430A36A204601A9984709E00923F6E754
:10AAE00020460322FFF706FF10B1E36A03B198473F
:10AAF00008B070BDA8DF7047AADF70472DE9F043AA
:10AB000081468FB015461F460E4611B9084600F023
:10AB1000F1FC15B9284600F0EDFC07A800211C2225
:10AB2000FDF74EFC9DF81C30ADF80490002443F076
:10AB300002034FF001082146684603228DF81C30BD
:10AB400008940A940B940C940D948DF80680FDF7EC
:10AB500037FC3B788DF800307B788DF801309DF81C
:10AB6000023068F3420303F0E70364F30003214675
:10AB700002A814228DF80230FDF722FC01AB0293EB
:10AB80000DEB04030393084BADF810501888169B87
:10AB9000ADF8124007A902AAADF814500696FFF7C7
:10ABA000ABFF0FB0BDE8F0838C46002030B587B016
:10ABB00006A941F60A03044621F80C3D01206A4A21
:10ABC0008DF80E00FFF796FF002840F0CA8022881B
:10ABD00012B92289C2B10BE0644B009342F62920DE
:10ABE000616804F13C03FFF789FF0028F1D0B8E069
:10ABF0005F4B009342F62420E16804F13C03FFF729
:10AC00007DFF002840F0AD80228A5AB1594B009355
:10AC100042F62520616904F13C03FFF76FFF00282D
:10AC200040F09F80228B5AB1534B009342F627206D
:10AC3000E16904F13C03FFF761FF002840F09180D7
:10AC4000228C5AB14D4B009342F62620616A04F1E2
:10AC50003C03FFF753FF002840F08380228D52B160
:10AC6000474B009342F62820E16A04F13C03FFF7CA
:10AC700045FF002875D1256B002D42D02B688DF83B
:10AC80001030D5E900234FF47F40104000211940D7
:10AC9000020A42EA01628DF81120D5E900234FF43F
:10ACA0007F00104000211940020C42EA01428DF859
:10ACB0001220D5E900234FF07F40104000211940B9
:10ACC000020E42EA01228DF81320D5E90023FF216C
:10ACD00019408DF81410AB688DF81530C3F30722B6
:10ACE000C3F307438DF81730264B8DF816200093D9
:10ACF00042F6232004A9082204F13C03FFF7FEFEDC
:10AD000078BB636B0BBBA06B58B303788DF8103026
:10AD100043888DF811301B0A8DF8123083888DF826
:10AD200013301B0A8DF81430C3888DF815301B0AB8
:10AD30008DF81630144B009304A9072204F13C034C
:10AD400042F65020FFF7DAFE0BE010491A79009125
:10AD5000196842F62A2004F13C03FFF7CFFE0028D1
:10AD6000D1D007B030BD00BF8C4600205C4600202B
:10AD70004C4600207C46002074460020844600207B
:10AD800044460020544600206C46002064460020C3
:10AD9000094B5A7899780132D2B2914208BF002209
:10ADA0001978914206D002705A78182000FB0233BD
:10ADB000181D70470020704798460020082910B5DC
:10ADC000044602D0002000F095FB23686068984795
:10ADD00010BD000073B5054602A8002400F8014D1F
:10ADE0000E4600F095FB0DF10600FFF7D1FF30B1E4
:10ADF00006700A4B9DF8062045605A7000E0042456
:10AE00009DF8070000F0AAFB24B9054B4FF480120F
:10AE1000C3F80021204602B070BD00BF9846002054
:10AE200000E100E0204B21491A682F2300BF00BF3A
:10AE300000BF00BF00BF00BF00BF00BF8A422FD0CD
:10AE400000BF00BF00BF00BF00BF00BF00BF00BF0A
:10AE500000BF00BF00BF00BF00BF00BF00BF00BFFA
:10AE600000BF00BF00BF00BF00BF00BF00BF00BFEA
:10AE700000BF00BF00BF00BF00BF00BF00BF00BFDA
:10AE800000BF00BF00BF00BF00BF00BF00BF00BFCA
:10AE900000BF00BF00BF00BF00BF00BF00BF00BFBA
:10AEA000013BC3D1704700BF783000200024F4007C
:10AEB00038B50C4B0C4C4FF40032C3F88020012500
:10AEC0004FF48033C4F84833C4F808336560FFF7A3
:10AED000A9FF064BA56000241C60FFF7A3FF044BED
:10AEE0001C7038BD00E100E00010014090460020D9
:10AEF000B047002073B52549254B0022C1F84021F9
:10AF0000C1F84421C1F84821C1F84C21C1F8002101
:10AF1000C1F804211B68002B35D0D1F804551D4918
:10AF200009686D1A25F07F4514461A68954215D3B5
:10AF3000AD1A14441A7CDE696AB100221A745A6987
:10AF400000929B69144A01936846082100F03EFA7A
:10AF500008B100F0CFFA0EB13346E6E70F4B19788F
:10AF60000F4B1A788A4205D10132D2B2022A08BFA9
:10AF700000221A701A780B4B43F822400A4B4FF408
:10AF80008012C3F8002102B070BD00BF0010014064
:10AF90009446002090460020BDAD0700A547002044
:10AFA000A4470020A847002000E100E02DE9F74F6A
:10AFB0009B4B9C481A7800789B499C4D0C689042AA
:10AFC00088462ED00132D2B2022A08BF00221A705F
:10AFD0001A78974B53F82220131923F07F430B6004
:10AFE00000262B683046C3B119688A4203D28A1AF8
:10AFF0002B601A6012E0521A084400211960D968C7
:10B00000DF6941B100EB040C2CF07F4CDE61C3F82A
:10B0100004C099601E463B46E5E72B604FF00109EE
:10B0200001E00026B146D5F800B04FF0000A4EB15D
:10B030003446F6692DE02A6817461046002F63D182
:10B04000002323747B4B19785A788A4268D01820E1
:10B0500000FB01309C780131C9B28C42197008BFE5
:10B060001E7003798468021D022BE4D0032B49D0A3
:10B07000012BE7D1217C0029E4D193686360D36878
:10B08000A3601369E3605369A3616B4B1B7803B141
:10B0900061606268D8F80010684B501A20F07F4059
:10B0A0009842A36801D8034407E08A1A22F07F423D
:10B0B00093428CBFC2EB0303002329682360012263
:10B0C00000236360A360E3612274584B41B122689E
:10B0D0000868824201D90B4609E0821A0A60E161E0
:10B0E0001C60A4E7121AD86940B1194603461868D3
:10B0F0008242F7D8801A186018460B462260E06139
:10B10000DC6194E72B6804E0A74268D03846FF6909
:10B1100094E71BB100221A74DB69FAE72B6091E710
:10B12000BAF1000F05D12B68B3EB0B0318BF012355
:10B1300000E0012313B9B9F1000F4AD02B68002BAE
:10B1400045D03F4CD8F80060D4F804553D4FD3F8B3
:10B1500000903B78C6EB050A2AF07F4A0AF1030A01
:10B160009BB94FF48033C4F84433C4F80433364BEE
:10B170004FF400314FF00108C3F880111960C4F892
:10B180000080FFF74FFE87F80080CA452CBF06EB12
:10B190000A0206EB090222F07F42C4F84025D4F8E7
:10B1A0000415274B491B21F07F41521B033122F02C
:10B1B0007F4291420DD9D3F80425C3F84025FFF70B
:10B1C00031FE214B4FF40032C3F8002101E0FFF7BC
:10B1D0006FFE194B00221A7003B0BDE8F08FB84221
:10B1E00011D1D3692B6073B9DFF854E00121CEF897
:10B1F0000810C8F80030104B197001900092FFF74A
:10B2000011FE009A0198F9693B68C16111B10868A3
:10B2100003440B602B689A4218BF4FF0010A0FE7F6
:10B22000A5470020A4470020904600209446002017
:10B23000A847002098460020A6470020FEFF7F0078
:10B2400000100140B047002000E100E008B5FFF722
:10B250002FFE114B00200B2218709A7058700F4B64
:10B2600018600F4B18700F4B18700F4B4FF4801273
:10B27000E021C3F8802183F814131A6002F18042A0
:10B28000A2F56F22C2F8080583F81113074BD2F814
:10B2900004251A6008BD00BF98460020944600208F
:10B2A000A5470020A447002000E100E090460020D0
:10B2B000074B9B784BB132B128B10368187C20B999
:10B2C00059745A617047072070470820704700BFC3
:10B2D000984600202DE9F7431F4FBB7804460D46E2
:10B2E0009046002B34D098B304292FD943697BB3FF
:10B2F000437C02A80026012B00F8016D0CBF894693
:10B30000B14600F005F90DF10600FFF741FD80B1EF
:10B3100001220270114A4460D2F804159DF80630EB
:10B320008160C560C0F81090C0F814807B7034460E
:10B3300000E004249DF8070000F010F924B9084B40
:10B340004FF48012C3F80021204602E0072000E0FD
:10B35000082003B0BDE8F0839846002000100140AB
:10B3600000E100E0064A92783AB130B1426922B178
:10B37000002202740221FFF72DBD0820704700BF94
:10B380009846002012F0030310B511D1094C226039
:10B390004C1CE400A4B22244074C2260074A1370FC
:10B3A000074A1370074A1080074A1180184610BDDB
:10B3B000072010BDB4470020B8470020BF47002039
:10B3C000BE470020BC470020C04700202DE9F347BE
:10B3D0002A4B91461A888A4206460D46984646D31D
:10B3E00002A8002400F8014D00F092F8244B2549F2
:10B3F0001878254B09881A78D2B28A4238BF541C73
:10B40000C0B238BFE4B284420AD01C781A78D2B2F3
:10B410008A423ABF0132D2B20022E4B21A7001E08D
:10B420004FF6FF749DF8070000F098F84FF6FF7391
:10B430009C421ED0DFF858A0DAF80030E700DA1995
:10B4400043F8349086B17DB1104BB8F800001B680A
:10B45000314600FB04302A4601F0D9FEDAF800300C
:10B460001F440020BD8005E00020908002E00920FC
:10B4700000E0042002B0BDE8F08700BFBC47002018
:10B48000BE470020C0470020BF470020B84700202B
:10B49000B447002070B5114C114A237812789A42B3
:10B4A0001BD023780F48104A068812680F48DBB279
:10B4B00019B202EBC105006852F83120A98806FBD9
:10B4C000030090470A4A23781288DBB29A4286BF6B
:10B4D0000133DBB200232370DDE770BDBE470020DF
:10B4E000BF470020BC470020B4470020B8470020D9
:10B4F000C04700201FB50021039001AA44F20100BB
:10B50000ADF804100291FDF747F805B05DF804FBB3
:10B5100070B5EFF3108572B60D4A9468012394B9A3
:10B5200093600C4B0C49D3F88060314011600A499C
:10B53000C3F88010D3F8841051604FF0FF32C3F885
:10B540008420047000E0037005B962B670BD00BFCE
:10B55000645B002000E100E0FC06FFBD10B5084B75
:10B560009A685AB150B9EFF3108172B6054A1C6857
:10B5700014605C685460986001B962B610BD00BF89
:10B58000645B002000E100E030B504460AB1108899
:10B5900001E04FF6FF7000238B420ED042BAE55C0B
:10B5A00092B26A40C2F30310424082EA023292B27F
:10B5B000D0B282EA40100133EEE730BD064B074AB5
:10B5C00000201870064B1A6008225A609860D860F4
:10B5D0001861586198617047C05A0020C447002024
:10B5E000A45A00200020704730B5F1B1124B5A68C0
:10B5F00000240C60DAB1B0F5167F1AD8013A5A600F
:10B60000DA6818680132DA601A694FF4177505FBB9
:10B61000020008609969012090400132014302F064
:10B62000070299611A61204630BD0E2030BD04200A
:10B6300030BD0C2030BD00BFA45A00202DE9F041E0
:10B640001B4B9C688CB35A691D68141B04F00704DB
:10B6500021464FF4177606FB0156B04206D19A698F
:10B660000120884042409A61002005E0013101F04C
:10B6700007019142EDD110209E689F69D3F804C064
:10B68000324604E06AB14C1C04F00704013A4FF062
:10B69000010808FA04F406EB0C053C42C2EB050570
:10B6A000F0D09A605D60BDE8F0810420BDE8F081D3
:10B6B000A45A0020064B1A691B68013A4FF417710F
:10B6C00002F0070201FB0232C2F858020020704764
:10B6D000A45A002030B5C0B1B9B10E4BDA68B2B18E
:10B6E000013ADA609A681C6801329A605A694FF42C
:10B6F000177505FB02440132046002F00702D4F81A
:10B7000058025A610860002030BD0E2030BD042070
:10B7100030BD00BFA45A002030B50B4A116885B077
:10B7200079B10A4B1C6864B109480391002305688C
:10B730008DF8043013600360029504AB13E9070031
:10B74000A04705B030BD00BFD85A0020D05A002015
:10B75000E05A0020DC2810B506D0DD280CD0C02827
:10B7600013D1FFF7D9FF17E00D4A0E4B1968136884
:10B77000581C1060C02206E0094A0A4B1968136879
:10B78000581C1060DB22CA5406E0064B044A1968B4
:10B7900013685C1CC8541460034B044A1A6010BD43
:10B7A000D85A0020E05A002070300020E1B707008E
:10B7B000C02802D1014B024A1A6070477030002045
:10B7C000E1B7070008B5DB2000F0A4FD10B9024B7B
:10B7D000024A1A6008BD00BF7430002069B9070032
:10B7E000C02810B505D0DB2807D1084B084A1A60DD
:10B7F00010BDBDE81040FFF78FBF064B064A196821
:10B8000013685C1CC854146010BD00BF7030002069
:10B8100055B70700E05A0020D85A002010B5064A54
:10B82000064C12682368D05C00F074FD10B92368E0
:10B830000133236010BD00BFDC5A0020C45A002031
:10B8400008B5C02000F066FD28B9034B1B6813B98A
:10B85000024B034A1A6008BDC45A0020743000200D
:10B860001DB807001FB51B4C1B4B22681B689A4272
:10B870001A4B17D21A4A21681268515CC02903D0AA
:10B880002168525CDB2A06D11A6816498A4202D125
:10B89000124A154911601B689847042818D01128CE
:10B8A000E1D115E0114A1A60FFF7CAFF80B9104BC9
:10B8B00001221A700F4B1B6853B18DF80420084AFF
:10B8C000126802922268039204AC14E907009847B8
:10B8D00004B010BDC45A0020C85A002074300020A3
:10B8E000DC5A00201DB80700C5B7070041B80700A3
:10B8F000D45A0020D05A00201FB50378032B0446E9
:10B9000005D1134B1B78022B01D1FFF7ABFF237836
:10B91000042B1BD10F4B1A682AB10F4B19680F4B20
:10B920001B6899420ED30E4B1B687BB102920A4AE8
:10B93000022112688DF80410039204AC14E9070088
:10B94000984703E0074B20791B68984704B010BD67
:10B95000D45A0020E05A0020D85A0020CC5A0020A7
:10B96000D05A00207030002010B50C4A0C4C1268E0
:10B970002368D35CC02B03D0DB2B0CD1DD2000E08F
:10B98000DC2000F0C7FC38B92368064A0133236085
:10B99000054B1A6010BD042010BD00BFDC5A00200A
:10B9A000C45A00201DB8070074300020014B1860F5
:10B9B00000207047D05A0020F0B50C4E377887B081
:10B9C0008FB90B4D0FCD6C460FC495E80300094AA3
:10B9D00084E8030007236846394600F04DFC18B997
:10B9E0000123337000E0002007B0F0BDD45A0020DE
:10B9F000DCD20700F9B80700024B00221A7000F0F1
:10BA00009DBC00BFD45A002010B5C0B10D4B1A78B0
:10BA1000012A04D0022A0CBF0420082010BD0A4AC3
:10BA200000241460094A1160094A106002221A7049
:10BA3000084B094A1A60FFF715FF204610BD102079
:10BA400010BD00BFD45A0020C45A0020C85A00209C
:10BA5000DC5A00207430002041B80700054B064A2C
:10BA60001860064B1960064B00201860054B1A60E1
:10BA7000704700BFE05A0020B1B70700CC5A002041
:10BA8000D85A002070300020064B07481B68DB00A6
:10BA9000DBB20022037004215B4242708270C370EB
:10BAA000FFF7B2BF005B0020E95A002010B5024644
:10BAB0002A4C2378012B13D002D3022B1ED010BDA9
:10BAC000002A4AD12648FFF74DFC08B1FFF712FDC6
:10BAD000244B1B68002B40D0234A1078984710BD98
:10BAE000012A3AD1214B1968214B06311868FFF71A
:10BAF0008BFF08B1FFF7FEFC02230CE0022A19D0ED
:10BB0000032A01D04ABB09E01A4B1A68013202F03D
:10BB100007021A60002323700022C9E7164B104861
:10BB20001A6041F67F21FFF7D5FBB0B1BDE81040A8
:10BB3000FFF7E0BC104B1A68052A0AD001321A60E0
:10BB40000A4B19680A4B06311868BDE81040FFF728
:10BB50005BBF054B01221A70DCE710BDF45A0020D0
:10BB6000085B0020F85A0020FD5A0020045B0020EA
:10BB7000345B0020285B0020F05A0020F0B585B02F
:10BB800004AB03E907009DF80400029C039D032811
:10BB900057D8DFE800F008025255012005B0BDE893
:10BBA000F040FFF783BF032D514E38D9637813F06F
:10BBB0000F021DD00E2A32D1042D78D022785006E3
:10BBC00075D5110673D5A1781A440A44E1780A4460
:10BBD00012F0FF026BD1AF1E20463946FFF7D4FCAE
:10BBE000E3195A78E35D43EA022398425FD12DE0DE
:10BBF0002278A17813440B44E1780B4413F0FF033F
:10BC00000DD13C4909680131C2F3C20201F00701BC
:10BC10008A4204D1384A03201370FFF747FF346883
:10BC2000334D0CB1204643E04FF416702946FFF720
:10BC3000DBFC002858D0042840D13048052139E0E9
:10BC4000032005B0BDE8F040FFF754BC2C4A217832
:10BC5000136801F00701D8B288421BD1013303F009
:10BC600007031360FFF710FF264B012228461A70C6
:10BC7000FFF720FD08B1FFF73DFC1D4C4FF4167097
:10BC80002146FFF7B1FCE8B104282AD00020FFF7D5
:10BC900031FC26E030684FF41671FFF7DFFE08B183
:10BCA000FFF728FC05B0BDE8F040FFF7EDBE3068B7
:10BCB0004FF41671FFF7D2FEC0B1C2E72046FFF77E
:10BCC00019FCBAE720684FF41671FFF7C7FE08B1F8
:10BCD000FFF710FC0C4B1B6843B14FF00000984776
:10BCE00004E006480521F0E72868E1E705B0F0BD6B
:10BCF000305B0020285B0020FD5A0020E45A002021
:10BD0000005B0020FC5A00202C5B00200220FFF783
:10BD1000CDBE0000074B10B5044618600648FFF77B
:10BD200045FE08B1FFF7E6FB002C0CBF0E200020FB
:10BD300010BD00BF2C5B00207DBB0700174A1848D0
:10BD4000002310B51360174A1360174A1360174A8F
:10BD50001370174A1370174B174A01211960174BBC
:10BD60001960174B1970FFF7A3FA08B1032010BD33
:10BD7000FFF724FC88B9FFF71FFE70B9114C4FF490
:10BD800016702146FFF730FC0028EFD120684FF4F1
:10BD90001671BDE81040FFF761BE10BD345B002096
:10BDA000F4D20700045B0020F05A0020FC5A002067
:10BDB000F45A0020005B00200DBD0700285B002026
:10BDC000FD5A0020305B00200C4A08B500231360A8
:10BDD0000B4A1360FFF706FC08B1FFF78BFBFFF778
:10BDE0000BFE08B1FFF786FB0648FFF7BBFA0428F5
:10BDF00002D10020FFF77EFB002008BDF85A00208A
:10BE00002C5B0020085B002037B50D46044690B13E
:10BE100089B10A4B19780022019251B101A91A7017
:10BE2000FFF758FC019B063B2B80236804332360FB
:10BE300002E0042000E00E2003B030BDFC5A0020D8
:10BE40000438FFF7FBBB0000BFF34F8F054A064BDA
:10BE5000D16801F4E0610B43D360BFF34F8F00BFA3
:10BE6000FDE700BF00ED00E00400FA0508B5A74BB0
:10BE70001B78062B0FD1A64B1B6818070BD1A54BBF
:10BE80001B6803F0F002302A00F0108103F0E00399
:10BE9000402B00F00B819D4B1B78062B0AD19C4B4D
:10BEA0001B68190706D19B4B1B6803F0F003302B6E
:10BEB00000F00381954B1B78062B0FD1944B1B6828
:10BEC0001A070BD1934B1B6803F0F002302A00F0E5
:10BED000F88003F0E003402B00F0F3808B4B1B78DD
:10BEE000062B0AD18A4B1B681B0706D1894B1B689E
:10BEF00003F0F003302B00F0EB80844B1B78062B13
:10BF00000FD1834B1B6818070BD1824B1B6803F0C2
:10BF1000F002302A00F0E28003F0E003402B00F052
:10BF2000DD807A4B1B78062B0AD1794B1B681907E9
:10BF300006D1784B1B6803F0F003302B00F0D8805B
:10BF4000724B1B78062B0BD1714B1B6813F00F0340
:10BF500006D1704A126802F0F002302A00F0CC805C
:10BF60006A4B1B78062B0AD1694B1B681A0706D14E
:10BF7000684B1B6803F0F003502B00F0ED80634B1F
:10BF80001B78062B0FD1624B1B681B070BD1614B33
:10BF90001B6803F0F002302A00F0268103F0E00372
:10BFA000402B00F02181594B1B78062B17D1584BA1
:10BFB0001B68180713D1574B1B6803F0F002302A97
:10BFC00003D003F0E003402B09D14FF08043D3F8B6
:10BFD0000024D20703D56FF00102C3F800244E4BB2
:10BFE0001B68062B04D14D4B1B68062B00F0038108
:10BFF0004B4BD3F8882042F47002C3F88820BFF37B
:10C000004F8FBFF36F8F4FF01023D3F80C22D1075F
:10C010001DD5444B0122C3F80425D3F80024002A7F
:10C02000FBD04FF01023D3F80C2222F00102C3F80A
:10C030000C223C4BD3F80024002AFAD00022C3F88B
:10C040000425D3F80024002AFBD0FFF7FDFED3F827
:10C050000022002A03DBD3F80432002B22DA314B12
:10C060000122C3F80425D3F80024002AFBD04FF0A6
:10C0700010221521C2F80012D3F80024002AFBD0A8
:10C080004FF010231522C3F80422264BD3F80024C6
:10C09000002AFAD00022C3F80425D3F80024002A8D
:10C0A000FBD0D2E7204B214A1A6008BD204B1A680A
:10C0B000204BC2F304221A60EDE61F4B1F4A1A60A0
:10C0C000F8E61F4B1A681F4BC2F342321A6005E7AD
:10C0D0001D4BDA6822F08072DA600EE74FF0804381
:10C0E0000022C3F80C21C3F81021C3F8382518E743
:10C0F000164B03221A6023E7154A0521116001211E
:10C1000091679360134B3F221A6029E7E00F00F01C
:10C11000E40F00F0E80F00F03001001034010010CF
:10C1200000ED00E000E00140783000200090D003F6
:10C13000240300104035014074C007400DF0ADBA33
:10C14000440200103C050040F0ED00E0A005004076
:10C1500010560040145600404FF08052294BD2F840
:10C160000414C3F82015D2F80814C3F82415D2F823
:10C170000C14C3F82815D2F81014C3F82C15D2F8F3
:10C180001414C3F83015D2F81814C3F83415D2F8C3
:10C190001C14C3F84015D2F82014C3F84415D2F883
:10C1A0002414C3F84815D2F82814C3F84C15D2F853
:10C1B0002C14C3F85015D2F83014C3F85415D2F823
:10C1C0003414C3F86015D2F83814C3F86415D2F8E3
:10C1D0003C14C3F86815D2F84014C3F86C15D2F8B3
:10C1E0004424C3F87025CAE6074B1A68074B02F0CF
:10C1F0004F021A60D7E6064B1A6842F480621A6052
:10C20000F6E600BF00C0004058020010E40E0040F7
:10C210003C17004013B50478012C0ED104238DF88F
:10C220000030436810491B7810488DF804302246CE
:10C2300000F0DEFA0E4B1C7010E0022C09D1C3682E
:10C2400009490A488DF800400122019300F0D0FA14
:10C2500004E03CB902A8032300F8083D054B6846FA
:10C260001B68984702B010BD405B00207C30002066
:10C27000415B00203C5B0020F0B5204D0646174690
:10C280009E460FCD89B06C460FC495E80F0084E838
:10C290000F00337C71690691003318BF01238DF8BC
:10C2A0001430737C8DF81CE0002B0CBF00230E2390
:10C2B0008DF81530F3680293B368039333680193E4
:10C2C000736800930E4B0F481F600F4B00221A70CB
:10C2D00069460E4A00F0A4F868B9336801330AD001
:10C2E0009DF81D3013B9074800F05CFB054808496C
:10C2F000012200F07DFA09B0F0BD00BFF8D20700BE
:10C300003C5B00207C300020415B002015C2070010
:10C31000405B0020074908B501220870064800F07C
:10C32000E5F9112804D000280CBF0020032008BD27
:10C33000042008BD385B00207C30002008B502488E
:10C3400000F050F9002008BD7C300020002343504D
:10C3500082B043580193019B02B0704700234350C1
:10C3600082B043580193019B02B0704738B50C4628
:10C370004FF48E710546FFF7E9FFA28AA36892B2D7
:10C380009B5CA28A013292B2A282C5F81C3538BDEC
:10C390001FB5034601208DF800008DF808100192AA
:10C3A00068465A681968904705B05DF804FB1FB5E8
:10C3B0000346002282758DF8081081688DF80020F0
:10C3C0000191426819686846904705B05DF804FB22
:10C3D00010B504464FF492710068FFF7B7FF20686C
:10C3E0004FF48471FFF7B2FF236801221A6010BD79
:10C3F00038B5CB7D0C4605464FF4847123B9FFF761
:10C40000A5FFD5F8183538BDFFF7A0FF627EE368B9
:10C41000D5F818159954637E0133DBB2637638BDC5
:10C420002DE9F047044600796B4B4FEA401A03EBC5
:10C430000A051E46EF7E002F40F0CB804F7F2F77FE
:10C440000F68781C0ED04FF0010C0CFA07F74FF074
:10C45000A04C4FF00308CCF808750F6807F5E0779B
:10C460004CF827804F68781C07D007F5E07C4FF028
:10C47000A0474FF0000847F82C802779206806EB8A
:10C48000471797F81CC08F69C0F82475BCF1000FDE
:10C490001ED091F8148091F815C0206848EA0C0766
:10C4A000C0F86C7591E801012768C7F80C05C7F85A
:10C4B00014850F7D012F42D18F68781C25D007F598
:10C4C000E07C4FF0A0474FF0000847F82C801CE0BC
:10C4D00091F8149091F81580206849EA0807C0F88F
:10C4E0006C752768D1F800904868C7F81405C7F83C
:10C4F0000C950F7D012F22D18F68781C05D007F590
:10C50000E0784FF0A04747F828C0CF68781C0ED0DD
:10C510004FF0010C0CFA07F74FF0A04C4FF0030856
:10C52000CCF80875CF6807F5E0774CF827802768C6
:10C53000D1F80880C868C7F80805C7F810856A6090
:10C540000F6943F80A707AB323790F7F206806EBEE
:10C5500043131B7FABB14FF48871FFF7FFFE2068D8
:10C560004FF49071FFF7FAFE20684FF49271FFF7D5
:10C57000F5FE20684FF4A271FFF7F0FE2368174A1A
:10C580000AE04FF48E71FFF7E1FE20684FF4A271CC
:10C59000FFF7DCFE2368124AC3F8042320683946FB
:10C5A00040F3073000F00EFB237906EB4316337F90
:10C5B00013B12368082201E023680422C3F8002590
:10C5C00000200123E8752876A875EB76A876BDE8EB
:10C5D000F0870820BDE8F087445B002010030200CC
:10C5E00080000200F0B53D4B027903EB4212117F4F
:10C5F00021B101680024C1F8004502E00468C4F8D4
:10C6000000155168C1B1017903EB4111097F11B1E6
:10C610000168334C01E00168324CC1F808430168FD
:10C62000090B4DB201246D0901F01F0104FA01F15B
:10C6300020352D4C44F82510017903EB41131B7F65
:10C640007BB103684FF0FF31D3F80C75D3F8146554
:10C65000D3F80845D3F81055C3F80C15C3F81415D2
:10C660000EE003684FF0FF31D3F80C75D3F8146572
:10C67000D3F80845D3F81055C3F81415C3F80C15B2
:10C680000368C3F80815C3F810157B1C06D007F51E
:10C69000E0774FF0A043022143F82710701C06D02A
:10C6A00006F5E0764FF0A043022143F82610691CFE
:10C6B00006D005F5E0754FF0A043022143F82510A0
:10C6C000631C06D004F5E0744FF0A043022143F848
:10C6D00024100023D3765360F0BD00BF445B0020DC
:10C6E000100302008402020000E100E0F8B50546F4
:10C6F00000793E4B40011C18247F24B101F06044B6
:10C70000B4F1005F6ED103449E7D002E6CD19A750A
:10C7100099609E822C79354B286803EB4414277F5F
:10C720003FB34FF49071FFF719FE4FF4AC712868D6
:10C73000FFF714FE2B68A268A17DC3F84425C3F857
:10C7400048152B6801229A60636883B92A68D2F879
:10C750002011D2F85831003318BF012311B9002B32
:10C76000F5D039E0002B0CBF00200F2035E030461B
:10C77000F8BD4FF48E71FFF7E9FD2B6801229A6036
:10C7800028682146FFF7F2FD63684BBBA37DA28AB0
:10C7900092B29A4212D22868D0F81C2142B1A28AE1
:10C7A00092B2B2F5807FF2D02146FFF7DFFDEDE7D0
:10C7B000A28A92B2B2F5807FEED1F0E7A38A9BB253
:10C7C000B3F5807F08D02B68D3F81C21002AFBD05A
:10C7D0000122DA60002000E00F200023A375F8BDDD
:10C7E0003846F8BD1020F8BD1120F8BD445B00208C
:10C7F0002DE9F84303796A4E5B019146F21804462D
:10C80000127F0F4622B101F06041B1F1005F25D1E6
:10C810003344596849B11AB122684FF4047102E0F7
:10C8200022684FF40171C2F80813D97DC9B11A7E8C
:10C83000002A00F0AB805B686BB1237906EB4316EE
:10C84000337F1BB123684FF4047202E023684FF476
:10C850000172C3F804231120BDE8F8831020BDE85D
:10C86000F88383F81790DF60597619768846257922
:10C8700006EB45152B7F002B40D020684FF48871C4
:10C88000FFF76CFD20684FF4A271FFF767FD236886
:10C89000C3F83475C3F838952368B8F1000F02D196
:10C8A00001221A6005E0D3F8002242F02002C3F80A
:10C8B00000222079400133185A682368DAB9D3F886
:10C8C0001041D3F84421D3F82411003218BF0122BB
:10C8D000003118BF012114B90AB90029EFD0002393
:10C8E00030449942C37514BF032018469A4218BFBA
:10C8F0000F20BDE8F8834FF404723CE0AB7E2BB907
:10C90000B8F1000F02D12046FFF762FD6B687BBBD8
:10C9100020684FF4A271FFF719FD2068D0F8243188
:10C92000D0F80821D0F84461003318BF0123003645
:10C9300018BF012612B97EBB63B9EEE70BB1012324
:10C9400008E03EB92946FFF753FD6B7EEA7D9A4227
:10C95000E3D833460022EA7593B9A6B9A97E2368C5
:10C96000012209B11A6000E05A603046BDE8F88340
:10C9700023684FF40172C3F804230020BDE8F88354
:10C980000320BDE8F8830F20BDE8F8831F6183F81A
:10C9900018904FF001086AE7002BDBD0CFE700BF0B
:10C9A000445B002038B50379084C04EB431305467B
:10C9B0001A7F183342B99B7833B9FFF709FD2B79F9
:10C9C00004EB43140123A37638BD00BF445B002071
:10C9D0007FB57A4C7A4D237F002B69D0D5F824613E
:10C9E000D6B128464FF49271FFF7B8FC02238DF8B8
:10C9F0000030D5F88034C5F880340393D5F83C3541
:10CA00008DF80830E36801930023E37523766846C8
:10CA100063682168984721E0D5F81031F3B14FF4ED
:10CA200088712846FFF79AFCD5F83C35E17DDBB2EA
:10CA3000994213D1237E63B1D5F80002E26820F059
:10CA40002000C5F80002E3752369E36026762046DE
:10CA500002E0E268E3752046FFF79AFC584DD5F8EE
:10CA600044317BB128464FF4A271FFF777FCE37D98
:10CA700052483BB10023C375D5F83C15C268C9B212
:10CA8000FFF786FC4E4DD5F82031002B00F0948046
:10CA900028464FF49071FFF761FCA37D002B00F056
:10CAA0008B80D5F84C154548C9B2FFF780FC83E070
:10CAB000D5F804339A0525D5D5F8243113B3284683
:10CAC0004FF49271FFF742FC4FF40173C5F808333D
:10CAD000A37E0BB901236B60394A02238DF8003025
:10CAE000D2F88034C2F880340393E37D8DF80830A7
:10CAF000E36801930023E375237668466368216841
:10CB000098472CE02E4ED6F804335B0727D5D6F88D
:10CB1000083123B3294D30462946FFF769FC637E6F
:10CB2000E27D9A421BD12B7E4BB1EB752B69EA68F3
:10CB3000EB600023697E2B766B7628460DE0AB7E9A
:10CB40000BB9012373601E4B1C484FF40172C3F8EC
:10CB50000823617EE2680023E375FFF719FC18489B
:10CB6000D0F81C3193B1A38AA27D144D9BB29A4296
:10CB700003D92946FFF7FAFB08E04FF48E71FFF75F
:10CB8000E5FBA97D11B12846FFF711FC0C4DD5F846
:10CB900044318BB128464FF4A271FFF7D7FBA37E37
:10CBA0000BB101232B60E37D04482BB10023C37537
:10CBB000417EC268FFF7ECFB04B070BD445B00200F
:10CBC0000020004000284FEA411105DA00F00F0272
:10CBD0000C4BC9B2995406E000F1604303F5614380
:10CBE000C9B283F8001300F01F034009800000F170
:10CBF000604000F56140012202FA03F3C0F8803181
:10CC00000360704714ED00E00649074A074B9B1A82
:10CC100003DD043BC858D050FBDCFFF727F9FBF7D6
:10CC200045FB000024D30700003000209030002096
:10CC3000FEE7FEE7FEE7FEE7FEE7FEE7FEE7FEE7CC
:10CC4000FEE7FEE74BB942B9002908BF002802D031
:10CC50004FF0FF31084600F03BB882B0EC462DE9BA
:10CC6000005000F01DF8DDF804E002B00CBC704785
:10CC70002DE97043069E14461D468046894600F005
:10CC800029F804FB01F300FB0533A4FB00451D4418
:10CC9000B8EB040469EB0505C6E90045BDE87083FF
:10CCA0002DE97043069E1446804689461D4600F0D5
:10CCB0005DF900FB05F504FB0153A0FB04451D4491
:10CCC000B8EB040469EB0505C6E90045BDE87083CF
:10CCD000704700BF00292DE9F00FC0F29F800024AB
:10CCE000002BC0F29680154606460F46002B3ED11B
:10CCF0008A4257D9B2FA82F34BB1C3F1200201FA4A
:10CD000003F720FA02F29D40174300FA03F6290CBC
:10CD1000B7FBF1F2330C01FB127CA8B243EA0C47DB
:10CD200000FB02F3BB4209D97F1902F1FF3C80F0FE
:10CD30000181BB4240F2FE80023A2F44FF1AB7FB4A
:10CD4000F1F3B6B201FB137146EA014100FB03F0B7
:10CD5000884208D9491903F1FF3780F0ED808842F5
:10CD600040F2EA80023B43EA0242002303E08B42A6
:10CD70000AD900231A461046194614B1404261EB05
:10CD80004101BDE8F00F7047B3FA83F8B8F1000F26
:10CD900040F084808B4202D3824200F2DE80002386
:10CDA0000122E8E712B90123B3FBF2F5B5FA85F2E7
:10CDB000002A39D17F1B280C1FFA85FC0123B7FB01
:10CDC000F0F1320C00FB117742EA07470CFB01F24D
:10CDD000BA4207D97F1901F1FF3802D2BA4200F2F4
:10CDE000C1804146BF1AB7FBF0F2B6B200FB127029
:10CDF00046EA00400CFB02FC844507D9401902F1C9
:10CE0000FF3702D2844500F2AB803A4642EA014243
:10CE1000B1E7E443524263EB430364E7404261EB12
:10CE200041014FF0FF345BE79540C2F1200327FA40
:10CE300003F1280C26FA03F39740B1FBF0F81F43E7
:10CE40003B0C00FB18111FFA85FC43EA01410CFB67
:10CE500008F38B4206FA02F608D9491908F1FF32A5
:10CE600079D28B4277D9A8F102082944C91AB1FBBB
:10CE7000F0F3BFB200FB131147EA01470CFB03F2CA
:10CE8000BA4207D97F1903F1FF3160D2BA425ED9A5
:10CE9000023B2F44BF1A43EA084390E7C8F120023F
:10CEA00003FA08FC25FA02F343EA0C0C4FEA1C498A
:10CEB00021FA02F301FA08F720FA02F2B3FBF9F1C2
:10CEC000174309FB11333A0C1FFA8CFB42EA034368
:10CED0000BFB01FA9A4505FA08F008D913EB0C038D
:10CEE00001F1FF3235D29A4533D902396344CAEB96
:10CEF0000303B3FBF9F209FB1233BFB247EA03475E
:10CF00000BFB02F9B94508D917EB0C0702F1FF3307
:10CF10001BD2B94519D9023A674442EA0145A5FB3B
:10CF20000001C9EB07078F424FF000030AD305D079
:10CF30002A4620E7624601E73B4614E706FA08F670
:10CF40008642F5D26A1E002315E71A46E5E70B462E
:10CF5000A0E71146CBE7904688E7434642460AE7FA
:10CF6000023A53E702392F443CE700BF2DE9F00FA6
:10CF7000144605460E46002B43D18A4253D9B2FAD5
:10CF800082F757B1C7F1200620FA06F601FA07F337
:10CF900002FA07F41E4300FA07F5210CB6FBF1F282
:10CFA0002B0C01FB1267A0B243EA074600FB02F319
:10CFB000B34209D9361902F1FF3780F0F680B34247
:10CFC00040F2F380023A2644F61AB6FBF1F3ADB212
:10CFD00001FB136145EA014100FB03F0884208D9D7
:10CFE000091903F1FF3680F0E280884240F2DF80C9
:10CFF000023B43EA0242002310461946BDE8F00F07
:10D0000070478B424AD8B3FA83F6002E4DD18B423B
:10D0100002D3824200F2D680002301221046194634
:10D02000BDE8F00F704712B90124B4FBF2F4B4FA72
:10D0300084F2002A7CD1091B260CA7B20123B1FB84
:10D04000F6F02A0C06FB101142EA014107FB00F240
:10D050008A4207D9091900F1FF3C02D28A4200F244
:10D06000C3806046891AB1FBF6F2ADB206FB12111D
:10D0700045EA014507FB02F7AF4208D92C1902F136
:10D08000FF3180F09680A74240F29380023A42EA54
:10D09000004210461946BDE8F00F704700231A46BB
:10D0A00010461946BDE8F00F7047C6F1200522FA78
:10D0B00005F4B3401C434FEA144821FA05F301FA82
:10D0C00006F720FA05F5B3FBF8FC2F4308FB1C33E9
:10D0D0003D0C1FFA84FA45EA03430AFB0CF9994513
:10D0E00002FA06FB04D91B190CF1FF326DD39446EA
:10D0F000C9EB0303B3FBF8F508FB1533BFB247EAEE
:10D1000003470AFB05F8B84504D93F1905F1FF3379
:10D1100061D31D4645EA0C4CACFB0B23C8EB07075B
:10D120009F424FF0000549D345D062462B4663E746
:10D130009440C2F1200321FA03FC260C20FA03F3E9
:10D1400001FA02F5BCFBF6F843EA05010B0C06FBFD
:10D1500018CCA7B243EA0C4C07FB08F3634500FA6E
:10D1600002F509D91CEB040C08F1FF323AD26345F1
:10D1700038D9A8F10208A444C3EB0C0CBCFBF6F3AD
:10D1800089B206FB13CC41EA0C4107FB03F28A4249
:10D1900007D9091903F1FF3022D28A4220D9023B74
:10D1A0002144891A43EA084349E73A460CE73346E3
:10D1B0001FE70A466BE7B0409042B6D20CF1FF324F
:10D1C000002319E73346324616E799458FD9ACF16B
:10D1D000020C23448CE7B8459BD9023D274499E7CC
:10D1E0000346DEE79046C7E7023821443AE700BF2E
:10D1F00030B50023934208D0C55C0133CC1814F835
:10D20000014CA542F6D0281B30BD002030BD10B522
:10D210000023934203D0CC5CC4540133F9E710BD22
:10D22000034613F8012B002AFBD1181A0138704766
:10D23000F8B500BFF8BC08BC9E467047F8B500BF03
:10D24000F8BC08BC9E467047430000000030002038
:10D2500000100200000000000000000000000000BC
:10D260000338FDD8704700000000000000000000F7
:10D2700070430020000000000000000000000000DB
:10D280000338FDD8704700000000000000000000D7
:10D290004164614446550044657361790044532DEF
:10D2A000443600302E322E31312D392D673636314D
:10D2B000383237632D6469727479207331333220C8
:10D2C000362E312E31000000A844002023D1BCEAC4
:10D2D0005F782315DEEF1212000000001600000038
:10D2E0001700000000000000000000000000000027
:10D2F00000E0D701085B0020FFFFFFFFFFFFFFFFFB
:10D30000FFFFFFFFFFFFFFFF000000000000000025
:0CD3100000E0D701070100000000000051
:08D31C0090AFFF7F010000004B
:10D3240000000000000000000000000000000000F9
:10D3340000000000000000000000000000000000E9
:10D3440048D20700000000000000000000000000B8
:10D3540000000000000000000000000000000000C9
:10D3640000000000000000000000000000000000B9
:10D3740000000000000000000000000000000000A9
:10D384007C7F0020FFFFFFFFFFFFFF003200000053
:10D39400B1B707001DB807000090D003002000407B
:10D3A400000000007982070051820700000000009D
:020000020000FC
:020000041000EA
:041014000080070051
:0410180000E00700ED
:040000037000CC09B4
:00000001FF
