:0200000270008C
:108000007C7F0020C9C70700F1C70700F3C707003E
:10801000F5C70700F7C70700F9C707000000000011
:108020000000000000000000000000009988070028
:10803000FDC7070000000000FFC70700AD8707006D
:108040009189070003C8070099C5070003C8070006
:1080500003C8070003C8070003C8070003C80700D8
:1080600003C8070003C8070003C8070003C80700C8
:1080700003C8070003C8070003C8070003C80700B8
:1080800003C8070075AB070003C8070003C8070053
:1080900031AC070003C80700CD86070003C80700FE
:1080A00003C8070003C8070003C8070003C8070088
:1080B00003C8070003C8070000000000000000001C
:1080C00003C8070003C8070003C8070003C8070068
:1080D00003C8070003C8070003C80700000000002A
:1080E0000000000000000000000000000000000090
:1080F0000000000000000000000000000000000080
:10810000000000000000000000000000000000006F
:10811000000000000000000000000000000000005F
:10812000000000000000000000000000000000004F
:10813000000000000000000000000000000000003F
:10814000000000000000000000000000000000002F
:10815000000000000000000000000000000000001F
:10816000000000000000000000000000000000000F
:1081700000000000000000000000000000000000FF
:1081800000000000000000000000000000000000EF
:1081900000000000000000000000000000000000DF
:1081A00000000000000000000000000000000000CF
:1081B00000000000000000000000000000000000BF
:1081C00000000000000000000000000000000000AF
:1081D000000000000000000000000000000000009F
:1081E000000000000000000000000000000000008F
:1081F000000000000000000000000000000000007F
:1082000010B5054C237833B9044B13B10448AFF3D0
:1082100000800123237010BD8C300020000000007E
:108220000CCC070008B5034B1BB103490348AFF35F
:10823000008008BD00000000903000200CCC07003A
:10824000154B002B08BF134B9D46A3F5803A002128
:108250008B460F461348144A121A00F063F80F4B6E
:10826000002B00D098470E4B002B00D098470020E1
:10827000002104000D000D48002802D00C48AFF387
:10828000008000F02BF82000290000F095F800F0A5
:1082900011F800BF000008007C7F002000000000F3
:1082A000000000008C300020DC5A0020000000009C
:1082B0000000000008B5074B044613B10021AFF3DE
:1082C0000080054B1868836A03B19847204600F088
:1082D00031F800BF0000000068CB070070B50D4DFD
:1082E0000D4C641BA4100026A64209D10B4D0C4C6A
:1082F00004F02EFC641BA4100026A64205D170BD1C
:1083000055F8043B98470136EEE755F8043B98478B
:108310000136F2E7843000208430002084300020D1
:108320008830002002440346934200D1704703F88E
:10833000011BF9E7FEE700BFBFF34F8F0549064B6E
:10834000CA6802F4E0621343CB60BFF34F8F00BFF3
:10835000FDE700BF00ED00E00400FA054BDF7047C9
:1083600010DF704711DF704713DF704718DF704769
:1083700060DF704769DF704761DF704708B5034B06
:108380001B68DB0700D500BEFFF7D6FFF0ED00E06D
:10839000014B1878704700BFA93000201FB500239B
:1083A000CDE901330393684602230093FFF7DEFF14
:1083B00005B05DF804FB00002DE9F0474FF0804365
:1083C00086B0D3F81C95D3F81C25A9F1B100D0F1E3
:1083D000000848EB0008B12A00F01981D3F81C45C9
:1083E000A4F1A8014C424C41904D914F04F001037F
:1083F0002B704FF08043D3F81C6574B94E2E0CD00F
:10840000D3F81C25572A08D03A681168894A914246
:1084100009D1D3F80034DA0705D54FF080430022A4
:10842000C3F81C250124844B40F20B22C3F84025DD
:10843000824B1B68B3F5F02F02D0002002F0B2FE91
:1084400000F056F900F034FC002000F0B7F900F01D
:10845000A3FC78B1052000F0B1F900F0AFFC08B141
:1084600002F0A0FE00F0D0FC08B102F09BFE062056
:1084700000F0A4F91CB91E2000F030F9044643F2C4
:108480000803186800F05CFB824644B938B13B68C9
:10849000684A1A604FF47A71204600F021FC3B686C
:1084A00000221A602B78002B40F0B3804E3E18BF9C
:1084B00001262E701CB9BAF1000F40F09180002EF9
:1084C00000F0AD80082000F079F9B9F1B10F01D0CA
:1084D000FFF764FF4FF4F020FFF746FF08B102F00A
:1084E00061FE574B57491868019001A8FFF738FF04
:1084F00008B102F057FE544991F816335A09EC239B
:108500001341DB0708D5514B9A68002A00F083809D
:108510001A6842F480021A600C224D4B029300212B
:108520000DEB0200FFF7FEFE40F20113029A0393E7
:1085300003A94020FFF71EFF08B102F033FE0C2212
:1085400000210DEB0200FFF7EDFE9DF80C30029AC2
:1085500043F0010303A9A0208DF80C30FFF70AFFB8
:1085600008B102F01FFE0C2200210DEB0200FFF704
:10857000D9FE01238DF80C30029AF72303A923209A
:10858000ADF80E30FFF7F6FE08B102F00BFE0C223C
:1085900000210DEB0200FFF7C5FE01238DF80C3022
:1085A0008DF80E30029A062303A92020ADF8103072
:1085B000FFF7E0FE08B102F0F5FD02A8FFF7D8FED4
:1085C00008B102F0EFFD4FF001080021287800F01B
:1085D00087FB08B102F0E6FD2B780BB1FFF7C2FE76
:1085E00000F0C8F843F20803186800F0A9FA60B177
:1085F00000F0D2FB48B9B8F1000F01D1FFF7CEFE71
:1086000043F20803186800F09FFBFFF795FE012472
:10861000EAE601264DE74FF480030B607CE7022079
:1086200000F0CCF8012000F0C9F8CEE7A930002016
:1086300060300020D51A5A0000A00040141000102D
:108640006CCB07007D83070000E100E0D05A0020DA
:108650000030002010B5FEB04FF4FA730DF10201A6
:1086600001A8ADF80230FFF787FE044640B9BDF817
:108670000430102B07D0112B0CD001A800F04CFEB9
:1086800020467EB010BD054B01221A70072000F075
:1086900095F8F2E7014B18700820F8E7A8300020A1
:1086A00013B501A8FFF75AFE044610B9019801F06E
:1086B00063FD204602B010BD08B5FFF7CBFF0528CB
:1086C000FBD1FFF7EDFF0528F7D108BD0021024AD5
:1086D000084602F0CFBC00BFB98607004FF0A043A8
:1086E000D3F8103523FA00F0C04300F001007047C2
:1086F00008B54FF0804301220021DA60C3F8181555
:108700009A604FF0A043154AC3F87827144B4FF4F2
:10871000C85043F001039847124A1E21082002F076
:1087200085FC08B102F03EFD02F0E8FB0E490F4B5C
:10873000E02081F823001B684FF47A72B3FBF2F358
:10874000013BB3F1807F07D2094A5360002381F8CF
:10875000230093600723136008BD00BF0C000300D3
:1087600070CB0700AC30002000ED00E07830002036
:1087700010E000E00C4B00221A604FF40032C3F806
:108780007021F03303F1C04303F53C534FF48032C2
:10879000C3F84823C3F8082301225A609A604FF0B7
:1087A0008043DA60704700BF10E000E0024A1368BF
:1087B00001331360704700BF9C32002070470000F7
:1087C00038B50C4C21684B1C054612D04FF4805232
:1087D000094804F099F948B115B1206800F012F980
:1087E0004FF480620449206800F024F94FF0FF3311
:1087F000236038BD64300020A03200202DE9F04114
:108800000F4E904620F47F64326824F00F04A24299
:1088100005460F4609D01846FFF7D2FF4FF48052A5
:1088200021460848346004F07DF90648C5F30B057D
:10883000424639462844BDE8F04104F073B900BF10
:1088400064300020A032002038B50C46F8B9096821
:10885000D9B1104A914215460CD0531A3B2B12D96C
:108860003C22284604F05EF904E0C85CD05413F1C1
:10887000FF33FAD200223C21064802F0DBFC002341
:10888000A887236038BD3D23F1E70E23F9E70123D4
:10889000F7E700BF807F00206FF00203064A9E4585
:1088A00002D1EFF3098101E0EFF308818869A0F1BB
:1088B00002000078104700BF4988070038B5054618
:1088C000A8B10D4C00223C21204602F0B3FCA38F3E
:1088D00083420ED1224604F13C0152F8040B45F8C4
:1088E000040B8A42F9D10133A387002038BD0E2042
:1088F000FCE70B20FAE700BF807F00200B2970B552
:108900000446154630D90389053300EB430301447F
:10891000CA1AD2B2012A27D98B4225D81946134840
:1089200004F000F92388522B06D1AB0711D06288DE
:108930004AF6AF539A420CD00F2014E034F8022BC1
:10894000824204D02E88964203F1010308D1002010
:1089500009E0218900230A344FF6FE7043F20C052A
:108960009942EBD80B2070BD0920FCE7A042002003
:1089700008B5002202F05EFC044A5178137843EAFD
:108980000123984214BF0B20002008BDA042002004
:1089900010B54FF08043D3F80443610709D5D3F8ED
:1089A000082103F5847322B100221A600D4B1B6865
:1089B0009847A20607D50C4B1A6822B10020186010
:1089C0000A4B1B68984763060AD5094B1A683AB1E7
:1089D00000221A60054B01201B68BDE810401847B3
:1089E00010BD00BFAC42002014010040B042002086
:1089F00018010040024AD2F80034002BFBD0704727
:108A000000E001400A4908B50223C1F80435BFF36C
:108A10006F8FBFF34F8FC1F80805FFF7EBFF0023FF
:108A2000C1F80435BFF36F8FBFF34F8F08BD00BF90
:108A300000E001400E4B10B50124C3F80445BFF31C
:108A40006F8FBFF34F8F01EB8204401AA14208D110
:108A5000074B0022C3F80425BFF36F8FBFF34F8F7E
:108A600010BD431851F8042B1A60FFF7C3FFEDE760
:108A700000E0014011DF704713DF7047064B1878A4
:108A8000012803D1012904BF0221197012B1104637
:108A900002F088BB704700BFE042002070B50E4C6A
:108AA0000E4D0F4ED4F800347BB1C4F80056C4F814
:108AB0000456C4F80856C4F80C56C4F81056C4F846
:108AC0001456C4F81856C4F81C5602F039FB337813
:108AD000023B022BE6D870BD000001403546526EC5
:108AE000E042002008B5FFF753FC88B11C21114873
:108AF00001F0DCFB08B102F055FB00231C220E49FB
:108B00000C4801F0C3FB98B1BDE8084002F04ABB35
:108B10004FF4FE20FFF776FF072207494FF4FE20AF
:108B2000FFF788FF054B1A78012A04BF02221A704A
:108B300008BD00BFD8420020E4420020E0420020EF
:108B400007B50368013303D1002003B05DF804FBCF
:108B500001A800F087F9019B1A88012AF4D15888EE
:108B600030B1996843F208030022186802F062FBF2
:108B7000019B5B881B1A58425841E6E784B02DE9F7
:108B8000F34108AC84E80F009DF82040BDF8228036
:108B90000B9D01A8DDE9097600F064F954B9384B62
:108BA0000122FF21A3F802809D601A809980354B35
:108BB0001A7012E0012C17D1314BBA192A449A606D
:108BC000A5221A80FF229A800C9AA3F80280C3E99A
:108BD00003765D619A612B4B1C70FFF783FF02B037
:108BE000BDE8F04104B07047032C0FD1019A244B2B
:108BF00011881980518892689A60C3E90376AA2285
:108C000059809A805D611F4B0122D1E7022C15D15A
:108C1000019A1B4B1188A5290AD100229A60FF22D4
:108C20001A60FF229A800022C3E903225A61EAE710
:108C300019805188926859809A60F2E7052C0ED10C
:108C4000FFF7A6FB40B100F041FD08B102F0AAFA1F
:108C50000C4B03221A70C2E700F0FAF9F5E7042C76
:108C600008D1074B00229A60FF221A60019A92886D
:108C70009A80B2E7062CB2D1024B0422EAE700BF89
:108C8000E4420020E042002000B5084B1B7889B088
:108C900043B905238DF80C30079B009303AB0FCB32
:108CA000FFF76CFF09B05DF804FB00BFD442002061
:108CB0001FB50023CDE90233074B019301F0B0FA51
:108CC00030B906494FF4FE2301A84B6001F0CAFAFF
:108CD00005B05DF804FB00BF7D8A0700D842002084
:108CE00070B505460E4600F07FFF044628B935B141
:108CF00000F048FC0446FFF7D1FE204670BDBEB12F
:108D00000D4B0E4A0E481D70294602F027F94FF40C
:108D100000444FF4FA7000214FF47A720023E4FB10
:108D2000060103F06FFD2A460146064802F028F9C5
:108D300000F06AF9DEE700BFD4420020898C07000A
:108D400078CB0700B442002038B5FFF793FE08B196
:108D500002F028FA0F490D680023012404FA03F2F7
:108D60002A4207D05A0903F01F00203204FA00F00B
:108D700041F822000133272BF0D143F20804206888
:108D8000FFF77AFE08B102F00DFA2068BDE838401E
:108D900000F08CB800E100E007B501A800F062F82F
:108DA000019B1A88A52A07D09888A0F1AA035842E7
:108DB000584103B05DF804FB0120FAE710B501F05B
:108DC00035F9A8B10E4B0F4843F00103984701F065
:108DD000ADF808B102F0E6F901F028F908B102F0A7
:108DE000E1F901F0EBF8044638B102F0DBF904E0F8
:108DF00001F0FEF804460028E4D1204610BD00BF73
:108E000080CB070000A8610000B589B003AB142235
:108E100000211846FFF786FA02228DF80C20002266
:108E200000920FC8FFF7AAFEFFF738FE002009B036
:108E30005DF804FB13B5044601A800F013F8019B8C
:108E40001A8822805A8862809A68A2609A88A280D2
:108E5000DA68E2601A6922615A6962619B69A361FA
:108E600002B010BD014B0360704700BF00F0070067
:108E7000F0B50346186880F308885868FF2464B288
:108E8000EFF30585002D01D1A6460047254606468D
:108E900021273FBAF0B40024002500260027F0B4B3
:108EA000F92040B2004700BFF0BD00BFFFF7E0BFB0
:108EB00073B500230DF1020101A8ADF80230019352
:108EC00002F014FEF8B9019C25785DB3174B93F8B6
:108ED0003020032A28D00C2606FB00F29958E9B965
:108EE00098189D5093F830200132D2B283F8302088
:108EF000BDF802300E4A9B08013B04344360846095
:108F0000084602F0B7F8019B33B128B1184602F0C9
:108F100009FE08B102F046F902B070BD0130042824
:108F2000DAD1F0E70720EEE70420ECE70043002069
:108F3000798F070010B50C230B4A4343D418D1583E
:108F400081B192F83010A0680139C9B282F83010AE
:108F50000021D150C4E90111043802F0E3FD08B149
:108F600002F020F9002010BD0043002011B1084696
:108F700002F018B970470000214B70B50122214E54
:108F80001A7096F8303003B970BD1E4C0025236866
:108F900083B1013B042B07D8DFE803F01C06120362
:108FA0002800204600F0C0FEE8B2FFF7C3FF08B17A
:108FB00002F0F8F80135042D04F10C04E7D1E0E7E4
:108FC000A3686360204600F059FE0028ECD002F050
:108FD000E9F8E9E7204600F02FFF00F00BFF08B1A9
:108FE00002F0E0F80520FFF7E9FBDDE700F054FFB1
:108FF00000F076FF0620BDE87040FFF7DFBB00BF42
:10900000D44200200043002008B50E4B002283F814
:10901000302011460132042A1960C3E9011103F11D
:109020000C03F7D1084800F023FE02F0F7FC08B16A
:1090300002F0B8F8054802F0DDFC08B102F0B2F821
:10904000002008BD004300206D8F0700B18E07008F
:1090500008B50020FFF76EFF0120FFF76BFF02202D
:10906000FFF768FF0320FFF765FFBDE8084002F047
:109070001DBD006870476CDF70476DDF70476EDFA5
:1090800070476FDF704772DF704773DF704774DFC0
:10909000704776DF704777DF70477ADF70477CDF95
:1090A00070477FDF704786DF70478FDF704790DF44
:1090B0007047AFDF7047B0DF7047B1DF7047B2DF96
:1090C0007047B5DF704764DF704766DF70470C2874
:1090D00013D8DFE800F0141212121212091207124C
:1090E000120D0B00022070470320704704207047C8
:1090F000042914BF06200520704706207047012070
:10910000704702F04FB810B5044608460321FFF738
:10911000DEFF03210246204601F05EFA18B1BDE8E9
:10912000104002F03FB810BD032810B50B4614469E
:1091300020D0042825D169B1124B18884FF6FF734F
:1091400098421ED01321FFF7A4FFD0B1BDE8104014
:1091500002F028B8104602F0C9F808B102F022F86F
:10916000094B1B689C420CD101220321074801F0E6
:1091700033FAEAE701211846FFF7A9FF0121024669
:10918000F4E710BD6A300020F4430020A44300201F
:10919000F8B50A4CA3889E181D2E15460DDC2768CD
:1091A000FE1802F1010C07F803C07070B01C03F048
:1091B000B9FCA28802322A44A280F8BD54430020A0
:1091C000F0B54A4D2C7893B0002C40F08A80484E80
:1091D000102221463046FFF7A5F8464B336018228F
:1091E00021460CA8FFF79EF828230E93424B1B78CC
:1091F00001278DF8307006AE002B74D021463F4C0D
:10920000102202A8FFF78EF8102202A9E01D03F039
:109210007BFC002867D03A4839460460FFF72FFFEF
:1092200008B101F0BFFF374B374603F1100C186847
:1092300059683A4603C2083363451746F7D1206898
:10924000A2880A903048A379ADF82C200021012291
:109250008DF82E300660FFF714FF08B101F0A2FF71
:1092600003238DF8443004238DF8063041F2305347
:10927000ADF80830254B32469B798DF80A300DF158
:10928000070102A8FFF71FFF012210460DF106019A
:10929000FFF77EFF1E4803F053FC1D49C2B20920B0
:1092A000FFF776FF102231460620FFF771FF0CAA68
:1092B0000F491848FFF7E7FE08B101F073FF154C9E
:1092C000042221780120FFF7E6FE08B101F06AFFD1
:1092D00001212078FFF7D9FE08B101F063FF0123D7
:1092E0002B7013B0F0BD0623BEE700BFD8430020AB
:1092F0005443002034430020A04300206443002056
:10930000F04300206B430020D4430020A4430020FE
:1093100086CB070068300020F0B504460146B1B0A6
:109320008E4801F08DF92388212B00F0048142D86A
:10933000112B00F09C8007D8012B00F0BE80102B71
:1093400000F08E8031B0F0BD142B00F0D4801A2BC9
:109350005BD0132BF6D1824B03AC9A7918689988AD
:109360008DF822200790DA1DADF82010173326461D
:1093700010685168254603C508329A422C46F7D139
:10938000784B09AA03F1180715461868596814465E
:1093900003C40833BB422246F7D1186820607248E4
:1093A000724A008810AB8521CDE91456FFF779FE8B
:1093B0000028C7D0B5E0512B00F085801ED8232BA4
:1093C00000F0B280262BBDD1237A012BBAD1684B95
:1093D00000221A70674B196801391960002969D198
:1093E00010AB14221846FEF79DFF05228DF8402091
:1093F000149A00920FC8FFF7C1FBA3E7552B00F0AA
:10940000A380562B4CD0522B9CD1574B1C884FF627
:10941000FF75AC4200F08480574B1B78002B79D04D
:109420000123082255492046FFF747FE002878D13E
:109430000246014602232046FFF73FFE002870D176
:109440002A460C212046FFF734FE43F202039842DD
:109450003FF478AF08283FF475AF1128A8D171E721
:10946000414BA2881A80424B00221A706AE780237F
:10947000ADF824303C4C3F4B208832221A6010A9B2
:10948000012309AAFFF71BFE08B101F08BFE3C4B3C
:109490001B780BB9FFF794FE4FF6FF73238051E75B
:1094A000A379002B7FF44EAF2F4B13211888FFF7C1
:1094B000F0FD7DE7FFF784FE44E72B4B0021188881
:1094C000FFF703FE74E7A379002B3FF43BAFA27BC9
:1094D000043A022A3FF636AF022B18BF01238DF85B
:1094E00040304FF4C173ADF844301F4B10A91888B9
:1094F000FFF7E1FD5CE71A4A258A518D02F1180059
:1095000000238D420CBF014619460732A088FFF7A1
:10951000CAFD4DE71A4619462046FFF7CEFD47E73C
:10952000082001F03FFE0DE70F4B0022114618887E
:10953000FFF7BDFD3CE70023ADF840300A4B10A912
:109540001888FFF7B2FDFDE6E188074BF72928BF31
:10955000F7211888FFF7B5FD2AE700BFA4430020D4
:10956000644300207C4300206A300020E643002052
:10957000D84300206C300020A043002098430020F6
:10958000EB43002030B5434A434800231370434A5D
:1095900095B0137000F06CFB01F068FE04460028E3
:1095A00061D13F48FFF78AF900285FD13D4B012286
:1095B0001A7011233C488DF8043003F0C1FA3A497F
:1095C00082B201A8FFF76BFD08B101F0EBFD0822A4
:1095D000002104A8FEF7A6FE344A4FF0C87304A881
:1095E000CDE90423FFF759FD08B101F0DBFD0021AF
:1095F0000C2201A8FEF796FE0823ADF804302C4B90
:10960000029301A92B4B2C48039300F067FE08B18D
:1096100001F0C8FD294D4022002104A8FEF782FE7A
:10962000284603F08DFA0595254DADF81000284623
:1096300003F086FA0795234DADF81800284603F08D
:109640007FFA1123ADF8300004A8ADF84C300D9529
:1096500001F00CF91C4B30221A7007225A701022AC
:109660009A70FFF7ADFD204615B030BD04A8FFF796
:1096700004FD08B101F096FD9DF8113004A80133F6
:109680008DF81130FFF7F7FC002892D001F08AFD29
:109690008FE700BFEB43002029910700E54300203E
:1096A00064430020A043002086CB07000800180078
:1096B0001D97070003910700A44300208DCB0700EE
:1096C00093CB070099CB0700E643002010B50F4B62
:1096D00001221A700E4B18884FF6FF73984207D07C
:1096E0001321FFF7D6FC08B101F05CFD002010BD8E
:1096F000084C2278002AF9D0074B1878FFF7C7FCEE
:1097000008B101F04FFD00232370EFE7EB43002089
:109710006A300020D843002068300020F0B50B7874
:1097200089B005460C46092B23D8DFE813F02B003F
:10973000330042000A0018002400FE000701450023
:109740000C0100F0A9FB0421FFF7C1FC0421024633
:10975000284600F041FF60B101F024FD09E0FFF769
:10976000B5FF08B101F01EFD00F0BAFB08B100F032
:10977000CFFB09B0F0BDFFF7A9FF0028F7D001F03B
:1097800011FDF4E7724B01221A704B681A78714B85
:109790001A70EEE76E4B02261E704B681B78012B89
:1097A000E7D100F027FB3146FFF791FC0246314636
:1097B000CEE7674B0322EBE70520FEF7FFFF644B84
:1097C0001E78022E2AD0032E4FD0012ED1D104AB09
:1097D000102218460021FEF7A5FD5E4A237A127872
:1097E0008DF81020002203920C2B4FF00302CDE9DC
:1097F0000120DCD163681846FFF73BFC0590181D7B
:10980000FFF737FC069003F10800FFF732FC0790E2
:1098100001A800F033FA0028ABD0C4E7237A13F094
:10982000030010D0C0F104021A44D2B219464FF01E
:10983000000C67684E1C07F801C0F1B29142F8D1E4
:109840001B1A043323720123049363680693237A5B
:1098500004A89B08059300F0EFFA002889D00221A4
:10986000FFF735FC0221024672E7207A830702D017
:10987000324631466CE7384E0190314601F00CFD1E
:10988000014618B12846FFF73EFC72E76168019A6D
:10989000306803F047F9019801F064FD01460028A3
:1098A000F0D101A9304601F06DFD01460028E9D153
:1098B00004230493019B9B08059304A83368069333
:1098C00000F032FA074640B9244A237A11680B4463
:1098D0001360234B32681A604BE709281BD11F4BDA
:1098E000217A1A68114419601E4B1B78002B3FF433
:1098F00040AF1D4C2388013B9BB22380002B7FF49B
:1099000038AF284600F02EFE08B101F04BFC174B93
:109910001B8823802DE7306801F0E8FC014610B178
:109920002846FFF7F0FB3946ACE70E4B01221A70D0
:109930000E4A8B8813800C4A13801AE7094A0023C9
:1099400013700A4AF8E7054B196800F0CFFD02E7EB
:10995000E5430020EC430020F8430020DC430020D6
:10996000F4430020E4430020E2430020E0430020D1
:1099700018DF70470129F8B50D4614461F4607D079
:10998000032912D014B32046BDE8F84001F00ABC08
:109990000F4B1B78052BF5D10E4B1B68002BF1D01C
:1099A0003A46214604209847ECE7094E3378022BCB
:1099B000E8D1094B5B689847064B35701E68002E4E
:1099C000E0D03A4621462846B047DBE7F8BD00BF65
:1099D00004440020FC4300202844002000B5084B2C
:1099E00089B001221A7005238DF80C30079B009373
:1099F00003AB0FCBFFF7C2F809B05DF804FB00BF63
:109A00000544002000B589B003238DF80C300A4BC3
:109A10001B88ADF80E30094B5A6804929A68DB68CF
:109A20000693079B0093059203AB0FCBFFF7A6F8B5
:109A3000002009B05DF804FB34440020804400207D
:109A400000B589B001238DF80C300B4B1B88ADF8A5
:109A50000E3043F208031A68084B5968049199685C
:109A6000DB6806930591009203AB0FCBFFF786F8F6
:109A7000002009B05DF804FB34440020804400203D
:109A800000B589B003AB142200211846FEF74AFC4A
:109A900004228DF80C20002200920FC8FFF76EF808
:109AA00009B05DF804FB000030B589B003AC1422A6
:109AB00000212046FEF736FC094B1B88ADF80E301E
:109AC000084BDB6806930025079B8DF80C5000932C
:109AD00094E80F00FFF752F8284609B030BD00BFE8
:109AE0003444002080440020174B73B5174C1C6091
:109AF000174B02221A70FEF74BFC164B48B119683F
:109B0000204600F0D3FBB0B102B0BDE8704001F0D8
:109B100049BB1B681D0BC3F30B0303B101350024C4
:109B200043F20806A54208D1002300931A460321F8
:109B30000648FFF71FFF02B070BD306800EB04302D
:109B4000FEF760FF0134EDE79844002090440020C8
:109B5000044400203844002010B50B4B1B788BB90F
:109B60000A4801F053FA08B101F01CFB00224FF43F
:109B70001601064801F004FA044608B101F012FB90
:109B8000204610BD0824FBE70544002008440020BF
:109B90007FB50C4603210546CDE9001096086846BE
:109BA00002940396FFF7E4FED8B1B4F5805F11D8B4
:109BB00001236846CDE90035CDE90246FFF7D8FE1E
:109BC00078B903236846CDE90035CDE90246FFF7B1
:109BD000CFFE06E01A46E11AE81AFFF7D9FF00287F
:109BE000E6D004B070BD0000F0B585B0174B01930E
:109BF000174B184F184E00241C70184B394601A8FB
:109C0000CDE902441C8000F02DFB054618B13470EC
:109C1000284605B0F0BD43F2080301461B68104A10
:109C200010487B6001F09AF908B101F0BBFA0022FC
:109C30004FF416010C4801F0A3F908B101F0B2FA93
:109C40000A4B00221A6001233370E1E7759907007F
:109C50007C44002090440020044400203444002030
:109C6000DD990700BCCB0700084400200044002019
:109C7000014B1860704700BFFC43002070B543687B
:109C8000204C0FCB84E80F002278510701D59307B1
:109C900031D163689E072ED1A1688D072BD1E06872
:109CA000840728D10B44184E0344B1F5E04F3360CC
:109CB00023D843F208010968C1F5E2218B421CD880
:109CC000124D134B2B60D107124B6B600ED5124B0C
:109CD000AB60124B1B78012B11D1FFF73DFF0446FF
:109CE00010B92B6830689847204670BD93074CBF69
:109CF0000B4B0C4BECE70624F6E70C24F4E70824A6
:109D0000F2E700BF804400203844002028440020AF
:109D1000E99A0700819A0700419A0700044400204D
:109D2000059A0700A99A07002DE9F3478046002805
:109D300050D083689B074FD12A4B1B78052B4DD100
:109D4000294F4568294E3B683268AD002B44934249
:109D5000B94607D94FF0FF333B600C24204602B0D0
:109D6000BDE8F087FFF7F8FE04460028F6D1D8F8E2
:109D70000880DFF87CA0FEF70BFB48B13B68DAF8FF
:109D800000002A46414600F081FAA0B10446E5E70A
:109D900043F20803D9F800001F682A4623464146CB
:109DA0003844FEF72BFD0095434622460121DAF8A0
:109DB0000000FFF7DFFDD9F800301D443368C9F813
:109DC00000509D420CD1FEF7E3FA0028C6D1FEF701
:109DD000F7FCC3E70E24C1E71024BFE70824BDE762
:109DE0000924BBE70444002000440020384400203C
:109DF0009844002070B50B4B1D6885B90A4E337826
:109E0000042B0CD1094C0A4B21781A780948FEF72B
:109E100075FD10B90523337070BD2570FCE708206F
:109E2000FAE700BF00440020044400207C440020E6
:109E3000804400203C440020F8B5134B1A78032AD4
:109E4000074603D0042A03D0082419E004221A701C
:109E50000E4B1B68002BF7D1FFF77EFE044678B946
:109E60000B4E7D683378AD005A19402A0AD809484C
:109E7000B9682A46184402F055FE33781D443570FF
:109E80002046F8BD0924FBE70444002000440020DC
:109E90007C4400203C44002038B50D4C2378052B31
:109EA00014D10C4B0C4D1A682B689A420ED1062324
:109EB0002370FFF751FE40B9084B29681B685868AA
:109EC000FEF756FD08B90723237038BD0820FCE7CC
:109ED000044400200044002038440020984400201E
:109EE00010B5084B1B78072B0AD1074801F08EF8F4
:109EF00008B101F057F9054BBDE810409B681847C1
:109F0000082010BD044400200844002028440020FC
:109F100000B589B006238DF80C30079B009303AB86
:109F20000FCBFEF72BFE09B05DF804FB10B58CB02B
:109F300005A8FEF77FFF089A002A3BD00B9C02F58C
:109F40008053A3422AD91C49A4F5805301EA530344
:109F500043F2080109688A4208D85800121A00F52D
:109F600080512044FFF714FE0CB010BD03F5805063
:109F70000121CDE90110CDE9030101A8FFF7F8FCAB
:109F80000028F1D14FF48050CDE9020001A80191E1
:109F90000491FFF7EDFC0028E6D1DEE70123CDE9CF
:109FA000013492084FF4805301A803930492FFF701
:109FB000DFFCD9E71046D7E700F0FFFF00B58DB012
:109FC00005A8FEF737FF099860B1089B6BB943F20B
:109FD00008031B6880080022039001A8CDE9012333
:109FE000FFF7C6FC0DB05DF804FB0B9A1344F1E7D4
:109FF00000B58DB005A8FEF71DFF099878B1089B44
:10A0000083B943F208031B680393800803214FF4CC
:10A01000F022049001A8CDE90112FFF7A9FC0DB0D0
:10A020005DF804FB0B9A1344EEE7000030B58DB0E9
:10A0300005A8FEF7FFFE0898A8B10B9C00F5805319
:10A04000A34212D943F208031B68984219D80E4B59
:10A05000A4F5805203EA52035D00421B05F58051CE
:10A060006019FFF795FD0DB030BD800803224FF455
:10A070008053049001A8CDE901230394FFF778FCF5
:10A08000F1E70E20EFE700BF00F0FFFF29DF704788
:10A0900028DF704737B54B68CA6800930C46054BFC
:10A0A00053F822504B6914F80C1B02462046A8476F
:10A0B00003B030BD9C44002038B5184C23781822DA
:10A0C00002FB03431A795D69012A03D0032A19D0E0
:10A0D0000F2038BD124A996910689A68DB6800033E
:10A0E000121AB2F5805F1D44014438BF920828441B
:10A0F00028BF4FF48062FFF7C9FF0028E9D1012390
:10A10000A370E6E74FF080531869054B80B2B5FBAA
:10A11000F0F518682844FFF7BBFFEEE7AC440020D9
:10A12000A445002070B5134D6C780A2C1FD02E78F2
:10A130003444E4B2092C84BF0A3CE4B2182606FB7E
:10A140000454A261207103C9A360049BE360AB784F
:10A1500004F1100282E8030023B100206B78013380
:10A160006B7070BDFFF7A8FF1128F7D1F5E7042049
:10A17000F7E700BFAC440020F8B527498B780C46C0
:10A180002BB1002602288E7002D003283AD0F8BDE9
:10A190000D78224A182101FB0541136889680133B3
:10A1A000B1EB033F13601BD863781660013B63700B
:10A1B0006B1CDBB218270426092B17FB056188BF2F
:10A1C000A5F10903214400202370FFF763FF07FB7B
:10A1D00005430022C3E904621A719A609A61DA6049
:10A1E0006378002BD3D0A378002BD0D1FFF764FF86
:10A1F0000028CCD01128CAD02178182303FB0141B4
:10A20000043105E00B78182202FB031104310D2004
:10A21000BDE8F840FFF73EBFAC440020A445002055
:10A220000C4B00221A600C4B0A201A809A700421F1
:10A2300001381A719A60C3E904129A61DA6003F175
:10A240001803F5D1054B1860054BC3E90000C3E9BD
:10A2500002007047A4450020AC440020A045002027
:10A260009C440020074A1368042B1FBF0B60591C35
:10A270001160054A1DBF016842F8231000201846EE
:10A28000704700BFA04500209C44002013B5CC18A7
:10A290000C43A40708D1009313460A460146012047
:10A2A000FFF740FF02B010BD1020FBE707B500220A
:10A2B0000B46009201460320FFF734FF03B05DF820
:10A2C00004FBA8DF7047AADF7047ADDF7047AEDF41
:10A2D0007047B0DF704762DF704700002DE9F0473C
:10A2E0000F4694B00546002800F0F980002900F0E0
:10A2F000F6804B68002B00F0F2804FF6FF7303806E
:10A30000784B04AA03F1100C1646186859681446D5
:10A3100003C4083363452246F7D141F230530DF1AF
:10A320000A013046ADF80830FFF7D5FF0446002893
:10A3300040F0D1802A1D02A90120FFF7C2FF044688
:10A34000002840F0C8809DF80A30AB7101461C22FD
:10A350000DA8FDF7E7FF9DF834300E9443F0040399
:10A360008DF8343001AEAB798DF80E30214641F2D4
:10A37000325303223046CDE91044CDE91244ADF802
:10A380000C30FDF7CFFF9DF8063023F01F0343F09C
:10A390000303214614224FF4885A08A88DF806308A
:10A3A000ADF804A00DF10C08FDF7BCFF4FF0140947
:10A3B00005F1080308AA0DA9A8880A940C94CDE910
:10A3C0000886ADF82C90FFF77EFF0446002840F089
:10A3D000828001461C220DA8FDF7A4FF9DF83430B1
:10A3E0000E9423F0180343F018038DF83430AB7942
:10A3F0008DF80E30214641F2315303223046CDE92B
:10A400001044CDE91244ADF80C30FDF78BFF9DF8F8
:10A410000630ADF804A023F01F0343F013032146D8
:10A420004A4608A88DF80630FDF77CFF1723ADF8E3
:10A430002C3008AA05F110030DA9A8880A940C94E1
:10A44000CDE90886FFF73FFF0446002843D10146C7
:10A450001C220DA8FDF766FF9DF834300E9443F0E2
:10A4600002038DF83430AB798DF80E30214641F27D
:10A47000345303223046CDE91044CDE91244ADF8FF
:10A480000C30FDF74FFF1123ADF804309DF8063076
:10A4900023F01F0343F0030321464A4608A88DF822
:10A4A0000630FDF73FFF02230A93ADF82C3008AACF
:10A4B00005F120030DA9A8880C97CDE90886FFF7C0
:10A4C00002FF044638B97B68AB62BB6803B1EB623C
:10A4D000054B01221A70204614B0BDE8F0870E2407
:10A4E000F9E700BFC0CB0700A845002070B50546BE
:10A4F00086B070B302884FF6FF739A422BD0174B89
:10A500001B7843B3164C1022080AE170207121FA1F
:10A5100002F0090E072301266071A17102A8002133
:10A520006370ADF806302270A670FDF7FBFE2B8A33
:10A53000ADF808300023ADF80C3002A90DF1060388
:10A5400028888DF80A60CDE90434FFF7C0FE06B014
:10A5500070BD0E20FBE70820F9E700BFA8450020EA
:10A56000A945002030B5054687B060B302884FF694
:10A57000FF739A4229D0164B1B7833B3154C112325
:10A5800023700B0A6170A3700B0C090EE37021712C
:10A5900005230021102202A8ADF80630FDF7C2FE07
:10A5A0002B8AADF8083001238DF80A300023ADF86E
:10A5B0000C3002A90DF106032888CDE90434FFF719
:10A5C00086FE07B030BD0E20FBE70820F9E700BF8C
:10A5D000A8450020A945002030B5044687B038B30F
:10A5E00000884FF6FF73984224D0134B1B780BB3AF
:10A5F000124D102369700321ADF80610AA700021D6
:10A600001A4602A82B70FDF78DFE238AADF808309C
:10A6100001238DF80A300023ADF80C3002A90DF1AA
:10A6200006032088CDE90435FFF751FE07B030BDA1
:10A630000E20FBE70820F9E7A8450020A9450020E7
:10A6400070B50D4688B0044640B139B1826A2AB16E
:10A650000B88112B59D003D8102B43D008B070BDF4
:10A66000502B42D0512BF9D18B79022BF6D10A898C
:10A67000038A9A42F2D18B7B043B022BEED99DF8E0
:10A68000163043F001038DF816300B8AADF8183000
:10A690004B8AADF81A30022601F11403082200217A
:10A6A00001A807938DF81060FDF73CFE01AAA18A6E
:10A6B00020880196CDF808D0FFF707FE034638B38F
:10A6C000E36A03B1984740F2FD1304A92088ADF86E
:10A6D0001430FFF7FEFD0028C0D0E36A002BBDD088
:10A6E0009847BBE78B882380B8E7C98803899942DC
:10A6F000B4D108238DF81030123535F8023C8DF8AE
:10A700001830059504A99047A8E74FF6FF73EAE7CC
:10A710009DF800202088D207D5D504A9ADF81430C3
:10A72000FFF7D7FD0028D8D1297D4B1E072B41D834
:10A73000DFE803F0041A2327292B3E2D00238DF890
:10A7400004306B8A012B05D8062201212046FFF731
:10A7500043FFC0E7012315358DF80C300295A36A3D
:10A7600001A92046984779E76A8A01239A428DF821
:10A770000430F0D806220221E8E702238DF80430E5
:10A78000EDE70323FAE70423F8E70523F6E76B8AEE
:10A79000022B02D803220821D8E7AA7D6B7D43EA69
:10A7A0000223002BADF808300CBF07230623E5E792
:10A7B0000923E3E70322C9E7A8DF7047AADF704750
:10A7C0002DE9F04180468EB015461F460E4611B960
:10A7D000084600F0E7FC15B9284600F0E3FC1C220F
:10A7E0000DEB02000021FDF79DFD9DF81C30ADF83A
:10A7F0000480002443F002038DF81C30214601231D
:10A80000032268468DF806300894CDE90A44CDE964
:10A810000C44FDF787FD3B788DF800307B788DF890
:10A8200001309DF8023023F01F0343F0020321465C
:10A83000142202A88DF80230FDF774FD0A48CDF805
:10A840000CD001AB029302AA149B0088ADF8105003
:10A8500007A9ADF81240ADF814500696FFF7AEFF09
:10A860000EB0BDE8F08100BFE845002030B587B0EC
:10A8700041F60A0304465C4AADF80C30012003A9F6
:10A880008DF80E00FFF798FF0546002849D1228871
:10A89000002A49D1228952B1544B0093E16804F156
:10A8A0003C0342F62420FFF78BFF002847D1228A81
:10A8B00052B14F4B0093616904F13C0342F62520ED
:10A8C000FFF77EFF00283AD1228B52B1494B00930B
:10A8D000E16904F13C0342F62720FFF771FF0028ED
:10A8E0002DD1228C4AB1444B0093616A04F13C03A0
:10A8F00042F62620FFF764FF08BB228D4AB13F4B8A
:10A900000093E16A04F13C0342F62820FFF758FF68
:10A91000A8B9236BABB9616B002938D1A36B002BAD
:10A9200042D1284607B030BD354B0093616804F131
:10A930003C0342F62920FFF743FF0028AAD0054632
:10A94000EFE71A688DF810201A68120A8DF81120A6
:10A950005A888DF81220DA788DF813205A688DF80D
:10A9600014209B688DF815301A0A1B0C8DF81730CF
:10A97000244B8DF816200093082204F13C0304A90F
:10A9800042F62320FFF71CFF0028C4D0D7E71E4B58
:10A990000A790093096804F13C0342F62A20FFF784
:10A9A0000FFF0028BAD0CAE71A788DF810205A880D
:10A9B0008DF81120120A8DF812209A888DF8132034
:10A9C000120A8DF81420DB888DF815301B0A8DF8DB
:10A9D00016300E4B0093072204F13C0304A942F603
:10A9E0005020FFF7EDFEAAE7E8450020C84500200B
:10A9F000E0450020B8450020B0450020EA45002091
:10AA0000C0450020F2450020D8450020D045002058
:10AA1000094A537891780133DBB2994208BF002389
:10AA2000117899421FBF03705078182303FB002050
:10AA300014BF043000207047FC450020082910B5E1
:10AA4000044602D0002000F0ADFBD4E90030BDE8A0
:10AA50001040184773B5054600240DF107000E4657
:10AA60008DF8074000F0ACFB0DF10600FFF7D0FFBA
:10AA700090B10670094B9DF8062045605A709DF80C
:10AA8000070000F0C1FB24B9054B4FF48012C3F856
:10AA90000021204602B070BD0424F0E7FC450020F0
:10AAA00000E100E0204B21491A682F2300BF00BFBE
:10AAB00000BF00BF00BF00BF00BF00BF8A422FD051
:10AAC00000BF00BF00BF00BF00BF00BF00BF00BF8E
:10AAD00000BF00BF00BF00BF00BF00BF00BF00BF7E
:10AAE00000BF00BF00BF00BF00BF00BF00BF00BF6E
:10AAF00000BF00BF00BF00BF00BF00BF00BF00BF5E
:10AB000000BF00BF00BF00BF00BF00BF00BF00BF4D
:10AB100000BF00BF00BF00BF00BF00BF00BF00BF3D
:10AB2000013BC3D1704700BF783000200024F400FF
:10AB30000C4B0D484FF4003210B5C3F880200124AF
:10AB40004FF48033C0F84833C0F808334460FFF74F
:10AB5000A9FF064B846000201860FFF7A3FF044B99
:10AB6000187010BD00E100E00010014018470020FF
:10AB7000094700202DE9F3412549264B0025C1F85E
:10AB80004051C1F84451C1F84851C1F84C51C1F885
:10AB90000051C1F804511B68002B34D0D1F8044592
:10ABA0001D49DFF888800968641A24F07F442F4625
:10ABB0001A68A24212D8A41A15441A7CDE6962B13E
:10ABC0005A691F7400929B690193424608216846A6
:10ABD00000F050FA08B100F0E5FABEB90F4A104B88
:10ABE00011781B788B4205D10133DBB2022B08BFF1
:10ABF0000023137012780B4B43F822500A4B4FF48A
:10AC00008012C3F8002102B0BDE8F0813346CFE7DF
:10AC1000001001401C470020184700201547002065
:10AC2000144700200C47002000E100E03DAA070087
:10AC30002DE9F04FA64AA74913780978A64C994206
:10AC400085B03CD00133DBB2022B08BF0023137068
:10AC5000A2491278A24B0F6853F822003B1823F048
:10AC60007F4300220B60236815461646944613B9AD
:10AC700042B1236006E0196881420ED902B1236017
:10AC8000091A1960012723680293DFF85C920023F8
:10AC90000193BDB9DFF85CA268E0401A0E44D968A0
:10ACA000C3F800C0D3F81CE031B1BA1922F07F42DA
:10ACB000C3E90121DD611D4601227346D7E7002566
:10ACC0002F46E0E72846ED69844A43681268DFF8BA
:10ACD00028E2D0F808C0991A21F07F41714500F2AE
:10ACE000A580614401600122027422680023C0E94A
:10ACF0000133C361002A40F0A3802060C9E75A1CD9
:10AD00009AF80210D2B291428AF8002004BF0022C1
:10AD10008AF80020182202FB03A31A799868022AF5
:10AD20001CD0032A12D0012A20D1027CF2B9D968A2
:10AD300041601E6986605E69C6609B698361694B7C
:10AD40001B78002B18BF11464160BDE70022236825
:10AD50001146002B66D14AB1236007E02268934672
:10AD60009046BBF1000F57D1002303749AF80030CE
:10AD70009AF801209A42C2D1019A236822B9029A14
:10AD80009A4201D1002F41D0002B7BD0D3F8009004
:10AD9000554C524BD4F804651868544F351A3B781B
:10ADA00025F07F4503359BB94FF48033C4F8443315
:10ADB000C4F804334E4B4FF400324FF00108C3F88F
:10ADC00080211A60C4F80080FFF76CFE87F80080CD
:10ADD000A9452CBF4844401920F07F40C4F84005E5
:10ADE000D4F804359B1B23F07F43801B033320F0F2
:10ADF0007F4083420AD9D4F80435C4F84035FFF7C0
:10AE000051FE3B4B4FF40032C3F80021354B00227A
:10AE10001A7005B0BDE8F08F584536D0D846DBF83B
:10AE20001CB09EE719740122DB6992E7D31A23F064
:10AE30007F43634534BFACEB03030023036052E759
:10AE40000168136899421BD8591A1160C26154E70E
:10AE5000A1EB0C01D3F81CC01A46BCF1000F0AD0BC
:10AE60006346D3F800C08C45F2D3ACEB010CC3F8B9
:10AE700000C09C4613460160C0F81CC0D86108E7BA
:10AE80001346EEE7FFF754FEC0E740450FD1D16906
:10AE9000216061B9DFF844E003920123C9F808306A
:10AEA000CEF800100F490B70FFF7FCFD039ADBF89A
:10AEB0001C10DBF80030C8F81C1011B10E683344C8
:10AEC0000B60019923689A4218BF012101914BE759
:10AED00014470020154700201C4700201847002079
:10AEE0000C470020084700200010014009470020BF
:10AEF00000E100E0FC450020FEFF7F0008B5FFF701
:10AF000017FE104B00200B2218809A700E4B186011
:10AF10000E4B18700E4B18700E4B4FF48012E02140
:10AF2000C3F8802183F814131A6002F18042A2F55D
:10AF30006F22C2F8080583F81113074BD2F80425D5
:10AF40001A6008BDFC4500201C4700201447002063
:10AF50001547002000E100E018470020074B9B78D0
:10AF60004BB132B128B10368187C20B959745A61C9
:10AF70007047072070470820704700BFFC4500203D
:10AF80002DE9F7431E4FBB7805460E469046A3B306
:10AF900098B304292FD943697BB3437C0024012B48
:10AFA0000DF107000CBF8946A1468DF8074000F05F
:10AFB00007F90DF10600FFF72BFDD0B10123037057
:10AFC000104B4560D3F80435C0E90498C0E9023657
:10AFD0009DF806307B709DF8070000F015F924B944
:10AFE000094B4FF48012C3F80021204603B0BDE89E
:10AFF000F0830424EFE70724F7E70824F5E700BF10
:10B00000FC4500200010014000E100E0064A927873
:10B010003AB130B1426922B1002202740221FFF735
:10B0200019BD0820704700BFFC45002030B54C1CFE
:10B03000E40012F00303A4B20ED1084D2A602244AA
:10B04000074C2260074A1370074A1370074A1080A2
:10B05000074A1846118030BD0720FCE7284700202A
:10B060002447002020470020304700202C470020A4
:10B070002E4700202DE9F3472B4D2B888B420646A7
:10B080000C4617464CD34FF000080DF107008DF821
:10B09000078000F095F8254B254A18781178CBB237
:10B0A000244909888B4238BF0133C0B238BF5FFAE8
:10B0B00083F840452ED092F800801378DBB2994295
:10B0C00086BF0133DBB2002313709DF8070000F048
:10B0D0009BF84FF6FF73984524D0DFF860A0DAF8AC
:10B0E00000304FEAC80903EB090243F83870A6B1F3
:10B0F0009CB1114B28881B68224608FB0030314662
:10B1000001F010FDDAF800304B4400209C8002B0C2
:10B11000BDE8F0874FF6FF78D7E700209080F6E78C
:10B120000920F4E70420F2E72C47002030470020F4
:10B13000204700202E4700202447002028470020D9
:10B14000F8B5124C124D264622782B789A4200D13F
:10B15000F8BD23780F48104A078812680F48DBB201
:10B1600019B202EBC10C006852F83120BCF804108F
:10B1700003FB070090470A4A23781288DBB29A4201
:10B1800086BF0133DBB200233370DDE73047002098
:10B19000204700202C47002028470020244700207B
:10B1A0002E4700201FB50021CDE9021001AA44F26C
:10B1B0000100ADF80410FDF7E1F805B05DF804FBFF
:10B1C00070B5EFF3108672B60C4A946801239CB9EF
:10B1D00093600B4B0B4DD3F8801029401160C3F8DE
:10B1E0008050D3F8841051604FF0FF32C3F88420B0
:10B1F000047006B962B670BD0370FAE7D05A002039
:10B2000000E100E0FC06FFBD10B5084B9A685AB19A
:10B2100050B9EFF3108172B6054A1C6814605C687F
:10B220005460986001B962B610BD00BFD05A0020CA
:10B2300000E100E02AB113880144884204D1184695
:10B2400070474FF6FF73F7E75BBA10F8012B9BB21C
:10B250005A40C2F30313534083EA03331BB25A012B
:10B2600002F4FF5253409BB2E7E70000064B074A47
:10B2700000201870064B1A600822C3E90120C3E9B8
:10B280000300C3E905007047314700203447002020
:10B29000145A00200020704730B5F9B1124B5C6899
:10B2A00000220A60E4B1B0F5167F1BD8D8681D688B
:10B2B0000130013CD86018695C604FF4177404FBDE
:10B2C00000540C60012101FA00F49969013000F08A
:10B2D0000700214318619961104630BD0E20FCE73C
:10B2E0000420FAE70C20F8E7145A0020F0B51C4BB4
:10B2F000996899B35D691E686C1A04F007042246C8
:10B300004FF4177707FB026C604511D1012000FA5A
:10B3100002F598696840986100205E68D3F818C00B
:10B320004FF0010E724400250E4402F007020AE0BD
:10B33000013202F007029542E4D11020EDE749B155
:10B340000139144601250EFA04F414EA0C0FA6EB99
:10B350000107F4D00DB1C3E90171F0BD0420FCE791
:10B36000145A0020064A13691268013B4FF4177102
:10B3700003F0070301FB0323C3F8580200207047C2
:10B38000145A002030B5C0B1B9B10E4BDA68B2B171
:10B39000013ADA609A681D6801329A605A694FF47E
:10B3A000177404FB025404600132D4F85802086098
:10B3B00002F007025A61002030BD0E20FCE7042095
:10B3C000FAE700BF145A00203FB40C49086890B156
:10B3D0000B4B1C687CB10B4A1568CDE90250002369
:10B3E0008DF804300B60136004AB13E907002346AB
:10B3F00004B030BC184704B030BC7047385A002045
:10B400003C5A0020485A0020DC2810B509D0DD281D
:10B4100010D0C02816D1FFF7D7FF0E4B0E4A1A6086
:10B4200010BD0E4A0E4B19681368581C1060C022DC
:10B43000CA54F2E7094A0A4B19681368581C10608D
:10B44000DB22F5E7064B054A196813685C1C14609B
:10B45000C854E2E77030002095B40700385A002045
:10B46000485A0020C02802BF014B024A1A607047A8
:10B470007030002095B4070008B5DB2000F066FDB1
:10B4800010B9024B024A1A6008BD00BF7430002098
:10B4900031B60700C02810B409D0DB280BD0094B07
:10B4A000094A196813685C1C1460C85406E05DF80A
:10B4B000044BFFF789BF054B054A1A605DF8044B42
:10B4C000704700BF485A0020385A002070300020D2
:10B4D00009B4070010B5064A064C12682368D05C10
:10B4E00000F034FD10B923680133236010BD00BFA4
:10B4F0004C5A0020405A002008B5C02000F026FD1C
:10B5000028B9034B1B6813B9024B034A1A6008BDE4
:10B51000405A002074300020D5B407007FB51C4C81
:10B520001C4E1D4D226833689A4219D31B4B2B6069
:10B53000FFF7E2FF002829D1194B01221A70194B9D
:10B540001B681BB38DF80420174A12680292226808
:10B55000039204AA12E9070004B0BDE8704018473E
:10B56000114B22681B689A5CC02A03D022689B5C3E
:10B57000DB2B05D10D4B2A689A4204BF0C4B2B6084
:10B580002B689847042801D01128CBD104B070BD96
:10B59000405A0020445A002074300020F9B40700BB
:10B5A000305A00203C5A00204C5A0020D5B40700E5
:10B5B00079B407001FB50378032B044605D1164B59
:10B5C0001B78022B25D1FFF7A9FF2378042B20D16C
:10B5D000124B1A6862B1124B1968124B1B689942E0
:10B5E00006D2114B20791B6804B0BDE81040184703
:10B5F0000E4B1B686BB10292094A0221126803923A
:10B600008DF8041004AA12E9070004B0BDE8104048
:10B61000184704B010BD00BF305A0020485A00201F
:10B62000385A0020345A0020703000203C5A002044
:10B6300010B50C4A0C4C12682368D35CC02B03D0A5
:10B64000DB2B0DD0042010BDDC2000F07FFC002897
:10B65000F9D12368054A01332360054B1A60F2E7EC
:10B66000DD20F2E74C5A0020405A0020D5B40700F4
:10B6700074300020014B1860002070473C5A0020B5
:10B68000F0B50C4E377887B097B90B4D0FCD6C469F
:10B690000FC495E80300072384E80300074A3946EE
:10B6A000684600F005FC08B90123337007B0F0BD0F
:10B6B0000020FBE7305A0020D0CB0700B5B50700CB
:10B6C000024B00221A7000F055BC00BF305A002017
:10B6D00010B5C0B10D4B1A78012A04D0022A0CBF54
:10B6E0000420082010BD0A4A00241460094A116091
:10B6F000094A106002221A70084B094A1A60FFF7C3
:10B700000DFF2046EEE71020ECE700BF305A002086
:10B71000405A0020445A00204C5A00207430002027
:10B72000F9B40700054B064A1860064B1960064B32
:10B7300000201860054B1A60704700BF485A00206F
:10B7400065B40700345A0020385A002070300020B9
:10B75000064B07481B68DB00DBB2002203700421A4
:10B760005B4242708270C370FFF7B2BF785A00200C
:10B77000505A002070B52D4C2D4E02462546237898
:10B78000012B14D013B1022B20D070BD002AFCD1A4
:10B790002848FFF73BFC08B1FFF704FD264B1B6868
:10B7A000002BF2D0254ABDE8704010781847012AD6
:10B7B000EBD13168224B06311868FFF789FF08B1D9
:10B7C000FFF7F0FC02232B700022D8E7022A19D0E1
:10B7D000032A0ED0002AD8D11A4B16481A6041F617
:10B7E0007F21FFF7CDFB0028CFD0BDE87040FFF7E9
:10B7F000D9BC154A1368013303F007031360002313
:10B800002370E1E70F4A1368052B0AD00133136058
:10B81000074B19680A4B06311868BDE87040FFF7FE
:10B8200057BF064B01221A70E9E700BF9C5A00205F
:10B83000905A0020545A00208C5A0020945A00201C
:10B84000A45A0020985A00207C5A0020F0B585B0F8
:10B8500004AB03E907009DF80400032878D8DFE86B
:10B8600000F00802A7AA012005B0BDE8F040FFF7EC
:10B8700081BF039E564C032E40F28680029D6B785A
:10B8800013F00F0269D00E2A7ED1042E59D02A78E7
:10B89000500656D5110654D51A44AB781A44EB78A5
:10B8A0001A4412F0FF024CD1B71E39462846FFF762
:10B8B000C1FCEB195A78EB5D43EA0223984240D170
:10B8C00044492A780B6802F00702D8B282422BD191
:10B8D000013303F007030B60FFF73AFF3E4B0122F1
:10B8E00030461A70FFF73EFD08B1FFF75BFC3849A0
:10B8F0004FF41670FFF7D0FC002862D0042802D065
:10B900000020FFF74FFC35480521FFF70BFF08B17A
:10B91000FFF748FC324B1B68002B56D04FF000005D
:10B9200005B0BDE8F04018474FF416712068FFF7E6
:10B93000F9FE08B1FFF736FC05B0BDE8F040FFF7AF
:10B9400007BF20684FF41671FFF7ECFE00283CD0CB
:10B9500005B0BDE8F040FFF725BC2978AA780B4474
:10B960001344EA78134413F0FF030DD11D4A126803
:10B970000132C1F3C20102F00702914204D11A4A16
:10B9800003201370FFF7F6FE25681DB14FF4167102
:10B990002846D9E70E494FF41670FFF77DFC60B1D9
:10B9A000042802D02846FFF7FDFB0C480521CBE711
:10B9B00005210A48C8E70320CAE720684FF416713A
:10B9C000C2E720684FF416719FE705B0F0BD00BFD5
:10B9D000A05A0020785A0020745A0020805A002073
:10B9E000885A00207C5A0020945A00200220FFF739
:10B9F000C1BE0000074B10B5044618600648FFF7AB
:10BA000039FE08B1FFF7CEFB002C0CBF0E20002042
:10BA100010BD00BF885A00204DB80700184A1948C9
:10BA2000002310B51360184A1360184A1360184AAF
:10BA30001370184A1370184B184A01211960184BDB
:10BA40001960184B1970FFF789FA08B1032010BD6F
:10BA5000FFF70CFC0028FAD1FFF712FE0028F6D100
:10BA6000114C4FF416702146FFF716FC0028EDD15B
:10BA700020684FF41671BDE81040FFF753BE00BFB9
:10BA8000A45A0020E8CB0700905A0020985A0020C2
:10BA9000745A00209C5A0020785A0020EDB9070003
:10BAA0007C5A0020945A0020A05A00200C4A08B565
:10BAB000002313600B4A1360FFF7ECFB08B1FFF79C
:10BAC00071FBFFF7FDFD08B1FFF76CFB0648FFF7C0
:10BAD0009DFA042802D10020FFF764FB002008BD76
:10BAE0008C5A0020885A0020545A002037B50D4641
:10BAF000044698B191B10A4B19780022019259B1CC
:10BB000001A91A70FFF73EFC019B063B2B802368BE
:10BB10000433236003B030BD0420FBE70E20F9E7B7
:10BB2000745A00200438FFF7E1BB0000BFF34F8FC9
:10BB30000549064BCA6802F4E0621343CB60BFF3C9
:10BB40004F8F00BFFDE700BF00ED00E00400FA05E5
:10BB50000C4B1B78062B10D10B4B1B681A070CD112
:10BB60000A4B186800F0F003302B08D000F0E0001A
:10BB7000A0F140035842584170470020704701200F
:10BB8000704700BFE00F00F0E40F00F0E80F00F096
:10BB9000094B1B78062B0CD1084B1B681A0708D1E0
:10BBA000074B186800F0F000A0F1300358425841EC
:10BBB00070470020704700BFE00F00F0E40F00F076
:10BBC000E80F00F008B5FFF7C3FF28B1894B8A4A98
:10BBD0001B68C3F304231360FFF7DAFF10B1874B30
:10BBE000874A1A60FFF7B4FF28B1864B864A1B6864
:10BBF000C3F342331360FFF7CBFF20B1834AD3680E
:10BC000023F08073D360FFF7A3FF40B14FF0804370
:10BC10000022C3F80C21C3F81021C3F83825FFF720
:10BC2000B7FF10B17A4B03221A60FFF7B1FF40B1A2
:10BC3000784B05221A6001229A6700229A603F22FF
:10BC40005A60754B1B78062B50D1744B1B68180734
:10BC50004CD1734B1B6803F0F003502B46D14FF0CF
:10BC60008052704BD2F80414C3F82015D2F808148F
:10BC7000C3F82415D2F80C14C3F82815D2F8101400
:10BC8000C3F82C15D2F81414C3F83015D2F81814D0
:10BC9000C3F83415D2F81C14C3F84015D2F8201498
:10BCA000C3F84415D2F82414C3F84815D2F8281460
:10BCB000C3F84C15D2F82C14C3F85015D2F8301430
:10BCC000C3F85415D2F83414C3F86015D2F83814F8
:10BCD000C3F86415D2F83C14C3F86815D2F84014C0
:10BCE000C3F86C15D2F84424C3F87025FFF730FF71
:10BCF00028B14D4B4D4A1B6803F04F031360FFF70B
:10BD000027FF48B14FF08043D3F80024D10744BF48
:10BD10006FF00102C3F80024454B1B68062B08D1C5
:10BD2000444B1B68062B01BF434A136843F48063EE
:10BD30001360424AD2F8883043F47003C2F8883066
:10BD4000BFF34F8FBFF36F8F4FF01023D3F80C2248
:10BD5000D2071ED53A4B0122C3F80425D3F800249C
:10BD6000002AFBD04FF01022D2F80C3223F001034E
:10BD7000C2F80C32324B1A46D3F800140029FBD01B
:10BD80000021C3F80415D2F80034002BFBD0FFF7D4
:10BD9000CDFED3F80022002A03DBD3F80432002BB7
:10BDA00023DA274B0122C3F80425D3F80024002A04
:10BDB000FBD04FF010221521C2F80012D3F8002456
:10BDC000002AFBD04FF010231522C3F804221C4B8D
:10BDD0001A46D3F800140029FBD00021C3F804153B
:10BDE000D2F80034002BFBD0D1E7164B164A1A606C
:10BDF00008BD00BF240300104035014074C0074057
:10BE00000DF0ADBA440200103C050040F0ED00E03A
:10BE1000A005004010560040E00F00F0E40F00F0D5
:10BE2000E80F00F000C0004058020010E40E00408F
:10BE300030010010340100103C17004000ED00E01C
:10BE400000E00140783000200090D00313B5047862
:10BE5000012C13D104238DF80030436810491B785E
:10BE600010488DF80430224600F0C0FA0E4B1C70CA
:10BE70000E4B68461B68984702B010BD022C09D1D2
:10BE8000C368074907488DF800400122019300F07C
:10BE9000ADFAEDE7002CEFD103238DF80030E7E792
:10BEA000AC5A00207C300020AD5A0020A85A002057
:10BEB000F0B5204D064617469C460FCD89B06C461E
:10BEC0000FC495E80F0084E80F0073690693337C74
:10BED0008DF81CC0003318BF01238DF81430737C1B
:10BEE0001548002B14BF0E2300238DF81530F3687E
:10BEF0000293B368039333680193736800930F4B05
:10BF00001F600F4B00221A7069460E4A00F0A4F819
:10BF100068B9336801330AD09DF81D3013B906485B
:10BF200000F026FB01220849034800F05FFA09B03F
:10BF3000F0BD00BFECCB07007C300020A85A0020E9
:10BF4000AD5A00204DBE0700AC5A0020074908B585
:10BF500001220870064800F0C7F9112804D0002813
:10BF600014BF0320002008BD0420FCE7AE5A0020C7
:10BF70007C30002008B5024800F038F9002008BDE8
:10BF80007C3000200023435082B043580193019B32
:10BF900002B070470023435082B043580193019B85
:10BFA00002B070470A4610B54FF48E71FFF7EAFFF2
:10BFB000938A91689BB2C95C938A01339BB2938246
:10BFC000C0F81C1510BD1FB5002382688DF8003025
:10BFD0008DF8081083750192D0E9001368469847E0
:10BFE00005B05DF804FB08B502464FF49271006895
:10BFF000FFF7C8FF4FF484711068FFF7C3FF1368A1
:10C0000001221A6008BD10B5CB7D0A464FF4847139
:10C0100023B9FFF7B7FFD0F8183510BDFFF7B2FF0F
:10C02000537ED168D0F81805C854537E0133DBB273
:10C030005376F2E71FB501238DF80030054B8DF8DC
:10C04000080001916846D3E90012904705B05DF8F9
:10C0500004FB00BFB05A0020F8B50679604D7601A8
:10C06000AB190446D87E002840F0B780487F187787
:10C070000868471C0BD0012383404FF0A0400327E2
:10C08000C0F808350B6803F5E07340F823704B687F
:10C09000581C1FBF03F5E0734FF0A040002740F885
:10C0A000237023792068D1F818C005EB43131F7F54
:10C0B000C0F824C520684B7D002F68D00F7D3B431E
:10C0C000C0F86C35D1E900702368C3F80C75C3F86B
:10C0D00014050B7D012B1FD18B685F1C06D003F567
:10C0E000E0734FF0A040002740F82370C868431C5D
:10C0F0000BD0012383404FF0A0400327C0F8083540
:10C10000CB6803F5E07340F82370D1E90207236898
:10C11000C3F80875C3F81005AB195A600B69AB5129
:10C1200022B323790A7F206805EB43131B7F002B82
:10C1300045D04FF48871FFF72DFF4FF490712068C0
:10C14000FFF728FF4FF492712068FFF723FF4FF4A9
:10C15000A2712068FFF71EFF23682249C3F8041369
:10C160002068114640F3073000F008FB237922686D
:10C1700005EB43131B7F73B308233544C2F8003526
:10C1800000204FF480732876E8826B83F8BD91F825
:10C1900014C043EA0C03C0F86C35D1E900C0236831
:10C1A000C3F81405C3F80CC50B7D012BB4D18B6803
:10C1B000581C9BD003F5E0734FF0A04094E74FF478
:10C1C0008E71FFF7DFFE4FF4A2712068FFF7DAFEF1
:10C1D00023680549C2E70423CFE70820D6E700BF5C
:10C1E000B05A00201003020080000200F0B501796F
:10C1F000394A036849015418247F04B10024C3F864
:10C20000004553185B68B3B10379046802EB43132C
:10C210001B7F002B53D0314BC4F8083303681B0B32
:10C220005CB20125640903F01F0305FA03F320340F
:10C230002B4D45F824300479036802EB4414D3F8FD
:10C240000C75247FD3F81465002C3AD04FF0FF3CD6
:10C25000D3F80845D3F81055C3F80CC5C3F814C576
:10C260000368C3F808C5C3F810C57B1C1FBF4FF097
:10C27000A04307F5E077022043F82700771C1FBF93
:10C280004FF0A04306F5E076022043F82600681C34
:10C290001FBF05F5E0754FF0A043022043F82500CD
:10C2A000631C1CBF4FF0A04304F5E0740A441CBF9C
:10C2B000022043F824000023D3765360F0BD094BDD
:10C2C000AAE74FF0FF3CD3F80845D3F81055C3F860
:10C2D00014C5C3F80CC5C3E7B05A00201003020010
:10C2E00000E100E0840202002DE9F04103793E4EB6
:10C2F0005B010446F018007F20B101F06040B0F10E
:10C30000005F6DD13344987D00286BD19A75996098
:10C31000988294F804804FEA4817F5192B7F53B39D
:10C320004FF490712068FFF735FE4FF4AC71206830
:10C33000FFF730FE2368AA7DA968C3F84415C3F847
:10C340004825236801229A606B6813B10020BDE87C
:10C35000F0812268D2F82011D2F8583119B9002B97
:10C36000F8D00F2003E0002B14BF0F200020F3199A
:10C3700000229A75EBE74FF48E712068FFF702FEFA
:10C38000236801229A6006EB481841462068FFF7AF
:10C3900009FE6B68002BD9D1A97DAA8A91420DD8DC
:10C3A000AB8A9BB2B3F5807FDBD02368D3F81C2126
:10C3B000002AFBD00122DA600020D8E72068D0F8FC
:10C3C0001C3123B9AB8A9BB2B3F5807FF7D1AB8A1E
:10C3D0009BB2B3F5807FE0D04146FFF7E3FDDBE79A
:10C3E0001020B4E71120B2E7B05A00202DE9F8433D
:10C3F00003795E4D5B010F46E91806460C7F2CB1B0
:10C4000007F06041B1F1005F40F0AC80E918486886
:10C4100028B13168BCB14FF40474C1F808432B440F
:10C42000DC7DB4B1197E00294FD048B13379326830
:10C4300005EB43152B7F4BB14FF40473C2F8043363
:10C440001120BDE8F8834FF40174E6E74FF401735F
:10C45000F4E7DA75DF605C761C7696F804904FEAB4
:10C46000491805EB0803197F00293FD04FF4887164
:10C470003068FFF78FFD4FF4A2713068FFF78AFD37
:10C480003368C3F83475C3F8382533680CBB012210
:10C490001A60337932685B01E918496801BBD2F848
:10C4A0001001D2F84411D2F82441084302D1002CE3
:10C4B000F5D001461D4400239C42EB750CBF184685
:10C4C00003200029BDD00F20BBE71F611A7601248D
:10C4D000C3E7D3F8002242F02002C3F80022D8E7D5
:10C4E0004FF40473C2F804330020AAE79B7E1BB903
:10C4F00014B93046FFF777FD05EB080730687B6815
:10C500005BBB4FF4A271FFF73DFD05EB49193068A5
:10C51000D0F82431D0F80821D0F8444172B90CB9D0
:10C52000002BF4D045440022EA75EBB9002CCAD1A7
:10C53000A97E3368012271B11A60D5E7002BF1D1D1
:10C54000002CEFD14946FFF75EFD7B7EFA7D9A42D3
:10C55000DDD82346E6E75A60C6E74FF40173C0F81A
:10C560000433C1E710206CE703206AE7B05A0020CB
:10C5700038B50379074C04EB431305461A7F42B9DB
:10C580009B7E33B9FFF72FFD2B7904EB4314012376
:10C59000A37638BDB05A00207FB5764C764D237F08
:10C5A000002B64D0D5F82461002E3FD04FF4927157
:10C5B0002846FFF7EFFC02238DF80030D5F88034D1
:10C5C000C5F880340393D5F83C358DF80830E3681E
:10C5D00001930023E37523766846D4E90013984756
:10C5E000654AD2F8443173B14FF4A2711046FFF797
:10C5F000D1FCE37D3BB10023E375D2F83C05E16853
:10C60000C0B2FFF717FD5C4AD2F8203163B14FF496
:10C6100090711046FFF7BEFCA37D2BB1D2F84C15EC
:10C620005448C9B2FFF7CFFC04B070BDD5F8103143
:10C63000002BD5D028464FF48871FFF7ABFCD5F816
:10C640003C35E07DDBB29842CAD1237EE16863B11C
:10C65000D5F8002222F02002C5F80022E3752369F4
:10C66000E3602676FFF7E6FCBAE7E375FAE7D5F86C
:10C6700004339A0548D5D5F82431002B44D04FF423
:10C6800092712846FFF77EFC4FF40173C5F808331A
:10C69000A37E0BB901236B600223374A8DF800306B
:10C6A000D2F88034C2F880340393E37D8DF80830EB
:10C6B000E36801930023E37523766846D4E9001309
:10C6C00098472D48D0F81C3133B1A38AA27D9A42F5
:10C6D00045D92849FFF766FC274AD2F84431002B98
:10C6E000A2D04FF4A2711046FFF74CFCA37E0BB111
:10C6F00001231360E37D002B96D00023607EE16868
:10C70000E375FFF797FC8FE7D5F804335B07D8D5BF
:10C71000D5F80831002BD4D016491748FFF773FC21
:10C72000637EE27D9A42CCD1237E53B1E3752369C7
:10C73000E168E3600023607E23766376FFF77AFC8E
:10C74000BFE7A37E0BB901236B600B4B4FF4017263
:10C75000C3F808230023E375607EE168EEE74FF439
:10C760008E71FFF70FFCA17D0029B5D00148FFF7BE
:10C770002AFCB1E7B05A0020002000400028C3B2D4
:10C78000A8BF00F160424FEA501010B5BABF0D4A81
:10C7900003F00F0402F561424FEA41114FEA8000B5
:10C7A000C9B200F16040B4BF115582F8001300F522
:10C7B000614003F01F0201239340C0F88031036001
:10C7C00010BD00BF14ED00E00649074A074B9B1A55
:10C7D00003DD043BC858D050FBDCFFF7F3F9FBF74F
:10C7E0002FFD000018CC0700003000208C30002006
:10C7F000FEE7FEE7FEE7FEE7FEE7FEE7FEE7FEE711
:10C80000FEE7FEE753B94AB9002908BF00281CBF5C
:10C810004FF0FF314FF0FF3000F074B9ADF1080C6C
:10C820006DE904CE00F006F8DDF804E0DDE902234E
:10C8300004B070472DE9F047089E04468846002B57
:10C8400040F085808A42154648D9B2FA82F24AB150
:10C85000C2F1200701FA02F320FA07F7954047EAF0
:10C86000030894404FEA154E230CB8FBFEF71FFA5D
:10C8700085FC0EFB178843EA084307FB0CF199423D
:10C8800009D9EB1807F1FF3080F0E380994240F2BC
:10C89000E080023F2B445B1AA4B2B3FBFEF00EFB18
:10C8A000103344EA034400FB0CFCA44509D92C19BD
:10C8B00000F1FF3380F0CB80A44540F2C8800238FD
:10C8C0002C4440EA0740A4EB0C0400271EB1D440DE
:10C8D0000023C6E900433946BDE8F087002A53D05B
:10C8E000B2FA82F2002A40F0B680491B4FEA154E98
:10C8F0001FFA85F80127B1FBFEFC230C0EFB1C116F
:10C9000043EA014308FB0CF1994207D9EB180CF1FB
:10C91000FF3002D2994200F2EC808446591AA3B249
:10C92000B1FBFEF00EFB101443EA044408FB00F8D0
:10C93000A04507D92C1900F1FF3302D2A04500F21F
:10C94000DC801846A4EB080440EA0C40BEE78B42AA
:10C9500008D9002E78D00027C6E9000138463946AC
:10C96000BDE8F087B3FA83F77FB98B4202D38242E6
:10C9700000F2BD80841A61EB030301209846002E6B
:10C98000A9D0C6E90048A6E7FFDEC7F12005BB40F5
:10C9900022FA05FC4CEA030C01FA07F420FA05F828
:10C9A00021FA05F34FEA1C4E48EA0404B3FBFEF9F2
:10C9B000210C0EFB19331FFA8CF841EA034309FBE3
:10C9C00008FA9A4502FA07F200FA07F10BD91CEBB4
:10C9D000030309F1FF3080F088809A4540F285809A
:10C9E000A9F102096344A3EB0A03A4B2B3FBFEF06E
:10C9F0000EFB103344EA034400FB08F8A04508D9B5
:10CA00001CEB040400F1FF336BD2A04569D9023856
:10CA1000644440EA0940A4EB0804A0FB02894C45A9
:10CA2000C6464B4654D351D0002E69D0B1EB0E020E
:10CA300064EB030404FA05F522FA07F3FC401D43F6
:10CA4000C6E90054002746E73746304643E7184614
:10CA500037E707461FE7C2F1200320FA03F79540A6
:10CA600001FA02F021FA03F34FEA154E3843010CA4
:10CA7000B3FBFEF71FFA85F80EFB173341EA0341BB
:10CA800007FB08F38B4204FA02F407D9691807F18F
:10CA9000FF3C28D28B4226D9023F2944CB1A81B2CF
:10CAA000B3FBFEF00EFB103341EA034100FB08F339
:10CAB0008B4207D9691800F1FF3C10D28B420ED986
:10CAC00002382944C91A40EA074714E74145ABD266
:10CAD000B8EB020E69EB0C0201381346A4E760467E
:10CAE000F0E7184695E76746D8E781467BE7384682
:10CAF00045E7ACF1020C2B4410E702382C4421E747
:10CB00003746E8E6704700BF30B501390024A2423D
:10CB100001D1002005E0035D01340D5DAB42F6D08C
:10CB2000581B30BD0A44914200F1FF3300D17047D9
:10CB300010B511F8014B03F8014F9142F9D110BD26
:10CB4000034613F8012B002AFBD1181A013870474D
:10CB5000F8B500BFF8BC08BC9E467047F8B500BFEA
:10CB6000F8BC08BC9E467047003000200010020050
:10CB70000338FDD870470000B442002000000000D8
:10CB80000338FDD8704741646144465500446573DD
:10CB900061790044532D443600302E322E31312D30
:10CBA000332D67666238343762392D64697274795F
:10CBB000207331333220362E312E310008440020CC
:10CBC00023D1BCEA5F782315DEEF121200000000CB
:10CBD0001600000017000000000000000000000028
:10CBE0000000000000E0D701545A0020FFFFFFFFC3
:10CBF000FFFFFFFFFFFFFFFFFFFFFFFF0000000041
:10CC00000000000000E0D701070100000000000064
:08CC100030B6FF7F01000000B7
:10CC1800000000000000000000000000000000000C
:10CC280000000000000000000000000000000000FC
:10CC380000000000000000000000000000000000EC
:10CC480000000000000000000000000000000000DC
:10CC580000000000000000000000000000000000CC
:10CC680000000000000000000000000000000000BC
:10CC78007C7F0020FFFFFFFFFF00FFFF3200000066
:10CC880065B40700D5B407000090D0030020004029
:0CCC980000000000258207000182070058
:020000020000FC
:020000041000EA
:041014000080070051
:0410180000E00700ED
:040000037000C7C9F9
:00000001FF
