:020000022000DC
:10600000000001208D860200CD860200CF860200AE
:10601000D1860200D3860200D5860200000000006F
:106020000000000000000000000000000D860200DB
:10603000D9860200000000002D860200DD860200E5
:10604000DF860200DF86020071700200DF86020038
:10605000896B0200DF860200DF860200DF86020015
:10606000DF860200DF860200DF860200DF86020094
:10607000DF860200DF860200DF860200DF86020084
:10608000DF86020035840200DF860200DF86020020
:10609000DF860200DF860200DF860200DF86020064
:1060A000DF860200DF860200DF860200DF86020054
:1060B000DF860200DF860200000000000000000012
:1060C000DF860200DF860200DF860200DF86020034
:1060D000DF860200DF860200DF860200000000008B
:1060E00000000000000000000000000000000000B0
:1060F00000000000000000000000000000000000A0
:10610000000000000000000000000000000000008F
:10611000000000000000000000000000000000007F
:10612000000000000000000000000000000000006F
:10613000000000000000000000000000000000005F
:10614000000000000000000000000000000000004F
:10615000000000000000000000000000000000003F
:10616000000000000000000000000000000000002F
:10617000000000000000000000000000000000001F
:10618000000000000000000000000000000000000F
:1061900000000000000000000000000000000000FF
:1061A00000000000000000000000000000000000EF
:1061B00000000000000000000000000000000000DF
:1061C00000000000000000000000000000000000CF
:1061D00000000000000000000000000000000000BF
:1061E00000000000000000000000000000000000AF
:1061F000000000000000000000000000000000009F
:1062000010B5054C237833B9044B13B10448AFF3F0
:1062100000800123237010BDC82D00200000000065
:1062200080C3020008B5034B1BB103490348AFF319
:10623000008008BD00000000CC2D002080C30200BB
:10624000154B002B08BF134B9D46A3F5803A002148
:106250008B460F461348144A121A00F05FF80F4B92
:10626000002B00D098470E4B002B00D09847002001
:10627000002104000D000D48002802D00C4800F059
:1062800015F900F027F82000290002F03DFA00F08F
:1062900011F800BF0000080000000120000000000D
:1062A00000000000C82D0020F0360020AD64020080
:1062B000B964020008B50021044600F083F8044BDD
:1062C0001868C36B03B19847204600F073F900BF0C
:1062D00054BE020070B50D4E0D4D761BB61006D0A3
:1062E0000024013455F8043B9847A642F9D1094EE1
:1062F000094D761B05F0A2FDB61006D0002401342E
:1063000055F8043B9847A642F9D170BDA82D00204E
:10631000A82D0020C42D0020A82D0020F0B4860751
:1063200043D0541E002A3ED0CAB2034602E014F104
:10633000FF3438D303F8012B9D07F8D1032C2BD958
:10634000CDB245EA05250F2C45EA054516D9A4F13D
:1063500010073F0903F1200606EB071603F11002B0
:1063600042E9045542E902551032B242F8D104F034
:106370000F040137032C03EB07130DD91E462246E9
:10638000043A032A46F8045BFAD8221F22F00302DB
:106390000432134404F003042CB1C9B21C4403F8C2
:1063A000011B9C42FBD1F0BC704714460346C5E775
:1063B000024B13B1024800F079B8704700000000AA
:1063C000B96402002DE9F04F354B85B00F460390BC
:1063D000186800F08BF8334B1B68019303F5A47326
:1063E0000293B946019BD3F848613EB3DDF808A09B
:1063F0004FF001087468651E0FD4013406EB840465
:106400000027B9F1000F20D0D4F800314B451CD043
:10641000013D6B1CA4F10404F3D1234B73B1D6E905
:106420000032002A34D1002B32D03046CAF8003076
:1064300002F076FCDAF80060002EDBD1184B186809
:1064400005B0BDE8F04F00F053B873682268013B17
:10645000AB420CBF75602760002AD9D0D6F88811EE
:10646000D6F804B008FA05F30B4208D190477368D8
:106470005B45B7D1DAF80030B342C9D0B2E7D6F8FD
:106480008C01D4F88010034207D103989047EEE7BF
:10649000B2461E46002EADD1D0E708469047E6E74B
:1064A000302C002054BE0200218D02000023014642
:1064B0001A46184600F01EB838B50A4C0A4D641B3F
:1064C000A4100AD004F18043013B05EB8305013C95
:1064D00055F804399847002CF9D1BDE8384005F04B
:1064E000B3BC00BFC82D0020C42D0020704700BFE2
:1064F000704700BF2DE9F8432B4D064628689846A3
:106500000F469146FFF7F2FF284B1C68D4F848313C
:10651000002B3DD05A681F2A0DDC02F1010C16BB7E
:106520000232C3F804C0286843F82270FFF7E0FF86
:106530000020BDE8F8831E4B7BB34FF4C87002F017
:10654000E7FB034648B3D4F848210021C0E9002105
:106550004FF0010CC4F848010A46C0F88811C0F891
:106560008C11002EDCD003EB82010124C1F888904D
:10657000D3F8880194402043022EC3F88801C1F863
:106580000881CDD1D3F88C110C43C3F88C41C7E7F7
:1065900004F5A673C4F84831BCE72868FFF7A8FFE4
:1065A0004FF0FF30C5E700BF302C002054BE020082
:1065B000118D0200FEE700BFF8B51D4C06212046F4
:1065C00000F0BEF908210546204600F0B9F90A217D
:1065D0000746204600F0B4F9164C174906462046F7
:1065E00000F013FB2946154D0A22204600F063FBFC
:1065F0002946204600F009FB1149204600F005FB22
:106600000A223946204600F056FB2946204600F073
:10661000FCFA0C49204600F0F8FA314620460A22DE
:1066200000F04BFB6420BDE8F84000F037BD00BF30
:10663000E82D0020CC2E002058BE02005FBE0200D4
:1066400061BE020068BE020010B5054C0122114671
:10665000204600F0BDF8034B3E221A711C6010BDAD
:10666000E42D0020E82D0020F8B53A4C3A4D3B4F80
:1066700020464FF4164100F083FB3949204600F0D4
:10668000D1FA0A220021204600F02EFB354920468F
:1066900000F0BBFA4FF4967000F000FD284640224F
:1066A000182100F0EEF8284602221B2100F0E9F83C
:1066B000C0222846182100F0E4F82B49204600F0BB
:1066C000A4FA1821284600F01FF93946064620464C
:1066D00000F09BFA31460A22204600F007FB06F044
:1066E0007F022846182100F0CCF82049204600F00F
:1066F0008CFA1B21284600F007F91D490646204662
:1067000000F083FA31460A22204600F0EFFA06F044
:10671000F00242F0400228461B2100F0B2F8154971
:10672000204600F072FA1821284600F0EDF83946AC
:106730000646204600F069FA31460A22204600F05B
:10674000D5FA66F07F022846D2B21821BDE8F8409B
:1067500000F097B8CC2E0020E82D00209FBE02004C
:106760006FBE020084BE020090BE0200A6BE020000
:10677000C0BE0200C8BE020020B1034B800143F03E
:1067800001031847704700BFF0BE020010B5B0FA11
:1067900080F1044649090E2002F0D8F921460E2066
:1067A000BDE8104002F0FAB908B54078FFF7E4FF01
:1067B00001210D20BDE8084002F0F0B908B540788D
:1067C000FFF7DAFF00210D20BDE8084002F0E6B92E
:1067D00010B54270044601700120FFF7D7FF012178
:1067E0000D2002F0B3F92046FFF7DEFF204610BD72
:1067F00010B504460020FFF7C9FF2046FFF7D4FF7D
:106800000120BDE81040FFF7C1BFF8B504460F46B0
:10681000FFF7D4FF0825802607EA0600FFF7B6FF3A
:106820002046FFF7C1FF2046FFF7C8FF013D4FEAB2
:106830005606F1D10120FFF7A9FF2046FFF7B4FF6C
:106840000E2002F0BDF905462046FFF7B7FFE8B27B
:10685000B0FA80F04009F8BD38B504460D46FFF7A0
:10686000ADFF2046FFF7A0FF0020FFF78FFF29466E
:106870002046BDE83840FFF7C8BF01790068FFF740
:10688000EBBF70B504460E461546FFF7F6FF3146DE
:106890002068FFF7BAFF29462068FFF7B6FF206897
:1068A000FFF7A6FF0A20BDE8704000F0F7BB2DE916
:1068B000F041044688460826802700252046FFF739
:1068C00073FF0E2002F07CF910F0FF0F204618BF76
:1068D0003D43FFF773FF013E4FEA5707EED14046B5
:1068E000FFF754FF2046FFF75FFF2046FFF766FFE4
:1068F000B8F1000F02D02046FFF77AFF0120FFF722
:1069000045FF2846BDE8F08138B504460D46FFF73F
:10691000B4FF29462068FFF778FF2179206841F00D
:106920000101FFF799FF01212068FFF7C0FF05462D
:106930002068FFF75DFF0A2000F0B0FB284638BD55
:1069400038B504460D46FFF798FF29462068FFF743
:106950005CFF2179206841F00101FFF77DFF0021F4
:106960002068FFF7A4FF4FF0000560F30705002142
:106970002068FFF79CFF012160F30F252068FFF7D7
:1069800096FF2068FFF734FF0A2000F087FB28B24B
:1069900038BD000038B50025057329B90B4B0C4AEA
:1069A0000C48232102F084F901600B4951F82220A0
:1069B000027151F8233083719DF8103051F8233063
:1069C00043710223C371856038BD00BFF6BE02006B
:1069D00054BF020004BF0200B4BF020007B5094B58
:1069E00009490A484FF080421A6000229A60022248
:1069F0001A7106230093FF220523FFF7CBFF03B094
:106A00005DF804FB042E002000300040F02D002033
:106A10002DE9F84380460D46174601EB02090C4666
:106A20004C45A4EB05060BD0D8F8003014F8011B38
:106A30001B68404698470028F2D13046BDE8F883ED
:106A40003E46FAE77047203000F080B9203000F071
:106A50006FB9203000F080B938B5437F0D460BB9CF
:106A6000002038BD00F16804204600F07DF90028C0
:106A7000F6D12046294600F04CF90120F1E700004C
:106A80002DE9F0411E4600254FF47A73C0E9015309
:106A90000E4B044640F8203B1746884600F030F97C
:106AA00004F1680000F02CF9C4E90487084B9DF854
:106AB0001820267653F8222062769DF81C2053F881
:106AC0002230A37665772046BDE8F0819CBF0200A6
:106AD000B4BF020070B54369D3F86421044692B193
:106AE0000022012500F12006C3F864210577304615
:106AF00000F01AF96369C3F8346563694022C3F88A
:106B0000382563691D636369D3F86821DAB100250C
:106B1000C3F8685104F1680601236377257730468E
:106B200000F002F9D4F8B43003B19847636965778F
:106B30003046C3F8446500F009F96369C3F84805B5
:106B4000636901225A636369D3F8042162B10022A8
:106B5000C3F80421237F3BB16369D3F83C05D4F823
:106B6000B830206603B198476369D3F8242152B145
:106B70000022C3F824216369D3F8D024C3F8D024B9
:106B8000636901225A6170BD0148FFF7A3BF00BFCE
:106B9000102E002007B50E230D22CDE900324FF054
:106BA0004022042311460348FFF76AFF03B05DF853
:106BB00004FB00BF102E00202DE9F04106460D46D3
:106BC00001EB02080C464445A4EB050707D03368E7
:106BD00014F8011B1B68304698470028F3D138464B
:106BE000BDE8F08170B5044608460D4602F0FEFE91
:106BF00023680246294620465B68BDE87040184776
:106C000009B1FFF7EFBF0846704708B5FFF7F8FF77
:106C100008BD03681B6818470149FFF7E3BF00BFC1
:106C200034C0020038B50546FFF7EAFF044628469F
:106C3000FFF7F2FF204438BD70B58AB00D460AA9AF
:106C4000002301F8043D012A98BF0A22B5FBF2F4A3
:106C500002FB1456F3B2092E94BF30333733DBB244
:106C6000254601F8013D002CF0D1FFF7C9FF0AB01D
:106C700070BD2DE9F04107460E4615462AB9036856
:106C8000C9B21B68BDE8F04118470A2A05D100299E
:106C900005DBBDE8F041FFF7CFBFD2B2F9E72D2108
:106CA000FFF7B7FF2A46044671423846FFF7C4FF94
:106CB0002044BDE8F081FFF7DCBF38B50546FFF79B
:106CC000D8FF04462846FFF7A7FF204438BD10B47C
:106CD0002AB903685DF8044B1B68C9B21847D2B2E1
:106CE0005DF8044BFFF7A8BFFFF7F1BF38B50546C5
:106CF000FFF7EDFF04462846FFF78EFF204438BD1E
:106D000008B540220021FFF709FB0022C0E910224C
:106D100008BD026C10B5531C446C03F03F039C4249
:106D20001CBF8154036410BD0023C0E910337047B9
:106D3000D0E9102393421FBFC25C013303F03F032D
:106D4000436414BF10464FF0FF307047D0E9103055
:106D5000181A48BF40307047D0E91023934214BF3F
:106D6000C05C4FF0FF307047036C406C013303F0A0
:106D70003F031B1A58425841704790F86200704711
:106D800003681322DB6918471430FFF7CDBF0000FA
:106D900038B590F95C305909044601222031164873
:106DA00003F01F0302FA03F340F8213023690421A2
:106DB000C3F8081323695A602369DA602369002540
:106DC000C3F8005522694FF0FF33C2F80C35226931
:106DD000C2F814352269C2F80835226904F114009A
:106DE000C2F81035FFF7A0FF606E00F047FC656643
:106DF00084F8625038BD00BF00E100E01430FFF7B6
:106E0000A5BF1430FFF7A8BF1430FFF791BF38B506
:106E100004460D46406E4FF0FF3100F077FB2369CA
:106E2000C3F81C552269D2F81C31002BFBD000237B
:106E3000C2F81C3119461A46606E00F02BFA012088
:106E400038BD000038B590F862200446002A40F0B2
:106E50009080036990F85E00C3F80C05236994F8EC
:106E60005D00C3F8140594F861002369012801BF8F
:106E700094F85F20C3F81025236994F8602005BFBB
:106E8000C3F808252369C3F86C25C3F86C05B1F570
:106E9000966F6FD9B1F5166F6FD9B1F5965F6FD94F
:106EA000B1F5165F6ED9B1F5615F6DD9B1F5964F49
:106EB0006CD9B1F5E14F6BD9B1F5164F6AD9B1F57F
:106EC000614F6AD9B1F5963F6AD9B1F5E13F69D909
:106ED000B1F5613F69D9394B994269D9B1F5E12FD3
:106EE00069D9B1F5612F94BF4FF070634FF08053B3
:106EF0002269C2F8243523690422C3F800252169D8
:106F00000023C1F808312169C1F81C31216901232E
:106F10000B6021698B602169C1F8042394F95C201E
:106F2000510902F01F0293406031254A42F8213096
:106F300094F95C30002BBDBF03F00F0302F6FC3266
:106F4000D2189B18B5BF60236022137683F8002304
:106F500094F95C301A4A5909012503F01F0305FA18
:106F600003F342F82130284600F014FA84F8625006
:106F7000606638BD4FF49E23BAE74FF41D23B7E790
:106F8000104BB5E7104BB3E7104BB1E7104BAFE731
:106F9000104BADE74FF41D03AAE74FF46B03A7E7CF
:106FA0000D4BA5E74FF0EB73A2E74FF06C739FE733
:106FB0004FF080639CE74FF0E86399E790D00300BF
:106FC00000E100E000B013000050270000F03A009C
:106FD00000A04E0000C0750000903A0108B5044BB7
:106FE0002BB10448FFF7B2FE08B1AFF3008008BD33
:106FF00000000000E02E00202DE9F04100251E4693
:107000004FF47A73C0E901530F4B044640F8143B28
:1070100017468846FFF774FE0C4AC4F8108084F8BF
:107020005C7052F8263084F85D309DF8183052F8C4
:10703000233084F85E3084F86150656684F86250CD
:107040002046BDE8F08100BF40C00200B4BF02008E
:107050000369D3F808214AB10022C3F80821036963
:10706000D3F818151430C9B2FFF753BE70470000AB
:107070000148FFF7EDBF00BFCC2E002007B5172356
:1070800000930222162303490348FFF7B5FF03B01C
:107090005DF804FB00200040CC2E002080024FF45D
:1070A0007A73B0FBF3F000F0D7BD10B5044601F0E1
:1070B000ADF9A46B01F0B4F9B4FA84F0400910BD45
:1070C00070B51546026C866B044642B905689DB9D9
:1070D000406800F05BFF65600136A66370BD6DB966
:1070E000806801F025FEA368226C13446268A360E7
:1070F000934201D32368A3600020EDE7C06801F04C
:1071000017FE236CE26821685B421A448A42E260FF
:107110003EBF62689B18E360022DEDD10EB1013EC7
:10712000EAE73046D8E7034610B41A6C084662B165
:10713000D9685C681144A142D96024BF1968D9603C
:10714000D9685DF8044B01F0F3BD5DF8044B70475E
:1071500070B5044601F05AF994F8455004F124063C
:107160006DB2002D14DCFF2384F8453001F058F98E
:1071700001F04CF994F8445004F110066DB2002D62
:1071800012DCFF2384F84430BDE8704001F048B9B8
:10719000636A002BE7D0304600F01AFE08B100F019
:1071A00083FE013D6DB2DCE72369002BE9D0304658
:1071B00000F00EFE08B100F077FE013D6DB2DEE793
:1071C00038B504460D4601F021F9D4E90F302268A4
:1071D000A2604343D1181B1A13446160E36000218D
:1071E000FF23A16384F8443084F845309DB92369B6
:1071F0006BB104F1100000F0EBFD40B10A4B4FF011
:1072000080525A6040BFBFF34F8FBFF36F8F01F0C2
:1072100007F9012038BD04F1100001F0EBFC04F186
:10722000240001F0E7FCF2E700ED00E010B51C4699
:1072300083B10123002908BF2246C4E90F0184F865
:107240004630194622602046FFF7BAFF9DF8083005
:1072500084F84C30204610BDF8B5064648435030FF
:107260000D46174601F008FD044660B1002380F882
:10727000463055B92060C4E90F6501212046FFF76B
:107280009FFF84F84C702046F8BD00F15003036066
:10729000F1E700002DE9FF470026DFF8F4900192A6
:1072A00004468A461F46B04601F0B0F8A26BE36B75
:1072B0009A4201D3022F1AD13A4651462046FFF78F
:1072C000FFFE636A1BB104F1240000F081FD40B1B0
:1072D0002F4B4FF080525A6040BFBFF34F8FBFF328
:1072E0006F8F01F09DF8012004B0BDE8F087019D8B
:1072F0001DB901F095F80020F6E716B902A800F0D4
:107300009FFD01F08DF800F0B1FB01F07FF894F8DB
:107310004430FF2B08BF84F8448094F84530FF2B9D
:1073200008BF84F8458001F07BF801A902A800F0AD
:1073300093FD30BB01F06AF8A26BE36B9A420ED169
:1073400001F06EF8019904F1100000F01DFD2046D7
:10735000FFF7FEFE00F016FC48B10126A4E701F09D
:107360005FF82046FFF7F4FE00F00CFCF5E74FF065
:107370008053C9F8043040BFBFF34F8FBFF36F8F06
:10738000EBE72046FFF7E4FE00F0FCFBB3E700BFAD
:1073900000ED00E010B5024600210120FFF75CFF80
:1073A000044638B10023C0E90033C3601A461946C9
:1073B000FFF770FF204610BDF8B505461746EFF3FE
:1073C0001186402282F31188806BEA6B904201D3D0
:1073D000022B1ED195F845401A4664B22846FFF7A5
:1073E0006FFE631C10D16B6A0BB9012009E005F137
:1073F000240000F0EDFC0028F7D0002FF5D001208C
:10740000386086F31188F8BD013464B285F84540D0
:10741000EBE70020F5E700002DE9F04385B00026FA
:10742000DFF8E490019204468846374600F0EEFF0C
:10743000A56BDDB141462046013DFFF774FEA56313
:1074400023696BB104F1100000F0C2FC40B12E4B77
:107450004FF080525A6040BFBFF34F8FBFF36F8F22
:1074600000F0DEFF012005B0BDE8F083019D1DB9ED
:1074700000F0D6FF0020F6E716B902A800F0E0FC05
:1074800000F0CEFF00F0F2FA00F0C0FF94F84430B4
:10749000FF2B08BF84F8447094F84530FF2B08BFD9
:1074A00084F8457000F0BCFF01A902A800F0D4FCEC
:1074B000F8B92046FFF7F9FDA8B1019904F12400BD
:1074C00000F062FC2046FFF743FE00F05BFB40B992
:1074D0004FF08053C9F8043040BFBFF34F8FBFF364
:1074E0006F8F0126A2E72046FFF732FE00F04AFB2D
:1074F000F7E72046FFF72CFE00F044FB2046FFF79D
:10750000D4FD0028EDD0B5E700ED00E02DE9F04313
:1075100085B00025DFF81C91019104462F462E46C8
:1075200000F074FFA36BEBB1013BA363236813B9B5
:1075300000F08AFD606023696BB104F1100000F077
:1075400047FC40B13B4B4FF080525A6040BFBFF305
:107550004F8FBFF36F8F00F063FF0125284605B002
:10756000BDE8F083DDF80480B8F1000F03D100F02E
:1075700057FF0025F2E717B902A800F061FC00F000
:107580004FFF00F073FA00F041FF94F84430FF2BF6
:1075900008BF84F8446094F84530FF2B08BF84F896
:1075A000456000F03DFF01A902A800F055FC48BB72
:1075B0002046FFF77AFDF8B123683BB900F026FFBB
:1075C000606800F0A1FC054600F02AFF019904F173
:1075D000240000F0D9FB2046FFF7BAFD00F0D2FAF4
:1075E00040B94FF08053C9F8043040BFBFF34F8F0C
:1075F000BFF36F8F012793E72046FFF7A9FD00F047
:10760000C1FAF7E72046FFF7A3FD00F0BBFA2046DA
:10761000FFF74BFD0028EDD0002D9FD000F0F6FEC7
:10762000616A19B1236B1968C1F10501606800F046
:10763000D7FC9CE700ED00E0054B1A6812B19A6890
:107640002AB9012243F8321003EBC2035860704795
:10765000D0360020084B5A6890420AD0DA6890422F
:1076600006D10122002143F8321003EBC203596016
:1076700070470022F6E700BFD036002010B5FFF7B4
:10768000E9FF90F846301BB9BDE8104001F003BB9C
:1076900010BD70B504460D46164600F0B7FE94F8CE
:1076A0004430FF2B04BF002384F8443094F8453065
:1076B000FF2B04BF002384F8453000F0B1FEA36B1C
:1076C0002BB93246294604F1240000F06DFB204618
:1076D000BDE87040FFF73CBD2DE9F041044600F0E5
:1076E00095FE314B314D1A68314E01321A602A68CD
:1076F000002A4FD12C601B68012B25D12D48DFF8C3
:10770000EC802D4F01F076FA2C4801F073FA2C48EA
:1077100001F070FA2B4801F06DFA2B4801F06AFA7B
:10772000404601F067FA384601F064FA274801F054
:1077300061FA274801F05EFA264801F05BFA264B11
:10774000C3F80080254B1F60254A1368013313607E
:10775000244AE3631168E36A8B4288BF1360154AC9
:10776000142000FB0320211D01F052FA00F058FE06
:1077700033686BB12B68DA6AE36A9A4208D21A4B13
:107780004FF080525A6040BFBFF34F8FBFF36F8FEF
:10779000BDE8F0813368002BD6D12B68DA6AE36A42
:1077A0009A4298BF2C60CFE7A42F0020342F0020EE
:1077B00004300020402F0020D02F0020542F002024
:1077C000682F00207C2F0020902F0020F02F002019
:1077D0001C30002008300020382F00203C2F0020D3
:1077E000B42F0020B82F002000ED00E0BC2F0020B7
:1077F000094B0A4A1B681268D06A50B9084A1268D5
:10780000012A07D833B9074B1868074B1B68C01A01
:1078100070470020704700BFB82F0020342F002091
:10782000402F0020E82F002030300020064A136847
:107830001968064B19B94FF0FF321A607047126889
:10784000D268D2685268F8E7382F0020E82F00206D
:107850002DE9F047DDE9097496000D463246804671
:10786000A521206B9946FEF759FD236B043E1E446B
:1078700026F007066B1E04F13402073513F8011FCA
:1078800002F8011B197809B1AB42F7D1089D042D0C
:1078900028BF04254FF0000AE562C4E9115A201DF3
:1078A00084F83BA001F0B1F9C5F1050504F1180019
:1078B00001F0ABF9C4F84CA02461A561646284F8BE
:1078C00050A04A464146304600F068FD206007B1AE
:1078D0003C60BDE8F08710B590F8513004463BB9E4
:1078E000006B01F0D8F92046BDE8104001F0D3B993
:1078F000012BF9D010BD0000F8B5164B164E1C68D0
:107900000546306804300F4601F0A5F96B1C33467C
:1079100007D137B1316811480431BDE8F84001F0B2
:1079200077B91A686419546007D30D4A106819684A
:10793000BDE8F840043101F077B90A4A10681968C7
:10794000043101F071F9084B1A68A24288BF1C602B
:10795000F8BD00BF30300020342F00200830002058
:107960003C2F0020382F0020E82F002030B587B0B2
:10797000DDE90B458DB194B12C63022485F85140AB
:1079800005AC01940A9C02950094FFF761FF28461C
:10799000FFF7A2FE059807B030BD2846FBE720465A
:1079A000F9E72DE9F043074685B090008846164672
:1079B000994601F061F90546E8B1542001F05CF9FF
:1079C0000446A8B1002380F851300D9B0563019354
:1079D0000C9B0290009332464B4641463846FFF7D7
:1079E00037FF2046FFF778FE012005B0BDE8F083A1
:1079F000284601F050F94FF0FF30F6E710B588B097
:107A0000002407AA06A905A8CDE9054400F0EEFF69
:107A1000059B0293069B079A0E490F48CDE9004348
:107A20002346FFF7A3FF0D4B186080B100F06AFBFF
:107A300001280CD1402383F31188094B4FF0FF320A
:107A40001A60084B1860084B1C6000F0B9FC08B0C5
:107A500010BD00BF68C00200897C0200E42F002036
:107A6000E82F00200430002030300020024A136844
:107A700001331360704700BFB02F0020014B18681E
:107A8000704700BF30300020024A1368184410606D
:107A9000704700BF303000202DE9F84F2E4B1B6897
:107AA000002B53D12D4B1D6801351D605DB92C4A4B
:107AB0002C4B1168186810602B4A19601368013349
:107AC0001360FFF7B3FE294F3B68AB424FF000064F
:107AD00007D9274B1B68002B0CBF30460120BDE89F
:107AE000F88FDFF87C90DFF894A0DFF894B0D9F835
:107AF00000301B681BB94FF0FF333B60E9E7D9F852
:107B00000030DB68DC6863689D42F6D304F104084A
:107B1000404601F0A0F8A36A1BB104F1180001F07F
:107B20009AF8E36ADAF800201420934200FB03B0CD
:107B3000414688BFCAF8003001F06AF80D4BE26A8E
:107B40001B68DB6A9A4228BF0126D0E70A4A1368FD
:107B5000013313600026BCE7B02F00203030002036
:107B6000382F00203C2F0020EC2F0020E82F002091
:107B700034300020342F0020AC2F0020B82F0020FC
:107B8000402F00202DE9F04100F040FC294B1A68FD
:107B9000013A1A601C682CB1002400F041FC204618
:107BA000BDE8F081244B1B68002BF5D0234D244EFB
:107BB000DFF8A0801DE0EB68DC68271D04F11800E9
:107BC00001F049F8384601F046F8E36A32681420BB
:107BD000934200FB0380394688BF336001F018F8F8
:107BE000184BE26A1B68DB6A9A4202D3164B0122E9
:107BF0001A602B68002BDED10CB1FFF717FE134D76
:107C00002C6844B1104E0127FFF746FF00B13760E2
:107C1000013CF9D12C600C4B1B68002BBCD00C4BE9
:107C20004FF080525A6040BFBFF34F8FBFF36F8F4A
:107C30000124B2E7B02F0020A42F0020F02F002055
:107C4000B82F0020342F002034300020AC2F00202B
:107C500000ED00E0402F002008B548B9094B4FF077
:107C600080525A6040BFBFF34F8FBFF36F8F08BD84
:107C7000FFF7FCFE0021FFF73FFEFFF783FF002820
:107C8000ECD0F4E700ED00E0F8B51B4C1B4F1C4DA9
:107C90002368EBB91B4B1B68012B08D91A4B4FF01B
:107CA00080525A6040BFBFF34F8FBFF36F8F00F019
:107CB00095FEFFF79DFD0128E9D9FFF7D7FEFFF7F5
:107CC00097FD012801D900F00BFCFFF75BFFDEE711
:107CD00000F09CFBFB68DE68301D00F0BCFF2B68E9
:107CE000013B2B602368013B236000F099FB304689
:107CF000FFF7F1FDCCE700BFA82F00201C300020CB
:107D0000A42F0020402F002000ED00E0F8B5194B13
:107D10001A68194B12B101221A60F8BD174C1A608B
:107D20002268236812681B6B9A4204D82068216875
:107D3000343100F051FE124E124B32684FF0140CE9
:107D40001F460CFB02F158185D5885B14568083193
:107D50006D6845600B449D4204BF6B68436014230B
:107D600003FB02735B68DB6823603260D5E7013A8E
:107D7000E7E700BFB02F002034300020342F002070
:107D8000B82F0020402F002010B5064B0C46196874
:107D9000183100F049FF20460121BDE81040FFF7EF
:107DA000ABBD00BF342F002038B5084B0D46196815
:107DB0001446183100F02CFF002C21460CBF284639
:107DC0004FF0FF30BDE83840FFF796BD342F00205C
:107DD00038B5C368DC6804F11805284600F03BFF9D
:107DE000114B1B68EBB9251D284600F034FF0F4AE4
:107DF000E36A11688B4288BF13600D4A142029463C
:107E000000FB032000F004FF0A4BE26A1B68DB6AF8
:107E10009A4285BF084B012000201860FFF706FD3D
:107E200038BD29460548EDE7B02F0020B82F0020C7
:107E3000402F0020342F002034300020F02F00206D
:107E4000034B1B680360034B1B684360704700BF14
:107E5000EC2F00203030002070B50C46054600F0B5
:107E6000D5FA0F4B1A682368591C0FD00D482E689D
:107E700000686968864201D091420ED9521A934235
:107E800009D99B1A23602846FFF7DAFF002400F087
:107E9000C7FA204670BD002323600124F7E700BF26
:107EA00030300020EC2F0020014B01221A60704777
:107EB00034300020084B186860B9084B1B6853B970
:107EC000074B1868074B1B68013B984214BF012001
:107ED0000220704700207047F02F0020343000202F
:107EE00008300020A42F0020054B1B6833B1054B40
:107EF0001B68002B0CBF0220002070470120704738
:107F000004300020B02F0020F8B5044600282BD004
:107F10001B4AC36A1168C96A8B42164627D2826916
:107F2000184D002AA1BF3268D26AC2F105028261EF
:107F3000142202FB035342699A4211D1071D3846AD
:107F400000F089FE3368104ADB6A1168E3628B42F5
:107F50000BD81420394600FB035000F059FE02E014
:107F60003368DB6AC3620120F8BD1360F1E7136870
:107F7000406CDC6AA0422CBF00200120F4E700BF67
:107F8000342F0020402F0020B82F002038B50446A1
:107F900008B9002038BD836CC16A426C013B914234
:107FA0008364F6D0002BF4D1051D284600F053FE63
:107FB000636CE362C3F10502A261074A11688B4258
:107FC00088BF1360054A142000FB0320294600F0F7
:107FD0001FFE0120DEE700BFB82F0020402F002049
:107FE00070B5044650B3436C994238BF1946C36A12
:107FF0008B4223D0826C012A20D18269104DC1624C
:10800000002A4FF0140202FB03534269A4BFC1F1DE
:10801000050181619A4211D1061D304600F01BFE18
:10802000084AE36A116814208B4200FB0350314672
:10803000BDE8704088BF136000F0EABD70BD00BFAE
:10804000402F0020B82F0020044B1A681AB119687D
:108050008A6C01328A641868704700BF342F002090
:10806000F7B5114C00F0D2F92568BDB90F4F104E8D
:10807000384600F0BFFD304600F0BCFD0D4B0E4A07
:108080001F600E4B10211E60202000950C4BFFF747
:10809000CDF8206010B10B49FFF7CEFA03B0BDE870
:1080A000F04000F0BDB900BFBC32002040320020DB
:1080B0005432002038300020403000203C30002076
:1080C0006C3200206DC00200914208B54160006131
:1080D0000AD8D21A83699A420DD2084B011D18683A
:1080E00000F0A2FD002008BD9A4201D2994202D2BE
:1080F000011D034BF3E70120F5E700BF3C300020F2
:108100003830002010B588B0FFF7AAFF0E4B186872
:108110000024B8B107AA06A905A8CDE9054400F0D6
:1081200071FC059B0293069B019302230093079A1F
:10813000064907482346FFF719FC064B1860001B49
:1081400018BF012008B010BDBC32002072C0020070
:1081500005820200C03200207FB50F4C0546206822
:1081600016461A4680B10529CDE9001602950DDCA8
:10817000FFF7BAFE0023022808BF089A206818BF3C
:108180001A466946FFF786F804B070BD00236946B9
:10819000FFF712F9F8E700BFBC3200202DE9F341E8
:1081A000164D4FF000082B681A6832B9144A11684E
:1081B0002960136002B0BDE8F081DB68DC681E68EE
:1081C000271D384600F047FD636A20469847E3695B
:1081D000012BE8D1A36933449E4206D26360246137
:1081E0003946286800F020FDDDE70023CDF8008047
:1081F000324619462046FFF7AFFFD4E7383000205B
:108200003C3000202DE9F04F5D4D89B0A9464FF07C
:10821000000A2A681368002B4ED0D268D2F800B04A
:10822000584C0393FFF722FCFFF728FC2268564EB8
:10823000039B90428046274640D2FFF7AFFFC4F829
:108240000080FFF79FFC4FF0010B002204A930686B
:10825000FFF7E2F80028DCD0049B002B03DADDE90D
:108260000601059B9847049B002BEEDB069C636987
:1082700013B1201D00F0EFFCFFF700FC3B689842B3
:10828000024603D20390FFF789FF039A049B3A60EA
:10829000092BDAD80BFA03F313F4047868D113F03E
:1082A000C70F4AD19B06D0D594F82C30002BCCD1E7
:1082B000204600F0F0FCC8E79B46B1E720600BB316
:1082C000834538D8FFF75EFCD9F80030DB68DC68FE
:1082D000201D00F0C0FCE369012B0FD1A1695B46B2
:1082E000424659442046FFF7EFFE38B10023CDF84F
:1082F00000A05A4619462046FFF72EFF636A204623
:108300009847A0E7214B1B681A68B2FA82F252091B
:10831000ABEB08013068FFF7BCF9FFF733FC00282E
:1083200091D11B4B4FF080525A6040BFBFF34F8F2B
:10833000BFF36F8F87E70022EAE7A169059B20461C
:108340001944FFF7C1FE00283FF47FAF636A20465F
:108350009847E369012B7FF478AFA2690599CDF8BE
:1083600000800A44434641462046FFF7F5FE6CE78D
:108370000599A161134611442046FFF7A5FE64E765
:108380003830002068320020BC3200203C30002011
:1083900000ED00E0402383F31188FEE74FF0807387
:1083A00040E90213054B40F80C3C6FF0020340F823
:1083B000202C40F8243C4438704700BF95830200CD
:1083C0000F4C08B5E02384F8223000F06DF80D4B17
:1083D00000221A60D4F888300B4A43F47003C4F8C2
:1083E0008830536843F040435360236943F01003DF
:1083F000236100F0F9F8402383F31188FEE700BF02
:1084000000ED00E0C432002030EF00E0402383F3B1
:108410001188024A1368013313607047C432002088
:10842000034A1368013B13600BB983F3118870474B
:10843000C432002073B5194B00221A601B680193E7
:10844000019BEFF31186402383F31188144BD3F87B
:108450000445C3F8002103F580731B680093009B5B
:10846000FFF70CFB241A24F07F44012C04D9FFF7FA
:108470003BFD022818BF0124002514F1FF3409D266
:1084800025B1084B4FF080525A6040BF86F31188E7
:1084900002B070BDFFF700FB0543EEE7401101405D
:1084A0000010014000ED00E00A4B0B491F22C3F809
:1084B00008250122C3F804230A601A600222C3F8C7
:1084C0004423064BE02283F811234FF400321A6054
:1084D000704700BF001001400810014000E100E0BB
:1084E000F0B5054685B0EFF3108072B6374CA3683F
:1084F00083B90123A360364B3649D3F880200A4064
:108500002260C3F88010D3F8842062604FF0FF32FD
:10851000C3F8842000B962B62F4FD7F80465FFF77F
:10852000C9FC3B46002841D02C49A94228BF294616
:10853000721822F07F420120C7F80803C7F84025CF
:10854000274A002010601068019001984FF4803095
:10855000C7F80403BFF34F8F3DB11D4820BFD0F8CB
:108560000071D0F804513D43F8D04FF48030C3F887
:1085700008030020106012680392039A194A1060E1
:1085800012680292029A0122C3F80423D3F8043538
:108590009B1B23F07F4088420D4B4FF4003228BFD5
:1085A0000846C3F8802108B1FFF76EFAA3685BB1F3
:1085B000EFF3108372B6064A21681160616851605A
:1085C0000022A26003B962B605B0F0BDE03600201B
:1085D00000E100E0FC06FFBD00100140FDFFFF00D0
:1085E00040110140001101400748006880F30888ED
:1085F00062B661B6BFF34F8FBFF36F8F4FF0E000ED
:1086000080F3118800DF00BF00600200064B19688C
:108610000868B0E8F04F80F30988BFF36F8F4FF020
:10862000000080F311887047342F0020EFF3098099
:10863000BFF36F8F144B1A681EF0100F08BF20EDA8
:10864000108A20E9F04F10604DF8043D4FF04000D3
:1086500080F31188BFF34F8FBFF36F8FFFF756FB87
:108660004FF0000080F3118808BC19680868B0E872
:10867000F04F1EF0100F08BFB0EC108A80F309888D
:10868000BFF36F8F704700BF342F00200A490B4A99
:108690000B4B9B1A03DD043BC858D050FBDC094848
:1086A00009494FF0AD32026004300439FBD100F0CB
:1086B000A3F8FDF7C5FD00008CC3020000280020D0
:1086C000C82D002000F8002000080000FEE7FEE7AB
:1086D000FEE7FEE7FEE7FEE7FEE7FEE7FEE7FEE772
:1086E00008B5FDF7C1FF054C054DFDF765FF002CF2
:1086F000FBD0002DF9D0FEF771FCF6E7000000007A
:10870000DD6F02007047000007B500F0F5F9FFF7D4
:10871000F9FF104B104C13B1AFF3008020600F4BEA
:108720000193012322880E4900930E480023FFF78E
:1087300038F900F0C5F9FFF761F9BFF34F8F0A4927
:108740000A4BCA6802F4E0621343CB60BFF34F8F59
:1087500000BFFDE700000000342C0020C8320020DC
:108760007AC00200E186020000ED00E00400FA0594
:10877000034890F862300BB1FEF71EBA18467047F6
:10878000CC2E00200C4B1B78062B10D10B4B1B68FA
:108790001A070CD10A4B186800F0F003302B08D0F0
:1087A00000F0E000A0F1400358425841704700201B
:1087B00070470120704700BFE00F00F0E40F00F0A9
:1087C000E80F00F0094B1B78062B0CD1084B1B68F7
:1087D0001A0708D1074B186800F0F000A0F1300329
:1087E0005842584170470020704700BFE00F00F02A
:1087F000E40F00F0E80F00F008B5FFF7C3FF28B161
:10880000604B614A1B68C3F304231360FFF7DAFF70
:1088100010B15E4B5E4A1A60FFF7B4FF28B15D4BA2
:108820005D4A1B68C3F342331360FFF7CBFF20B1EF
:108830005A4AD36823F08073D360FFF7A3FF40B197
:108840004FF080430022C3F80C21C3F81021C3F875
:108850003825FFF7B7FF10B1514B03221A60FFF71D
:10886000B1FF40B14F4B05221A6001229A670022E6
:108870009A603F225A604C4B1B78062B50D14B4BD1
:108880001B6819074CD14A4B1B6803F0F003502BAF
:1088900046D14FF08052474BD2F80414C3F820154C
:1088A000D2F80814C3F82415D2F80C14C3F828150C
:1088B000D2F81014C3F82C15D2F81414C3F83015DC
:1088C000D2F81814C3F83415D2F81C14C3F84015A4
:1088D000D2F82014C3F84415D2F82414C3F848156C
:1088E000D2F82814C3F84C15D2F82C14C3F850153C
:1088F000D2F83014C3F85415D2F83414C3F8601504
:10890000D2F83814C3F86415D2F83C14C3F86815CB
:10891000D2F84014C3F86C15D2F84424C3F870257B
:10892000FFF730FF28B1244B244A1B6803F04F03A4
:108930001360FFF727FF48B14FF08043D3F80024BE
:10894000D20744BF6FF00102C3F800241C4B1B6820
:10895000062B08D11B4B1B68062B01BF1A4A136854
:1089600043F480631360194AD2F8883043F47003EB
:10897000C2F88830BFF34F8FBFF36F8F144B154A87
:108980001A6008BD240300104035014074C0074040
:108990000DF0ADBA440200103C050040F0ED00E0DF
:1089A000A005004010560040E00F00F0E40F00F07A
:1089B000E80F00F000C0004058020010E40E004034
:1089C00030010010340100103C17004000ED00E0C1
:1089D000382C00200090D0037047704708B5024B38
:1089E0000BB1AFF3008008BD00000000034B036033
:1089F000034B0B6064231360704700BFD03200202C
:108A000024330020034B0360034B0B60642313608B
:108A1000704700BFB434002008350020014B01220C
:108A20001A707047CC32002010B50446FFF75CFA8C
:108A30000128204603D1BDE8104000F071B9BDE81F
:108A4000104000F028B9000030B51C4D85B04FF043
:108A5000FF3203A92868FEF7DFFC0028F7D003984F
:108A6000037A4468052B05D8DFE803F0030D1014E2
:108A7000191FA047039B186808B1FFF7D5FF03989B
:108A8000FFF7D2FFE3E7C068A047F3E7D0E90301AF
:108A9000A047EFE7D0E90412C068A047EAE7D0E9B1
:108AA0000523D0E90301A047E4E7C3690093D0E9B7
:108AB0000523D0E90301A047DCE700BF983600207A
:108AC0001FB5002204211420FEF7C6FB074B0849FE
:108AD000186003AB0193022300934FF480620023DC
:108AE0000448FEF75EFF05B05DF804FB98360020F1
:108AF0007FC00200498A0200114BD3F84025114B78
:108B00001A604FF080430022C3F8182501229A60B2
:108B10000D4B4FF40031C3F8801003F1C04303F54F
:108B20003C534FF48031C3F84813C3F808135A601C
:108B30009A604FF0A0434FF0FF32C3F8082570470A
:108B400000A000409C36002000E100E01E280FD865
:108B5000114B53F8203003290AD8DFE801F0021640
:108B60000A1003F5E0734FF0A042002142F82310F1
:108B7000704703F5E0734FF0A0420C21F6E703F5D0
:108B8000E0734FF0A0420421F0E703F5E0734FF0EB
:108B9000A0420321EAE700BFB4BF02001E280CD8A0
:108BA000064B53F82020012393404FF0A04211B907
:108BB000C2F80C357047C2F808357047B4BF0200E0
:108BC0001E2813D80A4B53F82020012393404FF05E
:108BD000A042D2F814150B4214BFD2F80425D2F8E3
:108BE0001025134214BF0120002070470020704759
:108BF000B4BF020000F108034FF0FF324360C0E948
:108C00000223036100230360704700230361704760
:108C100043684B609A688A609A68516099600368FB
:108C200008610133036070470A68531C30B50AD1EC
:108C300003695A684A6091608B60596003680861F3
:108C40000133036030BD00F108035C68256895427C
:108C5000EFD82346F9E7D0E9011203698A608268F8
:108C600051605968814208BF5A60002202611A6847
:108C7000013A1A601868704710B50446FEF7F6FE10
:108C8000204600F045F80446FEF77CFF0CB9FFF7DC
:108C9000A4FE204610BD10B5044640B1FEF7E6FE26
:108CA000204600F03DF8BDE81040FEF76BBF10BD58
:108CB0001FB51C46094B1B680546D86852B1084BC6
:108CC0000091CDE9013207492B46224600F00EF80B
:108CD00000F054FF044B1A46F2E700BF00280020C2
:108CE00088C0020095C0020036C002000EB403B571
:108CF000014603AB054853F8042B0068019300F0CC
:108D0000F5F802B05DF804EB03B0704700280020CE
:108D1000024B0146186800F065B800BF002800202B
:108D2000024B0146186800F00FB800BF0028002071
:108D300010B5431E0A44914200D110BD11F8014BF9
:108D400003F8014FF7E7000038B50546002945D084
:108D500051F8043C0C1F002BB8BFE41801F098FF39
:108D60001F4A1368104633B9636014602846BDE893
:108D7000384001F08EBFA3420CD92168621893429B
:108D800004BF1A685B68636004BF52182260046005
:108D9000ECE713465A680AB1A242FAD91968581882
:108DA000A0420BD120680144581882421960DDD1DD
:108DB000106852685A6001441960D7E702D90C2341
:108DC0002B60D3E7206821188A4204BF11685268DB
:108DD000626004BF091821605C60C7E738BD00BF4E
:108DE000A036002070B5CD1C25F0030508350C2DEC
:108DF00038BF0C25002D064601DBA94203D90C2300
:108E00003360002070BD01F043FF214A1468214601
:108E100091B9204C23681BB9304600F0D7FD206083
:108E20002946304600F0D2FD431C24D10C23336088
:108E3000304601F02EFFE4E70B685B1B18D40B2BC8
:108E40000FD90B60CD50CC18304601F022FF04F151
:108E50000B00231D20F00700C31AD3D05A42E25062
:108E6000D0E78C424B6816BF636013600C46EBE79B
:108E70000C464968CCE7C41C24F00304A04205D08A
:108E8000211A304600F0A2FD0130CFD02560DBE78B
:108E9000A0360020A43600209368013B002B10B4BC
:108EA000936008DA9469A34201DB0A2903D15DF8D3
:108EB000044B00F0A3BD1368581C106019700846DD
:108EC0005DF8044B7047F8B506460F461446D518B2
:108ED000AC4201D1002007E03A4614F8011B3046AD
:108EE000FFF7DAFF431CF3D1F8BD00002DE9F04F86
:108EF0009DB00C4617460393064618B183690BB91B
:108F000001F07AFD7B4B9C4257D17468A389180706
:108F10005DD52369002B5AD00023099320238DF8B7
:108F2000293030238DF82A304FF0010BB8464546E2
:108F300015F8013B0BB1252B54D1B8EB070A0BD028
:108F400053463A4621463046FFF7BDFF013000F058
:108F5000C280099B5344099398F80030002B00F01D
:108F6000BA8000234FF0FF32CDE905230493079325
:108F70008DF853301A93A846052218F8011B5E4855
:108F800001F036FE049B78BBD90644BF20228DF841
:108F900053201A0744BF2B228DF853202A782A2AFF
:108FA0002AD0079AA84600200A25414611F8013B1D
:108FB000303B092B69D960B324E0504B9C4201D16E
:108FC000B468A3E74E4B9C4208BFF4689EE7214675
:108FD000304600F065FD00289ED04FF0FF301DB0F8
:108FE000BDE8F08FA846A2E7434A801A0BFA00F0CA
:108FF000184304904546BEE7039A111D1268039179
:10900000002A01DB079204E0524243F00203079278
:10901000049398F800302E2B0ED198F801302A2BAB
:1090200038D1039B1A1D1B680392002BB8BF4FF069
:10903000FF3308F102080593324D98F8001003221F
:10904000284601F0D5FD40B14023401B03FA00F053
:10905000049B034308F10108049398F800102A4880
:109060008DF82810062208F1010701F0C1FD002843
:1090700037D0264B1BBB039B073323F00703083372
:109080000393099B4B44099350E705FB02320120EF
:1090900088468AE7002308F10108059319460A2546
:1090A000404610F8012B303A092A03D9002BC3D0CF
:1090B0000591C1E705FB012101238046F0E703ABE1
:1090C00000932246124B04A9304600F0B7F8B0F1E5
:1090D000FF3F8146D5D1A3895B063FF57EAF099856
:1090E0007DE703AB00932246094B04A9304600F00C
:1090F0005BFBECE734C10200C4C0020054C10200B3
:1091000014C10200CAC00200CEC002003D9202009B
:10911000C78E02002DE9FF4755EC104B0D9FDDF87F
:1091200030A0002D0E4691461946B8BF22462B4668
:1091300027F02007BBBF05F100431D4600232D2368
:10914000B8BF1446462F0B7004D0452F00D101360E
:10915000022100E0032103AB019302AB00933246EE
:10916000534645EC104B00F09FFD472F804602D13F
:1091700019F0010F26D0462F08EB060911D198F8F7
:109180000030302B0AD1002200232046294602F06D
:109190009FFD18B9C6F10106CAF80060DAF8003080
:1091A0009944002200232046294602F091FD38B957
:1091B0003022039B4B4505D2591C03911A70F8E7E6
:1091C000CDF80C90039B0E9AA3EB08034046136066
:1091D00004B0BDE8F087F7B500290446BABF49429C
:1091E0002D232B23092904F8022B437020DD0DF1D8
:1091F00007031F460A2691FBF6F506FB15113031D1
:10920000092D03F8011C03F1FF32294609DC303136
:10921000023B02F8011CBB42224604D3101A03B0E1
:10922000F0BD1346E7E713F8012B04F8012BF2E732
:10923000302319448370021DC170EFE72DE9F04F10
:109240008DB00C46DDF8588016461F46054601F0E5
:109250005DFC03680493184600F0C8FB00230A93E2
:10926000D8F800300590073323F0070303F1080214
:1092700094F818A0D4F800B0C8F80020D3E900236F
:10928000C4E91223D4E9128929F000430793CDF8E9
:1092900018804FF0FF32A74BDDE9060102F04AFDCE
:1092A00070BB4FF0FF32A34BDDE9060102F024FD55
:1092B00030BB002200234046494602F013FD10B1A6
:1092C0002D2384F843309C4A9C4BBAF1470F8CBF46
:1092D0009046984603232BF00402236122604FF04E
:1092E0000009009733460BAA2146284600F0E6F90C
:1092F000013040F08D804FF0FF300DB0BDE8F08FB1
:1093000042464B464046494602F014FD10B18C4A95
:109310008C4BDAE761684B1C4BF480620AA83ED1A3
:10932000062363600023CDE9020309AB009349ECF7
:10933000108B0DF123032260CDF804A0616828464C
:10934000FFF7E8FE0AF0DF03472B804609D1099BAF
:10935000D81C02DB6268934247DDAAF1020A5FFA79
:109360008AFABAF1650F099924D80139524604F1F5
:1093700050000991FFF72FFF0A9A1318012A81461E
:10938000236102DC2268D10701D5013323619DF8F6
:109390002330002BA5D02D2384F84330A1E7BAF168
:1093A000670F00F07781BAF1470FBBD10029B9D11F
:1093B0000123B6E7BAF1660F19D1002963680CDD05
:1093C000216113B92268D20702D501330B4423610E
:1093D000099BA3654FF00009D9E713B92268D007AC
:1093E00001D50233F3E70123F1E74FF0670ADDE926
:1093F0000932934205DB22682361D107E8D50133A6
:10940000E5E7002BD4BFC3F1020301231344DEE7D9
:1094100023685A0507D42369424631462846B8478F
:1094200001302BD167E7BAF1650F40F2DC800022F2
:109430000023D4E9120102F04BFC002833D00123B1
:10944000414A31462846B84701303FF454AFDDE980
:1094500009239A4202DB2368D8070FD5DDE90423EC
:1094600031462846B84701303FF445AF4FF0000879
:1094700004F11A090A9B013B434509DC23689B0759
:1094800000F10381E0680B9B9842B8BF184634E7AF
:1094900001234A4631462846B84701303FF42BAFF6
:1094A00008F10108E6E7099B002B2BDC0123264A83
:1094B00031462846B84701303FF41DAF099B23B918
:1094C0000A9B13B92368D907D8D5DDE904233146AF
:1094D0002846B84701303FF40EAF4FF0000904F1C1
:1094E0001A0A099B5B424B4501DC0A9B94E7012366
:1094F000524631462846B84701303FF4FCAE09F1E8
:109500000109EEE70A9AA36D9A42A8BF1A46002AFB
:10951000914607DD1346314642462846B84701309A
:109520003FF4E9AE04F11A034FF0000B29EAE979A0
:10953000069315E0FFFFEF7FD9C00200D5C00200FF
:10954000E1C00200DDC0020082BE02000123069AD3
:1095500031462846B84701303FF4CDAE0BF1010B40
:10956000D4F858A0AAEB09035B45EFDCDDE9092339
:109570009A42D04415DB2368DA0712D40A9B099972
:10958000A3EB0A02A3EB010A9245A8BF9246BAF1E7
:10959000000F0EDC4FF000082AEAEA7A04F11A09FB
:1095A00019E0DDE9042331462846B8470130E5D10A
:1095B000A1E65346424631462846B8470130E9D134
:1095C00099E601234A4631462846B84701303FF420
:1095D00092AE08F10108DDE909239B1AA3EB0A0307
:1095E0004345EEDC4AE70A9A012A01DCDB073AD55B
:1095F0000123424631462846B84701303FF47BAE4E
:10960000DDE9042331462846B847013008F1010856
:109610003FF471AE0A9B002203F1FF3AD4E9120134
:10962000002302F055FBC8B953464246314628464E
:10963000B84701300ED15EE6012352463146284636
:10964000B84701303FF457AE08F101080A9B013BCF
:109650004345F1DC4B4604F15002DEE64FF00008D2
:1096600004F11A0AF2E70123DFE701234A463146F3
:109670002846B84701303FF43EAE08F10108E368E0
:109680000B9A9B1A4345F0DCFCE64FF0000804F10E
:109690001909F4E700293FF48BAE0023CDE902035A
:1096A00009AB009349EC108B2260CDF804A00DF1BA
:1096B00023032846FFF72EFD804648E62DE9F047B4
:1096C00091461F468A680B69DDF820809342B8BF37
:1096D0001346C9F8003091F8432006460C4612B1F3
:1096E0000133C9F800302368990642BFD9F8003029
:1096F0000233C9F80030256815F0060507D104F1DA
:10970000190AE368D9F800209B1AAB4228DC94F8C8
:1097100043302268003318BF012392062DD404F190
:10972000430239463046C047013020D02368E568FF
:10973000D9F8002003F00603042B08BFAD1AA36874
:1097400022690CBF25EAE57500259342C4BF9B1A28
:10975000ED184FF000091A344D451AD1002008E0E9
:109760000123524639463046C047013003D14FF0FD
:10977000FF30BDE8F0870135C3E7E1185A1C3020FF
:1097800081F84300224494F8451082F843100233D4
:10979000C5E70123224639463046C0470130E6D0AE
:1097A00009F10109D8E700002DE9F04301F1430C6C
:1097B0000C46097E85B06E291746064698460C9AD7
:1097C00000F0B38022D8632936D00AD8002900F0EF
:1097D000B980582900F0838004F1420584F84210D2
:1097E00032E0642901D06929F6D1206813680506A2
:1097F00003F104012AD51B681160002B03DA2D2226
:109800005B4284F843206F480A2239E0732900F054
:109810009D8008D86F2920D07029DDD1236843F0BE
:109820002003236003E0752917D07829D4D1782349
:1098300084F84530644855E01368191D1B681160B1
:1098400004F1420584F8423001238CE01B6811606A
:1098500010F0400F18BF1BB2CFE713682568181D22
:109860001060280601D51B6802E06806FBD51B883E
:1098700054486F2914BF0A220822002184F843109B
:109880006568A560002DC0F29580216821F0040173
:109890002160002B3DD1002D40F08E806546082AC6
:1098A0000BD12368DB0708D5236962689A42DEBFC3
:1098B000302305F8013C05F1FF35ACEB05032361CE
:1098C000CDF800803B4603AA21463046FFF7F6FE5E
:1098D00001304DD14FF0FF3005B0BDE8F08339487D
:1098E00084F84510136821681D1D1B6815600A0661
:1098F0000BD5CA0744BF41F0200121601BB9226883
:1099000022F0200222601022B7E74D0648BF9BB22A
:10991000EFE76546B3FBF2F102FB1133C35C05F8D8
:10992000013D0B460029F5D1B9E713682568616947
:10993000181D106028061B6801D5196002E06A0630
:10994000FBD51980002323616546B9E71368191D0B
:1099500011601D6862680021284601F049F908B1CC
:10996000401B606063682361002384F84330A7E7ED
:1099700023692A4639463046C0470130AAD02368B9
:109980009B0713D4E068039B9842B8BF1846A3E72F
:1099900001234A4639463046C04701309AD0013546
:1099A000E368039A9B1AAB42F2DCEBE7002504F173
:1099B0001909F5E7002BACD1037884F8423004F1A3
:1099C00042056CE7E5C00200F6C0020038B5064C5F
:1099D000002305460846236002F022FA431C02D108
:1099E000236803B12B6038BDEC360020034613F822
:1099F000012B002AFBD1181A01387047F8B50E4622
:109A00001446054618B183690BB900F0F5FF214BE8
:109A10009C422AD16C68A369A360A3891A072ED53A
:109A2000236963B323692068C01A6369F6B283426D
:109A3000374604DC2146284600F074FF28BBA368A3
:109A4000013BA36023685A1C22601E7063690130C9
:109A5000834204D0A389DB0719D50A2E17D12146EA
:109A6000284600F05FFF90B10FE00B4B9C4201D104
:109A7000AC68D0E7094B9C4208BFEC68CBE72146B5
:109A8000284600F00DF80028CCD04FF0FF373846BC
:109A9000F8BD00BF34C1020054C1020014C102006D
:109AA000324B70B51D6806460C4625B1AB6913B93B
:109AB000284600F0A1FF2E4B9C420FD16C68B4F9F0
:109AC0000C309AB215072CD4D00611D4092232607A
:109AD00043F04003A3814FF0FF303EE0254B9C4212
:109AE00001D1AC68EBE7244B9C4208BFEC68E6E789
:109AF000510712D5616B41B104F14403994202D080
:109B00003046FFF721F900236363A38923F0240380
:109B1000A3810023636023692360A38943F00803C2
:109B2000A38123694BB9A38903F42073B3F5007FA4
:109B300003D02146304601F01BF8A28912F0010340
:109B40000CD00023A36063695B42A361236953B90E
:109B5000B4F90C3013F08000BAD170BD920758BF31
:109B60006369A360F2E70020F7E700BF0028002048
:109B700034C1020054C1020014C1020008B506201D
:109B800001F09AFB0120FCF715FD2DE9F74F036961
:109B90000C69A3428046C0F28280013C01F11407A7
:109BA0004FEA840C00F1140657F8245056F82400AC
:109BB00006EB0C03013507EB0C090193B0FBF5F53F
:109BC00095B34FF0000A3846B646D34650F8042BFA
:109BD00093B205FB03A34FEA134A9BB2ABEB03031B
:109BE000120CDEF800B005FB02A213FA8BF34FEA69
:109BF000124A1FFA82FBDEF80020CBEB124202EB86
:109C000023429BB243EA024381454FEA224B4EF87E
:109C1000043BDBD256F80C3033B9019B043B9E4227
:109C20001A4630D3C8F81040404601F049FA0028DF
:109C300025DB013530464FF0000C57F8042BD0F8E7
:109C400000E093B2ACEB0303120C13FA8EF3C2EBF9
:109C50001E4202EB23429BB243EA0243B9454FEA5C
:109C6000224C40F8043BE8D256F8242006EB84034B
:109C70002AB9043B9E421A460BD3C8F81040284626
:109C800003B0BDE8F08F1268043B002ACAD1013C42
:109C9000C5E71268043B002AEFD1013CEAE7002047
:109CA000EEE70000000000002DE9F04F57EC106BCC
:109CB00097B0456A069104460B921293DDF88080B6
:109CC000CDE900673DB91020FFF722F86062C0E9D6
:109CD00001550560C560636A196851B15A684A60E8
:109CE000012393408B60204601F008F8636A00224C
:109CF0001A603B1EBBBF23F00043019300230122E7
:109D0000ACBFC8F80030C8F80020AF4BDDF80480C5
:109D100033EA080314D1129A42F20F731360009BC6
:109D200023B9C8F31300002800F04285219BDFF817
:109D3000ACB2002B00F044850BF1030300F03EBDF4
:109D4000DDE90067002200233046394601F0C0FFFC
:109D5000814668B1129A01231360219B002B00F009
:109D600024859A4B219A03F1FF3B136000F028BD34
:109D700014AA15A947EC106B204601F018FAC8F395
:109D80000A550490002D7CD0C7F3130343F07F5B8A
:109D9000B2464BF4401BA5F2FF35CDF84C900022A3
:109DA0008B4B5046594601F073FB81A3D3E9002346
:109DB00001F026FD80A3D3E9002301F06BFB0646EA
:109DC00028460F4601F0B2FC7DA3D3E9002301F041
:109DD00017FD02460B463046394601F05BFB06464E
:109DE0000F4601F0BDFF002282460023304639466F
:109DF00001F078FF48B1504601F098FC32463B46EE
:109E000001F066FF08B90AF1FF3ABAF1160F59D806
:109E1000704901EBCA01DDE90023D1E9000101F03D
:109E20007FFF002850D00AF1FF3A00230F93149BC4
:109E30005D1BB5F1010849BFC5F10103002305937E
:109E40004FF0000858BF0593BAF1000F3EDB002326
:109E5000D044CDF838A00793069B092B00F29080E0
:109E6000052BC4BF043B0693069BA3F10203CCBFA2
:109E700000250125032B00F28F80DFE803F07D7FB2
:109E80003171DDE914531D4405F23240202813DD01
:109E9000C0F14000009B08FA00F805F2124023FAD6
:109EA00000F048EA000001F031FC01238246A1F1F4
:109EB000F87B013D139372E7009BC0F1200003FA89
:109EC00000F0F0E70123B1E70F90B0E7059BA3EBAB
:109ED0000A030593CAF10003079300230E93BBE71F
:109EE00001230A930B9B002B59DD02939946666A66
:109EF00000227260042202F114009842716853D962
:109F0000204600F0C7FE636A3060B9F10E0FD3F847
:109F100000B000F2E680002D00F0E3809DED007BB4
:109F2000BAF1000F8DED107B74DD2A4A0AF00F03A1
:109F300002EBC30393ED007B4FEA2A16F0068DED8A
:109F4000087B65D5244BDDE91001D3E9082301F036
:109F500081FDCDE9000106F00F0603251E4F4CE000
:109F600001230A930B9B534403F1010902934B46CF
:109F7000012BB8BF0123BAE70023B2E70023F0E7C3
:109F80000125002306930A954FF0FF33029399466B
:109F9000002212230B92AAE701230A93F4E701237C
:109FA000029399461A46F5E7013171605200A2E723
:109FB00061436F63A787D23FB3C8608B288AC63FCF
:109FC000FB799F501344D33F0000F07F83BE020013
:109FD0000000F83FA0C1020078C1020010C10200D9
:109FE000F10708D5DDE90801D7E9002301F008FCF5
:109FF000CDE90801013576100837002EF0D1DDE9F2
:10A000000823DDE9000101F025FDCDE900011AE09A
:10A010000225A3E700F0A080CAF100069F4BA04FE5
:10A0200006F00F0203EBC203D3E90023DDE91001C0
:10A0300001F0E6FBCDE90001361100230225002ED8
:10A040007FD1002BE1D10F9B002B00F08780DDE951
:10A0500000670022934B3046394601F043FE00284A
:10A060007CD0B9F1000F79D0029B002B35DD0AF1CD
:10A07000FF330893394600228B4B304601F0C0FB7A
:10A08000CDE90001029F0135284601F04FFBDDE9D3
:10A09000002301F0B5FB0022844B01F0FBF90546DB
:10A0A000A1F15076002F5DD10022814BDDE9000146
:10A0B00001F0EEF92A463346CDE9000101F030FE09
:10A0C000002840F088822A4606F10043DDE90001BD
:10A0D00001F008FE002840F07C82DDE91023CDE984
:10A0E0000023159B002BC0F25081BAF10E0F00F334
:10A0F0004C816A4B03EBCA0393ED007B0B9B002B57
:10A100008DED027B80F2D880B9F1000F00F3D4808E
:10A1100040F05E820022664B51EC170B01F070FBA1
:10A12000DDE9002301F0F2FD4F464E46002840F0E5
:10A13000348231230BF101058BF800300AF1010A5A
:10A140002FE2F20705D5D7E9002301F059FB0135CD
:10A1500001237610083772E7022574E7CDF820A0B6
:10A160004F4691E74D4B03EBC70353E902010A9BAE
:10A17000002B47D002460B4600204E4901F06AFCF6
:10A180002A46334601F084F9CDE90C015D46DDE94C
:10A19000000101F0E5FD064601F0C8FA02460B4653
:10A1A000DDE9000101F074F9303605F8016BDDE9F5
:10A1B0000C23CDE9000101F095FD002863D1DDE914
:10A1C00000230020374901F063F9DDE90C2301F099
:10A1D00089FD002840F0B780A5EB0B039F427FF775
:10A1E0007CAF0022304BDDE90C0101F009FB0022BD
:10A1F000CDE90C012C4BDDE9000101F001FBCDE9BB
:10A200000001C4E72A46334601F0FAFACDE90C0111
:10A210000BEB07055E46DDE9000101F0A1FD0746F5
:10A2200001F084FA303702460B46DDE9000101F007
:10A230002FF906F8017BAE42CDE900014FF0000294
:10A2400026D11C4BDDE90C0101F024F902460B4636
:10A25000DDE9000101F064FD002874D1DDE90C2383
:10A260000020144901F014F902460B46DDE9000113
:10A2700001F038FD00283FF430AF15F8013C302BD9
:10A2800005F1FF3202D0DDF820A04AE01546F4E7E0
:10A29000054B01F0B5FACDE90001BCE7A0C1020011
:10A2A00078C102000000F03F0000244000001C4084
:10A2B000000014400000E03FDDE900675D46DDE995
:10A2C00002233046394601F0C5FB01F049FD8046C6
:10A2D00001F02CFADDE9022301F092FA02460B4666
:10A2E0003046394608F1300601F0D2F805F8016B26
:10A2F000A5EB0B06B14502460B4639D101F0CAF871
:10A30000DDE9022306460F4601F00AFDC8B9DDE982
:10A3100002233046394601F0DBFC10B118F0010F82
:10A320000FD10499204600F0E9FC0023129A2B700B
:10A330000AF101031360219B002B00F041821D6094
:10A340003EE2CDF820A015F8012C392A05F1FF33A3
:10A3500008D19B450AD1089B0133089330238BF821
:10A3600000305B461A7801321A708CE71D46EAE726
:10A3700000229B4B01F044FA0022002306460F46C0
:10A3800001F0A6FC00289AD0CBE70A9A002A00F038
:10A390008B80069A012A6EDC139A002A67D003F29A
:10A3A0003343079F059D059A01211A4420460592D3
:10A3B000984400F043FD0646002D0CDDB8F1000F77
:10A3C00009DD4545059A2B46A8BF4346D21A05929A
:10A3D000ED1AA8EB0308079BEBB10A9B002B67D093
:10A3E0008FB131463A46204600F0C8FD049A014636
:10A3F0000646204600F02BFD04990890204600F008
:10A400007DFC089B0493079BDA1B04D0049920462B
:10A4100000F0B4FD04900121204600F00FFD0E9BDA
:10A420000746002B00F0D0811A460146204600F076
:10A43000A5FD069B012B074640DC009B002B39D174
:10A44000019BC3F31303002B36D1019B23F0004380
:10A450001B0D1B052BB1059B0133059308F101086A
:10A46000012307930E9B002B2AD1012030E0149B7F
:10A47000C3F1360395E7079B09F1FF37BB42BFBF26
:10A48000079B0797FA1A0E9BBBBF9B180E93DF1B07
:10A490000027B9F1000FB5BF059B059DA3EB09058A
:10A4A0004B46B8BF00237EE7079F059D0A9E83E7C2
:10A4B000079AABE70023D4E7009BD2E7002307937A
:10A4C0003B6907EB8303186900F06AFCC0F12000C8
:10A4D000404410F01F0047D0C0F12003042B3BDDA7
:10A4E000059BC0F11C000344059305448044059B73
:10A4F000002B05DD1A460499204600F08DFD0490DE
:10A50000B8F1000F05DD39464246204600F084FDD3
:10A5100007460F9B53B33946049800F0D1FD00283D
:10A5200024DA00230A220499204600F0FEFB0A9B4D
:10A5300004900AF1FF3A002B00F04D8100233146D0
:10A540000A22204600F0F1FB029B002B06464FDC5E
:10A55000069B022B4CDD11E0C9D0059A1C331A442E
:10A5600005921D449844C2E70346F6E7B9F1000F8F
:10A5700038DC069B022B35DDCDF80890029B63B9D1
:10A5800039460522204600F0D0FB014607460498D4
:10A5900000F096FD00283FF7CCAD0B9B5D466FEABF
:10A5A000030A4FF000093946204600F0A7FB002EB1
:10A5B0003FF4B7AEB9F1000F05D0B14503D049461D
:10A5C000204600F09BFB3146204600F097FBA8E6B2
:10A5D00000273E46E1E7DDF820A03E46A9E500BFA2
:10A5E000000024400A9BCDF80890002B00F0FA8070
:10A5F000002D05DD31462A46204600F00DFD0646B9
:10A60000079B002B4CD07168204600F043FB326959
:10A6100002320546920006F10C010C30FEF788FB71
:10A6200001222946204600F0F7FC009BCDF814B02B
:10A6300003F00103B1460793064639460498FFF735
:10A64000A4FA4946054600F13008049800F038FDA8
:10A65000324600903946204600F04CFDC368024661
:10A6600003BB01460890049800F02AFD089A0346AF
:10A6700011462046089300F041FB089BA3B9069AB7
:10A6800092B9079A82B9B8F1390F29D0009B002BF3
:10A6900001DD05F13108059B5D1C83F8008082E730
:10A6A0003046C2E70123E3E7009A002A04DB25D104
:10A6B000069A1ABB079A0ABB002BECDD012204990B
:10A6C000204600F0A9FC3946049000F0F9FC00286F
:10A6D00003DCE0D118F0010FDDD0B8F1390FD8D18B
:10A6E000059B059A5D1C3923137015F8013C392B25
:10A6F00005F1FF324FD00133137054E7059A002B58
:10A7000002F1010506DDB8F1390FE9D008F10108C1
:10A71000059BC2E7029A05F8018CA5EB0B03934257
:10A7200021D000230A220499204600F0FEFAB14508
:10A7300004904FF000034FF00A024946204605D12D
:10A7400000F0F3FA81460646059576E700F0EDFA4B
:10A750003146814600230A22204600F0E6FA0646EA
:10A76000F2E74FF0000901220499204600F054FC62
:10A770003946049000F0A4FC0028B6DC02D118F0A1
:10A78000010FB2D115F8013C302B05F1FF327FF4F7
:10A790000AAF1546F6E7934505D131230AF1010AC0
:10A7A0008BF80030FFE615469FE7DFF864B007E05E
:10A7B000219BDFF860B01BB10BF10803219A1360F5
:10A7C000584617B0BDE8F08F069B012B7FF735AEDA
:10A7D0000E9B079349E6029B002B03DC069B022B92
:10A7E0003FF7CCAE5D4639460498FFF7CEF900F14D
:10A7F000300805F8018B029AA5EB0B039A42B0DDF5
:10A8000000230A220499204600F08FFA0490EAE718
:10A8100082BE020007C102008A892DE9F041054687
:10A8200010070C4658D44B68002B05DC0B6C002B32
:10A8300002DC0020BDE8F081E66A002EF9D000239A
:10A8400012F480522F68216A2B6032D0606DA38988
:10A850005A0705D56368C01A636B0BB1236CC01A25
:10A8600000230246E66A216A2846B047431CA389B2
:10A8700006D129681D2948D8294ACA40D60744D597
:10A8800000226260D9042269226004D5421C01D1F1
:10A890002B6803B96065616B2F600029C9D004F192
:10A8A0004403994202D02846FEF74EFA0020606326
:10A8B000C0E701232846B047411CC8D12B68002BB4
:10A8C000C5D01D2B01D0162B01D12F60B1E7A38974
:10A8D00043F04003A381ADE70F69002FA9D0930790
:10A8E0000E6808BF4B690F6018BF0023A6EB07086E
:10A8F0008B60B8F1000F9CDD43463A46216AA66A98
:10A900002846B047002806DCA38943F04003A38112
:10A910004FF0FF308EE70744A8EB0008E9E700BFDF
:10A920000100402038B50B6905460C46DBB118B173
:10A9300083690BB900F060F80C4B9C4209D16C683C
:10A94000B4F90C307BB121462846BDE83840FFF70A
:10A9500063BF074B9C4201D1AC68F1E7054B9C42B9
:10A9600008BFEC68ECE7002038BD00BF34C102002E
:10A9700054C1020014C10200002310B50446C0E90E
:10A980000033836081814366C281C0E904338361FF
:10A99000194608225C30FBF7C1FC054B6362054B8E
:10A9A000A362054BE362054B2462236310BD00BF25
:10A9B000F1B2020013B302004BB302006FB3020006
:10A9C000014900F085B800BF25A9020070B54A1EF4
:10A9D000682555430E4605F17401FEF703FA044657
:10A9E00040B10021C0E900160C30A06005F16802FA
:10A9F000FBF794FC204670BD836910B5044633BB59
:10AA0000C0E912330365124B124A1B6882629842F6
:10AA100004BF0123836100F01FF86060204600F04E
:10AA20001BF8A060204600F017F80022E060042127
:10AA30006068FFF7A1FF01220921A068FFF79CFFD2
:10AA400002221221E068FFF797FF0123A36110BDE6
:10AA500054BE0200C1A90200F8B51B4B1E68B369C1
:10AA6000074613B93046FFF7C7FF4836D6E9013429
:10AA7000013B03D5336833B13668F7E7B4F90C50BE
:10AA80006DB16834F4E704213846FFF79FFF30606A
:10AA90000028F1D10C233B6004462046F8BD0B4B47
:10AAA0006566C4E90055A560C4E90335C4E90555E8
:10AAB0000822294604F15C00FBF730FCC4E90D557F
:10AAC000C4E91255E9E700BF54BE02000100FFFFD0
:10AAD0002DE9F8438046894600F14804002614B960
:10AAE0003046BDE8F883D4E90175013F01D52468FB
:10AAF000F5E7AB89012B07D9B5F90E30013303D047
:10AB000029464046C84706436835EEE7044B1B68B4
:10AB1000186A044B002808BF1846F030704700BF81
:10AB2000002800203C2C002070B50E46B1F90E1014
:10AB3000002996B014461D4607DA00232B60B3891E
:10AB40001A0610D44FF480630EE06A4600F036FC1B
:10AB50000028F2DB019A02F47042A2F500535A4237
:10AB60005A412A60EEE740230020236016B070BDF2
:10AB70008B8973B59D0706460C4607D504F147033C
:10AB8000236023610123636102B070BD01AB6A469B
:10AB9000FFF7CAFF009905463046FEF723F948B98A
:10ABA000B4F90C309A05EFD423F0030343F0020309
:10ABB000A381E3E70D4BB362A389206043F08003D8
:10ABC000A381009B6361019B20615BB1B4F90E100E
:10ABD000304600F005FC28B1A38923F0030343F0BD
:10ABE0000103A381A3891D43A581CDE7C1A902006B
:10ABF00001F0FF01102A2BDB10F0070F08D010F82E
:10AC0000013B013A8B422DD010F0070F42B3F6D131
:10AC1000F0B441EA012141EA014122F007047FF04A
:10AC200000070023F0E80256083C85EA010586EAA1
:10AC3000010685FA47F5A3FA87F586FA47F6A5FADD
:10AC400087F68EB9EED1F0BC01F0FF0102F00702E9
:10AC500032B110F8013B013A83EA010313B1F8D194
:10AC60000020704701387047002D06BF3546033875
:10AC7000073815F0010F07D1013015F4807F02BFAE
:10AC8000013015F4C03F0130F0BC0138704700BFFF
:10AC90007047704770B5456A04460E463DB91020AE
:10ACA000FEF736F86062C0E901550560C560656A67
:10ACB000EB6883B1636ADB6853F82600B8B90121F9
:10ACC00001FA06F56A1D9200204600F0BFFA60B155
:10ACD000C0E901650EE021220421204600F0B6FA09
:10ACE000636AE860DB68002BE4D1002070BD026875
:10ACF00043F826200023C0E90333F7E770B5446A20
:10AD000006460D463CB91020FEF702F87062C0E915
:10AD100001440460C4603DB1736A6A68DB6853F83B
:10AD20002210296043F8225070BD2DE9F0410D69D1
:10AD30001F4606460C4601F1140C0023DCF8000007
:10AD400081B202FB01710F0C000C02FB007089B292
:10AD5000013301EB00419D424FEA10474CF8041BC0
:10AD6000ECDCD7B1A368AB4212DC6168304601313C
:10AD7000FFF790FF2269023204F10C018046920035
:10AD80000C30FDF7D5FF21463046FFF7B7FF4446AC
:10AD900004EB850301355F6125612046BDE8F08144
:10ADA000020C12040346B2B90304102013F07F4FC3
:10ADB00004BF1B02083013F0704F04BF1B010430A6
:10ADC00013F0404F04BF9B000230002B06DB5B00FA
:10ADD00003D5013070470020E8E720207047036862
:10ADE00013F0070201460BD0DA0723D4980749BFB6
:10ADF0005B089B0801200B605CBF0B600220704762
:10AE000098B2A8B91B0C102013F0FF0F04BF1B0A47
:10AE100008301A0704BF1B0904309A0704BF9B08B7
:10AE20000230DA0702D45B0806D001300B607047AD
:10AE30001046E9E7002070472020704710B50C4607
:10AE40000121FFF727FF01224461026110BD2DE9B6
:10AE5000F74F14460A6923699A42B8BF0B468846E1
:10AE6000BCBFA0461C46D8F81070D4F81090D8F893
:10AE70000830D8F8041007EB0906B342B8BF013117
:10AE8000FFF708FF00F1140505EB860E2B460022A4
:10AE9000734516D304F1140208F1140102EB89037F
:10AEA00001EB87070093009B019293420CD8002E80
:10AEB00003DD5EF8043D002B5DD0066103B0BDE804
:10AEC000F08F43F8042BE3E7B2F800B0BBF1000FBA
:10AED00023D08946AC464FF0000859F8044BDCF803
:10AEE00000A0A3B21FFA8AFA0BFB03A34FEA144A8D
:10AEF000DCF8004043444FEA14480BFB0A8404EB9F
:10AF00001344E2469BB243EA04434F454FEA1448D8
:10AF10004AF8043B2BD8CCF80480019BB3F802A07C
:10AF20000432BAF1000F20D02B688946A8464FF0B2
:10AF3000000BB9F800C0B8F802400AFB0C445C44AE
:10AF4000C4469BB243EA04434CF8043B59F8043B23
:10AF5000B8F804B01B0C0AFB03B303EB14434F45D2
:10AF60004FEA134B05D8C8F8043004359BE7D446A4
:10AF7000B3E7E046DDE7013E99E700002DE9F8433D
:10AF8000154612F0030206460F4607D0013A214C3F
:10AF9000002354F82220FFF7C8FE0746AD1035D035
:10AFA000746A3CB91020FDF7B3FE7062C0E9014439
:10AFB0000460C460D6F82480D8F808404CB940F248
:10AFC00071213046FFF73AFF0023C8F80800044615
:10AFD00003604FF00008EB070AD539462246304699
:10AFE000FFF735FF394681463046FFF787FE4F466B
:10AFF0006D100BD0206838B9224621463046FFF745
:10B0000026FF2060C0F800800446E4E73846BDE82B
:10B01000F88300BF68C202002DE9F0470C464FEAF2
:10B02000621A236949680AEB0309A36807461646B2
:10B0300009F10105AB4232DB3846FFF72BFE002356
:10B04000804600F114011A4653452BDB20692AEA99
:10B05000EA7A04F1140316F01F0201EB8A0103EBF4
:10B06000800C25D0C2F1200E00201E688A46964032
:10B0700030434AF8040B53F8040B9C4520FA0EF0B9
:10B0800014D8486008B109F10205013D3846C8F8F6
:10B0900010502146FFF732FE4046BDE8F0870131EF
:10B0A0005B00C7E741F823200133CDE75146DCE7D9
:10B0B000043953F8042B41F8042F9C45F9D8E4E7F0
:10B0C00003690A699B1A30B50CD19200143014310F
:10B0D0008418114454F8045D51F8042D954203D0AE
:10B0E00005D30123184630BDA042F3D3FAE74FF051
:10B0F000FF33F7E72DE9F0470D460746114628468E
:10B100001446FFF7DDFF061E08D131463846FFF72B
:10B11000C1FD0123C0E90436BDE8F087A4BF234682
:10B120002C4638466168A6BF1D4600260126FFF75B
:10B13000B1FD2B69C660266905F1140904F11402FA
:10B1400002EB860709EB830800F114054FF0000EAF
:10B1500052F804AB59F8044B1EFA8AF1A3B2C91A8B
:10B16000230CC3EB1A4303EB214389B24FEA234E6E
:10B17000C84541EA0343944645F8043BE8D8BC453A
:10B1800004D355F8043D83B10661C5E75CF8041BA0
:10B190001EFA81F31A1402EB11429BB243EA0243F6
:10B1A0004FEA224E45F8043BE9E7013EE9E72DE985
:10B1B000F7430E46012159EC108B1546FFF76AFD47
:10B1C000C9F30A540746C9F3130334BB0193B8F11A
:10B1D000000327D002A840F8083DFFF700FE0099C1
:10B1E000F0B1019AC0F1200302FA03F30B43C2400D
:10B1F0007B610192019BBB61002B14BF02210121E5
:10B200003961C4B1A4F2334404443460C0F1350060
:10B210002860384603B0BDE8F08343F48013D5E7D7
:10B220007961E7E701A8FFF7DAFD019B7B61012166
:10B2300039612030E5E707EB8103A0F2324030604E
:10B240001869FFF7ADFDC0EB4110E1E738B502FB2F
:10B2500001F42146FDF7C6FD054618B1224600213E
:10B26000FBF75CF8284638BD1F2938B504460D4663
:10B2700004D9162303604FF0FF3038BD426C12B181
:10B2800052F821304BB9204600F030F82A460146EA
:10B290002046BDE8384000F017B8012B0AD0591CF1
:10B2A00003D1162303600120E7E7002442F825407C
:10B2B000284698470020E0E7024B01461868FFF750
:10B2C000D3BF00BF0028002038B5074C0023054637
:10B2D00008461146236000F08BFD431C02D1236811
:10B2E00003B12B6038BD00BFEC36002000F070BD0C
:10B2F00010B50C46B1F90E1000F0A6F80028ABBF4F
:10B30000636DA3891B1823F48053ACBF6365A381CD
:10B3100010BD2DE9F0411F468B89DB0505460C4623
:10B32000164605D502230022B1F90E1000F068F888
:10B33000A389B4F90E1023F48053A38132463B460F
:10B340002846BDE8F04100F017B810B50C46B1F939
:10B350000E1000F055F8431CA38915BF606523F457
:10B36000805343F48053A38118BFA38110BDB1F96A
:10B370000E1000F013B8000038B5074C054608461B
:10B380001146002222601A46FDF7F2F9431C02D151
:10B39000236803B12B6038BDEC36002038B5064C6D
:10B3A000002305460846236000F002FD431C02D13D
:10B3B000236803B12B6038BDEC36002038B5074C4C
:10B3C0000023054608461146236000F0F9FC431CA3
:10B3D00002D1236803B12B6038BD00BFEC360020DA
:10B3E00038B5064C002305460846236000F0F8FCFB
:10B3F000431C02D1236803B12B6038BDEC3600201A
:10B4000038B5074C054608461146002222601A4608
:10B4100000F0F6FC431C02D1236803B12B6038BD59
:10B42000EC36002082B001B901A942B14BB11378CA
:10B430000B601278101C18BF012002B07047104634
:10B44000FBE76FF00100F8E738B5074C0546084602
:10B450001146002222601A4600F0DAFC431C02D199
:10B46000236803B12B6038BDEC36002049B1FF2AB8
:10B4700085BF8A2303600A704FF0FF3098BF012018
:10B48000704708467047000081F0004102E000BFAD
:10B4900083F0004330B54FEA41044FEA430594EA94
:10B4A000050F08BF90EA020F1FBF54EA000C55EACF
:10B4B000020C7FEA645C7FEA655C00F0E2804FEAA0
:10B4C0005454D4EB5555B8BF6D420CDD2C4480EA82
:10B4D000020281EA030382EA000083EA010180EAB2
:10B4E000020281EA0303362D88BF30BD11F0004F00
:10B4F0004FEA01314FF4801C4CEA113102D0404236
:10B5000061EB410113F0004F4FEA03334CEA133370
:10B5100002D0524263EB430394EA050F00F0A78088
:10B52000A4F10104D5F1200E0DDB02FA0EFC22FA83
:10B5300005F2801841F1000103FA0EF2801843FA77
:10B5400005F359410EE0A5F120050EF1200E012A68
:10B5500003FA0EFC28BF4CF0020C43FA05F3C018A6
:10B5600051EBE37101F0004507D54FF0000EDCF11F
:10B57000000C7EEB00006EEB0101B1F5801F1BD3C8
:10B58000B1F5001F0CD349085FEA30004FEA3C0CCC
:10B5900004F101044FEA445212F5800F80F09A80C2
:10B5A000BCF1004F08BF5FEA500C50F1000041EBC6
:10B5B000045141EA050130BD5FEA4C0C404141EBCA
:10B5C000010111F4801FA4F10104E9D191F0000FF1
:10B5D00004BF01460020B1FA81F308BF2033A3F174
:10B5E0000B03B3F120020CDA0C3208DD02F1140C6B
:10B5F000C2F10C0201FA0CF021FA02F10CE002F1A6
:10B600001402D8BFC2F1200C01FA02F120FA0CFC9E
:10B61000DCBF41EA0C019040E41AA2BF01EB0451E7
:10B62000294330BD6FEA04041F3C1CDA0C340EDCE5
:10B6300004F11404C4F1200220FA04F001FA02F328
:10B6400040EA030021FA04F345EA030130BDC4F1E6
:10B650000C04C4F1200220FA02F001FA04F340EADB
:10B660000300294630BD21FA04F0294630BD94F08C
:10B67000000F83F4801306BF81F480110134013D73
:10B680004EE77FEA645C18BF7FEA655C29D094EAE4
:10B69000050F08BF90EA020F05D054EA000C04BF62
:10B6A0001946104630BD91EA030F1EBF002100204D
:10B6B00030BD5FEA545C05D14000494128BF41F0EC
:10B6C000004130BD14F580043CBF01F5801130BD50
:10B6D00001F0004545F0FE4141F470014FF00000DB
:10B6E00030BD7FEA645C1ABF194610467FEA655C8C
:10B6F0001CBF0B46024650EA013406BF52EA03352E
:10B7000091EA030F41F4002130BD00BF90F0000F1B
:10B7100004BF0021704730B54FF4806404F1320457
:10B720004FF000054FF0000150E700BF90F0000F10
:10B7300004BF0021704730B54FF4806404F1320437
:10B7400010F0004548BF40424FF000013EE700BF07
:10B7500042004FEAE2014FEA31014FEA02701FBF97
:10B7600012F07F4393F07F4F81F06051704732F0C9
:10B770007F4208BF704793F07F4F04BF41F4002120
:10B78000704730B54FF4607401F0004521F000417E
:10B790001CE700BF50EA010208BF704730B54FF008
:10B7A00000050AE050EA010208BF704730B511F009
:10B7B000004502D5404261EB41014FF4806404F141
:10B7C00032045FEA915C3FF4D8AE4FF003025FEAC7
:10B7D000DC0C18BF03325FEADC0C18BF033202EB4B
:10B7E000DC02C2F1200300FA03FC20FA02F001FAA5
:10B7F00003FE40EA0E0021FA02F11444BDE600BF48
:10B8000070B54FF0FF0C4CF4E06C1CEA11541DBFF6
:10B810001CEA135594EA0C0F95EA0C0F00F0DEF8C1
:10B820002C4481EA030621EA4C5123EA4C5350EAA6
:10B83000013518BF52EA033541F4801143F48013F7
:10B8400038D0A0FB02CE4FF00005E1FB02E506F088
:10B850000042E0FB03E54FF00006E1FB03569CF0DD
:10B86000000F18BF4EF0010EA4F1FF04B6F5007FE3
:10B8700064F5407404D25FEA4E0E6D4146EB060655
:10B8800042EAC62141EA55514FEAC52040EA5E50DE
:10B890004FEACE2EB4F1FD0C88BFBCF5E06F1ED888
:10B8A000BEF1004F08BF5FEA500E50F1000041EBBF
:10B8B000045170BD06F0004646EA010140EA02006C
:10B8C00081EA0301B4EB5C04C2BFD4EB0C0541EA8E
:10B8D000045170BD41F480114FF0000E013C00F3A3
:10B8E000AB8014F1360FDEBF002001F0004170BDC7
:10B8F000C4F10004203C35DA0C341BDC04F11404E0
:10B90000C4F1200500FA05F320FA04F001FA05F26B
:10B9100040EA020001F0004221F0004110EBD37038
:10B9200021FA04F642EB06015EEA430E08BF20EA64
:10B93000D37070BDC4F10C04C4F1200500FA04F307
:10B9400020FA05F001FA04F240EA020001F0004199
:10B9500010EBD37041F100015EEA430E08BF20EA0C
:10B96000D37070BDC4F1200500FA05F24EEA020E54
:10B9700020FA04F301FA05F243EA020321FA04F083
:10B9800001F0004121FA04F220EA020000EBD3703A
:10B990005EEA430E08BF20EAD37070BD94F0000F3A
:10B9A0000FD101F00046400041EB010111F4801F6E
:10B9B00008BF013CF7D041EA060195F0000F18BF1F
:10B9C000704703F00046520043EB030313F4801F5B
:10B9D00008BF013DF7D043EA0603704794EA0C0F15
:10B9E0000CEA135518BF95EA0C0F0CD050EA41062B
:10B9F00018BF52EA4306D1D181EA030101F00041A8
:10BA00004FF0000070BD50EA410606BF10461946CF
:10BA100052EA430619D094EA0C0F02D150EA0136DB
:10BA200013D195EA0C0F05D152EA03361CBF10461C
:10BA300019460AD181EA030101F0004141F0FE41BB
:10BA400041F470014FF0000070BD41F0FE4141F43F
:10BA5000780170BD70B54FF0FF0C4CF4E06C1CEA3F
:10BA600011541DBF1CEA135594EA0C0F95EA0C0FF4
:10BA700000F0A7F8A4EB050481EA030E52EA0335AF
:10BA80004FEA013100F088804FEA03334FF08055D0
:10BA900045EA131343EA12634FEA022245EA1115FD
:10BAA00045EA10654FEA00260EF000419D4208BFAE
:10BAB000964244F1FD0404F5407402D25B084FEA5B
:10BAC0003202B61A65EB03055B084FEA32024FF407
:10BAD00080104FF4002CB6EB020E75EB030E22BF64
