:020000022000DC
:1060000000000120B9CF0200F9CF0200FBCF02004F
:10601000FDCF0200FFCF020001D00200000000000F
:1060200000000000000000000000000039CF020066
:1060300005D002000000000059CF020009D0020084
:106040000BD002000BD00200FDB502000BD0020005
:10605000B5AD02000BD0020025B702000BD0020044
:106060000BD002000BD002000BD002000BD00200BC
:106070000BD002000BD002000BD002000BD00200AC
:106080000BD0020061CD02000BD002000BD0020049
:106090000BD002000BD00200259A02000BD00200A8
:1060A0000BD002000BD002000BD002000BD002007C
:1060B0000BD002000BD00200000000000000000026
:1060C0000BD002000BD002000BD002000BD002005C
:1060D0000BD002000BD002000BD002000000000029
:1060E00000000000000000000000000000000000B0
:1060F00000000000000000000000000000000000A0
:10610000000000000000000000000000000000008F
:10611000000000000000000000000000000000007F
:10612000000000000000000000000000000000006F
:10613000000000000000000000000000000000005F
:10614000000000000000000000000000000000004F
:10615000000000000000000000000000000000003F
:10616000000000000000000000000000000000002F
:10617000000000000000000000000000000000001F
:10618000000000000000000000000000000000000F
:1061900000000000000000000000000000000000FF
:1061A00000000000000000000000000000000000EF
:1061B00000000000000000000000000000000000DF
:1061C00000000000000000000000000000000000CF
:1061D00000000000000000000000000000000000BF
:1061E00000000000000000000000000000000000AF
:1061F000000000000000000000000000000000009F
:1062000010B5054C237833B9044B13B10448AFF3F0
:1062100000800123237010BD302E002000000000FC
:106220003C49030008B5034B1BB103490348AFF3D6
:10623000008008BD00000000342E00203C4903000F
:10624000154B002B08BF134B9D46A3F5803A002148
:106250008B460F461348144A121A00F05FF80F4B92
:10626000002B00D098470E4B002B00D09847002001
:10627000002104000D000D48002802D00C4800F059
:1062800015F900F027F82000290006F0D3FE00F0F1
:1062900011F800BF0000080000000120000000000D
:1062A00000000000302E0020244E0020AD640200CB
:1062B000B964020008B50021044600F083F8044BDD
:1062C0001868C36B03B19847204600F073F900BF0C
:1062D000B433030070B50D4E0D4D761BB61006D0CD
:1062E0000024013455F8043B9847A642F9D1094EE1
:1062F000094D761B0DF052F8B61006D0002401347B
:1063000055F8043B9847A642F9D170BD042E0020F1
:10631000042E0020282E0020042E0020F0B4860732
:1063200043D0541E002A3ED0CAB2034602E014F104
:10633000FF3438D303F8012B9D07F8D1032C2BD958
:10634000CDB245EA05250F2C45EA054516D9A4F13D
:1063500010073F0903F1200606EB071603F11002B0
:1063600042E9045542E902551032B242F8D104F034
:106370000F040137032C03EB07130DD91E462246E9
:10638000043A032A46F8045BFAD8221F22F00302DB
:106390000432134404F003042CB1C9B21C4403F8C2
:1063A000011B9C42FBD1F0BC704714460346C5E775
:1063B000024B13B1024800F079B8704700000000AA
:1063C000B96402002DE9F04F354B85B00F460390BC
:1063D000186800F08BF8334B1B68019303F5A47326
:1063E0000293B946019BD3F848613EB3DDF808A09B
:1063F0004FF001087468651E0FD4013406EB840465
:106400000027B9F1000F20D0D4F800314B451CD043
:10641000013D6B1CA4F10404F3D1234B73B1D6E905
:106420000032002A34D1002B32D03046CAF8003076
:106430000AF0C0F8DAF80060002EDBD1184B1868BB
:1064400005B0BDE8F04F00F053B873682268013B17
:10645000AB420CBF75602760002AD9D0D6F88811EE
:10646000D6F804B008FA05F30B4208D190477368D8
:106470005B45B7D1DAF80030B342C9D0B2E7D6F8FD
:106480008C01D4F88010034207D103989047EEE7BF
:10649000B2461E46002EADD1D0E708469047E6E74B
:1064A000302C0020B4330300B5050300002301465F
:1064B0001A46184600F01EB838B50A4C0A4D641B3F
:1064C000A4100AD004F18043013B05EB8305013C95
:1064D00055F804399847002CF9D1BDE838400CF044
:1064E00063BF00BF2C2E0020282E0020704700BF65
:1064F000704700BF2DE9F8432B4D064628689846A3
:106500000F469146FFF7F2FF284B1C68D4F848313C
:10651000002B3DD05A681F2A0DDC02F1010C16BB7E
:106520000232C3F804C0286843F82270FFF7E0FF86
:106530000020BDE8F8831E4B7BB34FF4C8700AF00F
:1065400031F8034648B3D4F848210021C0E90021BE
:106550004FF0010CC4F848010A46C0F88811C0F891
:106560008C11002EDCD003EB82010124C1F888904D
:10657000D3F8880194402043022EC3F88801C1F863
:106580000881CDD1D3F88C110C43C3F88C41C7E7F7
:1065900004F5A673C4F84831BCE72868FFF7A8FFE4
:1065A0004FF0FF30C5E700BF302C0020B4330300AC
:1065B000A5050300FEE700BF32DF70473CDF7047F0
:1065C00041DF704710B5054C0549204604F0F2FD47
:1065D00020460449BDE8104004F0ECBD3C350020E5
:1065E0009B340300A834030030B5014689B00D4840
:1065F00003F00FFA20240546224600216846FFF7E3
:106600008DFE2246084C6946284602F051FC074997
:10661000204604F0B7FD6946204604F0CBFD09B0E2
:1066200030BD00BFF43000203C3500208D34030025
:1066300010B5044B044640F8103B02F093F8204696
:1066400010BD00BFCC41030070B516460C46054690
:106650000F49104804F096FD0A2231460D4804F017
:10666000F2FD0D490B4804F0A5FD0C49201D02F078
:106670003CFF60B12946204602F0B4FB28B108492E
:106680000448BDE8704004F095BD0649F8E770BDC8
:106690002D3403003C35002036430300882F0020B2
:1066A0003C3403006434030007B5032006F05EFFAA
:1066B0000B4B00B218801888642300934FF4D272F9
:1066C00000234FF4B97100B205F074F8054BC0B265
:1066D00018701978044803B05DF804EB03F054BB5C
:1066E000D82F00204C2E0020542E002010B5114C25
:1066F0000621204601F022FF204601F00DFF0E4941
:10670000204601F0DAFE204601F0E6FE2046012197
:1067100001F040FF2046F422202101F037FF2046FF
:106720001E2101F031FF20460021BDE8104001F09C
:106730008DBF00BFF43200202030002030B5184C4F
:1067400089B0FFF7B1FF4FF08055204600F0E5FE1D
:10675000002314492361204604F02CFDD5F8A8201D
:10676000114992B204A80AF0CDFD04A901A805F0D0
:1067700070F8D5F8A4200D4904A80AF0C3FD04A9B7
:1067800001A805F08FF801A9204604F009FD204674
:1067900001F030F901A805F017F809B030BD00BFCD
:1067A000242F0020CE330300D6330300B53403007A
:1067B0002DE9F04186B004F061FC06460F4604F076
:1067C000C9FB39460446304604F0CCFB3946054641
:1067D000304604F0CFFB2246174C00902B46174959
:1067E00003A80AF08FFD204600F097FE00232361E6
:1067F00003A9204604F0DEFC3946304604F092FB43
:1068000039460546304604F095FB39468046304609
:1068100004F098FB43462A460090094903A80AF071
:1068200071FD03A9204604F0C5FC204601F0E2F802
:1068300006B0BDE8F08100BF242F0020DB33030049
:10684000EA33030010B5074C204600F066FE002333
:1068500020460549236104F0ADFC2046BDE8104008
:1068600001F0C8B8242F0020F933030010B50B4CF9
:10687000204600F052FE002309492361204604F01F
:1068800099FC0849204604F095FC2046064904F08E
:1068900091FC2046BDE8104001F0ACB8242F002048
:1068A00001340300143403001934030008B5064B07
:1068B0001A7822B1002205201A7005F00EF805F0B2
:1068C00001F8024B186008BD103000200C30002089
:1068D000034B1B7813B9034B01221A70FFF7E6BF75
:1068E00010300020202F0020FFF7E0BFF0B5042378
:1068F00087B0324C324D334F334E1D22CDE9023238
:106900001C210523CDE900312022062380212046C9
:1069100000F00CFD2A462D49204604AC09F0CCF9C4
:10692000204646F2666102F0BBFD94E80600284866
:1069300002F09EFD204642F6372102F0B1FD94E8B8
:106940000600384602F0AAF92A4631463846214F59
:1069500009F0B2F9204642F6382102F0A1FD94E890
:106960000600384602F09AF92A46314638461A4F50
:1069700009F0A2F9204641F2342102F091FD94E899
:106980000600384602F08AF9144C2A463146384649
:1069900009F092F9124803F019FA204603F0D4F9ED
:1069A0002A461049204609F087F90F4A1378591CE6
:1069B00011700E4A537007B0F0BD00BF242F0020A5
:1069C00000280020842F0020658702007D730200CC
:1069D00020300020D82E002030300020542E0020FF
:1069E000AC2E002031660200D42E0020342C002072
:1069F00013B51B4C1021204602F067F900222046F7
:106A0000112102F071F92046022102F061F9012200
:106A10001449204602F06DF9204601F0ABFE124BFE
:106A20002046124C1B88ADF80430022201A902F066
:106A30006CF92046022102F048F90022204611217B
:106A400002F052F90121204602F042F9204601F0FD
:106A500091FE0221204602F07DF902B010BD00BF78
:106A6000842F002049660200B8330300D82E00208E
:106A700010B50B4C0B4802F0DFFC2046082102F059
:106A800024F911221146204602F02EF92046052154
:106A900002F01EF92046BDE8104001F06BBE00BFB9
:106AA00030300020203000202DE9F341354C364DA8
:106AB000204600F032FD002323613449204604F0D3
:106AC00079FBD5ED007AFDEEE77A0A2217EE901AEF
:106AD000204604F0BAFB2E4B1B78002B4CD02D4BDC
:106AE000D3ED007AFDEEE77A0A2217EE901A2046DF
:106AF00004F0A9FB284CD5ED007A2378274E214FCE
:106B00003F2B9DBF23780133DBB200232370244B3E
:106B1000FDEEE77A1968202301F10A0200931E397D
:106B2000002317EE900A04F045FE2278B054402569
:106B30004FF001087219CDF8048012F8402C2BB2E6
:106B4000C2F120020092194620223846013501F098
:106B5000B3F9812DEED12178237800222020CDE9D0
:106B6000000241334131074801F0A6F9054802B05F
:106B7000BDE8F04100F03EBF0A49204604F002FBA8
:106B8000B8E700BF242F0020E82F0020BA3303000D
:106B9000742F0020E02F0020362C002078300020B9
:106BA000D02F0020C433030070B50A4C06460D46B2
:106BB00020466B2104F036F83146204603F02CFFC6
:106BC0002946204603F028FF2046BDE8704004F027
:106BD00094B800BF6034002038B50B4C05466B21DB
:106BE000204604F01FF82946204603F015FF2046F2
:106BF00004F083F801226B21204604F010F82046AF
:106C000003F004FFC0B238BD6034002038B58221E3
:106C10000620FFF7C9FF0A2004F05FFE5A21092071
:106C2000FFF7C2FF99210520FFF7BEFF1720FFF7EE
:106C3000D3FF60F07F01C9B21720FFF7B5FF074D02
:106C400000242B19285D59780234FFF7ADFF3C2C46
:106C5000F7D10020BDE83840FFF7BEBFBA340300CB
:106C600073B5604C604E614D20464FF4164104F000
:106C70004DFB3146204604F09DFA00211E2006F00F
:106C80001FFD1E2006F056FD00220121284602F0BD
:106C9000EDFC5749204604F08DFA2846554905F584
:106CA0002C7502F04FFE2846534902F0A5FB2846FA
:106CB0005249534D02F0A2FB5249204604F07AFAA1
:106CC0002846514903F0A8F85049284603F0A2F895
:106CD00028464F4D03F0A2F84E49204604F06AFAC8
:106CE000284603F059F86421284603F04DF84A4934
:106CF000204604F05FFAFFF77BFEFFF7B9FE474935
:106D0000204604F057FAFFF7F1FC4549204604F00D
:106D100051FA4449204604F04DFA01211A2006F0A8
:106D2000CFFC01211A2006F0F3FC0021032006F01D
:106D3000C7FC04223C493D4C022004F075FC4FF096
:106D4000A0433B49D3F8082722F44032C3F8082770
:106D5000D3F8082742F40032C3F808271E20032284
:106D600004F062FC0125642004F0B7FD2B460022EC
:106D700002210095204600F0DDFB642004F0ADFD0B
:106D8000204600F0CAFB204600F034FE294620468B
:106D900001F032FB0A224FF00113C4E9042331460B
:106DA000204604F007FA204600F024FE642004F098
:106DB00094FD0021192006F0ABFC1E4803F06AFE8A
:106DC000642004F08AFDFFF721FF1B4A00231360B3
:106DD00053609360D360194A1360194B00221A6004
:106DE00002B070BD3C35002000350300F4300020B7
:106DF000F634030006350300E9650200C5650200AC
:106E0000AC2E00201A350300453503005935030028
:106E1000542E00206D3503008D350300B835030076
:106E2000DE350300F2350300E9680200242F00205C
:106E3000D168020060340020EC2F002018300020C0
:106E4000E42F002010B5012104467F20FFF7ACFE9F
:106E50006820FFF7C1FE00F00F012170002946D025
:106E60006B21254803F0DEFE6421234803F0D4FDA6
:106E7000214803F042FF04226B211F4803F0CFFE9C
:106E80001D4803F0C3FD60701B4803F0BFFDA070F8
:106E9000194803F0BBFDE070174803F0B7FD6B2104
:106EA0002071154803F0BEFE1A21134803F0B4FD0B
:106EB000114803F022FF04226B210F4803F0AFFEBC
:106EC0000D4803F0A3FD60710B4803F09FFDA07116
:106ED000094803F09BFD0021E0717F20FFF764FE6D
:106EE0005920FFF779FE20F07F00207210BD7F202F
:106EF000BDE81040FFF758BE6034002000000000DD
:106F00002DE9F04FBA4889B002F06CFD002833D06B
:106F1000B84CB94821460023052201F026FF21780C
:106F200051B30A22B54804F0A7F90A226178B348A0
:106F300004F0A2F90A22A178B04804F09DF90A22CF
:106F4000E178AE4804F098F90A222179AB4804F0C0
:106F500093F92278A3782179E07802F5FA62019218
:106F600062780092002204F0C3F800230522214633
:106F7000A148237001F0C9FEA14B1B78002B00F043
:106F8000CA80A04B4FF48002C3F880210120FFF794
:106F900013FBFFF715FB04A8FFF754FF9DF8103013
:106FA000C3B19DF81830984C802B4FF0000140F091
:106FB000598140F2FF339DF816000091FF2204F042
:106FC000F9FB07EE900A914BF8EEE77AC3ED007AF1
:106FD000012323708E4C04F075FC2368C01A13281B
:106FE00040F2968004F06EFC884B2060894C93ED53
:106FF000007A2168884B894A894DD2ED007A894E02
:1070000003EB8103D3ED006A874983ED007A77EEC5
:10701000E67AF5EE006A77EE877AC2ED007A67EEDF
:10702000A67AD5ED006AC6ED007AF4EEE67AF1EEC6
:1070300010FA7E4A40F318811368013313600A780E
:10704000002A59D1052B57DDBDEEC77A784BDFF802
:10705000088283ED007A01230B7004F033FCD8F82A
:107060000030744FC01A07EE900AF8EE677AC7ED49
:10707000007A04F027FCD7F800A0C8F800005046BA
:1070800008F084FF6C4F54A3D3E9002308F0D6FF27
:10709000D7F800B080465846894608F077FF50A3DD
:1070A000D3E9002308F0CAFF02460B464046494692
:1070B00008F00EFEDFF8A481CDE90201D8F8000047
:1070C00008F064FF46A3D3E9002308F0B7FF0246A7
:1070D0000B46DDE9020108F0FBFD0B46024642A12A
:1070E000D1E9000109F0D4F809F0BAF9534BC8F816
:1070F00000B01860C7F800A033682B602368013324
:107100005A4202F0030203F0030358BF53422360C4
:1071100009B0BDE8F08F4A4C04F0D4FB2368C01AD4
:1071200064280DD904F0CEFB464B20601B68042B6D
:1071300006D8DFE803F00316191C1F00FFF738FB21
:10714000414B1A78002A3FF426AF3E4C00221A70B9
:107150002368042B3FF61FAFDFE803F00F1214166D
:107160001800FFF7EBFAEBE7FFF79EFCE8E7FFF705
:1071700069FBE5E7FFF77AFBE2E7012323600AE713
:107180000223FBE70323F9E70423F7E704F09AFB64
:107190002E4D28601E2006F0CDFA0028FAD004F00B
:1071A00091FB2B68C01AB0F57A7F59D9642004F09E
:1071B00094FB01210020FFF701FABFF34F8F244910
:1071C000244BCA6802F4E0621343CB60BFF34F8FD5
:1071D00000BFFDE7AFF300809A9999999999D93F3B
:1071E000333333333333D33F00000000004CED40E2
:1071F000F43000207C2F0020303000203C3500206F
:107200001030002000E100E0742F0020E82F002063
:1072100004300020E42F0020EC2F00201830002044
:10722000502E0020CC2F002000300020FC2F00200A
:10723000D02F0020782F002008300020E02F0020E1
:10724000702F0020DC2F0020202F00201430002081
:1072500000ED00E00400FA05D42F00201C300020CF
:1072600000238BE72170B5E600230B70136043E722
:10727000002970B51FDBB0F90C408C421BDD44893E
:10728000D5432544ADB22AB2002A14DBB0F90E6012
:10729000964210DD867E022E0ED0032E14D0012ED3
:1072A00004D10289013A551B0A4629B2012B10D09C
:1072B0001DD3022B2BD070BD0289C9431144621E1D
:1072C000521B09B212B2F1E7C9430C44114622B273
:1072D000ECE70589C06A082492FBF4F414FB05115D
:1072E00002F007029340425C13434354E3E70489EE
:1072F000C06A082392FBF3F313FB041102F00702A8
:1073000001239340425C22EA03024254D3E70489FA
:10731000C06A082392FBF3F313FB041102F0070287
:10732000012303FA02F2435C5A40EEE738B5044603
:107330001D4600F017FE104B23609DF9103084F8B5
:1073400034309DF9143084F835309DF91C3084F8C0
:1073500036309DF9183084F837304FF080430022E2
:10736000A3630223C4E90922E26284F83350226451
:1073700084F83C30204638BDA83A0300044B10B5D1
:1073800004460360C06A08B109F014F9204610BD34
:10739000A83A0300F8B50446806A0F4690B194F805
:1073A000301003F03FFCA06A036800211B68984777
:1073B000A06A036839461B689847A06ABDE8F84090
:1073C00003F09BBC014694F9350006F0A1F9606A10
:1073D00020B13946BDE8F84000F017BC08258026EA
:1073E00007EA060194F9330006F092F9012194F9B5
:1073F000340006F08DF9002194F9340006F088F984
:10740000013D4FEA5606EBD1F8BD38B50446806A17
:107410000D4680B1616C03F087FB002D204614BF40
:10742000A721A621FFF7B6FFA06A88B1A16CBDE82D
:10743000384003F079BB606A20B104F138030ECB09
:1074400000F0D2FB002194F9360006F061F9E4E780
:1074500094F93600012106F05BF9606A18B1BDE8C5
:10746000384000F0CDBB38BD2DE9F8430446806AB2
:107470000D4601EB020840B394F8301003F0D2FB44
:10748000A06A036800211B68984701264545A06A49
:1074900017D03E2E0CD903F030FC94F83010A06ABF
:1074A00003F0C0FBA06A036800211B68984701260F
:1074B000A06A15F8011B036801361B689847F6B2ED
:1074C000E4E7BDE8F84303F018BC014694F9350041
:1074D00006F01EF945451ED0606A15F8019B18B1EB
:1074E000494600F092FBF5E70826802709EA0701E4
:1074F00094F9330006F00CF9012194F9340006F0F8
:1075000007F9002194F9340006F002F9013E4FEA30
:107510005707EBD1DEE7BDE8F883B0F90A3008225F
:10752000073393FBF2F3B0F90820C06A5A430021F5
:10753000FEF7F4BE2DE9FF411E46C36A9DF8287090
:10754000044688461546C3B12046FFF7E6FFB4F966
:107550000A20B4F90830202A4FF002011EDC733BE8
:10756000203A012092FBF1F293FBF1F12023CDE9C7
:10757000013073230093824B1EE0B0F90A300820DB
:10758000073393FBF0F3B4F90800584309F00AF805
:10759000E0620028D8D104B0BDE8F081523B403A07
:1075A0004FF0010C92FBF1F293FBF1F14023CDE996
:1075B000013C52230093734B204612B209B200F0F3
:1075C000E9FCA06A84F83180002874D0002D70D1C5
:1075D000B4F90A30202B14BF3D253C2584F83050E7
:1075E000002F00F0C88003F055FADEB194F937009F
:1075F000002817DB012106F063F8012194F9370018
:1076000006F086F8012004F068F9002194F93700AB
:1076100006F07EF80A2004F060F9012194F93700A1
:1076200006F076F8A06A00286CD0616C03F07CFA52
:10763000042255492046FFF717FFA17A0139C9B244
:107640002046FFF7A7FE514904222046FFF70CFF12
:1076500094F93130012B14BF142110212046FFF77B
:1076600099FE04224A492046FFF7FEFEA368494AD4
:10767000934254D1042248492046FFF7F5FED92110
:107680002046FFF787FE94F93130012B14BFF1211A
:1076900022212046FFF77EFE204606223F49FFF7C3
:1076A000E3FEA06A00285BD0A16C03F03DFA012044
:1076B00071E76DB292E7012194F9350006F000F808
:1076C000012194F9360005F0FBFF012194F9360001
:1076D00006F01EF8656A2DB1002F86D0284600F00E
:1076E0006DFA82E794F93300012105F0E9FF94F97E
:1076F0003400012105F0E4FF294694F9340006F036
:1077000007F872E7606A20B104F138030ECB00F08D
:107710006BFA002194F9360005F0FAFF88E7204A59
:1077200093420ED11F4903222046FFF79DFE94F994
:107730003130012B14BFCF219F212046FFF72AFEB5
:107740009DE7194A93429AD1184903222046FFF730
:107750008BFE94F93130012B14BFAF211021ECE7DF
:1077600094F93600012105F0D3FF606A00289ED00D
:1077700000F046FA9BE7002E7FF438AF55E700BFD4
:10778000BF380300FF350300003B0300043B030048
:10779000083B030080002000123B03000C3B030069
:1077A00080004000163B030060001000193B0300FE
:1077B00070B5002ABDF810503FDBB0F90A40944282
:1077C0003BDD0029BEBF5B181BB20021B0F90840A9
:1077D000CE18A642C4BF631A1BB2002B2DDDC06AAF
:1077E000082692FBF6F614FB0611014402F007008E
:1077F00001228240012DD2B20BD013D3022D1CD115
:107800000B44994219D011F8010B504001F8010CBA
:10781000F7E70B44994210D011F8010B104301F81F
:10782000010CF7E7D243D2B20B44994205D011F8CC
:10783000010B104001F8010CF7E770BDF0B500290D
:10784000BDF8146078DBB0F908C0614574DA002A2D
:10785000BEBF9B181BB20022B0F90A40D518A54242
:10786000C4BFA31A1BB2002B66DDD2B2DDB2C76A59
:10787000D3081CFB031112F0070307EB010422D00D
:10788000C3F10803DBB2324A9D42D25C59D2A3EB6A
:10789000050E4FF0FF0C4CFA0EFC012E0CEA020212
:1078A00007D027D3022E47D117F801C082EA0C0275
:1078B00003E017F801C042EA0C029D427A543BD320
:1078C000B0F908201444EB1ADBB2072B26D9022E9C
:1078D00015D11A462178C9432170083AB0F9081029
:1078E000D2B2072A0C44F5D813F0070324D0194A62
:1078F000D35C1BE017F801C02CEA0202DDE7002E82
:1079000014BFFF2500251A462570083AB0F9081063
:10791000D2B2072A0C44F7D803F0070363B10D4A2B
:10792000012ED35C05D008D3022E05D12278534016
:1079300001E0227813432370F0BD227822EA03038A
:10794000F9E7012EB5D0D5D3022EADD06444BAE705
:10795000F03A0300F83A030030B41446827EBDF8D2
:107960000850022A0DD0032A18D0012A11D1028909
:10797000E443144424B202950A46214630BCFFF782
:107980005DBF4289E443144402891944511A24B268
:1079900009B20295224630BCFFF70ABF428919445A
:1079A000511A09B2E7E730B41446827EBDF8085098
:1079B000022A0DD0032A18D0012A11D102891C44B1
:1079C000141B24B202950A46214630BCFFF7F0BED4
:1079D000CA4301890A4411B242891C44141B24B2CF
:1079E0000295224630BCFFF729BFCA4341890A44A9
:1079F00011B2E7E72DE9F8430446806A002841D038
:107A0000616C03F091F8052243492046FFF72CFDF5
:107A1000217A01392046C9B2FFF7BCFCB4F90A301B
:107A200008260733D4E90A0593FBF6F3268916FBEB
:107A300003F615FA86F600283AD094F8301003F0D1
:107A4000F1F8A06A036840211B6898470127B542F6
:107A5000A06A24D03E2F0CD903F04FF994F83010CF
:107A6000A06A03F0DFF8A06A036840211B6898470A
:107A70000127A06A15F8011B036801371B689847A6
:107A8000FFB2E4E7606A20B104F138030ECB00F0E6
:107A9000ABF8002194F9360005F03AFEB3E703F0A5
:107AA0002CF9A06A58B3A16CBDE8F84303F03CB8C8
:107AB000012194F9350005F02BFEB542F1D0606A42
:107AC00015F8019B18B1494600F09FF8F5E7082723
:107AD0004FF0800809EA080194F9330005F018FE18
:107AE000012194F9340005F013FE002194F93400CB
:107AF00005F00EFE013F4FEA5808EBD1DDE794F99F
:107B00003600012105F004FE606A18B1BDE8F843B3
:107B100000F076B8BDE8F8831C3B030038B50025BB
:107B2000057329B90B4B0C4A0C48232108F0FCFCC7
:107B300001600B4951F82220027151F82330837102
:107B40009DF8103051F8233043710223C3718560D2
:107B500038BD00BF213B03007F3B03002F3B0300E8
:107B6000B4420300037B23B943738373036101238E
:107B70000373704784B00DF1100C0CE90E009DF8F2
:107B80000810026800230129C2F80035039B12D0B7
:107B90000BD303290CD0C2F85435019BC2F824350D
:107BA0000123C2F8003504B0704743F00203F2E746
:107BB00043F00403EFE743F00603ECE710B5FFF7EB
:107BC000D1FF03688279C3F808254279C3F80C25F0
:107BD0000279C3F81025034BBDE810400ECBFFF728
:107BE000C9BF00BFD030002010B485B001AC84E81C
:107BF0000E0094E80E0005B05DF8044BFFF7BABF25
:107C000003680022C3F8002570470368C3F81C15F9
:107C1000D3F80821002AFBD0D3F818050022C3F8B6
:107C20000821C0B27047000007B5094B09490A484E
:107C30004FF080421A6000229A6002221A710623D5
:107C40000093FF220523FFF769FF03B05DF804FBF3
:107C5000D030002000300040BC3000202DE9F04F33
:107C600085B01D46BDF93840BDF83CA0A31A83EA93
:107C7000E37BABEBE37B6B1A002BB8BF5B429B450E
:107C800081461646019304DC23460E462C461146D7
:107C90001D46A64205DC2B460D46194623463446B2
:107CA0001E464B1B002BA6EB0408B8BF5B421FFA15
:107CB00088F802930FFA88F7022397FBF3F30093F7
:107CC0008D42ACBF4FF0FF3301230393B44220DC5D
:107CD000D9F800301B691F46019B9B45CCBF22464B
:107CE0002A465346CCBF294621464846B847009A03
:107CF000029BD71ABBB21AB2002A009206DA039A84
:107D000008EB030715443BB22DB20093013424B2B3
:107D1000DCE705B0BDE8F08F704710B40468A468D4
:107D2000A4465DF8044B604730B40468BDF80850C1
:107D30000295246BA44630BC604730B40468BDF89B
:107D400008500295646BA44630BC604770B4BDF91E
:107D50000C50BDF810600468CDE90356A46BA4462E
:107D600070BC60472DE9F3411C460368BDF82080D4
:107D7000DB6805461646013C34440F4624B298475A
:107D80002B68CDF8048000941C6A28463B46324696
:107D90003946A0472B685B6A284602B0BDE8F0412F
:107DA00018472DE9F3411D460368BDF82080DB68C4
:107DB000044617460E469847CDE9007822686B1EA8
:107DC0003344156A20461BB23A463146A847236819
:107DD0005B6A204602B0BDE8F04118472DE9F34741
:107DE0001E460368BDF92880DB68BDF82C900C4660
:107DF0000546174698472644B4422A680BDACDF860
:107E00000090D2F818A0214643463A46284601344D
:107E1000D04724B2F0E7536A284602B0BDE8F047E5
:107E2000184713B5B0F90E200468019100920022A2
:107E3000B0F90C30A46B1146A04702B010BD2DE97B
:107E4000F3471D460368BDF82C70DB68BDF9289028
:107E5000044688461646984723680097D3F81CA026
:107E600032462B4641462046D0472368009709F109
:107E7000FF323244D3F81CA041462B46204612B2B2
:107E8000D04723680097D3F818A032464B464146A6
:107E90002046D04723680097691E41449D692046CB
:107EA0004B46324609B2A84723685B6A204602B0B7
:107EB000BDE8F047184770472DE9F34799428046DF
:107EC0000C4615469946BDF92860BDF82CA00768F8
:107ED00011D1B242DCBF33461D46CDF828A0D8BF31
:107EE00016466B1C3D6B9B1B1BB23246AC4602B068
:107EF000BDE8F0476047B2420ED19942D8BF1C4658
:107F0000CDF828A0D8BF8946631C7C6BA3EB09037E
:107F10001BB24946A446EAE7FB689847CDE9006AE8
:107F2000D8F8003040461E6A2A464B462146B047E4
:107F3000D8F800305B6A404602B0BDE8F047184709
:107F400001F0030101298176B0F90830B0F90A2067
:107F500004D0032902D08381C28170478281C3810A
:107F60007047000030B54281C2814FF0FF3242615C
:107F700040F201120024064D028301224460056094
:107F80000181818104618476C2760477046230BD08
:107F9000C44003002DE9F04F89B09A46BDF94C303A
:107FA0000593BDF8503006930368BDF94890DB682F
:107FB000CDE903120026054634469847019609F19B
:107FC0000702082392FBF3FB019A049B13441BB2A4
:107FD0000293059ABDF904309A4226DD0AEB0603A6
:107FE0004FF0000807930FFA88F34B4518DA1FFA91
:107FF00088F14A0705BFDB10079A6400D45C18BFFC
:10800000E4B2230609D5039B029A19442B681B6925
:1080100009B21F462846069BB84708F10108E2E767
:10802000019B013301935E44CEE72B685B6A2846CF
:1080300009B0BDE8F04F18472DE9F04F91B09146D7
:10804000026A05911F46BDF8683002930446BDF8E8
:108050006CA09DF870609DF87450002A40F0B880C4
:10806000B0F90C308B4240F33781B0F90E304B45FC
:1080700040F33281062313FB0613002B40F32C81BF
:1080800009EBC503002B40F32781037F1BB9AF2FFA
:1080900084BF0137FFB223682046DB689847052379
:1080A0000A931FFA89F34FF00008069305238C4AC0
:1080B00013FB0783D35C0793B3B20893BDF8143066
:1080C0000393039A089B08FB03231BB2099308231D
:1080D0000B930023049312FA88F31BB20C93079AB4
:1080E0002368D2074DD5012EBDF810203AD1012DBD
:1080F00038D10699D3F810B0029B0A4412B20C99F9
:108100002046D847049B01335BB20493079B5B086E
:1081100007930B9B013B13F0FF030B93DFD10A9BEB
:10812000013B08F1010813F0FF034FFA88F80A93A6
:10813000BCD1029B53450ED0012E236837D1012DAF
:1081400035D10399CDF800A005319D694A46082331
:1081500009B22046A84723685B6A204611B0BDE8F3
:10816000F04F1847069915FB02F20A440299019153
:108170000095D3F814B00999334612B22046D84777
:10818000C0E7029A5245BDD0012EBDF8102007D19C
:10819000012D05D10699D3F810B00A445346ADE736
:1081A0000699CDF804A015FB02F20A44E0E7089A0C
:1081B000CDF804A002EB8201039AED000A441146B7
:1081C00000955D694A46334609B22046A847C2E792
:1081D000137A516812680D92FF1AFFB201EBC703C0
:1081E00031F8372003929A780792DA780B92012EB1
:1081F00093F90520089293F906B001D8012D51D9C1
:10820000BDF9203006930FFA8BF3049323682046C0
:10821000DB6898471FFA89F34FF0000809935B4425
:10822000C24647460F930B9B9F4294D2049B099AE8
:108230003B4403FB05230F9A3A441BB212B20A9344
:108240004FF0000943460E92079A91453DD25A1CC1
:10825000D2B25B070C9207D1039B03990D9A0133AD
:108260009BB212F801A003931AF0800F10D0012ED8
:108270002268BDF8141019D1012D17D1089BD2F82E
:1082800010B00E9A19444944029B09B22046D847BF
:108290004FEA4A0A09F101095FFA8AFA5FFA89F995
:1082A0000C9BD1E7002304930693AFE7069B4B4456
:1082B00003FB0611029BCDE9005309B2D2F814B0BA
:1082C0000A9A33462046D847E2E7079B013798448D
:1082D0005FFA88F8FFB2A6E711B0BDE8F08F00BFE3
:1082E000BC3B0300F0B5026A85B004460B46002A89
:1082F00034D10A2908D10282438A427E03EBC203A9
:108300006382012005B0F0BD0D29FAD0E17E007E28
:10831000657E71B1B4F91060062111FB0061B4F9FA
:108320000C60B142C1BFB4F91210228201EBC50248
:108330006282CDE90205E08A0190A08AB4F9122098
:108340000090B4F910102046FFF776FE237E228AB3
:1083500003EB430302EB43032382D2E70A2907D14D
:1083600000230382937A417E428A01FB0323C7E7FD
:108370000D29C6D0157AA942C3D3517A9942C0D3E8
:108380005D1B5168EDB201EBC505AF782FB3E978FD
:1083900019B3E17E007E667E91B195F905103944EE
:1083A000B4F9107000FB0171B4F90C70B94207DD2B
:1083B00000272782B4F91210927A02FB0612628219
:1083C000CDE90206E08A0190A08A0090B4F912205B
:1083D000B4F910102046FFF72FFE2979237E228A58
:1083E00001FB0323B8E7002908BF0121002A08BFC9
:1083F00001220176427670470A46FFF7F4BF72DF2A
:10840000704773DF704777DF70470022C2770270D2
:10841000704770B51C46C37F0E461146E2181D2AF0
:1084200005460EDC1844621CEA54023000F8016C68
:10843000224608F0E8F8EB7F02341C44EC77012078
:1084400070BD0020FCE72DE9F041002688B007460A
:108450000D4601EBC2083446454518D0284601F0C8
:1084600025F8102803D080280AD00835F4E708AA98
:10847000631C02EB44042A8824F8202CDCB2F4E7C5
:108480001EB1002008B0BDE8F0816E68EDE714B9B8
:1084900066B90120F6E7630003F0FE036A46032194
:1084A0003846FFF7B6FF0028F2D1EAE7102332463C
:1084B00007213846FFF7ADFFE4E713B5083104465E
:1084C00003C96B4683E80300012219462046FFF7E3
:1084D000BAFF02B010BD000030B589B005462022B9
:1084E00069460C4801F042FAEA7F13181D2BC3BFFE
:1084F000C2F11D02D0B20824092403466A4621466F
:108500002846FFF786FF18B1A4F1090358425841E5
:1085100009B030BDF430002013B50446064801F020
:1085200034FA02AA012302F8010D0A212046FFF7BE
:1085300070FF02B010BD00BFF430002007B502AAE2
:10854000012302F8011D1946FFF763FF03B05DF830
:1085500004FB000008B50346FFF757FF40F2FF1287
:1085600008491A84012283F8222099620022A1F589
:10857000560183F823205A62C3E90B12C3E90D2286
:10858000184608BD2000F400C1857047018542856A
:108590008185704780F8221070470000F0B50446CE
:1085A00087B00E461546002118226846FDF7B6FE34
:1085B00094F821308DF8003005EB850303EB83033D
:1085C0001E4A02969B00ADF80C301368DB0709D4F5
:1085D0001B4BE17F99801B499960C97F1C60998181
:1085E000012313606A46164904F12000FFF707FFD4
:1085F00010B1002007B0F0BD134894F8207001F0CE
:10860000C4F9394602460120FFF7FDFE0028F0D1EB
:10861000012194F82000FFF7F4FE0028E9D10A4870
:1086200001F010FA628EA68595424FF0010094BFCA
:10863000521B921A84F823006286DBE7DC300020AC
:10864000E030002030330020F430002010B5044624
:1086500041860186FA21054801F09AF9E28D218DC3
:108660002046BDE81040FFF799BF00BFF43000205E
:1086700038B50B888D88112B04460ED0262B2AD0B6
:10868000102B09D1CB7B012B06D1426AAB4013439F
:108690004362002380F8233038BD436AEB40DB0798
:1086A000FAD5294800F098FE0028F5D1012202FAF7
:1086B00005F3626A22EA030294F823306262002B17
:1086C000EAD194F82230002BE6D0218E2046BDE876
:1086D0003840FFF7BBBF0B7A012BDDD1002380F8B8
:1086E00023304FF4FA71194801F052F9238E4BB937
:1086F000A36B03B198470022618D2046BDE8384046
:10870000FFF74CBF638E23B1A36B03B19847628E12
:10871000F2E70E4801F0A7F9636B002BBCD004F020
:108720004FF801284FF010000AD107F03BFF00215D
:10873000636B017243600160BDE8384004F078BEAD
:1087400003F0D2F8F3E700BFA4330020F430002098
:10875000AADF7047ABDF7047ACDF7047ADDF704713
:10876000B0DF7047704710B5044604F0C1FC2046E6
:1087700010BD000070B5554B04461B680361061D13
:1087800096B0304600F0A0FE94F8223013F032028A
:1087900008BF84F8232013F00C0208BF84F82420BB
:1087A00013F030050ED04FF00003012262F34203B4
:1087B0008DF80630464B1B788DF8043094F8233042
:1087C0008DF805301C2200210FA8FDF7A7FD94F8B5
:1087D00022308DF83C300023002D72D001AAADF874
:1087E000083014924FF00003012262F342036069E3
:1087F0008DF80A3094F823308DF8083058B103789A
:108800004BB1109008F0C5FD02AB80B2ADF844004A
:10881000ADF846001393A37E13B104F11A0312932B
:1088200094F82520059604F123030693E38900209C
:1088300012F0010F0CBF1A460246CDF81E00ADF82B
:108840001C20ADF8203005AA04F126030FA9CDF8AD
:108850002200ADF82600FFF77BFF054670BB627E65
:1088600032B30246012161F342028DF80E2094F8E2
:108870002320ADF80C008DF80C20164ACDF83250AC
:10888000106804900222ADF83020ADF8342004AA1C
:108890000A9203AA0B9204F118020E9228460DF1D7
:1088A00002020AA9ADF83650FFF754FF054628B971
:1088B000657B45B92146084800F03EFD284616B0C4
:1088C00070BD1A468BE70025F8E700BFF0300020A6
:1088D0000C4103000E410300F430002010B50446A3
:1088E00003F06EFF0128204603D1BDE8104007F0D9
:1088F00059BEBDE8104002F0F7BF2DE9F0430B88E8
:108900008E88502B89B004460D4600F02B81512BE8
:1089100040F087808B79012B35D1836B9BB3027B31
:10892000520701F1080973D51820FFF7D7FF4FF060
:1089300000080746C0F800800820FFF7CFFF386026
:10894000D9F800300360D9F804304360A36B7B6032
:1089500003233B72CDE90464CDF81890414604AB83
:1089600053F82120914504BF3A6843F82120013192
:108970000329F5D103CB3961F860186878610021CB
:10898000384604F055FDAF79022F4AD1AB7B042B5A
:108990004AD0062B00F08480012B42D1E36B002BE0
:1089A0003FD0227B170705F1080836D51820FFF7BE
:1089B00095FF0023036007460E20FFF78FFF143555
:1089C0003860434653F8042B40F8042BAB42F9D1EE
:1089D0001B880380E36B7B6003233B72CDE9046457
:1089E000CDF81880002104AB53F82120904504BF36
:1089F0003A6843F8212001310329F5D103CB3961CD
:108A0000F860186878610021384604F011FD08E02C
:108A100001464A4630469847B5E742462146304629
:108A2000984709B0BDE8F083276B37B94FF48060F1
:108A3000A086FFF753FFE7862063102200210DEB8D
:108A40000200FDF76BFC02238DF810306A8A2B8A36
:108A5000A18E9818884208DD40F20913ADF8143051
:108A600004A93046FFF77CFEDBE79DF81600ADF861
:108A7000183040F001008DF81600206BADF81A2078
:108A800005F114011844079107F0BDFD6A8A2B8A8D
:108A90001344E28E9BB2934238BF1346E386DFE76E
:108AA000236B002BBDD0102200216846FDF736FC59
:108AB000694630468DF80070FFF752FE256C002D98
:108AC0003BD0237BD80744D51C20FFF707FF0023AA
:108AD0000360236B054643B1E08E30B1FFF7FEFE25
:108AE000E28E2860216B07F08EFD236C6B600423FF
:108AF0002B72216BE28E0691CDE90464079204ABE0
:108B000059B152B1002253F82200814204BF2868B3
:108B100043F822000132042AF5D105F10C0608AF12
:108B20001A4603CABA4230607160134606F108065D
:108B3000F6D10021284604F07BFC256B03F040FEB3
:108B4000012828460BD107F035FD0023C4E90C337A
:108B500067E7E38E226B21463046A847EDE702F037
:108B6000D2FEF2E7CA88C38C9A4240D1076C002F2C
:108B70003DD0037B01F11208D9075BD51C20FFF71C
:108B8000ADFE002303600746288A30B1FFF7A6FE3A
:108B900038602A8A414607F036FD236C7B60042347
:108BA0003B722A8ACDF81880CDE90464079204ABA1
:108BB00052B1002253F82210884504BF396843F8A7
:108BC00022100132042AF5D107F10C0C0DF1200E10
:108BD0001A4603CA7245CCF80000CCF804101346BC
:108BE0000CF1080CF4D10021384604F021FCEA888D
:108BF000638D9A427FF415AF636C002B3FF411AF85
:108C0000227B6D8A92071BD51820FFF767FE626CE6
:108C100042600027032202720760CDE904640695D2
:108C200004AA034603CA1961D8601068586139461E
:108C30001846EAE601462B8A42463046B847D6E750
:108C40002A46214630469847EBE600001422C281AE
:108C5000114A127880F8242080F8232001214FF057
:108C60000102002361F3420203734373C0E904333A
:108C70000383C0F81A30C0F81E3080F8223080F824
:108C80002520C384038583854385C0E90C33C0E96F
:108C90000E33C0E9103370470C41030013B504468E
:108CA000684680E806002346054943F8041B03C8CC
:108CB00083E805002046FFF7C9FF02B010BD00BFE2
:108CC0001C41030001234373704780F82210704752
:108CD00090F8253029B1C1816FF3000380F8253069
:108CE000704743F00103F9E780F8231080F824204F
:108CF0007047037B416462F341030373704751F88B
:108D0000263F03604B684360704713B5C4890191E7
:108D1000A24228BF22460023ADF80020C18CADF846
:108D200002306A464FF6FF70FFF716FD18B9BDF81E
:108D3000000002B010BD1846FBE738B505460846EE
:108D40000C4608F026FB214682B22846BDE8384092
:108D5000FFF7DBBF07B502AB012203F8011D19467F
:108D6000FFF7D3FF03B05DF804FB07B5ADF80020B3
:108D700001916A46C18CADF802304FF6FF70FFF7E3
:108D8000EDFC20B9BDF8000003B05DF804FB002045
:108D9000FAE7000030B5054685B011480C4600F0F2
:108DA00016FED8B1688DC8B10222ADF808200DF1C9
:108DB000060200230392014602AA2046ADF80A30BB
:108DC000FFF7CCFC43F20142904204D1ADF80630EB
:108DD000BDF8060002E00028FAD080B205B030BD30
:108DE000F430002008B590F8223013F0100304D0BE
:108DF000FFF7D0FF00F0010008BD1846FCE77FDF59
:108E0000704786DF7047B1DF7047B5DF70470000FD
:108E100010B5074B03600446806903F09BF8E069D6
:108E200003F098F8206A08B103F094F8204610BDCA
:108E30003441030010B50446FFF7EAFF204604F072
:108E400057F9204610BD000038B504460025A18022
:108E500001216173104820601721E180258192E88B
:108E60000300A182090C2061A175D27922731946F1
:108E7000184602F04AFE9DF81010A061084602F064
:108E800044FE4FF6FF73E061A5732562E5736562EA
:108E90006381A562204638BD34410300407B7047A2
:108EA000807B7047007B7047C0887047008970479F
:108EB000F0B587B004AC85880E4620464FF42851A3
:108EC000174600F0EDFA01234FF6FF72CDE90232AA
:108ED000CDE90067294694E80C00024800F012F939
:108EE00007B0F0BDF430002042898188007B01F09A
:108EF000C7B8000070B50B881A2B96B004460D4613
:108F000000F09C8023D8132B49D006D8112B43D0D6
:108F1000122B00F0AE8016B070BD142B73D0192B3D
:108F2000F9D10B7A43B9826A818801238373538A0A
:108F30004381007B01F06EF8A56A03F041FC012833
:108F400028465DD107F036FB0023A362E3E7532BED
:108F500000F0B0800BD83C2B00F09D80522BDAD172
:108F600000231A4619468088FFF74DFFD3E7562B9A
:108F700000F0A480572B7FD0552BCCD1017B5448D7
:108F800000F040FDE988814228BF014689B2E180B6
:108F9000A088FFF73AFFBEE700234373BBE703F067
:108FA0000FFC01284FF0500027D107F0FBFAA06218
:108FB0000028B0D050220021FDF7B0F94FF6FF7322
:108FC00063811C22002103A8FDF7A8F9A36A02937C
:108FD00003F11C02383307933E4B06926A46186829
:108FE0001B791371237B0090012B18BF002202AB69
:108FF0000021A088FFF703FF8DE702F075FCD6E79C
:1090000002F081FCA0E75022002102A8FDF786F9BA
:1090100002AA298A207B01F05BF80346A08843B1AD
:10902000002310AA02A9FFF7ECFEBDF81A306381F5
:1090300071E71A461946FFF7E4FE6CE70B7A112B2D
:109040000DD042898188007B01F07CF8034620B96D
:1090500002460146A088FFF7D6FE0123A373606A8B
:1090600000283FF458AF00231A46194602F056FD77
:1090700051E74B8903814EE70026AA79F3B29A4261
:1090800006F101067FF647AF00231A461946A0698C
:1090900002F044FDF1E70026AA7AF3B29A4206F103
:1090A00001067FF638AF00231A461946E06902F040
:1090B00035FDF1E70123C373006AD1E78B79002BFB
:1090C0007FF429AFC373006A0028CDD123E700BF26
:1090D000F4300020F3330020A0DF704738B5044699
:1090E000F82500F5F87000F0E7FE2A46002120463A
:1090F000FDF714F92A4600216019FDF70FF9204603
:1091000038BD00002DE9FF416E4686E80C00BDF831
:109110003030ADF80C300546BDF834301948ADF8A4
:109120000E300F4600F075FC05F5F87580462846B0
:1091300000F00AFF044628B14046FFF7B7FE02F0F0
:10914000CCFBF4E70121284600F0BAFEBDF82C2044
:109150000A99284600F0C9FE03AA31463846FFF7AF
:10916000BBFF28B94FF4FA71284600F0C3FE04464D
:10917000284600F0AEFE24EAE474A0B204B0BDE8D4
:10918000F08100BFF43000202DE9F04F8F880E8869
:1091900085B005460C466748394600F03AFCA6F112
:1091A0001003012B83462FD94FF0000A95F8542065
:1091B0005FFA8AF39A4253D91633502E55F823900A
:1091C00036D0512E49D1A379B4F80880022B31D181
:1091D000A37B062B2ED1D9F800304846DB68214608
:1091E00098475846FFF75CFE002836D0502E34D101
:1091F000494602A8FFF783FDBDF80C3043452CD14A
:109200005846FFF771FE28E04FF000082A785FFA11
:1092100088F39A42C8D905EB8303112E5868036876
:1092200039460CBF1B685B68984708F10108EDE7F9
:10923000B4F80680B8F1000F0FD049466846FFF732
:109240005EFDBDF800304345C5D0494602A8FFF792
:1092500056FDBDF80C304345BDD00AF1010AA5E723
:109260004FF0000895F84C31434520DD05EB880AA6
:10927000DAF8500101F0D1F8B84215D1382E03D0F8
:10928000392E01D0362E0FD1B4F80A90B9F1000F63
:109290000AD0DAF850A1504601F0C2F8484503D18F
:1092A0002146504601F0BEF808F10108DAE7112E18
:1092B00025D1002495F8F820E3B29A420BD905EBAA
:1092C0008303D3F8FC008388BB4202D103681B6888
:1092D00098470134EEE7002695F84C31F4B2A342EA
:1092E00025D905EB8404D4F8500101F096F8B84272
:1092F00003D1D4F8500101F08DF80136ECE7352E9A
:1093000015D1618999B1A2890E34231B901CB3FB3E
:10931000F0F38B4205F5F87503D2A11C284600F046
:1093200015FE284605B0BDE8F04F00F026BE05B09A
:10933000BDE8F08FF430002090F85430282B1FBF88
:109340005A1C163380F8542040F8231014BF012013
:10935000002070470378132B9FBF5A1C027000EB4C
:109360008300416094BF01200020704775DF704783
:1093700078DF70477ADF704705490022C0E9022292
:10938000034602460868496803C21846704700BF92
:109390003C41030008B5FFF7EDFF28B9FFF7E8FFF0
:1093A000B0FA80F0400908BD0020FCE710B509487C
:1093B00000F02FFB044608B9002010BDFFF76EFD3A
:1093C0000028F9D02046FFF76DFD431E5842584152
:1093D000F3E700BFF430002070B5002506462C46A8
:1093E000A9B23046FFF7E2FF08B10134E4B201351B
:1093F000142DF5D1204670BD81607047C160704763
:1094000010B40A88102A0B460FD1CA7B012A0CD14E
:109410000A8A04884188944201D88A4205D90146C3
:109420005DF8044B9888FFF7A1BF5DF8044B7047C7
:10943000A8DF70477047000037B500F10805044603
:10944000284600F041F829460DF106020120FFF7F9
:10945000EFFF054628B9044B04481C602146FFF77E
:1094600079FF284603B030BDF0300020F4300020F2
:1094700013B50446684680E806002346054943F8CC
:10948000081B03C883E8050000232046A38002B020
:1094900010BD00BF4C41030062DF704763DF7047BF
:1094A0000123837000230180436070478378012B80
:1094B00006D0426832B9012B8CBF80200020704753
:1094C000102070478020704708B58378024653B952
:1094D000406840B1911CFFF7DFFF10205168BDE8E4
:1094E0000840FFF7DBBF002008BD00680B6820F0D4
:1094F0007F4023F07F43C31A5842584170474BDFE7
:10950000704710DF70477CDF70477DDF70478FDF6B
:10951000704790DF704760DF704769DF704761DF39
:10952000704766DF704767DF70477047704700001D
:1095300037B50D4C0D4DD4F808034FF0FF3102F054
:1095400051FC0028F7D001A8FFF7D9FF0528F2D079
:109550000028F8D10198831E012BF4D8002DF2D0F9
:1095600006F0EEFAEFE700BFF430002041FB020006
:1095700010B5044603F024F90128204603D1BDE8C4
:10958000104007F00FB8BDE8104002F0ADB9000080
:1095900070B50446FFF7A2FD04F50070FEF7DAFF90
:1095A00004F50F70FEF731FF04F5177001F0A5F810
:1095B00004F52C70FFF7E0FE04F5307000F0CAFEF1
:1095C00004F5347001F03EF84FF40063C4F8E8325B
:1095D000244BC4F8EC3240F2031300250126A4F812
:1095E000F032214BC4F8F252C4F8F652A4F8FA5201
:1095F000C4F8F43284F8F26284F8F862A4F8FC52F9
:109600005022294604F54570FCF788FEC4F8FF5245
:109610004FF6FF73A4F8123394F8FF32C4F80453E2
:109620000322334362F3061384F8FF32072384F8DE
:109630000033102384F8013394F80233C4F808533C
:109640001343C4F80C5384F8106384F8FE52C4F832
:109650006853C4F8645384F8023384F80323204623
:1096600070BD00BF010A17001700030170B5AB4DB4
:1096700080F8FC128CB0044680F8FD222868039024
:10968000A74903A8FFF73DFF18B1002630460CB0EC
:1096900070BDCDE90900A34A0B9094F8ED32049215
:1096A00009A901208DF82430FFF737FF0028ECD1FD
:1096B00094F8FC320B90CDE909008DF8253094F830
:1096C000FD328DF82630003318BF0123049A8DF83F
:1096D000273009A94020FFF720FF0028D5D194F8B2
:1096E000EC320B90CDE9090063F300008DF8240003
:1096F000049A09A9A020FFF710FF0028C5D1CDE9E1
:109700000A00D4F8E832049A099309A9A120FFF7C6
:1097100004FF0028B9D194F8FC32002B68D194F8EA
:10972000FD32002B40F0AE8004A8FFF7F4FE0028C5
:10973000ABD1CDE90700C0B240F001008DF81C00AC
:1097400007A90220FFF7EFFE00289ED104F52C7038
:10975000FFF720FE0646002897D00CA82B7900F8CA
:10976000283D0B227049FFF7CEFE00288DD194F8DA
:10977000FD321BB104F5307000F0F6FD032200212C
:10978000012002F0A5F9C4F8040300283FF47DAFDE
:1097900005AB032501934FF4C06200236349009594
:1097A000634802F06AFD2A460021012002F090F988
:1097B000C4F8080300283FF468AF06ABCDE90053B6
:1097C000C82200235B495C4802F057FD5B4B4FF415
:1097D00080021A605A4B0093002301224FF48071DB
:1097E000184603F025F9C4F80C0300F0F3FB4DE72D
:1097F000B4F8EE220B90CDE909000123ADF8262044
:1098000009A9049A8DF824302320FFF786FE00284A
:109810007FF43BAF94F8FC220B90CDE909008DF862
:10982000262094F8F022ADF8282009A9049A8DF892
:1098300024302020FFF771FE00287FF426AF94F833
:10984000F1220B90CDE9090009A98DF826202220EC
:10985000049A8DF82430FFF760FE00287FF415AFDE
:10986000CDE909000B908DF82430049A94F8F23277
:109870008DF8263009A92120FFF74FFE00283FF47C
:109880004EAF02E70023B4F8F4220B93CDE909337D
:1098900009A90223ADF826202320049A8DF824304C
:1098A000FFF73BFE00287FF4F0AE94F8FD220B900A
:1098B000CDE909008DF8262094F8F622ADF828208D
:1098C00009A9049A8DF824302020FFF726FE0028ED
:1098D0007FF4DBAE94F8F7220B90CDE9090009A9DB
:1098E0008DF826202220049A8DF82430FFF715FEEB
:1098F00000287FF4CAAECDE909000B908DF8243022
:10990000049A94F8F8328DF8263009A92120FFF73F
:1099100004FE00283FF408AFB7E600BF584103003B
:109920002D950200002800207841030084410300A7
:10993000F59C0200884103003195020000E100E03F
:109940002B95020037B5084B02AC1B7904F8043D97
:1099500008460D4607F01DFD294682B22046FFF756
:10996000D2FD03B030BD00BF5841030007B5084623
:1099700002A921F8022DFFF7C8FD20B99DF80600C5
:1099800003B05DF804FB0020FAE790F9FE0270478F
:1099900073B50446D0F80C030E4603F085F9002396
:1099A0000546B6024FF47A720093B6FBF2F2042138
:1099B000D4F80C0303F05AF83DB900952B462A461B
:1099C0000321D4F80C0303F051F802B070BD132941
:1099D00006D800EB8100D0F8140308B1FFF75EBA97
:1099E0000020704770B5002506462C46A9B23046C7
:1099F000FFF7EDFF08B10134E4B20135142DF5D1C4
:109A0000204670BD01290CBFB0F8EE02B0F8F40298
:109A1000704713299ABF00EB8100D0F8140300208F
:109A20007047000010B5064C0021D4F8080302F07E
:109A300036F9D4F804030021BDE8104002F02FB934
:109A4000F430002013B590F8103353B1D0F80C4324
:109A500002F080FC0023024600930121204603F01F
:109A600005F802B010BD13B50023009304461A4652
:109A70000321D0F80C0302F0F9FF204602B0BDE844
:109A80001040FFF7AFBF2DE9F04F8E88132E85B041
:109A900004460D462CD800EB8603D3F8147317B197
:109AA0003846FFF727FA2B88112B00F0998021D830
:109AB000012B00F0E680102B40D0294604F5007001
:109AC000FEF7D6FD294604F5177000F0CFFEB4F876
:109AD0001233B3422B8800F0D980102B40F0DB808A
:109AE000EB7B012B40F0D780AB88A4F81233D2E097
:109AF0000027D8E7212B00F0BC80232B00F0AE809C
:109B00001C2BDAD1D4F86433002BD6D01420FFF705
:109B10002FFD4FF0000CC0F800C0D4F86423426061
:109B20000222027295F908200392029602AA0346C5
:109B300003CAD8601961184661463DE004EB860807
:109B40002046FFF790FFD8F8140305F1080A28B162
:109B500003685B6898470023C8F81433EB7B2C201C
:109B6000012B07BF94F8F19294F8F2B294F8F792AF
:109B700094F8F8B203F0BAFA4B460746524631461B
:109B8000CDF800B0FFF760F9C8F814733846FFF756
:109B900089F90128804612D1D4F8B832002B8CD034
:109BA0001020FFF7E5FC00210160D4F8B8224260E4
:109BB000034680F80880DE6003F03AFC7DE7D4F8C5
:109BC000C832002B3FF479AF1020FFF7D1FC002101
:109BD0000160D4F8C8224260012203460272EAE71B
:109BE0002046FFF7FFFE3846FFF75CF9012826D133
:109BF000D4F8BC32BBB11420FFF7BAFC4FF0000C14
:109C0000C0F800C0D4F8BC2203465A6002221A727F
:109C10002A7A0392029602AA03CAD86019611846EA
:109C2000614603F005FC04EB8608D8F8140310B174
:109C300003685B6898470023C8F814333DE7D4F8FD
:109C4000CC32002BEFD01420FFF792FC4FF0000C29
:109C5000C0F800C00346D4F8CC22D6E70022114653
:109C60003046FFF756FC00283FF427AF05B0BDE8AB
:109C7000F08F04A9002321F8083D3046FFF747FC88
:109C80001BE700213046FFF74CFC16E7102B3FF492
:109C900027AF112B25D03FBB294604F52C70FFF7C9
:109CA000AFFB27B13846FFF7FDF8022804D129465B
:109CB00004F5307000F084FB04F53476304600F093
:109CC000D9FC18B12946304600F0D6FC294620467A
:109CD000FFF75AFAD4F86833002BC7D028469847C4
:109CE000C4E74FF6FF7300E73846FFF7DBF80128BB
:109CF000D8D1D1E773B54FF4FA70FFF739FC0E4DA8
:109D000004464FF4FA764FF0FF31D5F8040302F021
:109D100069F80028F7D00DF106012046ADF806607D
:109D2000FFF7FDFB20B921462846FFF7ACFEF2E71E
:109D30000528E8D0EFE700BFF43000200148FFF726
:109D400027BC00BFF430002073B56C46054641F6D1
:109D50000F012046FFF7A4FB2E4694E80600284694
:109D6000FFF786FB074B46F8103B204642F61921C9
:109D7000FFF796FB94E806003046FEF78FFF284673
:109D800002B070BDCC41030008B51030FEF7E2FF11
:109D9000003018BF012008BD38B50446FFF74CFB62
:109DA000054690B9103420461221FEF78EFF2A4650
:109DB00020461121FEF798FF20460121FEF788FF7B
:109DC0002046BDE83840FEF7D5BC38BD37B56D46F6
:109DD000044641F60A012846FFF762FB95E80600B3
:109DE0002046FFF745FB074B2360074B2361002309
:109DF000C4E90533E361054B2362054B63622046EA
:109E000003B030BD04420300D8410300F341030016
:109E1000453503000161704741627047F0B595B068
:109E20000446FFF709FB064658BB03F063FB60617D
:109E300003F030FB0C34E06042F624256F4654F802
:109E4000043F43B329463846FFF72AFB97E806004C
:109E500002A8FEF723FF02A8FEF734FF022102A8A2
:109E6000FEF733FF206807F094FA81B202A8FEF7EC
:109E70002FFF02A8FEF77EFC064628B102A8FEF7D7
:109E800071FC304615B0F0BD216802A8FEF755FF01
:109E900002A8FEF767FC0135ADB242F62A239D42C7
:109EA000CDD10026EDE70123037000234370C0E904
:109EB0000133C3818381704708B5FFF7F4FF08BD04
:109EC00010B50446217019B90A2001F01EFE606029
:109ED00010BD037810B5044613B9406802F03AF893
:109EE0002046BDE81040FFF7DEBF0023816082817D
:109EF000C3817047037870B504460D46B3B901239A
:109F0000AD024FF47A716370B5FBF1F1606801F056
:109F100069FFB0B94FF0FF352378002666701BB19A
:109F2000606802F017F86660284670BD03220021C1
:109F3000012001F0CDFD60600028E0D14FF0FF3539
:109F4000F2E7E589ADB2E7E74078704738B5858933
:109F50009542044628BF154619B12A46806806F086
:109F600052FBA3682B44A360A3895B1BA381E389F5
:109F70002B449BB2E381284638BD406820B10023C2
:109F80001A46194601F0CABD7047B1DF7047B2DF0B
:109F90007047000010B4054B054C01290CBF214649
:109FA00019465DF8044B07F0ADB900BF6F420300DE
:109FB0005642030010B5044602F002FC0128204678
:109FC00003D1BDE8104006F0EDBABDE8104001F045
:109FD0008BBC000008B50C4805F01CFD0B490A4875
:109FE00003F054FC18B90949074803F05BFC084921
:109FF000054803F04BFC28B905490348BDE8084073
:10A0000003F050BC08BD00BF803D0020104203009B
:10A0100024420300F0B5074685B018200E461546C9
:10A02000FFF7C8FF0023044603603DB15020FFF74F
:10A03000C1FF50222060294606F0E5FA0F4B63600D
:10A0400003232372CDE90176039501AB55B10022BC
:10A0500053F822108D4204BF216843F822100132C8
:10A06000032AF5D103CBE06018682161606100210B
:10A07000204603F0DDF9012005B0F0BD95A20200F5
:10A08000F0B54FF6FF739A4285B007460D46164667
:10A090004FF0000417D01820FFF78CFFCDE90175B1
:10A0A0000A4A42600396032201AD0346046002722D
:10A0B00003CD5E61D86019611846214603F0B8F9F6
:10A0C000012005B0F0BD2046FBE700BFF9A102006A
:10A0D00030B5D1B015460A46014601A8FFF75AFF30
:10A0E0000E4B002201A908A803F087FD08A803F081
:10A0F00092FD044618B90024204651B030BD08A88E
:10A1000003F0D4FC50280246F5D1294608A803F0F4
:10A11000BCFC08A803F01FFDEEE700BF803D002057
:10A1200038B5044603F0C2FC051E08DD204603F0E6
:10A13000DEFC2918204603F0CBFC012038BD0020AE
:10A14000FCE70000F0B54FF6FF73D1B09A420E461F
:10A1500000AF3FD00146381DFFF71CFF1E4B002209
:10A16000391D07F1200003F048FD07F1200003F03E
:10A1700052FD48B9002407F1200003F0ECFC204612
:10A1800007F5A277BD46F0BD07F12000FFF7C8FF35
:10A1900007F12000FFF7C4FF07F1200003F086FC61
:10A1A0000028E7DDC31D23F0070384B26D46ADEB45
:10A1B000030D2246694607F1200003F066FC2246A3
:10A1C000694603233046FFF7E0FEB0FA80F46409E5
:10A1D000AD46D0E70024D2E7803D002070B50546AB
:10A1E0000E461446D1B203F0ABFB22463146284658
:10A1F000BDE8704003F0D2BB2DE9F041D0B00D4670
:10A2000000AF00210323064690462846BA1C7980F9
:10A21000FFF7BDFE7B886C46A3B30733DB08A4EBD6
:10A22000C3039D4628460323BA1C6946FFF7AFFEC9
:10A23000054638BB42463146381DFFF7ABFE144B8E
:10A240000122391D07F1200003F0D7FC07F120009F
:10A2500003F0E1FCB0B1294607F1200003F038FC1F
:10A2600007F12000FFF75CFF07F12000FFF758FF20
:10A2700007F120007A886946FFF7B0FF07F1200058
:10A2800003F069FC07F5A077A546BD46BDE8F0815F
:10A29000803D002030B514460128DDB00CBF528A45
:10A2A000E28D0D46014605A8FFF774FE05A9254875
:10A2B00003F0ECFA18B105A9224803F039FB214B51
:10A2C000012205A914A803F098FC14A803F0A3FC2C
:10A2D000002835D050220DEB02002146FFF77EFF0B
:10A2E000202200210CA8FCF719F829461648FFF790
:10A2F00090FB20220CA9FEF7DBFD9DF830309BB9C6
:10A3000094F84910039194F84A10029194F84B1074
:10A31000019194F84C10009194F84D3094F84E202F
:10A320000A490CA806F0EEFF0CA807F032F8421C10
:10A3300092B214A80CA9FFF751FF14A803F00BFC6C
:10A340005DB030BD803D0020F43000203842030075
:10A3500075DF70474FF010114FF44802C0E900124A
:10A360000022C0E902227047014800F079B900BF1D
:10A37000C433002010B50948FFF74BFB044608B969
:10A38000002010BDFEF78AFD0028F9D02046FEF718
:10A3900089FD831E58425841F3E700BFF430002086
:10A3A00070B5002506462C46A9B23046FFF7E2FFFD
:10A3B00008B10134E4B20135142DF5D1204670BD49
:10A3C00007B50B881F2B0DD18A8851F8080F4968F3
:10A3D0006B4603C36946BDF80030ADF80230104645
:10A3E000FFF7B6FF03B05DF804FBA1DF7047A3DF02
:10A3F0007047A4DF704710B5044602F0E1F9012868
:10A40000204603D1BDE8104006F0CCB8BDE81040AE
:10A4100001F06ABA002383827047806900F010B9A6
:10A42000808A70472DE9FF410B88CF88382B05467D
:10A430000C4600F09980392B12D0362B15D180694B
:10A4400000F0FEF801467D48FFF7E3FAFEF72CFD29
:10A4500005F11C080646002F00F0D480404687E036
:10A460000B7B012B04D0022B3DD004B0BDE8F08162
:10A47000C36A002BF9D090F8342001F11007D107FE
:10A480002DD51820FFF7B7FF002303600646E089AB
:10A4900030B1FFF7B0FF3060E289394606F0B3F81B
:10A4A000EB6A736003233372E2890392CDE90157AB
:10A4B00001AB52B1002253F822108F4204BF316821
:10A4C00043F822100132032AF5D103CB3161F06049
:10A4D000186870610021304602F0AAFFC5E7E289E2
:10A4E00039469847C1E7036B002BBED090F8342063
:10A4F000B1F80480920701F1100731D51820FFF759
:10A500007AFF002303600646E08930B1FFF773FF4E
:10A510003060E289394606F076F82B6B73600323CE
:10A520003372E2890392CDE9015701AB52B10022A7
:10A5300053F822108F4204BF316843F822100132D1
:10A54000032AF5D103CB3161F060186870610021F6
:10A55000304602F06DFF61894046FFF74AFF84E70D
:10A56000CA8939469847F6E700F11C061FB1304604
:10A57000FFF703FD79E70A8A30463946FFF7E6FC24
:10A5800094F80C80B8F1010FF1D0B8F1040F7FF40A
:10A590006CAFA86900F054F801462848FFF739FA73
:10A5A000FEF782FC431F288D9BB2984228BF1846B5
:10A5B000AB8AC0B1ADF80630228AE389ADF80A0053
:10A5C0001344ADF80830A8696B6AADF804700393C2
:10A5D0008DF8048000F034F801A9FFF708FF002887
:10A5E0003FF443AFC3E7CDE9020040F20512A8698A
:10A5F000ADF80420ADF8063000F022F801A9FFF70D
:10A60000F6FEB4E7E28904F110014046FFF79EFC34
:10A610002B8D002B3FF422AF033EE389B6B2013EFF
:10A62000B342FFF61BAFA86900F00AF86A8DA98A49
:10A63000FFF7DBFE00287FF411AF16E7F4300020AF
:10A640008088704710B504460430FFF735FC034B93
:10A65000236000232375204610BD00BF0100FFFFCB
:10A66000017D10B5044621B90430FFF729FC012310
:10A67000237510BD007D704710B50B88322B12D0AA
:10A68000332B1ED0302B26D1CB88041D33B94B89F8
:10A6900023B10A2211442046FFF758FC2046BDE8AA
:10A6A0001040FFF76ABCCB88041D002BF6D14A8905
:10A6B000002AF3D002EB82025200023292B20A3137
:10A6C000E9E7CB88041D002BE8D14A89002AE5D0B0
:10A6D00002EB4202F0E710BD8ADF704710B5044676
:10A6E00002F06EF80128204603D1BDE8104005F0C5
:10A6F00059BFBDE8104001F0F7B810B504461F235C
:10A70000206283840123002180F82D308023816220
:10A7100080F82C1080F82E3080F82F10018680F8F9
:10A7200038104163C0E90F110E224430FBF7F6FDEB
:10A73000A023A4F846305023A4F84830204610BD8A
:10A7400010B504461F232062A0F84A10838400F14C
:10A7500020014430FFF7C0FF30B90448FFF772F919
:10A76000012084F82C0010BD0020FCE7F43000200C
:10A7700000F1200108B50020FFF7AEFFB0FA80F02D
:10A78000400908BD38B5012A14469DF814001BD9AC
:10A790004D780A789D4205D1541E0231E4B20AD1A7
:10A7A0000C4606E0D5432C44013214F0FF0411445A
:10A7B000EED1204638BD10B1844228BF044622465F
:10A7C000049805F020FFF4E70024F2E737B59DF880
:10A7D00018500C7FCDE90035134689692246FFF7F2
:10A7E000D1FF03B030BD2DE9F04F8FB002AF8046EE
:10A7F000384687E80C008946FEF758FEC0B210289C
:10A800000CBF40F2023340F206734FF0000616BF51
:10A81000039FADF81430ADF81430C508B2461F22BE
:10A82000002106A8FBF77AFD05AB4946F25CCDF89E
:10A8300000A006AB4046FFF7C9FF0DF1180B044618
:10A840007CB12A463946584605F0CEFE28B901208B
:10A850000FB0BDE8F08F0126E1E7641BAB44E4B222
:10A86000EEE7002EF7D02046F2E70000F0B50B88A7
:10A870008D88112B85B004466ED003D8102B5ED086
:10A8800005B0F0BD1B2B00F087801D2BF8D190F98F
:10A890002E2091F91B309A424DDC90F8383001F1AE
:10A8A00008059BBB94F82F307BB102230093FF2255
:10A8B0000DF10E0329462046FFF788FF00283AD005
:10A8C000228EBDF80E309A4235D1E36B002BD7D0E3
:10A8D0001020FFF703FF0023036006462420FFF744
:10A8E000FDFE2946306005F1240351F8042B40F8A1
:10A8F000042B9942F9D1E36B7360012333723368FF
:10A90000F3600021304602F093FDB9E7002794F888
:10A910003830FEB2B3420AD9636B03EBC6030CCBEB
:10A9200029462046FFF75FFF01370028EFD094F853
:10A930003830B342B6D12046FFF71AFFA0E7CB7BF1
:10A94000022B9DD1012101FA05F2816A00231143F6
:10A95000816280F82C3093E7836AEB40DB078FD568
:10A960001948FFF71DFD00288AD1012303FA05F2DB
:10A97000A36A23EA0203A36294F82C30002B7FF42D
:10A980007FAF94F82D30002B3FF47AAFB4F84A1023
:10A990002046FFF7D5FE73E70B7A012B7FF470AFEB
:10A9A000002580F82C500948FFF75DF8236C002B38
:10A9B0003FF466AF1020FFF791FE0560226C426005
:10A9C000057229469FE700BFB4330020F430002011
:10A9D0002DE9F84380460D46174601EB02090C4667
:10A9E0004C45A4EB05060BD0D8F8003014F8011B39
:10A9F0001B68404698470028F2D13046BDE8F883EE
:10AA00003E46FAE77047203000F066BC203000F088
:10AA100055BC203000F066BC38B5437F0D460BB9FD
:10AA2000002038BD00F16804204600F063FC0028D7
:10AA3000F6D12046294600F032FC0120F1E7000063
:10AA40002DE9F0411E4600254FF47A73C0E9015309
:10AA50000E4B044640F8203B1746884600F016FC93
:10AA600004F1680000F012FCC4E90487084B9DF86B
:10AA70001820267653F8222062769DF81C2053F881
:10AA80002230A37665772046BDE8F081904203002E
:10AA9000B4420300827E4FF0A04102F5E07210B58F
:10AAA000012340F20C64C37641F82240427E02F555
:10AAB000E07241F8224002694FF0CC71C2F82415CF
:10AAC00002690621C2F800150269817EC2F80815E4
:10AAD0000269417EC2F80C1590F91820510902F064
:10AAE0001F02934060310F4A42F8213090F918302C
:10AAF000002BBDBF03F00F0302F6FC32D2189B18E7
:10AB0000B5BF60236022137683F8002390F91830D4
:10AB10000122590903F01F0302FA03F3014A42F824
:10AB2000213010BD00E100E0C37EA3B10369002223
:10AB3000C3F800250A4B99420ED90A4B994294BF9B
:10AB40004FF080614FF0C8610369C3F824150369B1
:10AB50000622C3F8002570474FF0CC71F4E700BF20
:10AB6000A086010090D003002DE9F04104468846FC
:10AB70001F461546002A50D000F12006304600F04E
:10AB800099FB2369C3F88885236901221A62236926
:10AB9000C3F834652369C3F8385523691A602269FC
:10ABA000D2F84C311BB9D2F82431002BF8D0002355
:10ABB000C2F84C312269D2F85C311BB9D2F8243189
:10ABC000002BF8D00023C2F85C3122696FB9D2F8AB
:10ABD000243153B90123D3612369D3F84821002AD2
:10ABE000FBD00022C3F8482109E001235361236907
:10ABF000D3F80421002AFBD00022C3F804212369E2
:10AC0000D3F8242112B10022C3F824212369D3F8F8
:10AC10003C052066C0B2BDE8F0811046FBE7012389
:10AC2000FFF7A2BF10B5044680F8B010683000F0FE
:10AC300041FB0123637710BDF8B500234377036917
:10AC400090F8B020C3F88825036901261E620369C5
:10AC500000F168050446C3F8445528460F4600F045
:10AC60003BFB2369C3F8480523699E602369D3F839
:10AC700050211AB9D3F82421002AF8D00022C3F8B1
:10AC80005021284600F028FB236930B1D3F8602119
:10AC90001AB9D3F82421002AF8D00022C3F8602181
:10ACA00023696FB9D3F8242152B90122DA612369EB
:10ACB000D3F84821002AFBD00022C3F8482109E03C
:10ACC00001225A612369D3F80421002AFBD0002213
:10ACD000C3F804212369D3F8240168B10022C3F822
:10ACE00024212369D3F8C404C3F8C404022803D080
:10ACF00004280CBF03200420F8BD0121FFF79CBFEE
:10AD000070B54369D3F86421044692B1002201254D
:10AD100000F12006C3F864210577304600F0CAFA36
:10AD20006369C3F8346563694022C3F838256369F1
:10AD30001D636369D3F86821DAB10025C3F868514F
:10AD400004F16806012363772577304600F0B2FAF4
:10AD5000D4F8B43003B19847636965773046C3F8D7
:10AD6000446500F0B9FA6369C3F8480563690122D4
:10AD70005A636369D3F8042162B10022C3F8042145
:10AD8000237F3BB16369D3F83C05D4F8B830206623
:10AD900003B198476369D3F8242152B10022C3F864
:10ADA00024216369D3F8D024C3F8D0246369012235
:10ADB0005A6170BD0148FFF7A3BF00BF6034002097
:10ADC00007B508230722CDE900324FF040220423C3
:10ADD00011460348FFF734FE03B05DF804FB00BFE3
:10ADE000603400203C232DE9F041B0FBF3F403FB79
:10ADF00014011170B4FBF3F103FB114318245370D9
:10AE00004FF46163B0FBF3F3B3FBF4F104FB1133D4
:10AE100093700721374BB0FBF3F0031DB3FBF1F147
:10AE2000C1EBC1015B1A01330024D370214640F20B
:10AE30006D184FF0640C4FF4C87EE6B206F2B273A0
:10AE400013F0030743D193FBFCF50CFB1535002DE4
:10AE500040D193FBFEF50EFB1535002D14BF454682
:10AE60004FF4B7752944884204F10104E5D2642403
:10AE70004FF4C875967193FBF4F604FB163693FBFA
:10AE8000F5F405FB143347BB56BB002B40F26D14A1
:10AE900008BF4FF4B774091BDFF85CC0401A0021EB
:10AEA0000129CDB21FD10FBB16BB002B14BF1C2430
:10AEB0001D24844205D801310C29A0EB0400EFD1F8
:10AEC0000D460135013055711071BDE8F08140F239
:10AED0006D15C7E74FF4B775C4E740F26D14DAE7B4
:10AEE0004FF4B774D7E711F80C40E2E71C24E0E711
:10AEF0001D24DEE780510100A8420300D0B5074CB5
:10AF0000D4E900238B4208BF824206460F4604D094
:10AF1000034AFFF767FFC4E90067D0BD3035002062
:10AF20002435002008B5FFF7E9FF014B987808BDEC
:10AF30002435002008B5FFF7E1FF014B587808BD24
:10AF40002435002008B5FFF7D9FF014B187808BD5C
:10AF50002435002008B5FFF7D1FF014B187908BD53
:10AF60002435002008B5FFF7C9FF014B587908BD0B
:10AF70002435002008B5FFF7C1FF024B987900F295
:10AF8000B27008BD24350020F0B52C4B827940F218
:10AF9000B271534364254FF4C876A1F2B274A24251
:10AFA00020DC02F2B2726421467992FBF1F4244F64
:10AFB000DFF890C001FB14244FF4C87192FBF1F547
:10AFC00001FB1525012102F003028E4223DD022937
:10AFD0001AD1CAB904B9BDB903F5181303F56E53F4
:10AFE0000131F2E78C070DD191FBF5F405FB141448
:10AFF00024B991FBF6F406FB14141CB903F5A8332D
:10B0000003F5C0730131C8E707EB010E1EF801EC30
:10B010000CFB0E33E4E742788178C2EB02124FF466
:10B020006164920004FB0122017800790A44054919
:10B03000013801FB002018440021F0BD8033E101FC
:10B04000A84203008051010008B5074B1860074B68
:10B050001B681844064B1860064B02221A7000F059
:10B0600031FC054B186008BD2C350020382C002021
:10B07000203500202B3500201C35002038B5164D1A
:10B08000164C00F01FFC2B68C01AB0F57A7F06D36F
:10B09000226803F57A73013222602B60F1E7104DCC
:10B0A00023682A689A4208D80E4B1B682BB1984730
:10B0B00050EA010304D0FFF7C7FF2068002138BD24
:10B0C000094A236812681344084A2B601378003336
:10B0D00018BF01231370F0E71C3500202C35002029
:10B0E0002035002038350020382C00202B3500205A
:10B0F00070B5DDE904640546632C0848CCBFA4F2B2
:10B10000B2741E348471467185700371417002708F
:10B11000FFF73AFFBDE87040FFF796BF24350020E7
:10B120002DE9F04106460D4601EB02080C46444568
:10B13000A4EB050707D0336814F8011B1B683046E1
:10B1400098470028F3D13846BDE8F08170B5044631
:10B1500008460D4606F01DF923680246294620469A
:10B160005B68BDE87040184709B1FFF7EFBF0846BC
:10B17000704703685B68184708B58A680968FFF775
:10B18000F8FF08BD08B5FFF7EFFF08BD03681B68AF
:10B19000184700000149FFF7D9BF00BF344303003F
:10B1A00038B50546FFF7E8FF04462846FFF7F2FFEB
:10B1B000204438BD38B50546FFF7D6FF044628467B
:10B1C000FFF7E8FF204438BD70B58AB00D460AA9E4
:10B1D000002301F8043D012A98BF0A22B5FBF2F4CE
:10B1E00002FB1456F3B2092E94BF30333733DBB26F
:10B1F000254601F8013D002CF0D1FFF7B5FF0AB05C
:10B2000070BD2DE9F04107460E4615462AB9036880
:10B21000C9B21B68BDE8F04118470A2A05D10029C8
:10B2200005DBBDE8F041FFF7CFBFD2B2F9E72D2132
:10B23000FFF7ACFF2A46044671423846FFF7C4FFC9
:10B240002044BDE8F081FFF7DCBF38B50546FFF7C5
:10B25000D8FF04462846FFF79DFF204438BD10B4B0
:10B260002AB903685DF8044B1B68C9B21847D2B20B
:10B270005DF8044BFFF7A8BF38B50546FFF7EFFFB1
:10B2800004462846FFF786FF204438BD08B5402213
:10B290000021FBF743F80022C0E9102208BD026C30
:10B2A00010B5531C446C03F03F039C421CBF8154F7
:10B2B000036410BD0023C0E910337047D0E91023A8
:10B2C00093421FBFC25C013303F03F03436414BFCA
:10B2D00010464FF0FF307047D0E91030181A48BFC1
:10B2E00040307047D0E91023934214BFC05C4FF048
:10B2F000FF307047036C406C013303F03F031B1AAF
:10B3000058425841704790F8620070470368132212
:10B31000DB6918471430FFF7CDBF000038B590F94E
:10B320005C305909044601222031164803F01F03FE
:10B3300002FA03F340F8213023690421C3F808130B
:10B3400023695A602369DA6023690025C3F8005530
:10B3500022694FF0FF33C2F80C352269C2F8143568
:10B360002269C2F80835226904F11400C2F81035C8
:10B37000FFF7A0FF606E00F0EDFD656684F8625097
:10B3800038BD00BF00E100E01430FFF7A5BF143066
:10B39000FFF7A8BF1430FFF791BF38B504460D463C
:10B3A000406E4FF0FF3100F01DFD2369C3F81C55BE
:10B3B0002269D2F81C31002BFBD00023C2F81C31CB
:10B3C00019461A46606E00F0A9FB012038BD000046
:10B3D00038B590F862200446002A40F09080036956
:10B3E00090F85E00C3F80C05236994F85D00C3F87B
:10B3F000140594F861002369012801BF94F85F20C7
:10B40000C3F81025236994F8602005BFC3F8082508
:10B410002369C3F86C25C3F86C05B1F5966F6FD935
:10B42000B1F5166F6FD9B1F5965F6FD9B1F5165FAB
:10B430006ED9B1F5615F6DD9B1F5964F6CD9B1F5A3
:10B44000E14F6BD9B1F5164F6AD9B1F5614F6AD9A1
:10B45000B1F5963F6AD9B1F5E13F69D9B1F5613FE0
:10B4600069D9394B994269D9B1F5E12F69D9B1F55B
:10B47000612F94BF4FF070634FF080532269C2F880
:10B48000243523690422C3F8002521690023C1F86B
:10B4900008312169C1F81C31216901230B60216940
:10B4A0008B602169C1F8042394F95C20510902F0F2
:10B4B0001F0293406031254A42F8213094F95C30F4
:10B4C000002BBDBF03F00F0302F6FC32D2189B180D
:10B4D000B5BF60236022137683F8002394F95C30B3
:10B4E0001A4A5909012503F01F0305FA03F342F82C
:10B4F0002130284600F092FB84F86250606638BD27
:10B500004FF49E23BAE74FF41D23B7E7104BB5E77E
:10B51000104BB3E7104BB1E7104BAFE7104BADE763
:10B520004FF41D03AAE74FF46B03A7E70D4BA5E704
:10B530004FF0EB73A2E74FF06C739FE74FF080631F
:10B540009CE74FF0E86399E790D0030000E100E04A
:10B5500000B013000050270000F03A0000A04E0099
:10B5600000C0750000903A0108B5044B2BB10448A7
:10B57000FFF7B2FE08B1AFF3008008BD0000000085
:10B58000503500202DE9F04100251E464FF47A7316
:10B59000C0E901530F4B044640F8143B1746884658
:10B5A000FFF774FE0C4AC4F8108084F85C7052F8FF
:10B5B000263084F85D309DF8183052F8233084F836
:10B5C0005E3084F86150656684F862502046BDE8BC
:10B5D000F08100BF40430300B44203000369D3F885
:10B5E00008214AB10022C3F808210369D3F81815CD
:10B5F0001430C9B2FFF753BE704700000148FFF78F
:10B60000EDBF00BF3C35002007B517230093022291
:10B61000162303490348FFF7B5FF03B05DF804FBA9
:10B62000002000403C3500202DE9F041DFF8F0809B
:10B63000D8F8005007460E461446CDB920222946B8
:10B640003148FAF76BFE314B4FF0FF321A605A6007
:10B650002F4B1D605D602F4B40226021C3F880207E
:10B66000C3F8802183F806131A600123C8F800305C
:10B670001E2F47D824F48073032B3CD0042B38D0E2
:10B68000022B3FD10325244B204A53F827300021B9
:10B6900017468856B0F1FF3F2FD11B4A7B5442F822
:10B6A00021601B4AC4F3002454548A0002F18042F2
:10B6B00002F5C0421B02D2F8100520F4473020F4F6
:10B6C0004070C2F81005D2F8100503F4F85343EAAD
:10B6D00005430343C2F81035D2F8103543F0010397
:10B6E000C2F8103501200D4B8840C3F80403BDE8B3
:10B6F000F0810125C7E70225C5E79842CDD0013189
:10B700000829C6D10020F2E7AC350020CC35002056
:10B71000A435002000E100E0B442030000600040D6
:10B72000D43500202DE9F341DFF884801D4F00253A
:10B7300005F1805404F5C254A4002368012B26D1DE
:10B74000D8F80423AB40134221D0174BEB560133FA
:10B7500018D004F14046A6F5C246F35993B1134AF6
:10B76000AA5CEAB101F02CF801284FF0100014D1C6
:10B7700004F018FF00230360BA59426003720121EC
:10B7800001F056FE0023236023680193019B0135DD
:10B79000082DCDD102B0BDE8F08100F0A5F8E9E7B1
:10B7A0009847EFE7AC350020CC350020A4350020C9
:10B7B0000060004010B5029C401AE41A6043521A1F
:10B7C00090FBF2F0184410BD10B50446006804F078
:10B7D000F1FE204610BD10B50446006808B104F023
:10B7E000E9FE00232360C4E9013310BD38B50446E7
:10B7F0000D460068013105F06DFD10B1C4E900058A
:10B80000012038BD036810B5044623B143688B425C
:10B8100001D3012010BD2046FFF7E8FF0028F9D032
:10B82000A368002BF5D122681370F2E770B50E46BD
:10B83000114604461546FFF7E5FF20B92046FFF7FD
:10B84000CAFF204670BDA5603146206805F087FD1F
:10B85000F7E738B500230446C0E9003383600D469E
:10B8600039B1084605F095FD294602462046FFF706
:10B87000DDFF204638BD70B505460E4609B90020EB
:10B8800070BD6AB1846814442146FFF7BBFF0028ED
:10B89000F5D02868AB683146184405F060FDAC600F
:10B8A0000120EDE738B505460C46084641B105F0E4
:10B8B00070FD214602462846BDE83840FFF7DBBF51
:10B8C00038BDFEE708B500F045FD4FF47A72A0FBE5
:10B8D0000223900A40EA835008BD80024FF47A7335
:10B8E000B0FBF3F000F024BE10B5044600F02AFDD2
:10B8F000204604F057FE044600F0B0FD0CB901F0FC
:10B9000024FD204610BD10B5044640B100F01AFDDC
:10B91000204604F04FFEBDE8104000F09FBD10BD72
:10B9200010B5044601F008FAA46B01F00FFAB4FA5E
:10B9300084F0400910BD70B51546026C866B044654
:10B9400042B905689DB9406800F08CFF656001361A
:10B95000A66370BD6DB9806804F055FEA368226CC3
:10B9600013446268A360934201D32368A36000205C
:10B97000EDE7C06804F047FE236CE26821685B4293
:10B980001A448A42E2603EBF62689B18E360022D5F
:10B99000EDD10EB1013EEAE73046D8E7034610B4D8
:10B9A0001A6C084662B1D9685C681144A142D9603A
:10B9B00024BF1968D960D9685DF8044B04F023BE30
:10B9C0005DF8044B704770B5044601F0B5F994F882
:10B9D000455004F124066DB2002D14DCFF2384F8D9
:10B9E000453001F0B3F901F0A7F994F8445004F19F
:10B9F00010066DB2002D12DCFF2384F84430BDE840
:10BA0000704001F0A3B9636A002BE7D0304600F024
:10BA10004BFE08B100F0B4FE013D6DB2DCE72369D6
:10BA2000002BE9D0304600F03FFE08B100F0A8FE40
:10BA3000013D6DB2DEE7000038B504460D4601F069
:10BA40007BF9D4E90F302268A2604343D1181B1A56
:10BA500013446160E3600021FF23A16384F8443054
:10BA600084F845309DB923696BB104F1100000F0F2
:10BA70001BFE40B10A4B4FF080525A6040BFBFF3EB
:10BA80004F8FBFF36F8F01F061F9012038BD04F1D2
:10BA9000100001F06FFE04F1240001F06BFEF2E7EC
:10BAA00000ED00E010B51C4683B10123002908BF5A
:10BAB0002246C4E90F0184F8463019462260204628
:10BAC000FFF7BAFF9DF8083084F84C30204610BDCF
:10BAD000F8B50646484350300D461746FFF704FFB9
