:020000022000DC
:10600000000001203DDE02007DDE02007FDE020096
:1060100081DE020083DE020085DE02000000000057
:10602000000000000000000000000000BDDD0200D4
:1060300089DE020000000000DDDD02008DDE0200CE
:106040008FDE02008FDE020019C302008FDE020025
:10605000698F02008FDE020041C402008FDE020061
:106060008FDE02008FDE02008FDE02008FDE020074
:106070008FDE02008FDE02008FDE02008FDE020064
:106080008FDE0200E5DB02008FDE02008FDE020001
:106090008FDE02008FDE02006DAA02008FDE02009A
:1060A0008FDE02008FDE02008FDE02008FDE020034
:1060B0008FDE02008FDE0200000000000000000002
:1060C0008FDE02008FDE02008FDE02008FDE020014
:1060D000D56D02008FDE02008FDE0200000000009E
:1060E00000000000000000000000000000000000B0
:1060F00000000000000000000000000000000000A0
:10610000000000000000000000000000000000008F
:10611000000000000000000000000000000000007F
:10612000000000000000000000000000000000006F
:10613000000000000000000000000000000000005F
:10614000000000000000000000000000000000004F
:10615000000000000000000000000000000000003F
:10616000000000000000000000000000000000002F
:10617000000000000000000000000000000000001F
:10618000000000000000000000000000000000000F
:1061900000000000000000000000000000000000FF
:1061A00000000000000000000000000000000000EF
:1061B00000000000000000000000000000000000DF
:1061C00000000000000000000000000000000000CF
:1061D00000000000000000000000000000000000BF
:1061E00000000000000000000000000000000000AF
:1061F000000000000000000000000000000000009F
:1062000010B5054C237833B9044B13B10448AFF3F0
:1062100000800123237010BD302E002000000000FC
:10622000DC5B030008B5034B1BB103490348AFF324
:10623000008008BD00000000342E0020DC5B03005D
:10624000154B002B08BF134B9D46A3F5803A002148
:106250008B460F461348144A121A00F05FF80F4B92
:10626000002B00D098470E4B002B00D09847002001
:10627000002104000D000D48002802D00C4800F059
:1062800015F900F027F82000290007F015FE00F0AE
:1062900011F800BF0000080000000120000000000D
:1062A00000000000302E002080770020AD64020046
:1062B000B964020008B50021044600F083F8044BDD
:1062C0001868C36B03B19847204600F073F900BF0C
:1062D0001446030070B50D4E0D4D761BB61006D05A
:1062E0000024013455F8043B9847A642F9D1094EE1
:1062F000094D761B0EF082F9B61006D00024013449
:1063000055F8043B9847A642F9D170BD042E0020F1
:10631000042E0020282E0020042E0020F0B4860732
:1063200043D0541E002A3ED0CAB2034602E014F104
:10633000FF3438D303F8012B9D07F8D1032C2BD958
:10634000CDB245EA05250F2C45EA054516D9A4F13D
:1063500010073F0903F1200606EB071603F11002B0
:1063600042E9045542E902551032B242F8D104F034
:106370000F040137032C03EB07130DD91E462246E9
:10638000043A032A46F8045BFAD8221F22F00302DB
:106390000432134404F003042CB1C9B21C4403F8C2
:1063A000011B9C42FBD1F0BC704714460346C5E775
:1063B000024B13B1024800F079B8704700000000AA
:1063C000B96402002DE9F04F354B85B00F460390BC
:1063D000186800F08BF8334B1B68019303F5A47326
:1063E0000293B946019BD3F848613EB3DDF808A09B
:1063F0004FF001087468651E0FD4013406EB840465
:106400000027B9F1000F20D0D4F800314B451CD043
:10641000013D6B1CA4F10404F3D1234B73B1D6E905
:106420000032002A34D1002B32D03046CAF8003076
:106430000BF032FADAF80060002EDBD1184B186846
:1064400005B0BDE8F04F00F053B873682268013B17
:10645000AB420CBF75602760002AD9D0D6F88811EE
:10646000D6F804B008FA05F30B4208D190477368D8
:106470005B45B7D1DAF80030B342C9D0B2E7D6F8FD
:106480008C01D4F88010034207D103989047EEE7BF
:10649000B2461E46002EADD1D0E708469047E6E74B
:1064A000302C0020144603009918030000230146F5
:1064B0001A46184600F01EB838B50A4C0A4D641B3F
:1064C000A4100AD004F18043013B05EB8305013C95
:1064D00055F804399847002CF9D1BDE838400EF042
:1064E00093B800BF2C2E0020282E0020704700BF3C
:1064F000704700BF2DE9F8432B4D064628689846A3
:106500000F469146FFF7F2FF284B1C68D4F848313C
:10651000002B3DD05A681F2A0DDC02F1010C16BB7E
:106520000232C3F804C0286843F82270FFF7E0FF86
:106530000020BDE8F8831E4B7BB34FF4C8700BF00E
:10654000A3F9034648B3D4F848210021C0E900214B
:106550004FF0010CC4F848010A46C0F88811C0F891
:106560008C11002EDCD003EB82010124C1F888904D
:10657000D3F8880194402043022EC3F88801C1F863
:106580000881CDD1D3F88C110C43C3F88C41C7E7F7
:1065900004F5A673C4F84831BCE72868FFF7A8FFE4
:1065A0004FF0FF30C5E700BF302C00201446030039
:1065B00089180300FEE700BF2DE9F04F85B01D46A6
:1065C000BDF93840BDF83CA0A31A83EAE37BABEBEE
:1065D000E37B6B1A002BB8BF5B429B458146164696
:1065E000019304DC23460E462C4611461D46A64266
:1065F00005DC2B460D461946234634461E464B1BEA
:10660000002BA6EB0408B8BF5B421FFA88F8029380
:106610000FFA88F7022397FBF3F300938D42ACBF88
:106620004FF0FF3301230393B44220DCD9F800304C
:106630001B691F46019B9B45CCBF22462A465346F9
:10664000CCBF294621464846B847009A029BD71A34
:10665000BBB21AB2002A009206DA039A08EB0307CB
:1066600015443BB22DB20093013424B2DCE705B0EF
:10667000BDE8F08F704710B40468A468A4465DF8C4
:10668000044B604730B40468BDF808500295246B91
:10669000A44630BC604730B40468BDF80850029589
:1066A000646BA44630BC604770B4BDF90C50BDF8B3
:1066B00010600468CDE90356A46BA44670BC604723
:1066C0002DE9F3411C460368BDF82080DB680546D0
:1066D0001646013C34440F4624B298472B68CDF847
:1066E000048000941C6A28463B4632463946A0473F
:1066F0002B685B6A284602B0BDE8F04118472DE9D7
:10670000F3411D460368BDF82080DB680446174648
:106710000E469847CDE9007822686B1E3344156A0F
:1067200020461BB23A463146A84723685B6A20469A
:1067300002B0BDE8F04118472DE9F3471E46036853
:10674000BDF92880DB68BDF82C900C46054617463D
:1067500098472644B4422A680BDACDF80090D2F864
:1067600018A0214643463A4628460134D04724B271
:10677000F0E7536A284602B0BDE8F047184713B562
:10678000B0F90E200468019100920022B0F90C309B
:10679000A46B1146A04702B010BD2DE9F3471D467A
:1067A0000368BDF82C70DB68BDF928900446884664
:1067B0001646984723680097D3F81CA032462B460C
:1067C00041462046D0472368009709F1FF32324402
:1067D000D3F81CA041462B46204612B2D04723686E
:1067E0000097D3F818A032464B4641462046D04782
:1067F00023680097691E41449D6920464B463246F6
:1068000009B2A84723685B6A204602B0BDE8F0479A
:10681000184770472DE9F347994280460C461546C4
:106820009946BDF92860BDF82CA0076811D1B24285
:10683000DCBF33461D46CDF828A0D8BF16466B1CDA
:106840003D6B9B1B1BB23246AC4602B0BDE8F04725
:106850006047B2420ED19942D8BF1C46CDF828A05D
:10686000D8BF8946631C7C6BA3EB09031BB2494666
:10687000A446EAE7FB689847CDE9006AD8F80030FB
:1068800040461E6A2A464B462146B047D8F800309B
:106890005B6A404602B0BDE8F047184701F00301CB
:1068A00001294176B0F90830B0F90A2004D0032953
:1068B00002D08381C28170478281C381704700000A
:1068C00030B54281C2814FF0FF320024064D426153
:1068D0000122446005600181818104610283827626
:1068E000C476C46130BD00BF204B03002DE9F04FDA
:1068F00089B09A46BDF94C300593BDF850300693E7
:106900000368BDF94890DB68CDE90312002605460F
:1069100034469847019609F10702082392FBF3FBDE
:10692000019A049B13441BB20293059ABDF90430EB
:106930009A4226DD0AEB06034FF0000807930FFA90
:1069400088F34B4518DA1FFA88F14A0705BFDB10B8
:10695000079A6400D45C18BFE4B2230609D5039BF0
:10696000029A19442B681B6909B21F462846069BE8
:10697000B84708F10108E2E7019B013301935E4447
:10698000CEE72B685B6A284609B0BDE8F04F184790
:106990002DE9F04F91B09046C26906911E46BDF8B0
:1069A000683002930446BDF86C909DF87050002A40
:1069B00040F0A880B0F90C308B4240F32A81B0F946
:1069C0000E30434540F32581062313FB0513002BAE
:1069D00040F31F8108EBC503002B40F31A81C37EEF
:1069E0001BB9AF2E84BF0136F6B223682046DB68A0
:1069F000984705230B931FFA88F300270993052373
:106A0000854A13FB06734FF0000AD35C0893ABB2C0
:106A10000393BDF818300493DDE9033207FB032329
:106A20001BB20A93099B05932BB2079312FA87F3C3
:106A30001BB20C93089A2368D20743D5012D34D199
:106A4000099AD3F810B0029B524412B20C99204616
:106A5000D847089B039A5B080893059B0AF1010A33
:106A600013449BB2BAF1080F0593E3D10B9B013B92
:106A7000013713F0FF037FB20B93C0D1029B4B454C
:106A80000CD0012D22682BD10499CDF8009005314E
:106A900095695346424609B22046A84723685B6A77
:106AA000204611B0BDE8F04F1847029A0192079AAC
:106AB0000092D3F814B00A9913462046BDF9142069
:106AC000D847C6E7029A4A45C3D0012D05D1099A95
:106AD000D3F810B052444B46B7E7CDF80490E6E740
:106AE000039BCDF8049003EB8301049B0B441946F0
:106AF000039BDB00009356692B46424609B22046B1
:106B0000B047CBE7137AF61A5368F6B203EBC60622
:106B100013680B9333880493B37896F906A0079310
:106B2000F3780C93012D96F90530089395BF002357
:106B30000FFA8AF31E46059398BF0593036888BF32
:106B4000BDF92060DB689847BDF8183006931FFA3E
:106B500085FB06FB0B36B3B20D931FFA88F30027B3
:106B600009935344B94603970F930C9B039A9A4297
:106B700094D2059BDDF834801344099A03FB0B2360
:106B80001BB20A93039A0F9B13441BB24FF0000AE7
:106B90000E9307995FFA8AF2D3198A42DBB230D298
:106BA0005B0707D1049B04990B9A01339BB212F83F
:106BB0000190049319F0800F0DD0012D226814D19B
:106BC000069B0899591813690E9A51441E4609B23A
:106BD000029B2046B0474FEA4909D8445FFA89F939
:106BE0000AF1010A1FFA88F8D3E702992BB2CDE91E
:106BF000003152690FFA88F1164620460A9AB047CA
:106C0000E9E7039E079B01361F44F3B2FFB20393EB
:106C1000ABE711B0BDE8F08F184603007FB5C2693D
:106C200004460B46002A32D10A2908D10282438A3F
:106C3000027E03EBC2036382012004B070BD0D2904
:106C4000FAD0A17E007E71B1B4F91050062111FB7B
:106C50000051B4F90C50A942C1BFB4F912102282FC
:106C600001EBC00262820290E08A0190A08AB4F92E
:106C700012200090B4F910102046FFF789FE237E01
:106C8000228A03EB430302EB43032382D4E70A295E
:106C900007D100230382937A017E428A01FB0323FA
:106CA000C9E70D29C8D0157AA942C5D3517A9942AE
:106CB000C2D351685D1B01EBC505AE781EB3E97800
:106CC00009B3A17E007E91B195F905103144B4F964
:106CD000106000FB0161B4F90C60B14207DD0026D1
:106CE0002682B4F91210927A02FB0012628202909C
:106CF000E08A0190A08A0090B4F91220B4F9101033
:106D00002046FFF745FE2979237E228A01FB0323D3
:106D1000BBE7018242827047002908BF012101764A
:106D20007047C18281827047407E7047B0F90C0085
:106D30007047B0F90E007047BFF34F8F0549064BFF
:106D4000CA6802F4E0621343CB60BFF34F8F00BF09
:106D5000FDE700BF00ED00E00400FA0532DF7047F8
:106D60003CDF704741DF704710B5054C05492046B0
:106D700005F06EF820460449BDE8104005F068B8FB
:106D8000985E0020164C0300234C030030B50146EA
:106D900089B00D4803F062FE2024054622460021FA
:106DA0006846FFF7BBFA2246084C6946284603F0BE
:106DB00077F80749204605F033F86946204605F084
:106DC00047F809B030BD00BF2C5B0020985E002062
:106DD000084C03000A4BD3F84021012A82B00CD1A1
:106DE0000022C3F84021D3F8042502F57012C3F83D
:106DF0004025D3F840310193019B02B0704700BF9A
:106E0000004002400C4BE02283F824231022C3F8F8
:106E100084215A60094B0022C3F808254FF47012F0
:106E2000C3F840254FF48032C3F80423C3F8442349
:106E300001221A60704700BF00E100E000400240FC
:106E400008B5194B1A7802F0FF015ABB174A12789D
:106E500012B1174AC2F80015012200211C201A7035
:106E600007F092FC0021052007F08EFC002106208F
:106E700007F08AFC00211D2007F086FC0021042079
:106E800007F082FC0B4A0023C2F8003502F5A83255
:106E9000C2F8003502F5A042C2F8003502F5805272
:106EA000C2F8003508BD00BFD8590020C02F00200F
:106EB00000200040007000401FB5044602F09CF91D
:106EC0000A220146204605F07CFB02F08BF90928D6
:106ED00003DC2B49204605F0E9FB02F083F90A2286
:106EE000014601A805F06DFB01A9204605F0DAFB7B
:106EF00001A805F002FB02F06BF9092803DC204928
:106F0000204605F0D3FB02F063F90A22014601A8EE
:106F100005F057FB01A9204605F0C4FB01A805F0C8
:106F2000ECFA02F037F9092803DC1549204605F090
:106F3000BDFB02F02FF90A22014601A805F041FB32
:106F400001A9204605F0AEFB01A805F0D6FA02F033
:106F50002BF9092803DC0A49204605F0A7FB02F0BB
:106F600023F90A22014601A805F02BFB01A92046BE
:106F700005F098FB01A805F0C0FA204604B010BD4A
:106F80009757030007B5032007F02CFB64230093F9
:106F900040F2CB2200234FF4FA7105F0A4FA03B0BB
:106FA0005DF804FB10B5114C0621204602F06AFA88
:106FB000204602F055FA0E49204602F023FA2046F8
:106FC00002F02EFA2046012102F088FA2046F4222F
:106FD000202102F07FFA20461E2102F079FA204695
:106FE0000021BDE8104002F0D5BA00BF2C5D0020A2
:106FF000E42E0020F0B53C4A3C4D3D4C3D4E3E4F0A
:1070000085B01D23CDE9023204211C23CDE90031D6
:1070100020223A4B8021284601F06AF8224638495E
:10702000284609F08FFE374D3749304605F0AAFA59
:107030003046364E2246294609F084FE3449304611
:1070400005F0A0FA3046334E2246294609F07AFE72
:107050003149304605F096FA3046304E22462946F0
:1070600009F070FE3146384605F08CFA38462C4F50
:107070002246294609F066FE2A49384605F082FA7A
:10708000224629463846284F09F05CFE274803F07F
:10709000BDFE384603F080FE3846254F254922467E
:1070A00009F050FE4FF48071384603F0AFFF3846C8
:1070B000214F2249224609F045FE3146384605F067
:1070C00061FA38461E4F2246294609F03BFE3146FA
:1070D000384605F057FA22462946384605B0BDE83D
:1070E000F04009F02FBE00BF00127A00C42F00202C
:1070F00000280020C8590020B8590020F45A002068
:10710000AD810200FBC40200684B0300F45900206B
:10711000724B0300AC2F00207E4B030096550300FA
:10712000582E00209C4B0300642E0020BC2E002013
:10713000E42E0020198002004C2E00209DB1020098
:10714000E0590020114B07B51A78C2B100221A701D
:107150000123009302210E4801F004F90C4801F0CC
:10716000F4F80B4801F05EFB0A4B1B7823B14FF497
:107170001641094804F058FF052005F0F1FA05F022
:10718000D8FA064B186003B05DF804FBD85900200C
:10719000C42F0020C02F0020985E0020D45900206A
:1071A000034B1B7813B1034B58221A60FFF7CABF79
:1071B000D8590020B4590020054B1B7823B9054B42
:1071C00001221A70FFF7BEBF034B00221A60F9E7D5
:1071D000D8590020B82F0020B459002008B5172036
:1071E00001F0D0FC054B1B7833B1054B4D221A60E2
:1071F000BDE80840FFF7A6BF08BD00BFD859002072
:10720000B45900202DE9F3474FF41641924804F099
:107210000BFF9249904804F01BFE00211E2007F04E
:107220008BFA0320002107F087FA1E2007F0BEFA30
:1072300030B94FF080430122C3F81C25FFF77CFDD5
:107240000021022007F078FA0121192007F074FAD2
:107250000121192007F098FA0121042007F06CFAA7
:107260000021042007F090FA00210F2007F064FAB3
:107270007B4B1B7823B14FF4E131774804F0D4FE07
:10728000784B7948DFF8249200244FF42032C3F879
:107290000C45C3F80C45C3F80425D3F8082501268E
:1072A00042F00102C3F8082531461E60224603F071
:1072B000FFF96E49684804F0CBFD6D496A4803F058
:1072C00063FB6C496C4803F0BFF86C496A4803F0F3
:1072D000BDF86B49604804F0BBFD6A496A4803F099
:1072E000BBFD6A49684803F0B5FD674803F0B6FD89
:1072F00067484FF0A04503F073FFFFF753FE0322EA
:1073000064491E2005F01EF8042263490F2005F091
:1073100019F8D5F83C37614923F44033C5F83C37B8
:10732000D5F83C3743F40033C5F83C37042202203B
:1073300005F008F8D5F80837594823F44033C5F864
:107340000837D5F8083743F4003322460221C5F840
:1073500008373346009601F005F8642005F000FA7E
:107360004F48504D00F0F1FF4D4801F05BFA3146B7
:107370004B48FFF7D1FC31464948FFF7D2FC224683
:107380000A214748FFF7C5FC4749454804F060FD1E
:10739000434801F047FA2146192007F0F5F9304635
:1073A000FFF7DCFCFFF72EFD01F0D0FA01F0FCFB4B
:1073B0004FF4FE5221463D48FEF7B0FFAF1CA846F1
:1073C0004FF480765FFA84FA4FF4FE4005F080F8BF
:1073D00027F8020C4FF4005005F07AF8002200B2B2
:1073E0000A23688090FBF6F0D1B2514514D203FB1A
:1073F00002F137F902EC38F901C09EFBF6FE9CFB66
:10740000F6FCE64506D14144B1F9021091FBF6F1D4
:107410008842D9D00132E7E763437F2108EB0302BA
:10742000013438F9033093FBF6F310FB0131C0EB64
:10743000C01018444FF0FF0C0023FD2C29F811C098
:107440001081D380938005F10A0507F10A07B9D1AD
:1074500002B0BDE8F08700BF985E0020704C0300CA
:10746000C02F0020000001402C5B00207A4C03005C
:107470009C4C03008D6D0200DC5D0020696D0200F4
:10748000AE4C0300D94C0300BC2E0020E54C030099
:10749000E42E0020B9710200DD710200A17102002A
:1074A000C42F002010300020F14C0300F2390020DE
:1074B00010B5294C8AB000212046FFF7EFF920468D
:1074C00000F043FF002211462046FFF722FC23492B
:1074D000204604F09FFC2249204604F0B9FC01A894
:1074E000FFF7EAFC01A907A805F0A9F801F066FE7C
:1074F0000A22014604A805F064F804A907A805F0CB
:10750000E4F80146204604F099FC04A804F0F5FFD5
:1075100007A804F0F2FF01A804F0EFFFFFF732FD27
:107520000A220146204604F0DCFC0E49204604F005
:1075300077FC032007F056F80A220146204604F0A3
:10754000FFFC094B0A221968204604F0CCFC2046B7
:1075500001F068F90AB010BDC42F0020582E002099
:107560008A4B03009A4B0300BC2F002030B51A4C05
:1075700089B000212046FFF791F9204600F0E5FE92
:107580000022114620464FF08055FFF7C2FB1349F9
:10759000204604F05DFCD5F8A820114992B204A859
:1075A0000BF056F804A901A804F0ECFFD5F8A420CC
:1075B0000C4904A80BF04CF804A901A805F076F8D2
:1075C00001A9204604F03AFC204601F02BF901A85D
:1075D00004F093FF09B030BDC42F00209E4B030080
:1075E000AA4B0300AF4B03002DE9F047304C0021BC
:1075F0002046FFF753F91F2001F03DFA062001F065
:107600004BFA01F044FA06211F2001F057FA01F06D
:1076100067FA074601F064FA804601F061FA06460F
:1076200001F05EFA824601F05BFA054601F058FA75
:107630008146204600F089FE002211462046FFF7D1
:1076400068FB1C49204604F003FC1B49204604F05B
:10765000F5FB47EA0821194F4FF080080A2220461F
:1076600009B291FBF8F1C9B204F054FC3946204646
:1076700004F0D6FB46EA0A210A22204609B291FB11
:10768000F8F1C9B204F046FC3946204604F0C8FBC4
:1076900045EA0921204609B20A2291FBF8F1C9B254
:1076A00004F03AFC2046BDE8F04701F0BBB800BF4B
:1076B000C42F0020B44B0300B8590020C44B030072
:1076C00038B5104C104D00212046FFF7E7F8204652
:1076D00000F03BFE002211462046FFF71AFB0B4943
:1076E000204604F09DFBA9680A22204604F01EFCF7
:1076F0002946204604F0A2FB2046BDE8384001F0B0
:1077000091B800BFC42F00204C2E0020C64B0300B0
:1077100010B50F4C00212046FFF7C0F8204600F0BE
:1077200014FE002211462046FFF7F3FA09492046CD
:1077300004F08EFB0849204604F08AFB20460749E6
:1077400004F086FB2046BDE8104001F06BB800BF96
:10775000C42F0020D34B0300E64B0300EB4B030088
:1077600008B503214C48FFF799F84B4800F0EDFDB0
:10777000002211464848FFF7CCFA4849464804F031
:107780005DFB0B2200214448FFF7C3FAFFF7FAFB29
:107790000A220146404804F0A4FB41493E4804F057
:1077A00057FB02213C48FFF7B7FA1E2204213A4852
:1077B000FFF7AFFA01F0EEFC092803DC394936483F
:1077C00004F02EFB01F0E6FC0A220146324804F0E8
:1077D0008AFB322204213048FFF79BFA01F0E4FCD7
:1077E000092803DC2F492C4804F01AFB01F0DCFCCB
:1077F0000A220146284804F076FB46220421264846
:10780000FFF787FA01F0DAFC092803DC2549224852
:1078100004F006FB01F0D2FC0A2201461E4804F0E7
:1078200062FB6F2200211C48FFF773FA01211A48FE
:10783000FFF772FA01F0CCFC092803DC194916485D
:1078400004F0EEFA01F0C4FC0A220146124804F0EA
:1078500048FB1549104804F0E3FA01F0C3FC09287D
:1078600003DC10490C4804F0DBFA01F0BBFC0A22EF
:107870000146094804F037FB0B49074804F0D0FAE9
:1078800001F0BAFC0A220146034804F02CFB02482E
:10789000BDE8084000F0C6BFC42F0020582E0020CD
:1078A000FF4B0300975703002D57030010B50B4CF7
:1078B00003212046FEF7F2FF204600F046FD204659
:1078C0001E220021FFF725FA2046054904F0C0FAE0
:1078D0002046BDE8104000F0A5BF00BFC42F002027
:1078E000014C030010B5104C10480021FEF7D6FFE4
:1078F0002178192006F048FF237893B100230B4824
:10790000237000F022FD002211460848FFF701FA1B
:107910000749064804F092FA0448BDE8104000F018
:1079200081BF0123EBE700BF005A0020C42F0020D5
:10793000B85900202DE9F04FCD4C85B041F609250E
:1079400004F002FF2368C31AAB42F9D920601F205C
:1079500001F091F8062001F09FF801F098F8062157
:107960001F2001F0ABF801F0BBF8054601F0B8F8B4
:10797000074601F0B5F8064601F0B2F8804601F07E
:10798000AFF845EA07252DB2044601F0A9F86B428D
:1079900007EE103ADFEDB76AB8EEC77A46EA082676
:1079A00027EE667A44EA0020BDEEC77A00B217EEF1
:1079B000103A1FB233B207EE103AB8EEC77A07EEAC
:1079C000900A27EE267AF8EEE77ABDEEC77AF5EE52
:1079D000C07A17EE103A9FEDA87AA84CF1EE10FA93
:1079E000CCBF67EE877A67EEC77A0FFA83FAFDEEAF
:1079F000E77A04F6E21B17EE903A1EB2022EDABFC7
:107A0000C6F1040636B20126B6B2BF1BAAEB060ABF
:107A1000760001363FB20FFA8AFA36B22546304672
:107A200004F056FDAB8838441844A880304604F072
:107A30004FFDEB885044184400B2B5F90430E8809B
:107A4000404303FB0303B3F5803F35DD07EE903A77
:107A5000B8EEE70A09F07CF910EE100A09F038FBDD
:107A60008046B5F9040007EE900AF8EEE77A8946F9
:107A700017EE900A09F02CFB0022814B09F080FBE5
:107A800042464B4609F0A6FC09F014FEA880B5F961
:107A9000060007EE900AF8EEE77A17EE900A09F072
:107AA00017FB0022764B09F06BFB42464B4609F070
:107AB00091FC09F0FFFDE8800A35AB45AFD1DFF856
:107AC000C8E10226B4F90080B4F90420B4F90290A8
:107AD000B4F9063008EB020000B209EB0301B0F57F
:107AE000FE4F09B246DB92FBF6F25242A28047F605
:107AF000FF60B1F5005F45DB93FBF6F35B42E3808B
:107B000041F6FF714FF4807299FBF2FACAEBCA1A80
:107B10001FFA8AF398FBF2FC01931FFA8CF302938D
:107B2000DDE901324FEA212CCCEBCC1C1FFA8CFC96
:107B3000C0F30F2B9F180CEB0B0ABFB21FFA8AFA87
:107B4000574560D03EF81A30002B5CD0AAEB070AEC
:107B5000BAF1000FB8BFCAF1000A1FFA8AFABAF1E7
:107B6000010F17D1B4F9043093FBF6F35B42A38005
:107B7000404619E00028BFBF92FBF6F25242A280B5
:107B80000020B6E70029BFBF93FBF6F35B42E3801A
:107B90000021B7E7BAF17F0FB4F9063006D193FBA5
:107BA000F6F35B42E3804946BA462CE0B4F9042080
:107BB0000392002AB8BF5242924683EAE372A2EBD4
:107BC000E372AAEB020ABAF1000F5FDB019A5A4492
:107BD0001FFA82FA3EF81AB0BBF1000F05D193FBF1
:107BE000F6F35B42E38049460DE0029A62441FFAD5
:107BF00082FA039A3EF81A0092FBF6F2524212B24F
:107C0000A28078BB4046208061804FF00003A4F83A
:107C100008A00A342EF81730A5424FF0FF032EF8C3
:107C20001A307FF44FAF1748164D00F08EFB00243A
:107C30007F26124B234428461989B1FBF6F2C2EB8A
:107C4000C213C91A12B2012309B200F0F1F90A34C1
:107C500040F6E2139C42ECD10A4805B0BDE8F04F73
:107C600000F0E0BD93FBF6F35B42E38049467FE71B
:107C7000C45900200000803B0000003A1030002072
:107C800000007040C42F0020F2390020029A93FBBC
:107C9000F6F362441FFA82FA5B423EF81AC01BB246
:107CA000BCF1000F01D1E380ACE7019A5A441FFAFE
:107CB00082FA3EF81A10002994D0039A92FBF6F249
:107CC0005242A280D1E700BF30B5B249B24895B068
:107CD00004F0BEF8B04804F0E5F990B1022004F0D9
:107CE0003FFD402204A9AC4804F086F90A2201466F
:107CF0000446A94804F0F7F8224604A9A74803F06F
:107D000049F9A74BA74CA848002504A91D60256088
:107D100004F0A7FC226814A9931E194411F8401C12
:107D20000D2926D114A90A4412F8412C0A2A20D17F
:107D30002A469D4901A804F0D5FC01A99B4804F0FE
:107D400088FC01A804F0D9FB9949934804F080F815
:107D50009649914804F072F89649934804F081FCE2
:107D600095498D48256004F05BF890498A4804F0F5
:107D700065F82368012B07DD9049874804F068F80F
:107D800004A9854804F064F88D4B8E4AC3F8002698
:107D90008D4B1B7843B1FEF7E5FF8C4B4FF480020F
:107DA000C3F8802115B030BD894C2368042B7DD0E9
:107DB0003CDC012B60D028DC002B50D0854A1378A6
:107DC0007BB123680025042B157000F0B98000F307
:107DD0009D80012B00F0B08000F39180002B00F01B
:107DE000A8802368052B00F0FD8000F3C480002BE1
:107DF000D8DB04F09EFC784B1B68C01A41F6583360
:107E00009842CFD9FFF71CF8CCE7022B41D0032BC7
:107E1000D4D1724D04F08DFC2B68C01A6428CDD9E2
:107E200004F087FC2860FFF74BFCC7E74D2B4AD0D6
:107E300004DC052BC2D1FFF77DFDBFE7582B50D0E6
:107E4000632BBBD1654D04F074FC2B68C01A642809
:107E5000B4D904F06EFC2860FFF744FDAEE75F4D37
:107E600004F067FC2B68C01A6428A7D904F061FCF1
:107E70002860FFF71DFBA1E7584D04F05AFC2B6862
:107E8000C01A64289AD904F054FC2860FFF76EFBEE
:107E900094E7524D04F04DFC2B68C01A64288DD92C
:107EA00004F047FC2860FFF79FFB87E74B4D04F089
:107EB00040FC2B68C01A642880D904F03AFC286082
:107EC000FFF726FC7AE7454D04F033FC2B68C01A17
:107ED00064287FF673AF04F02CFC2860FFF740FCA9
:107EE0006CE73E4D04F025FC2B68C01A64287FF631
:107EF00065AF04F01EFC2860FFF7D8FC5EE7022B9C
:107F00001CD0032B7FF46DAF042313E04D2B03D063
:107F100004DC052B7FF465AF00230BE0582BFBD06E
:107F2000632B7FF45EAF2946192006F02DFC2560F7
:107F300057E70123236054E70223FBE70323F9E714
:107F400004F0F7FB264D28601E2006F02FFC0028C9
:107F5000FAD004F0EEFB2B68C01AB0F57A7F08D98E
:107F6000642004F0FDFB01210020FEF7F9FEFEF77E
:107F7000E3FE0523DEE7582B04D0632B3AD04D2BCC
:107F80007FF410AF04F0D5FB134B1B68C01A40F60A
:107F9000B83335E7304C0300985E0020E42E002013
:107FA000F0590020EC590020E05900204C2E002010
:107FB0003C4C030096550300434C03004B4C03001C
:107FC000000001403546526ED859002000E100E023
:107FD000B4590020B82F0020D45900200C300020C4
:107FE000DC59002004F0A5FB0A4B1B68C01A44F6BC
:107FF000206305E704F09DFB064B1B68C01A41F2A5
:10800000707398427FF6CEAE0021192006F0BCFBBB
:10801000F8E600BFD459002010B5044B044640F8E0
:10802000103B01F045FB204610BD00BFAC530300E0
:10803000F8B50E1E054614461F461BDBFEF776FEFE
:10804000864217DA002C15DB2846FEF772FE8442C2
:1080500010DA2846FEF768FE02280CD0032813D059
:10806000012802D1334626461C46012F12D01FD3C9
:10807000022F2DD0F8BD29896A890139E4438E1B6E
:10808000144436B224B2F0E72A89E4432244344649
:1080900016B2EAE72B89082194FBF1F111FB036684
:1080A000AB6A04F00704A7409C5D27439F55E1E7B6
:1080B0002B89082194FBF1F111FB0366AB6A04F0F4
:1080C00007040122A2409C5D24EA02049C55D1E7EA
:1080D0002B89082194FBF1F111FB0366AB6A0122A5
:1080E00004F0070402FA04F49A5D5440EEE700003D
:1080F00070B504461E46079DFEF7E2FB234B236046
:10810000234B002E08BF1E460023C4E90933FF237A
:1081100084F82F3084F830309DF9103084F83130F5
:108120009DF9183084F832309DF9143084F83330DA
:10813000184B26629D421AD9174B9D421AD9174BEC
:108140009D421AD9164B9D421AD9164B9D421AD9F7
:10815000154B9D4294BF4FF080454FF000450223E0
:1081600084F8383000236563E363204670BD4FF028
:108170000075F4E74FF08065F1E74FF00065EEE73A
:108180004FF08055EBE74FF00055E8E7A8510300AA
:10819000F45A002048E8010090D0030020A1070015
:1081A00040420F0080841E0000093D00044B10B5C2
:1081B00004460360806A08B109F06EFB204610BDDA
:1081C000A8510300F8B50446406A0F4690B194F8F0
:1081D0002C1000F001FE606A036800211B689847BC
:1081E000606A036839461B689847606ABDE8F840D2
:1081F00000F05DBE014694F9310006F0C5FA206A30
:1082000020B13946BDE8F84001F075B80825802650
:1082100007EA060194F92F0006F0B6FA012194F955
:10822000300006F0B1FA002194F9300006F0ACFA03
:10823000013D4FEA5606EBD1F8BD38B50446406A19
:108240000D4680B1216C00F0A7FD002D204614BF23
:10825000A721A621FFF7B6FF606A88B1616CBDE86F
:10826000384000F099BD206A20B104F134030ECBF0
:1082700001F030F8002194F9320006F085FAE4E7C5
:1082800094F93200012106F07FFA206A18B1BDE8A6
:10829000384001F02BB838BD2DE9F8430446406A58
:1082A0000D4601EB020840B394F82C1000F094FD49
:1082B000606A036800211B68984701264545606A8B
:1082C00017D03E2E0CD900F0F2FD94F82C10606A05
:1082D00000F082FD606A036800211B689847012650
:1082E000606A15F8011B036801361B689847F6B2EF
:1082F000E4E7BDE8F84300F0DABD014694F9310047
:1083000006F042FA45451ED0206A15F8019B18B1C7
:10831000494600F0F0FFF5E70826802709EA070143
:1083200094F92F0006F030FA012194F9300006F09C
:108330002BFA002194F9300006F026FA013E4FEAAC
:108340005707EBD1DEE7BDE8F883B0F90A30082221
:10835000073393FBF2F3B0F90820806A5A430021F7
:10836000FDF7DCBF2DE9FF411E46836A9DF82870AA
:10837000044688461546C3B12046FFF7E6FFB4F928
:108380000A20B4F90830202A4FF002011EDC733BAA
:10839000203A012092FBF1F293FBF1F12023CDE989
:1083A000013073230093824B1EE0B0F90A3008209D
:1083B000073393FBF0F3B4F90800584309F064FA6B
:1083C000A0620028D8D104B0BDE8F081523B403A09
:1083D0004FF0010C92FBF1F293FBF1F14023CDE958
:1083E000013C52230093734B204612B209B2FEF7B0
:1083F0007DFA606A84F82D80002874D0002D70D139
:10840000B4F90A30202B14BF3D253C2584F82C50AC
:10841000002F00F0C88000F075FCDEB194F9330045
:10842000002817DB012106F087F9012194F93300B8
:1084300006F0AAF9012004F093F9002194F9330021
:1084400006F0A2F90A2004F08BF9012194F9330017
:1084500006F09AF9606A00286CD0216C00F09CFC50
:10846000042255492046FFF717FFA17A0139C9B206
:108470002046FFF7A7FE514904222046FFF70CFFD4
:1084800094F92D30012B14BF142110212046FFF741
:1084900099FE04224A492046FFF7FEFEA368494A96
:1084A000934254D1042248492046FFF7F5FED921D2
:1084B0002046FFF787FE94F92D30012B14BFF121E0
:1084C00022212046FFF77EFE204606223F49FFF785
:1084D000E3FE606A00285BD0616C00F05DFC012067
:1084E00071E76DB292E7012194F9310006F024F9A9
:1084F000012194F9320006F01FF9012194F93200AC
:1085000006F042F9256A2DB1002F86D0284600F0EA
:10851000CBFE82E794F92F00012106F00DF994F9C2
:108520003000012106F008F9294694F9300006F0E0
:108530002BF972E7206A20B104F134030ECB00F06E
:10854000C9FE002194F9320006F01EF988E7204A9E
:1085500093420ED11F4903222046FFF79DFE94F956
:108560002D30012B14BFCF219F212046FFF72AFE7B
:108570009DE7194A93429AD1184903222046FFF7F2
:108580008BFE94F92D30012B14BFAF211021ECE7A5
:1085900094F93200012106F0F7F8206A00289ED0F5
:1085A00000F0A4FE9BE7002E7FF438AF55E700BF34
:1085B000BD4F0300FD4C03000052030004520300B2
:1085C0000852030080002000125203000C520300E6
:1085D0008000400016520300600010001952030092
:1085E00070B5002ABDF810503FDBB0F90A40944244
:1085F0003BDD0029BEBF5B181BB20021B0F908406B
:10860000CE18A642C4BF631A1BB2002B2DDD806AB0
:10861000082692FBF6F614FB0611014402F007004F
:1086200001228240012DD2B20BD013D3022D1CD1D6
:108630000B44994219D011F8010B504001F8010C7C
:10864000F7E70B44994210D011F8010B104301F8E1
:10865000010CF7E7D243D2B20B44994205D011F88E
:10866000010B104001F8010CF7E770BDF0B50029CF
:10867000BDF8146078DBB0F908C0614574DA002AEF
:10868000BEBF9B181BB20022B0F90A40D518A54204
:10869000C4BFA31A1BB2002B66DDD2B2DDB2876A5B
:1086A000D3081CFB031112F0070307EB010422D0CF
:1086B000C3F10803DBB2324A9D42D25C59D2A3EB2C
:1086C000050E4FF0FF0C4CFA0EFC012E0CEA0202D4
:1086D00007D027D3022E47D117F801C082EA0C0237
:1086E00003E017F801C042EA0C029D427A543BD3E2
:1086F000B0F908201444EB1ADBB2072B26D9022E5E
:1087000015D11A462178C9432170083AB0F90810EA
:10871000D2B2072A0C44F5D813F0070324D0194A23
:10872000D35C1BE017F801C02CEA0202DDE7002E43
:1087300014BFFF2500251A462570083AB0F9081025
:10874000D2B2072A0C44F7D803F0070363B10D4AED
:10875000012ED35C05D008D3022E05D122785340D8
:1087600001E0227813432370F0BD227822EA03034C
:10877000F9E7012EB5D0D5D3022EADD06444BAE7C7
:10878000F0510300F851030030B41446427EBDF8A6
:108790000850022A0DD0032A18D0012A11D10289CB
:1087A000E443144424B202950A46214630BCFFF744
:1087B0005DBF4289E443144402891944511A24B22A
:1087C00009B20295224630BCFFF70ABF428919441C
:1087D000511A09B2E7E730B41446427EBDF808509A
:1087E000022A0DD0032A18D0012A11D102891C4473
:1087F000141B24B202950A46214630BCFFF7F0BE96
:10880000CA4301890A4411B242891C44141B24B290
:108810000295224630BCFFF729BFCA4341890A446A
:1088200011B2E7E72DE9F8430446406A002841D039
:10883000216C00F0B1FA052243492046FFF72CFDD8
:10884000217A01392046C9B2FFF7BCFCB4F90A30DD
:1088500008260733D4E9090593FBF6F3268916FBAE
:1088600003F615FA86F600283AD094F82C1000F09A
:10887000B3FA606A036840211B6898470127B54234
:10888000606A24D03E2F0CD900F011FB94F82C1014
:10889000606A00F0A1FA606A036840211B6898478B
:1088A0000127606A15F8011B036801371B689847A8
:1088B000FFB2E4E7206A20B104F134030ECB00F0EC
:1088C00009FD002194F9320005F05EFFB3E700F0E6
:1088D000EEFA606A58B3616CBDE8F84300F05CBA28
:1088E000012194F9310005F04FFFB542F1D0206A23
:1088F00015F8019B18B1494600F0FDFCF5E7082783
:108900004FF0800809EA080194F92F0005F03CFFB8
:10891000012194F9300005F037FF002194F930006F
:1089200005F032FF013F4FEA5808EBD1DDE794F93B
:108930003200012105F028FF206A18B1BDE8F84394
:1089400000F0D4BCBDE8F8831C52030070B50D4C98
:108950000D4E0E230D2001212360306005F0ECFE4A
:108960002068012105F0E8FE0125084B30681D60F4
:10897000294605F009FF29462068BDE8704005F04A
:1089800003BF00BF085A0020045A0020105A0020DC
:1089900038B5084B084C1A68012A054604D0012155
:1089A0002068196005F0C8FE29462068BDE83840F7
:1089B00005F0EABE105A0020085A002038B5104DC4
:1089C000104C2868002105F0DFFE0221206805F028
:1089D000B3FE0D4B2868022201211A6005F0D4FE77
:1089E00003F0B2FE0546206805F0E0FE30B103F06A
:1089F000ABFE401B6428F6D9002038BD0120FCE7FF
:108A0000045A0020085A0020105A002010B5084CC3
:108A10000021206805F0B8FE0020FFF7B9FF2068AC
:108A2000012105F0B1FE0120BDE81040FFF7B0BF05
:108A3000045A0020F8B50B4F044608250021E6092A
:108A4000386805F0A1FE3046FFF7A2FF0121386823
:108A500005F09AFE3046FFF79BFF6400013DE4B24B
:108A6000ECD1F8BD045A002008B5FFF7E3FFBDE8DC
:108A70000840FFF7A3BF10B504460020FFF788FFAA
:108A8000600000F0FE00BDE81040FFF7EDBF08B544
:108A9000FFF7BCFF002008BDFFF7E6BF38B505466D
:108AA0001F200C46FFF7E7FF2846FFF7F5FF20469B
:108AB000FFF7F2FFBDE83840FFF7A8BF38B504461E
:108AC00000200D46FFF764FF044B600001301D607D
:108AD000C0B2BDE83840FFF7C7BF00BF0C5A002046
:108AE0002DE9F041234F3C688CB3234E02213068BE
:108AF00005F022FE214B0222B046214E1A600825C5
:108B000000240021306805F03FFE0121306805F0A7
:108B10003BFED8F8000005F049FE013D00EB44049F
:108B200004F0FF04EDD13B683068013B002B3B6053
:108B300029460FDD05F028FE2846FFF729FF012111
:108B4000306805F021FE2946306805F01DFE2046FC
:108B5000BDE8F08105F018FE0120FFF719FF30682D
:108B6000012105F011FE2946306805F00DFEFFF7E2
:108B70004DFFECE70C5A0020085A0020105A002044
:108B8000045A002010B504461F20FFF774FF20464A
:108B9000FFF782FFFFF73AFF01211F20FFF78EFF4B
:108BA000BDE81040FFF79CBF10B500211820FFF76B
:108BB00075FF0A2003F0D4FD1920FF21FFF76EFF97
:108BC0000A2003F0CDFD0C20FFF7DCFF013455280F
:108BD000E4B201D00A2CF6D100211820FFF75EFF85
:108BE0000A2003F0BDFD02211B20FFF757FF0B21D8
:108BF0003520FFF753FFC6211A20FFF74FFF302122
:108C00001C20FFF74BFF02211F20FFF747FF232106
:108C10003A20FFF743FF01213B20FFF73FFF0021F0
:108C20003E20FFF73BFF1C213020FFF737FF0221DA
:108C30002320FFF733FF82211820BDE81040FFF703
:108C40002DBF2DE9F84380460D46174601EB02097A
:108C50000C464C45A4EB05060BD0D8F8003014F8B0
:108C6000011B1B68404698470028F2D13046BDE8FA
:108C7000F8833E46FAE77047203003F091B9203080
:108C800003F080B9203003F091B938B5437F0D4629
:108C90000BB9002038BD00F16804204603F08EF9BE
:108CA0000028F6D12046294603F05DF90120F1E7BE
:108CB0002DE9F0411E4600254FF47A73C0E90153B7
:108CC0000E4B044640F8203B1746884603F042F915
:108CD00004F1680003F03EF9C4E90487084B9DF8ED
:108CE0001820267653F8222062769DF81C2053F82F
:108CF0002230A37665772046BDE8F0812C52030030
:108D000014550300827E4FF0A04102F5E07210B5C9
:108D1000012340F20C64C37641F82240427E02F502
:108D2000E07241F8224002694FF0CC71C2F824157C
:108D300002690621C2F800150269817EC2F8081591
:108D40000269417EC2F80C1590F91820510902F011
:108D50001F02934060310F4A42F8213090F91830D9
:108D6000002BBDBF03F00F0302F6FC32D2189B1894
:108D7000B5BF60236022137683F8002390F9183082
:108D80000122590903F01F0302FA03F3014A42F8D2
:108D9000213010BD00E100E0C37EA3B103690022D1
:108DA000C3F800250A4B99420ED90A4B994294BF49
:108DB0004FF080614FF0C8610369C3F8241503695F
:108DC0000622C3F8002570474FF0CC71F4E700BFCE
:108DD000A086010090D0030010B5044680F8B010C2
:108DE000683003F0CBF80123637710BDF8B500239A
:108DF0004377036990F8B020C3F8882503690126FA
:108E00001E62036900F168050446C3F8445528460C
:108E10000F4603F0C5F82369C3F8480523699E602F
:108E20002369D3F850211AB9D3F82421002AF8D0A5
:108E30000022C3F85021284603F0B2F8236930B16C
:108E4000D3F860211AB9D3F82421002AF8D00022DF
:108E5000C3F8602123696FB9D3F8242152B90122E4
:108E6000DA612369D3F84821002AFBD00022C3F835
:108E7000482109E001225A612369D3F80421002A1C
:108E8000FBD00022C3F804212369D3F8240168B180
:108E90000022C3F824212369D3F8C404C3F8C4040E
:108EA000022803D004280CBF03200420F8BD0121B0
:108EB000FFF79CBF70B54369D3F86421044692B1B3
:108EC0000022012500F12006C3F864210577304611
:108ED00003F054F86369C3F8346563694022C3F84A
:108EE000382563691D636369D3F86821DAB1002509
:108EF000C3F8685104F1680601236377257730468B
:108F000003F03CF8D4F8B43003B19847636965774F
:108F10003046C3F8446503F043F86369C3F8480575
:108F2000636901225A636369D3F8042162B10022A4
:108F3000C3F80421237F3BB16369D3F83C05D4F81F
:108F4000B830206603B198476369D3F8242152B141
:108F50000022C3F824216369D3F8D024C3F8D024B5
:108F6000636901225A6170BD0148FFF7A3BF00BFCA
:108F7000145A002007B50E230D22CDE900324FF020
:108F80004022042311460348FFF792FE03B05DF828
:108F900004FB00BF145A00203C232DE9F041B0FB34
:108FA000F3F403FB14011170B4FBF3F103FB114361
:108FB000182453704FF46163B0FBF3F3B3FBF4F187
:108FC00004FB113393700721374BB0FBF3F0031D03
:108FD000B3FBF1F1C1EBC1015B1A01330024D37083
:108FE000214640F26D184FF0640C4FF4C87EE6B293
:108FF00006F2B27313F0030743D193FBFCF50CFBAD
:109000001535002D40D193FBFEF50EFB1535002DD7
:1090100014BF45464FF4B7752944884204F1010452
:10902000E5D264244FF4C875967193FBF4F604FB03
:10903000163693FBF5F405FB143347BB56BB002BE8
:1090400040F26D1408BF4FF4B774091BDFF85CC021
:10905000401A00210129CDB21FD10FBB16BB002B36
:1090600014BF1C241D24844205D801310C29A0EB17
:109070000400EFD10D460135013055711071BDE886
:10908000F08140F26D15C7E74FF4B775C4E740F2C1
:109090006D14DAE74FF4B774D7E711F80C40E2E744
:1090A0001C24E0E71D24DEE7805101004452030048
:1090B000D0B5074CD4E900238B4208BF8242064654
:1090C0000F4604D0034AFFF767FFC4E90067D0BD2D
:1090D000E85A0020D85A002008B5FFF7E9FF024BF4
:1090E000987900F2B27008BDD85A002008B5074B35
:1090F0001860074B1B681844064B1860064B022289
:109100001A7003F016FB054B186008BDE05A0020EA
:10911000342C0020D45A0020DF5A0020D05A0020DE
:1091200038B5164D164C03F004FB2B68C01AB0F589
:109130007A7F06D3226803F57A73013222602B60AE
:10914000F1E7104D23682A689A4208D80E4B1B6835
:109150002BB1984750EA010304D0FFF7C7FF2068FE
:10916000002138BD094A236812681344084A2B605D
:109170001378003318BF01231370F0E7D05A002092
:10918000E05A0020D45A0020F05A0020342C00204D
:10919000DF5A002008B5FFF7C3FFFFF789FF014B37
:1091A000987808BDD85A002008B5FFF7B9FFFFF737
:1091B0007FFF014B587808BDD85A002008B5FFF74B
:1091C000AFFFFFF775FF014B187808BDD85A002094
:1091D00008B5FFF7A5FFFFF76BFF014B187908BD36
:1091E000D85A002008B5FFF79BFFFFF761FF014B3E
:1091F000587908BDD85A002008B5FFF791FFBDE89F
:109200000840FFF769BF000038B50025057329B98C
:109210000B4B0C4A0C48232108F0D8FA01600B498B
:1092200051F82220027151F8233083719DF81030DB
:1092300051F8233043710223C371856038BD00BFEC
:1092400050520300AE5203005E5203001455030057
:10925000037B23B943738373036101230373704753
:1092600084B00DF1100C0CE90E009DF80810026896
:1092700000230129C2F80035039B12D00BD3032928
:109280000CD0C2F85435019BC2F824350123C2F832
:10929000003504B0704743F00203F2E743F00403E3
:1092A000EFE743F00603ECE710B5FFF7D1FF0368E3
:1092B0008279C3F808254279C3F80C250279C3F8EE
:1092C0001025034BBDE810400ECBFFF7C9BF00BF10
:1092D000085B002010B485B001AC84E80E0094E86F
:1092E0000E0005B05DF8044BFFF7BABF036800221B
:1092F000C3F8002570470368C3F81C15D3F808218C
:10930000002AFBD0D3F818050022C3F80821C0B208
:109310007047000007B5094B09490A484FF08042E1
:109320001A6000229A6002221A7106230093FF221B
:109330000523FFF769FF03B05DF804FB085B00201D
:1093400000300040F45A002072DF704773DF70472E
:1093500077DF70470022C2770270704770B51C46F5
:10936000C37F0E461146E2181D2A05460EDC18443E
:10937000621CEA54023000F8016C224608F0B5FA8B
:10938000EB7F02341C44EC77012070BD0020FCE729
:109390002DE9F041002688B007460D4601EBC208D2
:1093A0003446454518D0284601F0ADF8102803D0C2
:1093B00080280AD00835F4E708AA631C02EB4404AD
:1093C0002A8824F8202CDCB2F4E71EB1002008B073
:1093D000BDE8F0816E68EDE714B966B90120F6E7E3
:1093E000630003F0FE036A4603213846FFF7B6FF29
:1093F0000028F2D1EAE71023324607213846FFF76A
:10940000ADFFE4E713B50831044603C96B4683E8B2
:109410000300012219462046FFF7BAFF02B010BD33
:1094200030B589B00546202269460C4801F0C0FAE3
:10943000EA7F13181D2BC3BFC2F11D02D0B208244E
:10944000092403466A4621462846FFF787FF18B1DC
:10945000A4F109035842584109B030BD2C5B0020EB
:1094600013B50446064801F0B2FA02AA012302F835
:10947000010D0A212046FFF771FF02B010BD00BFA9
:109480002C5B002007B502AA012302F8011D194632
:10949000FFF764FF03B05DF804FB000008B5034666
:1094A000FFF758FF40F2FF1208491A84012283F89F
:1094B000222099620022A1F5560183F823205A62E6
:1094C000C3E90B12C3E90D22184608BD2000F400C1
:1094D000C1857047018542858185704780F82210DB
:1094E00070470000F0B5044687B00E4615460021CF
:1094F00018226846FCF712FF94F821308DF80030EE
:1095000005EB850303EB83031E4A02969B00ADF82F
:109510000C301368DB0709D41B4BE17F99801B4992
:109520009960C97F1C609981012313606A461649BE
:1095300004F12000FFF708FF10B1002007B0F0BDD4
:10954000134894F8207001F042FA3946024601208F
:10955000FFF7FEFE0028F0D1012194F82000FFF76C
:10956000F5FE0028E9D10A4801F090FA628EA6853E
:1095700095424FF0010094BF521B921A84F82300C9
:109580006286DBE7145B0020185B0020685D00202A
:109590002C5B002010B5044641860186FA2105485F
:1095A00001F018FAE28D218D2046BDE81040FFF74A
:1095B00099BF00BF2C5B002038B50B888D88112B1C
:1095C00004460ED0262B2AD0102B09D1CB7B012BA1
:1095D00006D1426AAB4013434362002380F8233034
:1095E00038BD436AEB40DB07FAD5294800F01CFF81
:1095F0000028F5D1012202FA05F3626A22EA030289
:1096000094F823306262002BEAD194F82230002BC8
:10961000E6D0218E2046BDE83840FFF7BBBF0B7A6D
:10962000012BDDD1002380F823304FF4FA71194863
:1096300001F0D0F9238E4BB9A36B03B198470022F8
:10964000618D2046BDE83840FFF74CBF638E23B1E3
:10965000A36B03B19847628EF2E70E4801F031FA2E
:10966000636B002BBCD003F0EDFF01284FF010001E
:109670000AD108F009F90021636B017243600160AF
:10968000BDE8384004F016BE03F071F8F3E700BF00
:10969000DC5D00202C5B0020AADF7047ABDF704749
:1096A000ACDF7047ADDF7047AEDF7047B0DF7047AB
:1096B000704710B5044604F05DFC204610BD000064
:1096C00070B5554B04461B680361061D96B03046C5
:1096D00000F027FF94F8223013F0320208BF84F81C
:1096E000232013F00C0208BF84F8242013F0300567
:1096F0000ED04FF00003012262F342038DF80630D2
:10970000464B1B788DF8043094F823308DF80530E3
:109710001C2200210FA8FCF701FE94F822308DF8DE
:109720003C300023002D72D001AAADF8083014920D
:109730004FF00003012262F3420360698DF80A30A2
:1097400094F823308DF8083058B103784BB110905D
:1097500008F0C5FF02AB80B2ADF84400ADF846009A
:109760001393A37E13B104F11A03129394F82520E6
:10977000059604F123030693E389002012F0010FFC
:109780000CBF1A460246CDF81E00ADF81C20ADF8FD
:10979000203005AA04F126030FA9CDF82200ADF868
:1097A0002600FFF779FF054670BB627E32B30246A2
:1097B000012161F342028DF80E2094F82320ADF8C8
:1097C0000C008DF80C20164ACDF832501068049029
:1097D0000222ADF83020ADF8342004AA0A9203AA80
:1097E0000B9204F118020E9228460DF102020AA90A
:1097F000ADF83650FFF752FF054628B9657B45B9ED
:109800002146084800F0C0FD284616B070BD1A4633
:109810008BE70025F8E700BF285B0020EC5203002F
:10982000EE5203002C5B002010B5044603F00AFF43
:109830000128204603D1BDE8104008F025B8BDE856
:10984000104002F094BF2DE9F0430B888E88502B16
:1098500089B004460D4600F02B81512B40F08780E3
:109860008B79012B35D1836B9BB3027B520701F1BE
:10987000080973D51820FFF7D7FF4FF000080746F7
:10988000C0F800800820FFF7CFFF3860D9F800301B
:109890000360D9F804304360A36B7B6003233B7201
:1098A000CDE90464CDF81890414604AB53F821206B
:1098B000914504BF3A6843F8212001310329F5D1CD
:1098C00003CB3961F860186878610021384604F0EC
:1098D000F1FCAF79022F4AD1AB7B042B4AD0062B87
:1098E00000F08480012B42D1E36B002B3FD0227B20
:1098F000170705F1080836D51820FFF795FF002354
:10990000036007460E20FFF78FFF1435386043468B
:1099100053F8042B40F8042BAB42F9D11B88038089
:10992000E36B7B6003233B72CDE90464CDF81880C0
:10993000002104AB53F82120904504BF3A6843F856
:10994000212001310329F5D103CB3961F860186872
:1099500078610021384604F0ADFC08E001464A4633
:1099600030469847B5E7424621463046984709B009
:10997000BDE8F083276B37B94FF48060A086FFF70E
:1099800053FFE7862063102200210DEB0200FCF755
:10999000C5FC02238DF810306A8A2B8AA18E981894
:1099A000884208DD40F20913ADF8143004A93046AE
:1099B000FFF77CFEDBE79DF81600ADF8183040F0AD
:1099C00001008DF81600206BADF81A2005F1140186
:1099D0001844079107F089FF6A8A2B8A1344E28EA4
:1099E0009BB2934238BF1346E386DFE7236B002B1D
:1099F000BDD0102200216846FCF790FC6946304635
:109A00008DF80070FFF752FE256C002D3BD0237BB4
:109A1000D80744D51C20FFF707FF00230360236B02
:109A2000054643B1E08E30B1FFF7FEFEE28E2860BE
:109A3000216B07F05AFF236C6B6004232B72216BA0
:109A4000E28E0691CDE90464079204AB59B152B19C
:109A5000002253F82200814204BF286843F8220004
:109A60000132042AF5D105F10C0608AF1A4603CAE3
:109A7000BA4230607160134606F10806F6D1002143
:109A8000284604F017FC256B03F0DCFD012828466E
:109A90000BD107F001FF0023C4E90C3367E7E38E25
:109AA000226B21463046A847EDE702F06FFEF2E751
:109AB000CA88C38C9A4240D1076C002F3DD0037BEB
:109AC00001F11208D9075BD51C20FFF7ADFE00237A
:109AD00003600746288A30B1FFF7A6FE38602A8A5D
:109AE000414607F002FF236C7B6004233B722A8A05
:109AF000CDF81880CDE90464079204AB52B100227E
:109B000053F82210884504BF396843F82210013207
:109B1000042AF5D107F10C0C0DF1200E1A4603CAE8
:109B20007245CCF80000CCF8041013460CF1080C78
:109B3000F4D10021384604F0BDFBEA88638D9A42D7
:109B40007FF415AF636C002B3FF411AF227B6D8A5D
:109B500092071BD51820FFF767FE626C4260002752
:109B6000032202720760CDE90464069504AA034645
:109B700003CA1961D8601068586139461846EAE688
:109B800001462B8A42463046B847D6E72A46214648
:109B900030469847EBE600001422C281114A127841
:109BA00080F8242080F8232001214FF001020023B7
:109BB00061F3420203734373C0E904330383C0F8C3
:109BC0001A30C0F81E3080F8223080F82520C38477
:109BD000038583854385C0E90C33C0E90E33C0E9B2
:109BE00010337047EC52030013B50446684680E812
:109BF00006002346054943F8041B03C883E8050013
:109C00002046FFF7C9FF02B010BD00BFFC520300A1
:109C10000069704701234373704780F82210704732
:109C2000C181704790F8253029B1C1816FF30003DD
:109C300080F82530704743F00103F9E780F82310DE
:109C400080F824207047037B016462F300030373F0
:109C500070474161704751F8263F03604B6843608D
:109C6000704713B5C4890191A24228BF2246002340
:109C7000ADF80020C18CADF802306A464FF6FF7097
:109C8000FFF70EFD18B9BDF8000002B010BD184670
:109C9000FBE738B5054608460C4608F020FD21468E
:109CA00082B22846BDE83840FFF7DBBF30B5054635
:109CB00085B011480C4600F0ACFED8B1688DC8B133
:109CC0000222ADF808200DF106020023039201469E
:109CD00002AA2046ADF80A30FFF7E4FC43F2014245
:109CE000904204D1ADF80630BDF8060002E000282D
:109CF000FAD080B205B030BD2C5B002008B590F8DA
:109D0000223013F0100304D0FFF7D0FF00F0010061
:109D100008BD1846FCE700002DE9F04F1C4690F8FE
:109D20002230DB0689B005460E46904604D4002753
:109D3000384609B0BDE8F08F4FF6FF73994203D162
:109D4000254800F081FE0646EB8931469C422846B4
:109D500028BF1C46FFF7D2FF0746002835D0314602
:109D60001D4800F07BFE83460028E0D000F094F808
:109D7000033883B201934FF000094FF0010A002C21
:109D8000D6D0584600F0A8F80028D0D0019BCDF8D6
:109D90001290A34228BF2346ADF80E30EB8CADF8ED
:109DA000103004A90DF10E033046ADF816908DF871
:109DB00012A0CDE90638FFF777FC0028B7D1BDF82F
:109DC0000E20A41AA4B29044D9E722464146284660
:109DD000FFF747FFACE700BF2C5B00207FDF704739
:109DE00086DF70478FDF704790DF7047B1DF7047C5
:109DF000B5DF704710B5074B03600446C06902F039
:109E0000EBFF206A02F0E8FF606A08B102F0E4FFAD
:109E1000204610BD1453030010B50446FFF7EAFFB7
:109E2000204604F0A7F8204610BD000070B5044697
:109E3000154820601720A180E080002501211B200B
:109E400021742173608125811068C4F813009688FD
:109E500090796076A4F81760D27962731946184633
:109E600002F095FD9DF81010E061084602F08FFDAC
:109E70004FF6FF73206265746562A574A562E38185
:109E8000E562204670BD00BF14530300007C70479C
:109E9000407C7047407B7047C0887047008970479E
:109EA000F0B587B004AC85880E4620464FF42851A3
:109EB000174600F01DFB01234FF6FF72CDE9023279
:109EC000CDE90067294694E80C00024800F042F909
:109ED00007B0F0BD2C5B002008B56621C06902F018
:109EE000C3FE003018BF012008BDC2898188407BB5
:109EF00001F0BCBA70B50B88232B96B004460D4612
:109F000000F0E18032D8142B00F0938007D8122B98
:109F100000F0C58059D8112B54D016B070BD1A2B43
:109F200000F0A28017D8192BF7D10B7A43B9C26A77
:109F3000818801234374538AC381407B01F060FA16
:109F4000E56A03F07FFB012828466FD107F0A4FCE7
:109F50000023E362E1E7212B00F0BB80222BDCD160
:109F60000B7A002BD9D14B7A0373D6E7522B00F032
:109F7000D0800AD83A2B00F0A3803C2B00F0B180AF
:109F8000242BCAD10B894381C7E7552B00F08A8067
:109F900005D8532BC1D101238374406A76E0562B38
:109FA00000F0AE80572BB8D10026AA79F3B29A42BE
:109FB00006F10106B1D900231A461946E06902F0FC
:109FC000EFFCF2E700230374A7E703F03BFB012853
:109FD0004FF0500027D107F057FCE06200289CD0DA
:109FE00050220021FCF79AF94FF6FF73E3811C22FF
:109FF000002103A8FCF792F9E36A029303F11C0223
:10A0000038330793464B06926A4618681B791371DA
:10A01000637B0090012B18BF002202AB0021A088B7
:10A02000FFF7DCFE79E702F0A2FBD6E702F0AEFB19
:10A030008EE75022002102A8FCF770F902AA298AB3
:10A04000607B01F03BFA0346A08843B1002310AACD
:10A0500002A9FFF7C5FEBDF81A30E3815DE71A4695
:10A060001946FFF7BDFE58E70B7A112B0DD0C289B8
:10A070008188407B01F05CFA034620B90246014624
:10A08000A088FFF7B3FE01236374A06A00283FF4A1
:10A0900044AF00231A46194602F082FC3DE74B8983
:10A0A00003813AE7417B1F4800F0D1FCE9888142F7
:10A0B00028BF014689B2E180A088FFF799FE2CE70E
:10A0C0004B89C38029E7002211468088FFF78CFE68
:10A0D00023E716A9002321F8503D8088FFF782FE70
:10A0E0001BE70026AA7AF3B29A4206F101067FF630
:10A0F00014AF00231A461946206A02F051FCF1E71A
:10A100008B79002B7FF409AF8374406A0028C1D19A
:10A1100003E700231A4619468088FFF767FEFCE62E
:10A120002B5E00202C5B0020A0DF704738B5044672
:10A13000F82500F5F87001F0B6F82A46002120460F
:10A14000FCF7ECF82A4600216019FCF7E7F82046F6
:10A1500038BD00002DE9FF416E4686E80C00BDF8D1
:10A160003030ADF80C300546BDF834301948ADF844
:10A170000E300F4600F072FC05F5F8758046284653
:10A1800001F0D9F8044628B14046FFF787FE02F0F7
:10A19000E7FAF4E70121284601F089F8BDF82C2000
:10A1A0000A99284601F098F803AA31463846FFF785
:10A1B000BBFF28B94FF4FA71284601F092F8044623
:10A1C000284601F07DF824EAE474A0B204B0BDE8AA
:10A1D000F08100BF2C5B00202DE9F04F8F880E88A6
:10A1E00085B005460C466748394600F037FCA6F1B5
:10A1F0001003012B83462FD94FF0000A95F8542005
:10A200005FFA8AF39A4253D91633502E55F82390A9
:10A2100036D0512E49D1A379B4F80880022B31D120
:10A22000A37B062B2ED1D9F800304846DB682146A7
:10A2300098475846FFF72CFE002836D0502E34D1D0
:10A24000494602A8FFF707FDBDF80C3043452CD165
:10A250005846FFF74AFE28E04FF000082A785FFAD8
:10A2600088F39A42C8D905EB8303112E5868036816
:10A2700039460CBF1B685B68984708F10108EDE799
:10A28000B4F80680B8F1000F0FD049466846FFF7D2
:10A29000E2FCBDF800304345C5D0494602A8FFF7AF
:10A2A000DAFCBDF80C304345BDD00AF1010AA5E740
:10A2B0004FF0000895F84C31434520DD05EB880A46
:10A2C000DAF8500101F09FFAB84215D1382E03D0C8
:10A2D000392E01D0362E0FD1B4F80A90B9F1000F03
:10A2E0000AD0DAF850A1504601F090FA484503D15F
:10A2F0002146504601F08CFA08F10108DAE7112EE8
:10A3000025D1002495F8F820E3B29A420BD905EB49
:10A310008303D3F8FC008388BB4202D103681B6827
:10A3200098470134EEE7002695F84C31F4B2A34289
:10A3300025D905EB8404D4F8500101F064FAB84241
:10A3400003D1D4F8500101F05BFA0136ECE7352E69
:10A3500015D1618999B1A2890E34231B901CB3FBDE
:10A36000F0F38B4205F5F87503D2A11C284600F0E6
:10A37000E4FF284605B0BDE8F04F00F0F5BF05B09A
:10A38000BDE8F08F2C5B002090F85430282B1FBFC5
:10A390005A1C163380F8542040F8231014BF0120B3
:10A3A000002070470378132B9FBF5A1C027000EBEC
:10A3B0008300416094BF01200020704775DF704723
:10A3C00078DF70477ADF704705490022C0E9022232
:10A3D000034602460868496803C21846704700BF32
:10A3E0001C53030008B5FFF7EDFF28B9FFF7E8FF9E
:10A3F000B0FA80F0400908BD0020FCE710B509481C
:10A4000000F02CFB044608B9002010BDFFF73EFD0C
:10A410000028F9D02046FFF73DFD431E5842584121
:10A42000F3E700BF2C5B002070B5002506462C46E4
:10A43000A9B23046FFF7E2FF08B10134E4B20135BA
:10A44000142DF5D1204670BD81607047C160704702
:10A4500010B40A88102A0B460FD1CA7B012A0CD1EE
:10A460000A8A04884188944201D88A4205D9014663
:10A470005DF8044B9888FFF7A1BF5DF8044B704767
:10A48000A8DF70477047000037B500F108050446A3
:10A49000284600F046F829460DF106020120FFF794
:10A4A000EFFF054628B9044B04481C602146FFF71E
:10A4B00079FF284603B030BD285B00202C5B0020CC
:10A4C00013B50446684680E806002346054943F86C
:10A4D000081B03C883E8050000232046A38002B0C0
:10A4E00010BD00BF2C53030062DF704763DF70476D
:10A4F0000123837000230180436070470023837031
:10A500000380416070478378012B06D0426832B9DE
:10A51000012B8CBF802000207047102070478020C6
:10A52000704708B58378024653B9406840B1911C22
:10A53000FFF7DAFF10205168BDE80840FFF7D6BFEB
:10A54000002008BD4BDF704710DF70477CDF70478D
:10A550007DDF704760DF704769DF704761DF7047FC
:10A5600066DF704767DF704770474FF0FF3004F0D9
:10A5700037B9000037B50D4C0D4DD4F808034FF036
:10A58000FF3102F071FB0028F7D001A8FFF7DAFFD6
:10A590000528F2D00028F8D10198831E012BF4D8A9
:10A5A000002DF2D006F012FBEFE700BF2C5B00207D
:10A5B000CD0B030010B5044603F044F801282046F3
:10A5C00003D1BDE8104007F05FB9BDE8104002F0CC
:10A5D000CEB8000070B50446FFF7A8FD04F5007082
:10A5E000FEF75CFF04F50F70FEF7B4FE04F517707C
:10A5F00001F079FA04F52C70FFF7E6FE04F53070EF
:10A6000001F09EF804F5347001F012FA4FF4006383
:10A61000C4F8E832244BC4F8EC3240F203130025AE
:10A620000126A4F8F032214BC4F8F252C4F8F652D5
:10A63000A4F8FA52C4F8F43284F8F26284F8F862AA
:10A64000A4F8FC525022294604F54570FBF766FE3B
:10A65000C4F8FF524FF6FF73A4F8123394F8FF3298
:10A66000C4F804530322334362F3061384F8FF3221
:10A67000072384F80033102384F8013394F802335D
:10A68000C4F808531343C4F80C5384F8106384F8D7
:10A69000FE52C4F86853C4F8645384F8023384F853
:10A6A0000323204670BD00BF010A170017000301F5
:10A6B00070B5AB4D80F8FC128CB0044680F8FD22DA
:10A6C00028680390A74903A8FFF73EFF18B10026AA
:10A6D00030460CB070BDCDE90900A34A0B9094F848
:10A6E000ED32049209A901208DF82430FFF734FFE0
:10A6F0000028ECD194F8FC320B90CDE909008DF8DC
:10A70000253094F8FD328DF82630003318BF012330
:10A71000049A8DF8273009A94020FFF71DFF002873
:10A72000D5D194F8EC320B90CDE9090063F3000029
:10A730008DF82400049A09A9A020FFF70DFF002836
:10A74000C5D1CDE90A00D4F8E832049A099309A9E1
:10A75000A120FFF701FF0028B9D194F8FC32002BAB
:10A7600068D194F8FD32002B40F0AE8004A8FFF7CA
:10A77000F1FE0028ABD1CDE90700C0B240F00100E6
:10A780008DF81C0007A90220FFF7ECFE00289ED1DF
:10A7900004F52C70FFF726FE0646002897D00CA87B
:10A7A0002B7900F8283D0B227049FFF7CFFE0028D7
:10A7B0008DD194F8FD321BB104F5307000F0CAFF62
:10A7C00003220021012002F0C5F8C4F80403002888
:10A7D0003FF47DAF05AB032501934FF4C062002326
:10A7E00063490095634802F08AFC2A460021012053
:10A7F00002F0B0F8C4F8080300283FF468AF06ABD5
:10A80000CDE90053C82200235B495C4802F077FC85
:10A810005B4B4FF480021A605A4B009300230122D5
:10A820004FF48071184603F045F8C4F80C0300F0AB
:10A83000C7FD4DE7B4F8EE220B90CDE909000123E6
:10A84000ADF8262009A9049A8DF824302320FFF7BB
:10A8500083FE00287FF43BAF94F8FC220B90CDE9F7
:10A8600009008DF8262094F8F022ADF8282009A9D7
:10A87000049A8DF824302020FFF76EFE00287FF424
:10A8800026AF94F8F1220B90CDE9090009A98DF8C3
:10A8900026202220049A8DF82430FFF75DFE002840
:10A8A0007FF415AFCDE909000B908DF82430049AA0
:10A8B00094F8F2328DF8263009A92120FFF74CFEDA
:10A8C00000283FF44EAF02E70023B4F8F4220B93C4
:10A8D000CDE9093309A90223ADF826202320049AE3
:10A8E0008DF82430FFF738FE00287FF4F0AE94F89E
:10A8F000FD220B90CDE909008DF8262094F8F62270
:10A90000ADF8282009A9049A8DF824302020FFF7FB
:10A9100023FE00287FF4DBAE94F8F7220B90CDE9FC
:10A92000090009A98DF826202220049A8DF82430E8
:10A93000FFF712FE00287FF4CAAECDE909000B90A4
:10A940008DF82430049A94F8F8328DF8263009A94D
:10A950002120FFF701FE00283FF408AFB7E600BF53
:10A960003853030069A50200002800205853030053
:10A970006453030045AD02006853030075A502004F
:10A9800000E100E06BA5020037B5084B02AC1B7973
:10A9900004F8043D08460D4607F0A1FE294682B2A0
:10A9A0002046FFF7D3FD03B030BD00BF385303008E
:10A9B00007B5084602A921F8022DFFF7C9FD20B905
:10A9C0009DF8060003B05DF804FB0020FAE790F95B
:10A9D000FE02704773B50446D0F80C030E4603F030
:10A9E000A5F800230546B6024FF47A720093B6FB31
:10A9F000F2F20421D4F80C0302F07AFF3DB900957D
:10AA00002B462A460321D4F80C0302F071FF02B052
:10AA100070BD132906D800EB8100D0F8140308B1EB
:10AA2000FFF734BA0020704770B5002506462C4663
:10AA3000A9B23046FFF7EDFF08B10134E4B20135A9
:10AA4000142DF5D1204670BDB0F8120370470129CE
:10AA50000CBFB0F8EE02B0F8F402704713299ABFA9
:10AA600000EB8100D0F814030020704710B5064CAD
:10AA70000021D4F8080302F054F8D4F804030021AC
:10AA8000BDE8104002F04DB82C5B002013B590F8E3
:10AA9000103353B1D0F80C4302F09EFB0023024662
:10AAA00000930121204602F023FF02B010BD90F870
:10AAB00010332BB181F001014FF0FF3003F064BE81
:10AAC000704713B50023009304461A460321D0F8BB
:10AAD0000C0302F00DFF2046FFF7A6FF011C18BF74
:10AAE0000121204602B0BDE81040FFF7E0BF2DE98C
:10AAF000F04F8E88132E85B004460D4629D800EB02
:10AB00008603D3F8147317B13846FFF7F3F92B888F
:10AB1000102B40D01FD8012B00F0D680294604F519
:10AB20000070FEF749FD294604F5177001F094F80E
:10AB3000B4F81233B3422B8800F0CB80102B40F0D6
:10AB4000CD80EB7B012B40F0C980AB88A4F8123399
:10AB5000C4E00027DBE7112B73D01C2BDED1D4F827
:10AB60006433002BDAD01420FFF724FD4FF0000CE3
:10AB7000C0F800C0D4F8642342600222027295F942
:10AB800008200392029602AA034603CAD8601961FC
:10AB90001846614641E0204604EB8608FFF791FF26
:10ABA00020460121FFF783FFD8F8140305F1080AB6
:10ABB00028B103685B6898470023C8F81433EB7B1F
:10ABC0003020012B07BF94F8F19294F8F2B294F878
:10ABD000F79294F8F8B203F0CBF94B460746524689
:10ABE0003146CDF800B0FFF721F9C8F814733846A4
:10ABF000FFF750F90128804612D1D4F8B832002B63
:10AC00008CD01020FFF7D6FC00210160D4F8B822C8
:10AC10004260034680F80880DE6003F04BFB7DE76E
:10AC2000D4F8C832002B3FF479AF1020FFF7C2FCF4
:10AC300000210160D4F8C82242600122034602725A
:10AC4000EAE72046FFF7F0FE014610B92046FFF77D
:10AC50002EFF3846FFF71EF9012826D1D4F8BC3262
:10AC6000BBB11420FFF7A6FC4FF0000CC0F800C0E9
:10AC7000D4F8BC2203465A6002221A722A7A03923E
:10AC8000029602AA03CAD86019611846614603F009
:10AC900011FB04EB8608D8F8140310B103685B6855
:10ACA00098470023C8F8143338E7D4F8CC32002B87
:10ACB000EFD01420FFF77EFC4FF0000CC0F800C06E
:10ACC0000346D4F8CC22D6E700213046FFF748FCF3
:10ACD00024E7102B3FF435AF112B26D047BB294674
:10ACE00004F52C70FFF7B4FB27B13846FFF7D2F814
:10ACF000022804D1294604F5307000F057FD04F510
:10AD00003476304600F0ACFE18B12946304600F0EB
:10AD1000A9FE29462046FFF75FFAD4F868336BB1E5
:10AD2000284605B0BDE8F04F18474FF6FF730DE712
:10AD30003846FFF7AFF80128D7D1D0E705B0BDE816
:10AD4000F08F000073B54FF4FA70FFF733FC0E4D2F
:10AD500004464FF4FA764FF0FF31D5F8040301F0C2
:10AD600083FF0028F7D00DF106012046ADF80660FC
:10AD7000FFF7F4FB20B921462846FFF7B8FEF2E7BB
:10AD80000528E8D0EFE700BF2C5B00200148FFF763
:10AD900021BC00BF2C5B002073B56C46054641F614
:10ADA0000F012046FFF7A4FB2E4694E80600284634
:10ADB000FFF786FB074B46F8103B204642F6192169
:10ADC000FFF796FB94E806003046FEF70DFF284695
:10ADD00002B070BDAC53030038B50446FFF754FB16
:10ADE000054690B9103420461221FEF716FF2A4678
:10ADF00020461121FEF722FF20460121FEF712FF17
:10AE00002046BDE83840FEF75BBC38BD37B56D461F
:10AE1000044641F60A012846FFF76AFB95E806005A
:10AE20002046FFF74DFB074B2360074B23610023B0
:10AE3000C4E90533E361054B2362054B6362204699
:10AE400003B030BDF8530300B8530300D3530300DD
:10AE5000DA5303000161704741627047F0B595B065
:10AE60000446FFF711FB064658BB03F07FFB606109
:10AE700003F04CFB0C34E06042F624256F4654F896
:10AE8000043F43B329463846FFF732FB97E80600F4
:10AE900002A8FEF7A9FE02A8FEF7BCFE022102A846
:10AEA000FEF7BBFE206807F01AFC81B202A8FEF78D
:10AEB000B9FE02A8FEF704FC064628B102A8FEF778
:10AEC000F7FB304615B0F0BD216802A8FEF7E1FEA1
:10AED00002A8FEF7EDFB0135ADB242F62A239D42F2
:10AEE000CDD10026EDE707B5036801229B690DF17E
:10AEF0000701984720B19DF8070003B05DF804FBF7
:10AF00004FF0FF30F9E7A0F11000FFF7ECBF37B5C5
:10AF100002AC036804F8012D9D6A22460123A8476C
:10AF200003B030BDD0F8B03098897047A0F1100060
:10AF3000FFF7F8BF2DE9F041054608461F461646C3
:10AF4000FEF766FE04463A463146D0F8B00003F0FC
:10AF500077FAD4F8C0301BB12846BDE8F041184755
:10AF6000BDE8F08173B5036802AC0546064804F8F5
:10AF7000011D9E6AFFF768FD01230146224628460F
:10AF8000B04702B070BD00BF2C5B0020A0F11000E4
:10AF9000FFF7E8BF2DE9F0410368044606489D6AC3
:10AFA0000E461746FFF750FD3B4632460146AC467B
:10AFB0002046BDE8F04160472C5B0020A0F1100066
:10AFC000FFF7E8BF08B592B2D0F8B00003F075FA09
:10AFD00008BD07B5D0F8B0000DF1070103F084FA01
:10AFE00020B19DF8070003B05DF804FB4FF0FF307F
:10AFF000F9E7A0F11000FFF7ECBFD0F8B00003F0C4
:10B00000E2B9A0F11000FFF7F8BF0000F7B56D46F8
:10B0100004460F4628461A49FFF770FA95E80600DD
:10B020002046FFF74DFA00264FF47A73C4E9056312
:10B03000144B154903F10802483323612260284666
:10B04000FFF75CFA95E8060004F12000FEF7CCFD5E
:10B0500028460E49FFF752FA95E8060004F1680009
:10B06000FEF7C2FD2046C4F8B060A4F8B470C4E98D
:10B070003066C4F8B86084F8BC6003B0F0BD00BFAF
:10B08000245403003C5403001454030004540300EC
:10B09000F8B506461A480F46FFF7E0FC10B9002540
:10B0A0002846F8BDFEF7F8FE033885B202F0CAFA6A
:10B0B000012828461BD106F0E7FB04460028EED005
:10B0C00001462A46D6F8B80003F0F7F9034688B1DE
:10B0D0002246394606F12000FEF71EFE054602F024
:10B0E000B1FA0128204607D106F0D6FBD8E701F0D7
:10B0F0003EFBE2E70125F2E701F048FBD0E700BFA5
:10B100002C5B00202DE9F74F824623480E469146DE
:10B110001F46FFF7A3FC8346A0B10AF12008314681
:10B120004046FEF7EBFD68B19AF8BC30BDB213B1F2
:10B13000DAF8B80058B92B464A4631464046FEF781
:10B14000EBFD38BB0024204603B0BDE8F08F2A4653
:10B15000494603F075F9DAF8B8309B8904469BB28A
:10B1600058460193FEF798FE019B0338834211DB9A
:10B1700031465046FFF78CFF0028E3D0BC4209D28D
:10B180002B1B9BB209EB040231464046FEF7C4FD7F
:10B190000028D8D03C46D6E72C5B00200A4B10B5DF
:10B1A0000360403304460361D0F8B80010B103686F
:10B1B0005B68984704F16800FEF77AFA04F1200012
:10B1C000FEF776FA204610BD4454030010B504463D
:10B1D000FFF7E4FF204602F0CDFE204610BD000040
:10B1E000F8B50446182002F0C3FE002205460121EE
:10B1F00003F0B4F8B4F8B410C4F8B050284603F023
:10B20000CAF82046FFF740F90646C0BB01211D4899
:10B21000FFF71DFC04F12005074610212846FEF724
:10B22000FCFC324611212846FEF708FD3946284627
:10B23000FEF7F6FC14492846FEF70BFD2846FEF7FC
:10B240003FFA0646D8B9683420460C21FEF7E5FCE3
:10B25000204601220D49FEF7F6FC11223146204618
:10B26000FEF7ECFC39462046FEF7DAFC204608499A
:10B27000FEF7EFFC2046BDE8F840FEF721BA304665
:10B28000F8BD00BF2C5B00203454030035AF020032
:10B29000385403000123037000234370C0E90133D5
:10B2A000C3818381704708B5FFF7F4FF08BD10B56F
:10B2B0000446217019B90A2001F069FB606010BDD5
:10B2C000037810B5044613B9406801F085FD2046A7
:10B2D000BDE81040FFF7DEBF002381608281C3819B
:10B2E0007047037870B504460D46B3B90123AD022B
:10B2F0004FF47A716370B5FBF1F1606801F0B4FC52
:10B30000B0B94FF0FF352378002666701BB1606836
:10B3100001F062FD6660284670BD03220021012015
:10B3200001F018FB60600028E0D14FF0FF35F2E734
:10B33000E589ADB2E7E74078704738B58589954231
:10B34000044628BF154619B12A46806806F0CDFA92
:10B35000A3682B44A360A3895B1BA381E3892B44CF
:10B360009BB2E381284638BD406820B100231A46CD
:10B37000194601F015BB7047B1DF7047B2DF704767
:10B3800010B4054B054C01290CBF214619465DF848
:10B39000044B07F05DB900BFFB540300E254030007
:10B3A00010B5044602F04EF90128204603D1BDE84D
:10B3B000104006F069BABDE8104001F0D8B90000AD
:10B3C00008B50C4805F06CFB0B490A4803F0A4FAD9
:10B3D00018B90949074803F0ABFA0849054803F0D2
:10B3E0009BFA28B905490348BDE8084003F0A0BA14
:10B3F00008BD00BFDC6600209C540300B05403006D
:10B40000F0B5074685B018200E461546FFF7C8FF71
:10B410000023044603603DB15020FFF7C1FF5022D6
:10B420002060294606F061FA0F4B63600323237204
:10B43000CDE90176039501AB55B1002253F82210F6
:10B440008D4204BF216843F822100132032AF5D14E
:10B4500003CBE0601868216160610021204602F0A2
:10B4600029FF012005B0F0BD81B60200F0B54FF60E
:10B47000FF739A4285B007460D4616464FF000040A
:10B4800017D01820FFF78CFFCDE901750A4A4260FA
:10B490000396032201AD03460460027203CD5E6190
:10B4A000D86019611846214602F004FF012005B05A
:10B4B000F0BD2046FBE700BFE5B5020030B5D1B0D6
:10B4C00015460A46014601A8FFF75AFF0E4B002217
:10B4D00001A908A803F0D7FB08A803F0E2FB044683
:10B4E00018B90024204651B030BD08A803F024FB51
:10B4F00050280246F5D1294608A803F00CFB08A8FD
:10B5000003F06FFBEEE700BFDC66002038B50446B1
:10B5100003F012FB051E08DD204603F02EFB291860
:10B52000204603F01BFB012038BD0020FCE7000093
:10B53000F0B54FF6FF73D1B09A420E4600AF3FD040
:10B540000146381DFFF71CFF1E4B0022391D07F175
:10B55000200003F098FB07F1200003F0A2FB48B99C
:10B56000002407F1200003F03CFB204607F5A277FA
:10B57000BD46F0BD07F12000FFF7C8FF07F120002E
:10B58000FFF7C4FF07F1200003F0D6FA0028E7DD3B
:10B59000C31D23F0070384B26D46ADEB030D2246B5
:10B5A000694607F1200003F0B6FA224669460323F4
:10B5B0003046FFF7E1FEB0FA80F46409AD46D0E70B
:10B5C0000024D2E7DC66002070B505460E4614461E
:10B5D000D1B203F0FBF9224631462846BDE870405F
:10B5E00003F022BA2DE9F041D0B00D4600AF0021A2
:10B5F0000323064690462846BA1C7980FFF7BEFE14
:10B600007B886C46A3B30733DB08A4EBC3039D46DA
:10B6100028460323BA1C6946FFF7B0FE054638BB2F
:10B6200042463146381DFFF7ABFE144B0122391D4F
:10B6300007F1200003F027FB07F1200003F031FBA6
:10B64000B0B1294607F1200003F088FA07F1200085
:10B65000FFF75CFF07F12000FFF758FF07F120001C
:10B660007A886946FFF7B0FF07F1200003F0B9FAC6
:10B6700007F5A077A546BD46BDE8F081DC66002051
:10B6800030B514460128DDB00CBF528AE28D0D465C
:10B69000014605A8FFF774FE05A9254803F03CF90B
:10B6A00018B105A9224803F089F9214B012205A907
:10B6B00014A803F0E8FA14A803F0F3FA002835D030
:10B6C00050220DEB02002146FFF77EFF20220021D1
:10B6D0000CA8FAF723FE29461648FFF7BFF92022E7
:10B6E0000CA9FEF7DDFB9DF830309BB994F84910AA
:10B6F000039194F84A10029194F84B10019194F838
:10B700004C10009194F84D3094F84E200A490CA842
:10B7100006F09EFF0CA806F0E2FF421C92B214A8AD
:10B720000CA9FFF751FF14A803F05BFA5DB030BD20
:10B73000DC6600202C5B0020C454030075DF7047DA
:10B740004FF010114FF44802C0E900120022C0E986
:10B7500002227047014800F079B900BFFC5D00206B
:10B7600010B50948FFF77AF9044608B9002010BD62
:10B77000FEF78CFB0028F9D02046FEF78BFB831EDA
:10B7800058425841F3E700BF2C5B002070B50025FC
:10B7900006462C46A9B23046FFF7E2FF08B1013455
:10B7A000E4B20135142DF5D1204670BD07B50B88E4
:10B7B0001F2B0DD18A8851F8080F49686B4603C3C7
:10B7C0006946BDF80030ADF802301046FFF7B6FF0D
:10B7D00003B05DF804FBA1DF7047A3DF7047A4DF6F
:10B7E000704710B5044601F02DFF0128204603D113
:10B7F000BDE8104006F048B8BDE8104000F0B7BF03
:10B80000002383827047806900F010B9808A7047F6
:10B810002DE9FF410B88CF88382B05460C4600F0F8
:10B820009980392B12D0362B15D1806900F0FEF8A3
:10B8300001467D48FFF712F9FEF72EFB05F11C08C3
:10B840000646002F00F0D480404687E00B7B012B9A
:10B8500004D0022B3DD004B0BDE8F081C36A002BB8
:10B86000F9D090F8342001F11007D1072DD5182018
:10B87000FFF7B7FF002303600646E08930B1FFF70A
:10B88000B0FF3060E289394606F02FF8EB6A73604A
:10B8900003233372E2890392CDE9015701AB52B120
:10B8A000002253F822108F4204BF316843F822105F
:10B8B0000132032AF5D103CB3161F0601868706161
:10B8C0000021304602F0F6FCC5E7E2893946984788
:10B8D000C1E7036B002BBED090F83420B1F8048090
:10B8E000920701F1100731D51820FFF77AFF0023E6
:10B8F00003600646E08930B1FFF773FF3060E289EC
:10B90000394605F0F2FF2B6B736003233372E28933
:10B910000392CDE9015701AB52B1002253F8221036
:10B920008F4204BF316843F822100132032AF5D157
:10B9300003CB3161F060186870610021304602F07D
:10B94000B9FC61894046FFF74AFF84E7CA89394656
:10B950009847F6E700F11C061FB13046FFF704FDDB
:10B9600079E70A8A30463946FFF7E7FC94F80C80FD
:10B97000B8F1010FF1D0B8F1040F7FF46CAFA869F2
:10B9800000F054F801462848FFF768F8FEF784FAFB
:10B99000431F288D9BB2984228BF1846AB8AC0B17E
:10B9A000ADF80630228AE389ADF80A001344ADF8F9
:10B9B0000830A8696B6AADF8047003938DF80480B1
:10B9C00000F034F801A9FFF708FF00283FF443AF67
:10B9D000C3E7CDE9020040F20512A869ADF80420E2
:10B9E000ADF8063000F022F801A9FFF7F6FEB4E743
:10B9F000E28904F110014046FFF79FFC2B8D002BDC
:10BA00003FF422AF033EE389B6B2013EB342FFF6F4
:10BA10001BAFA86900F00AF86A8DA98AFFF7DBFE60
:10BA200000287FF411AF16E72C5B00208088704758
:10BA300010B504460430FFF736FC034B23600023A7
:10BA40002375204610BD00BF0100FFFF017D10B52A
:10BA5000044621B90430FFF72AFC0123237510BDE9
:10BA6000007D704710B50B88322B12D0332B1ED0BF
:10BA7000302B26D1CB88041D33B94B8923B10A2240
:10BA800011442046FFF759FC2046BDE81040FFF75F
:10BA90006BBCCB88041D002BF6D14A89002AF3D059
:10BAA00002EB82025200023292B20A31E9E7CB88FD
:10BAB000041D002BE8D14A89002AE5D002EB42029E
:10BAC000F0E710BD8ADF704710B5044601F0BAFDFB
:10BAD0000128204603D1BDE8104005F0D5BEBDE8E1
