:020000022000DC
:1060000000000120F1950200319602003396020053
:106010003596020037960200399602000000000013
:106020000000000000000000000000007195020068
:106030003D9602000000000091950200419602008A
:106040004396020043960200D17F0200439602006D
:106050003574020043960200439602004396020004
:1060600043960200439602004396020043960200C4
:1060700043960200439602004396020043960200B4
:106080004396020099930200439602004396020051
:106090004396020043960200439602004396020094
:1060A0004396020043960200439602004396020084
:1060B000439602004396020000000000000000002A
:1060C0004396020043960200439602004396020064
:1060D000439602004396020043960200000000002F
:1060E00000000000000000000000000000000000B0
:1060F00000000000000000000000000000000000A0
:10610000000000000000000000000000000000008F
:10611000000000000000000000000000000000007F
:10612000000000000000000000000000000000006F
:10613000000000000000000000000000000000005F
:10614000000000000000000000000000000000004F
:10615000000000000000000000000000000000003F
:10616000000000000000000000000000000000002F
:10617000000000000000000000000000000000001F
:10618000000000000000000000000000000000000F
:1061900000000000000000000000000000000000FF
:1061A00000000000000000000000000000000000EF
:1061B00000000000000000000000000000000000DF
:1061C00000000000000000000000000000000000CF
:1061D00000000000000000000000000000000000BF
:1061E00000000000000000000000000000000000AF
:1061F000000000000000000000000000000000009F
:1062000010B5054C237833B9044B13B10448AFF3F0
:1062100000800123237010BDC83900200000000059
:1062200028DD020008B5034B1BB103490348AFF357
:10623000008008BD00000000CC39002028DD0200ED
:10624000154B002B08BF134B9D46A3F5803A002148
:106250008B460F461348144A121A00F05FF80F4B92
:10626000002B00D098470E4B002B00D09847002001
:10627000002104000D000D48002802D00C4800F059
:1062800015F900F027F82000290003F0EFF900F0DD
:1062900011F800BF0000080000000120000000000D
:1062A00000000000C839002034430020AD64020023
:1062B000B964020008B50021044600F083F8044BDD
:1062C0001868C36B03B19847204600F073F900BF0C
:1062D000B4CD020070B50D4E0D4D761BB61006D034
:1062E0000024013455F8043B9847A642F9D1094EE1
:1062F000094D761B06F052FDB61006D0002401347D
:1063000055F8043B9847A642F9D170BDA839002042
:10631000A8390020C4390020A8390020F0B486072D
:1063200043D0541E002A3ED0CAB2034602E014F104
:10633000FF3438D303F8012B9D07F8D1032C2BD958
:10634000CDB245EA05250F2C45EA054516D9A4F13D
:1063500010073F0903F1200606EB071603F11002B0
:1063600042E9045542E902551032B242F8D104F034
:106370000F040137032C03EB07130DD91E462246E9
:10638000043A032A46F8045BFAD8221F22F00302DB
:106390000432134404F003042CB1C9B21C4403F8C2
:1063A000011B9C42FBD1F0BC704714460346C5E775
:1063B000024B13B1024800F079B8704700000000AA
:1063C000B96402002DE9F04F354B85B00F460390BC
:1063D000186800F08BF8334B1B68019303F5A47326
:1063E0000293B946019BD3F848613EB3DDF808A09B
:1063F0004FF001087468651E0FD4013406EB840465
:106400000027B9F1000F20D0D4F800314B451CD043
:10641000013D6B1CA4F10404F3D1234B73B1D6E905
:106420000032002A34D1002B32D03046CAF8003076
:1064300003F022FCDAF80060002EDBD1184B18685C
:1064400005B0BDE8F04F00F053B873682268013B17
:10645000AB420CBF75602760002AD9D0D6F88811EE
:10646000D6F804B008FA05F30B4208D190477368D8
:106470005B45B7D1DAF80030B342C9D0B2E7D6F8FD
:106480008C01D4F88010034207D103989047EEE7BF
:10649000B2461E46002EADD1D0E708469047E6E74B
:1064A00030380020B4CD0200799C02000023014660
:1064B0001A46184600F01EB838B50A4C0A4D641B3F
:1064C000A4100AD004F18043013B05EB8305013C95
:1064D00055F804399847002CF9D1BDE8384006F04A
:1064E00063BC00BFC8390020C4390020704700BF1A
:1064F000704700BF2DE9F8432B4D064628689846A3
:106500000F469146FFF7F2FF284B1C68D4F848313C
:10651000002B3DD05A681F2A0DDC02F1010C16BB7E
:106520000232C3F804C0286843F82270FFF7E0FF86
:106530000020BDE8F8831E4B7BB34FF4C87003F016
:1065400093FB034648B3D4F848210021C0E9002159
:106550004FF0010CC4F848010A46C0F88811C0F891
:106560008C11002EDCD003EB82010124C1F888904D
:10657000D3F8880194402043022EC3F88801C1F863
:106580000881CDD1D3F88C110C43C3F88C41C7E7F7
:1065900004F5A673C4F84831BCE72868FFF7A8FFE4
:1065A0004FF0FF30C5E700BF30380020B4CD020007
:1065B000699C0200FEE700BF1FB50B4A0B4C1D2370
:1065C000CDE9023204211C23CDE900312022084B01
:1065D0008021204600F0CCF8064A0749204604B046
:1065E000BDE8104003F0FCBA00127A00E439002044
:1065F000343A0020003400202D68020007B54FF423
:1066000016410C4801F06CFB0B490A4801F01EFBD7
:106610000123009300220221084800F0E3F930B979
:106620000749044803B05DF804EB01F00FBB0549CE
:10663000F7E700BF103B0020CBCD0200E43900207B
:10664000F7CD020011CE020038B51649164801F008
:10665000FDFA142001F0D3FC142001F0D0FC124804
:1066600001F07CFB002803DD10490F4801F0EEFA31
:106670000F48104C0E4D00F0A8F90123236022684A
:106680001D2A09DC12B201231146284600F014F835
:10669000236801332360F2E70548BDE8384000F085
:1066A00001BC00BFB8CD0200103B0020BDCD0200F0
:1066B000E4390020303A0020002930B51ADBB0F967
:1066C0000C408C4216DD002A14DBB0F90E409442D7
:1066D00010DD847E022C0ED0032C15D0012C04D1A9
:1066E0000489D24314440A4621B2012B12D01FD38D
:1066F000022B2DD030BD0489013C611A4489D2435C
:10670000224409B212B2F0E74489013C641A1146EE
:1067100022B2EAE70589C06A082492FBF4F414FB6C
:10672000051102F007029340425C13434354E1E732
:106730000489C06A082392FBF3F313FB041102F0EF
:10674000070201239340425C22EA03024254D1E74C
:106750000489C06A082392FBF3F313FB041102F0CF
:106760000702012303FA02F2435C5A40EEE70000FD
:1067700070B504461E46079D00F0F8FF234B2360CA
:10678000234B002E08BF1E460023C4E90A33FF2313
:1067900084F8333084F834309DF9103084F8353083
:1067A0009DF9183084F836309DF9143084F837306C
:1067B000184B66629D421AD9174B9D421AD9174B46
:1067C0009D421AD9164B9D421AD9164B9D421AD991
:1067D000154B9D4294BF4FF080454FF0004502237A
:1067E00084F83C300023A5632364204670BD4FF03D
:1067F0000075F4E74FF08065F1E74FF00065EEE7D4
:106800004FF08055EBE74FF00055E8E7D4D2020097
:10681000343A002048E8010090D0030020A107008E
:1068200040420F0080841E0000093D00044B10B55B
:1068300004460360C06A08B103F01EFA204610BD8A
:10684000D4D20200F8B50446806A0F4690B194F89D
:10685000301000F027FDA06A036800211B689847EC
:10686000A06A036839461B689847A06ABDE8F840EB
:1068700000F083BD014694F9350003F041F9606AE8
:1068800020B13946BDE8F84000F017BC0825802645
:1068900007EA060194F9330003F032F9012194F973
:1068A000340003F02DF9002194F9340003F028F9A5
:1068B000013D4FEA5606EBD1F8BD38B50446806A73
:1068C0000D4680B1616C00F0CDFC002D204614BF58
:1068D000A721A621FFF7B6FFA06A88B1A16CBDE889
:1068E000384000F0BFBC606A20B104F138030ECB21
:1068F00000F0D2FB002194F9360003F001F9E4E73F
:1069000094F93600012103F0FBF8606A18B1BDE884
:10691000384000F0CDBB38BD2DE9F8430446806A0D
:106920000D4601EB020840B394F8301000F0BAFCB9
:10693000A06A036800211B68984701264545A06AA4
:1069400017D03E2E0CD900F018FD94F83010A06A34
:1069500000F0A8FCA06A036800211B689847012684
:10696000A06A15F8011B036801361B689847F6B248
:10697000E4E7BDE8F84300F000BD014694F93500B6
:1069800003F0BEF845451ED0606A15F8019B18B1AA
:10699000494600F092FBF5E70826802709EA07013F
:1069A00094F9330003F0ACF8012194F9340003F0BA
:1069B000A7F8002194F9340003F0A2F8013E4FEA51
:1069C0005707EBD1DEE7BDE8F883B0F90A300822BB
:1069D000073393FBF2F3B0F90820C06A5A43002151
:1069E000FFF79CBC2DE9FF411E46C36A9DF8287045
:1069F000044688461546C3B12046FFF7E6FFB4F9C2
:106A00000A20B4F90830202A4FF002011EDC733B43
:106A1000203A012092FBF1F293FBF1F12023CDE922
:106A2000013073230093824B1EE0B0F90A30082036
:106A3000073393FBF0F3B4F90800584303F014F95B
:106A4000E0620028D8D104B0BDE8F081523B403A62
:106A50004FF0010C92FBF1F293FBF1F14023CDE9F1
:106A6000013C52230093734B204612B209B200F04E
:106A700095FEA06A84F83180002874D0002D70D172
:106A8000B4F90A30202B14BF3D253C2584F8305042
:106A9000002F00F0C88000F09BFBDEB194F93700B6
:106AA000002817DB012103F003F8012194F93700D6
:106AB00003F026F8012001F0A2FA002194F9370032
:106AC00003F01EF80A2001F09AFA012194F9370028
:106AD00003F016F8A06A00286CD0616C00F0C2FBCD
:106AE000042255492046FFF717FFA17A0139C9B2A0
:106AF0002046FFF7A7FE514904222046FFF70CFF6E
:106B000094F93130012B14BF142110212046FFF7D6
:106B100099FE04224A492046FFF7FEFEA368494A2F
:106B2000934254D1042248492046FFF7F5FED9216B
:106B30002046FFF787FE94F93130012B14BFF12175
:106B400022212046FFF77EFE204606223F49FFF71E
:106B5000E3FEA06A00285BD0A16C00F083FB01205B
:106B600071E76DB292E7012194F9350002F0A0FFC0
:106B7000012194F9360002F09BFF012194F93600BF
:106B800002F0BEFF656A2DB1002F86D0284600F0C6
:106B90006DFA82E794F93300012102F089FF94F93C
:106BA0003400012102F084FF294694F9340002F0F8
:106BB000A7FF72E7606A20B104F138030ECB00F042
:106BC0006BFA002194F9360002F09AFF88E7204A18
:106BD00093420ED11F4903222046FFF79DFE94F9F0
:106BE0003130012B14BFCF219F212046FFF72AFE11
:106BF0009DE7194A93429AD1184903222046FFF78C
:106C00008BFE94F93130012B14BFAF211021ECE73A
:106C100094F93600012102F073FF606A00289ED0CB
:106C200000F046FA9BE7002E7FF438AF55E700BF2F
:106C3000ECD002002CCE02002CD3020030D3020094
:106C400034D30200800020003ED3020038D302007B
:106C50008000400042D302006000100045D30200D3
:106C600070B5002ABDF810503FDBB0F90A409442DD
:106C70003BDD0029BEBF5B181BB20021B0F9084004
:106C8000CE18A642C4BF631A1BB2002B2DDDC06A0A
:106C9000082692FBF6F614FB0611014402F00700E9
:106CA00001228240012DD2B20BD013D3022D1CD170
:106CB0000B44994219D011F8010B504001F8010C16
:106CC000F7E70B44994210D011F8010B104301F87B
:106CD000010CF7E7D243D2B20B44994205D011F828
:106CE000010B104001F8010CF7E770BDF0B5002969
:106CF000BDF8146078DBB0F908C0614574DA002A89
:106D0000BEBF9B181BB20022B0F90A40D518A5429D
:106D1000C4BFA31A1BB2002B66DDD2B2DDB2C76AB4
:106D2000D3081CFB031112F0070307EB010422D068
:106D3000C3F10803DBB2324A9D42D25C59D2A3EBC5
:106D4000050E4FF0FF0C4CFA0EFC012E0CEA02026D
:106D500007D027D3022E47D117F801C082EA0C02D0
:106D600003E017F801C042EA0C029D427A543BD37B
:106D7000B0F908201444EB1ADBB2072B26D9022EF7
:106D800015D11A462178C9432170083AB0F9081084
:106D9000D2B2072A0C44F5D813F0070324D0194ABD
:106DA000D35C1BE017F801C02CEA0202DDE7002EDD
:106DB00014BFFF2500251A462570083AB0F90810BF
:106DC000D2B2072A0C44F7D803F0070363B10D4A87
:106DD000012ED35C05D008D3022E05D12278534072
:106DE00001E0227813432370F0BD227822EA0303E6
:106DF000F9E7012EB5D0D5D3022EADD06444BAE761
:106E00001CD3020024D3020030B41446827EBDF8A5
:106E10000850022A0DD0032A18D0012A11D1028964
:106E2000E443144424B202950A46214630BCFFF7DD
:106E30005DBF4289E443144402891944511A24B2C3
:106E400009B20295224630BCFFF70ABF42891944B5
:106E5000511A09B2E7E730B41446827EBDF80850F3
:106E6000022A0DD0032A18D0012A11D102891C440C
:106E7000141B24B202950A46214630BCFFF7F0BE2F
:106E8000CA4301890A4411B242891C44141B24B22A
:106E90000295224630BCFFF729BFCA4341890A4404
:106EA00011B2E7E72DE9F8430446806A002841D093
:106EB000616C00F0D7F9052243492046FFF72CFD0D
:106EC000217A01392046C9B2FFF7BCFCB4F90A3077
:106ED00008260733D4E90A0593FBF6F3268916FB47
:106EE00003F615FA86F600283AD094F8301000F030
:106EF000D9F9A06A036840211B6898470127B54269
:106F0000A06A24D03E2F0CD900F037FA94F8301044
:106F1000A06A00F0C7F9A06A036840211B6898477F
:106F20000127A06A15F8011B036801371B68984701
:106F3000FFB2E4E7606A20B104F138030ECB00F041
:106F4000ABF8002194F9360002F0DAFDB3E700F067
:106F500014FAA06A58B3A16CBDE8F84300F082B9F6
:106F6000012194F9350002F0CBFDB542F1D0606A01
:106F700015F8019B18B1494600F09FF8F5E708277E
:106F80004FF0800809EA080194F9330002F0B8FDD7
:106F9000012194F9340002F0B3FD002194F934008A
:106FA00002F0AEFD013F4FEA5808EBD1DDE794F95E
:106FB0003600012102F0A4FD606A18B1BDE8F84373
:106FC00000F076B8BDE8F88348D3020038B5002554
:106FD000057329B90B4B0C4A0C48232102F006FE1D
:106FE00001600B4951F82220027151F8233083715E
:106FF0009DF8103051F8233043710223C37185602E
:1070000038BD00BF4DD30200ABD302005BD30200FA
:1070100058D90200037B23B94373837303610123AF
:107020000373704784B00DF1100C0CE90E009DF84D
:107030000810026800230129C2F80035039B12D012
:107040000BD303290CD0C2F85435019BC2F8243568
:107050000123C2F8003504B0704743F00203F2E7A1
:1070600043F00403EFE743F00603ECE710B5FFF746
:10707000D1FF03688279C3F808254279C3F80C254B
:107080000279C3F81025034BBDE810400ECBFFF783
:10709000C9BF00BF483A002010B485B001AC84E8F5
:1070A0000E0094E80E0005B05DF8044BFFF7BABF80
:1070B00003680022C3F8002570470368C3F81C1555
:1070C000D3F80821002AFBD0D3F818050022C3F812
:1070D0000821C0B27047000007B5094B09490A48AA
:1070E0004FF080421A6000229A6002221A71062331
:1070F0000093FF220523FFF769FF03B05DF804FB4F
:10710000483A002000300040343A00202DE9F8438E
:1071100080460D46174601EB02090C464C45A4EB90
:1071200005060BD0D8F8003014F8011B1B68404648
:1071300098470028F2D13046BDE8F8833E46FAE78A
:107140007047203000F0B2BD203000F0A1BD2030EB
:1071500000F0B2BD38B5437F0D460BB9002038BDF5
:1071600000F16804204600F0AFFD0028F6D120466B
:10717000294600F07EFD0120F1E700002DE9F041F5
:107180001E4600254FF47A73C0E901530E4B0446A6
:1071900040F8203B1746884600F062FD04F1680085
:1071A00000F05EFDC4E90487084B9DF818202676A0
:1071B00053F8222062769DF81C2053F82230A376E3
:1071C00065772046BDE8F081F0D3020058D902006F
:1071D000827E4FF0A04102F5E07210B5012340F22B
:1071E0000C64C37641F82240427E02F5E07241F819
:1071F000224002694FF0CC71C2F8241502690621C1
:10720000C2F800150269817EC2F808150269417E44
:10721000C2F80C1590F91820510902F01F02934092
:1072200060310F4A42F8213090F91830002BBDBF71
:1072300003F00F0302F6FC32D2189B18B5BF60238F
:107240006022137683F8002390F91830012259093F
:1072500003F01F0302FA03F3014A42F8213010BD84
:1072600000E100E0C37EA3B103690022C3F800255A
:107270000A4B99420ED90A4B994294BF4FF0806154
:107280004FF0C8610369C3F8241503690622C3F8E7
:10729000002570474FF0CC71F4E700BFA0860100D5
:1072A00090D0030010B5044680F8B010683000F0AC
:1072B000EBFC0123637710BDF8B500234377036926
:1072C00090F8B020C3F88825036901261E6203697F
:1072D00000F168050446C3F8445528460F4600F0FF
:1072E000E5FC2369C3F8480523699E602369D3F848
:1072F00050211AB9D3F82421002AF8D00022C3F86B
:107300005021284600F0D2FC236930B1D3F8602127
:107310001AB9D3F82421002AF8D00022C3F860213A
:1073200023696FB9D3F8242152B90122DA612369A4
:10733000D3F84821002AFBD00022C3F8482109E0F5
:1073400001225A612369D3F80421002AFBD00022CC
:10735000C3F804212369D3F8240168B10022C3F8DB
:1073600024212369D3F8C404C3F8C404022803D039
:1073700004280CBF03200420F8BD0121FFF79CBFA7
:1073800070B54369D3F86421044692B10022012507
:1073900000F12006C3F864210577304600F074FC44
:1073A0006369C3F8346563694022C3F838256369AB
:1073B0001D636369D3F86821DAB10025C3F8685109
:1073C00004F16806012363772577304600F05CFC02
:1073D000D4F8B43003B19847636965773046C3F891
:1073E000446500F063FC6369C3F8480563690122E2
:1073F0005A636369D3F8042162B10022C3F80421FF
:10740000237F3BB16369D3F83C05D4F8B8302066DC
:1074100003B198476369D3F8242152B10022C3F81D
:1074200024216369D3F8D024C3F8D02463690122EE
:107430005A6170BD0148FFF7A3BF00BF543A002056
:1074400007B50E230D22CDE900324FF04022042370
:1074500011460348FFF792FE03B05DF804FB00BF3E
:10746000543A00202DE9F04F85B01D46BDF9384053
:10747000BDF83CA0A31A83EAE37BABEBE37B6B1A7A
:10748000002BB8BF5B429B4581461646019304DC46
:1074900023460E462C4611461D46A64205DC2B46C9
:1074A0000D461946234634461E464B1B002BA6EBC1
:1074B0000408B8BF5B421FFA88F802930FFA88F7F6
:1074C000022397FBF3F300938D42ACBF4FF0FF33E1
:1074D00001230393B44220DCD9F800301B691F4616
:1074E000019B9B45CCBF22462A465346CCBF29462A
:1074F00021464846B847009A029BD71ABBB21AB237
:10750000002A009206DA039A08EB030715443BB2FF
:107510002DB20093013424B2DCE705B0BDE8F08F52
:10752000704710B40468A468A4465DF8044B604733
:1075300030B40468BDF808500295246BA44630BCF2
:10754000604730B40468BDF808500295646BA446E7
:1075500030BC604770B4BDF90C50BDF810600468D1
:10756000CDE90356A46BA44670BC60472DE9F341F6
:107570001C460368BDF82080DB6805461646013CC2
:1075800034440F4624B298472B68CDF80480009409
:107590001C6A28463B4632463946A0472B685B6A40
:1075A000284602B0BDE8F04118472DE9F3411D46D9
:1075B0000368BDF82080DB68044617460E469847EE
:1075C000CDE9007822686B1E3344156A20461BB251
:1075D0003A463146A84723685B6A204602B0BDE8B8
:1075E000F04118472DE9F3471E460368BDF928808E
:1075F000DB68BDF82C900C46054617469847264494
:10760000B4422A680BDACDF80090D2F818A02146CF
:1076100043463A4628460134D04724B2F0E7536A3D
:10762000284602B0BDE8F047184713B5B0F90E2060
:107630000468019100920022B0F90C30A46B11464D
:10764000A04702B010BD2DE9F3471D460368BDF801
:107650002C70DB68BDF9289004468846164698478A
:1076600023680097D3F81CA032462B46414620469B
:10767000D0472368009709F1FF323244D3F81CA0A9
:1076800041462B46204612B2D04723680097D3F8D4
:1076900018A032464B4641462046D0472368009703
:1076A000691E41449D6920464B46324609B2A847AF
:1076B00023685B6A204602B0BDE8F0471847704770
:1076C0002DE9F347994280460C4615469946BDF987
:1076D0002860BDF82CA0076811D1B242DCBF334648
:1076E0001D46CDF828A0D8BF16466B1C3D6B9B1BD2
:1076F0001BB23246AC4602B0BDE8F0476047B2422A
:107700000ED19942D8BF1C46CDF828A0D8BF8946D3
:10771000631C7C6BA3EB09031BB24946A446EAE752
:10772000FB689847CDE9006AD8F8003040461E6AE9
:107730002A464B462146B047D8F800305B6A40469F
:1077400002B0BDE8F047184701F003010129817636
:10775000B0F90830B0F90A2004D0032902D083819F
:10776000C28170478281C3817047000030B5428179
:10777000C2814FF0FF32426140F201120024064DF7
:107780000283012244600560018181810461847665
:10779000C2760477046230BD10D902002DE9F04FA3
:1077A00089B09A46BDF94C300593BDF85030069328
:1077B0000368BDF94890DB68CDE903120026054651
:1077C00034469847019609F10702082392FBF3FB20
:1077D000019A049B13441BB20293059ABDF904302D
:1077E0009A4226DD0AEB06034FF0000807930FFAD2
:1077F00088F34B4518DA1FFA88F14A0705BFDB10FA
:10780000079A6400D45C18BFE4B2230609D5039B31
:10781000029A19442B681B6909B21F462846069B29
:10782000B84708F10108E2E7019B013301935E4488
:10783000CEE72B685B6A284609B0BDE8F04F1847D1
:107840002DE9F04F91B09146026A05911F46BDF8AF
:10785000683002930446BDF86CA09DF870609DF8F6
:107860007450002A40F0B880B0F90C308B4240F3DD
:107870003781B0F90E304B4540F33281062313FBBC
:107880000613002B40F32C8109EBC503002B40F3BA
:107890002781037F1BB9AF2F84BF0137FFB2236855
:1078A0002046DB68984705230A931FFA89F34FF0B7
:1078B0000008069305238C4A13FB0783D35C0793C8
:1078C000B3B20893BDF814300393039A089B08FBE6
:1078D00003231BB2099308230B930023049312FA8A
:1078E00088F31BB20C93079A2368D2074DD5012E5B
:1078F000BDF810203AD1012D38D10699D3F810B037
:10790000029B0A4412B20C992046D847049B0133CB
:107910005BB20493079B5B0807930B9B013B13F03F
:10792000FF030B93DFD10A9B013B08F1010813F021
:10793000FF034FFA88F80A93BCD1029B53450ED03F
:10794000012E236837D1012D35D10399CDF800A040
:1079500005319D694A46082309B22046A847236895
:107960005B6A204611B0BDE8F04F1847069915FB39
:1079700002F20A44029901910095D3F814B00999D2
:10798000334612B22046D847C0E7029A5245BDD0CE
:10799000012EBDF8102007D1012D05D10699D3F88D
:1079A00010B00A445346ADE70699CDF804A015FB84
:1079B00002F20A44E0E7089ACDF804A002EB820143
:1079C000039AED000A44114600955D694A46334624
:1079D00009B22046A847C2E7137A516812680D928F
:1079E000FF1AFFB201EBC70331F8372003929A78F0
:1079F0000792DA780B92012E93F90520089293F9F9
:107A000006B001D8012D51D9BDF9203006930FFAE7
:107A10008BF3049323682046DB6898471FFA89F3A9
:107A20004FF0000809935B44C24647460F930B9BF7
:107A30009F4294D2049B099A3B4403FB05230F9A6F
:107A40003A441BB212B20A934FF0000943460E9219
:107A5000079A91453DD25A1CD2B25B070C9207D1CE
:107A6000039B03990D9A01339BB212F801A0039373
:107A70001AF0800F10D0012E2268BDF8141019D111
:107A8000012D17D1089BD2F810B00E9A1944494421
:107A9000029B09B22046D8474FEA4A0A09F1010978
:107AA0005FFA8AFA5FFA89F90C9BD1E70023049305
:107AB0000693AFE7069B4B4403FB0611029BCDE9FF
:107AC000005309B2D2F814B00A9A33462046D84778
:107AD000E2E7079B013798445FFA88F8FFB2A6E710
:107AE00011B0BDE8F08F00BF08D40200F0B5026A03
:107AF00085B004460B46002A34D10A2908D10282F7
:107B0000438A427E03EBC2036382012005B0F0BDCD
:107B10000D29FAD0E17E007E657E71B1B4F9106066
:107B2000062111FB0061B4F90C60B142C1BFB4F988
:107B30001210228201EBC5026282CDE90205E08AC1
:107B40000190A08AB4F912200090B4F910102046D8
:107B5000FFF776FE237E228A03EB430302EB430307
:107B60002382D2E70A2907D100230382937A417E38
:107B7000428A01FB0323C7E70D29C6D0157AA94223
:107B8000C3D3517A9942C0D35D1B5168EDB201EB6A
:107B9000C505AF782FB3E97819B3E17E007E667E24
:107BA00091B195F905103944B4F9107000FB0171D9
:107BB000B4F90C70B94207DD00272782B4F912101E
:107BC000927A02FB06126282CDE90206E08A0190F7
:107BD000A08A0090B4F91220B4F910102046FFF7E3
:107BE0002FFE2979237E228A01FB0323B8E72DE9A2
:107BF000F04106460D4601EB02080C464445A4EB55
:107C0000050707D0336814F8011B1B6830469847F6
:107C10000028F3D13846BDE8F08170B50446084627
:107C20000D4602F08FFE23680246294620465B6817
:107C3000BDE87040184709B1FFF7EFBF084670472D
:107C40000149FFF7EABF00BFD8D9020038B50546A1
:107C5000FFF7F1FF04462846FFF7F2FF204438BD46
:107C600008B540220021FEF759FB0022C0E910228E
:107C700008BD026C10B5531C446C03F03F039C42DA
:107C80001CBF8154036410BD0023C0E9103370474A
:107C9000D0E9102393421FBFC25C013303F03F03BE
:107CA000436414BF10464FF0FF307047D0E91030E6
:107CB000181A48BF40307047D0E91023934214BFD0
:107CC000C05C4FF0FF307047036C406C013303F031
:107CD0003F031B1A58425841704790F862007047A2
:107CE00003681322DB6918471430FFF7CDBF00008B
:107CF00038B590F95C305909044601222031164804
:107D000003F01F0302FA03F340F821302369042132
:107D1000C3F8081323695A602369DA6023690025D0
:107D2000C3F8005522694FF0FF33C2F80C352269C1
:107D3000C2F814352269C2F80835226904F114002A
:107D4000C2F81035FFF7A0FF606E00F049FC6566D1
:107D500084F8625038BD00BF00E100E01430FFF746
:107D6000A5BF1430FFF7A8BF1430FFF791BF38B597
:107D700004460D46406E4FF0FF3100F079FB236959
:107D8000C3F81C552269D2F81C31002BFBD000230C
:107D9000C2F81C3119461A46606E00F02DFA012017
:107DA00038BD000038B590F862200446002A40F043
:107DB0009080036990F85E00C3F80C05236994F87D
:107DC0005D00C3F8140594F861002369012801BF20
:107DD00094F85F20C3F81025236994F8602005BF4C
:107DE000C3F808252369C3F86C25C3F86C05B1F501
:107DF000966F6FD9B1F5166F6FD9B1F5965F6FD9E0
:107E0000B1F5165F6ED9B1F5615F6DD9B1F5964FD9
:107E10006CD9B1F5E14F6BD9B1F5164F6AD9B1F50F
:107E2000614F6AD9B1F5963F6AD9B1F5E13F69D999
:107E3000B1F5613F69D9394B994269D9B1F5E12F63
:107E400069D9B1F5612F94BF4FF070634FF0805343
:107E50002269C2F8243523690422C3F80025216968
:107E60000023C1F808312169C1F81C3121690123BF
:107E70000B6021698B602169C1F8042394F95C20AF
:107E8000510902F01F0293406031254A42F8213027
:107E900094F95C30002BBDBF03F00F0302F6FC32F7
:107EA000D2189B18B5BF60236022137683F8002395
:107EB00094F95C301A4A5909012503F01F0305FAA9
:107EC00003F342F82130284600F016FA84F8625095
:107ED000606638BD4FF49E23BAE74FF41D23B7E721
:107EE000104BB5E7104BB3E7104BB1E7104BAFE7C2
:107EF000104BADE74FF41D03AAE74FF46B03A7E760
:107F00000D4BA5E74FF0EB73A2E74FF06C739FE7C3
:107F10004FF080639CE74FF0E86399E790D003004F
:107F200000E100E000B013000050270000F03A002C
:107F300000A04E0000C0750000903A0108B5044B47
:107F40002BB10448FFF7B2FE08B1AFF3008008BDC3
:107F500000000000243B00202DE9F04100251E46D2
:107F60004FF47A73C0E901530F4B044640F8143BB9
:107F700017468846FFF774FE0C4AC4F8108084F850
:107F80005C7052F8263084F85D309DF8183052F855
:107F9000233084F85E3084F86150656684F862505E
:107FA0002046BDE8F08100BFE4D9020058D90200A4
:107FB0000369D3F808214AB10022C3F808210369F4
:107FC000D3F818151430C9B2FFF753BE704700003C
:107FD0000148FFF7EDBF00BF103B002007B5172396
:107FE00000930222162303490348FFF7B5FF03B0AD
:107FF0005DF804FB00200040103B0020FEE78002FB
:108000004FF47A73B0FBF3F000F0D8BD10B504461E
:1080100001F0AEF9A46B01F0B5F9B4FA84F04009AF
:1080200010BD70B51546026C866B044642B90568F2
:108030009DB9406800F05CFF65600136A66370BDC5
:108040006DB9806801F020FEA368226C1344626859
:10805000A360934201D32368A3600020EDE7C068CA
:1080600001F012FE236CE26821685B421A448A42E6
:10807000E2603EBF62689B18E360022DEDD10EB155
:10808000013EEAE73046D8E7034610B41A6C0846CA
:1080900062B1D9685C681144A142D96024BF1968F3
:1080A000D960D9685DF8044B01F0EEBD5DF8044B72
:1080B000704770B5044601F05BF994F8455004F13F
:1080C00024066DB2002D14DCFF2384F8453001F046
:1080D00059F901F04DF994F8445004F110066DB2CD
:1080E000002D12DCFF2384F84430BDE8704001F01D
:1080F00049B9636A002BE7D0304600F01BFE08B197
:1081000000F084FE013D6DB2DCE72369002BE9D06D
:10811000304600F00FFE08B100F078FE013D6DB270
:10812000DEE7000038B504460D4601F021F9D4E938
:108130000F302268A2604343D1181B1A13446160B8
:10814000E3600021FF23A16384F8443084F84530C4
:108150009DB923696BB104F1100000F0EBFD40B153
:108160000A4B4FF080525A6040BFBFF34F8FBFF3AE
:108170006F8F01F007F9012038BD04F1100001F004
:10818000D1FC04F1240001F0CDFCF2E700ED00E0A9
:1081900010B51C4683B10123002908BF2246C4E95B
:1081A0000F0184F84630194622602046FFF7BAFFD7
:1081B0009DF8083084F84C30204610BDF8B50646CE
:1081C000484350300D46174601F0EEFC044660B1BE
:1081D000002380F8463055B92060C4E90F650121BD
:1081E0002046FFF79FFF84F84C702046F8BD00F151
:1081F00050030360F1E700002DE9FF470026DFF898
:10820000F490019204468A461F46B04601F0B0F849
:10821000A26BE36B9A4201D3022F1AD13A46514620
:108220002046FFF7FEFE636A1BB104F1240000F054
:1082300081FD40B12F4B4FF080525A6040BFBFF3D9
:108240004F8FBFF36F8F01F09DF8012004B0BDE8A0
:10825000F087019D1DB901F095F80020F6E716B9E9
:1082600002A800F09FFD01F08DF800F0B1FB01F0D5
:108270007FF894F84430FF2B08BF84F8448094F8CA
:108280004530FF2B08BF84F8458001F07BF801A939
:1082900002A800F093FD30BB01F06AF8A26BE36B1B
:1082A0009A420ED101F06EF8019904F1100000F02D
:1082B0001DFD2046FFF7FDFE00F016FC48B101262B
:1082C000A4E701F05FF82046FFF7F3FE00F00CFC96
:1082D000F5E74FF08053C9F8043040BFBFF34F8F2C
:1082E000BFF36F8FEBE72046FFF7E3FE00F0FCFBE8
:1082F000B3E700BF00ED00E010B502460021012009
:10830000FFF75CFF044638B10023C0E90033C360C7
:108310001A461946FFF770FF204610BDF8B505460E
:108320001746EFF31186402282F31188806BEA6BC7
:10833000904201D3022B1ED195F845401A4664B2F3
:108340002846FFF76EFE631C10D16B6A0BB9012043
:1083500009E005F1240000F0EDFC0028F7D0002F23
:10836000F5D00120386086F31188F8BD013464B27D
:1083700085F84540EBE70020F5E700002DE9F043E4
:1083800085B00026DFF8E49001920446884637461F
:1083900000F0EEFFA56BDDB141462046013DFFF741
:1083A00073FEA56323696BB104F1100000F0C2FCF9
:1083B00040B12E4B4FF080525A6040BFBFF34F8FF9
:1083C000BFF36F8F00F0DEFF012005B0BDE8F08342
:1083D000019D1DB900F0D6FF0020F6E716B902A8EE
:1083E00000F0E0FC00F0CEFF00F0F2FA00F0C0FF79
:1083F00094F84430FF2B08BF84F8447094F845305B
:10840000FF2B08BF84F8457000F0BCFF01A902A84B
:1084100000F0D4FCF8B92046FFF7F8FDA8B10199A7
:1084200004F1240000F062FC2046FFF742FE00F059
:108430005BFB40B94FF08053C9F8043040BFBFF335
:108440004F8FBFF36F8F0126A2E72046FFF731FE63
:1084500000F04AFBF7E72046FFF72BFE00F044FB55
:108460002046FFF7D3FD0028EDD0B5E700ED00E092
:108470002DE9F04385B00025DFF81C9101910446F9
:108480002F462E4600F074FFA36BEBB1013BA363B4
:10849000236813B900F08AFD606023696BB104F1B1
:1084A000100000F047FC40B13B4B4FF080525A6047
:1084B00040BFBFF34F8FBFF36F8F00F063FF012505
:1084C000284605B0BDE8F083DDF80480B8F1000F60
:1084D00003D100F057FF0025F2E717B902A800F01A
:1084E00061FC00F04FFF00F073FA00F041FF94F8D8
:1084F0004430FF2B08BF84F8446094F84530FF2BCC
:1085000008BF84F8456000F03DFF01A902A800F013
:1085100055FC48BB2046FFF779FDF8B123683BB90D
:1085200000F026FF606800F0A1FC054600F02AFF7D
:10853000019904F1240000F0D9FB2046FFF7B9FDB2
:1085400000F0D2FA40B94FF08053C9F8043040BF70
:10855000BFF34F8FBFF36F8F012793E72046FFF7DD
:10856000A8FD00F0C1FAF7E72046FFF7A2FD00F0F2
:10857000BBFA2046FFF74AFD0028EDD0002D9FD022
:1085800000F0F6FE616A19B1236B1968C1F10501AB
:10859000606800F0D7FC9CE700ED00E0054B1A682E
:1085A00012B19A682AB9012243F8321003EBC203D0
:1085B0005860704714430020084B5A6890420AD014
:1085C000DA68904206D10122002143F8321003EB11
:1085D000C203596070470022F6E700BF1443002031
:1085E00010B5FFF7E9FF90F846301BB9BDE8104021
:1085F00001F0E9BA10BD70B504460D46164600F00C
:10860000B7FE94F84430FF2B04BF002384F84430B5
:1086100094F84530FF2B04BF002384F8453000F068
:10862000B1FEA36B2BB93246294604F1240000F0B9
:108630006DFB2046BDE87040FFF73BBD2DE9F041E2
:10864000044600F095FE314B314D1A68314E01322F
:108650001A602A68002A4FD12C601B68012B25D193
:108660002D48DFF8EC802D4F01F05CFA2C4801F02A
:1086700059FA2C4801F056FA2B4801F053FA2B48CE
:1086800001F050FA404601F04DFA384601F04AFA3E
:10869000274801F047FA274801F044FA264801F03C
:1086A00041FA264BC3F80080254B1F60254A13680A
:1086B00001331360244AE3631168E36A8B4288BF85
:1086C0001360154A142000FB0320211D01F038FA25
:1086D00000F058FE33686BB12B68DA6AE36A9A429D
:1086E00008D21A4B4FF080525A6040BFBFF34F8FF1
:1086F000BFF36F8FBDE8F0813368002BD6D12B68B4
:10870000DA6AE36A9A4298BF2C60CFE7E83B002020
:10871000783B0020483C0020843B0020143C002093
:10872000983B0020AC3B0020C03B0020D43B002005
:10873000343C0020603C00204C3C00207C3B00206E
:10874000803B0020F83B0020FC3B002000ED00E0D7
:10875000003C0020094B0A4A1B681268D06A50B9D5
:10876000084A1268012A07D833B9074B1868074B23
:108770001B68C01A70470020704700BFFC3B0020F8
:10878000783B0020843B00202C3C0020743C0020DF
:10879000064A13681968064B19B94FF0FF321A6080
:1087A00070471268D268D2685268F8E77C3B0020B4
:1087B0002C3C00202DE9F047DDE9097496000D46B8
:1087C00032468046A521206B9946FDF7A7FD236B15
:1087D000043E1E4426F007066B1E04F134020735E2
:1087E00013F8011F02F8011B197809B1AB42F7D148
:1087F000089D042D28BF04254FF0000AE562C4E956
:10880000115A201D84F83BA001F097F9C5F1050528
:1088100004F1180001F091F9C4F84CA02461A5619D
:10882000646284F850A04A464146304600F068FD34
:10883000206007B13C60BDE8F08710B590F851307A
:1088400004463BB9006B01F0BEF92046BDE810407C
:1088500001F0B9B9012BF9D010BD0000F8B5164BE5
:10886000164E1C680546306804300F4601F08BF93F
:108870006B1C334607D137B1316811480431BDE86C
:10888000F84001F05DB91A686419546007D30D4AC5
:1088900010681968BDE8F840043101F05DB90A4A72
:1088A00010681968043101F057F9084B1A68A242A0
:1088B00088BF1C60F8BD00BF743C0020783B0020DE
:1088C0004C3C0020803B00207C3B00202C3C0020C6
:1088D00030B587B0DDE90B458DB194B12C6302242E
:1088E00085F8514005AC01940A9C02950094FFF76D
:1088F00061FF2846FFF7A2FE059807B030BD284665
:10890000FBE72046F9E72DE9F043074685B09000E4
:1089100088461646994601F047F90546E8B15420C5
:1089200001F042F90446A8B1002380F851300D9BB4
:10893000056301930C9B0290009332464B464146DF
:108940003846FFF737FF2046FFF778FE012005B0D5
:10895000BDE8F083284601F036F94FF0FF30F6E726
:1089600010B588B0002407AA06A905A8CDE90544DA
:1089700000F0EEFF059B0293069B079A0E490F48F5
:10898000CDE900432346FFF7A3FF0D4B186080B1EC
:1089900000F06AFB01280CD1402383F31188094BB6
:1089A0004FF0FF321A60084B1860084B1C6000F053
:1089B000B9FC08B010BD00BF0CDA0200ED8B02005C
:1089C000283C00202C3C0020483C0020743C002027
:1089D000024A136801331360704700BFF43B002064
:1089E000014B1868704700BF743C0020024A1368AE
:1089F00018441060704700BF743C00202DE9F84F08
:108A00002E4B1B68002B53D12D4B1D6801351D606B
:108A10005DB92C4A2C4B1168186810602B4A1960FC
:108A2000136801331360FFF7B3FE294F3B68AB4275
:108A30004FF0000607D9274B1B68002B0CBF3046B0
:108A40000120BDE8F88FDFF87C90DFF894A0DFF814
:108A500094B0D9F800301B681BB94FF0FF333B606E
:108A6000E9E7D9F80030DB68DC6863689D42F6D33B
:108A700004F10408404601F086F8A36A1BB104F132
:108A8000180001F080F8E36ADAF80020142093421D
:108A900000FB03B0414688BFCAF8003001F050F82F
:108AA0000D4BE26A1B68DB6A9A4228BF0126D0E7B9
:108AB0000A4A1368013313600026BCE7F43B002028
:108AC000743C00207C3B0020803B0020303C002098
:108AD0002C3C0020783C0020783B0020F03B00201C
:108AE000FC3B0020843B00202DE9F04100F040FCDD
:108AF000294B1A68013A1A601C682CB1002400F056
:108B000041FC2046BDE8F081244B1B68002BF5D0CA
:108B1000234D244EDFF8A0801DE0EB68DC68271DA4
:108B200004F1180001F02FF8384601F02CF8E36A40
:108B300032681420934200FB0380394688BF3360BB
:108B400000F0FEFF184BE26A1B68DB6A9A4202D310
:108B5000164B01221A602B68002BDED10CB1FFF7F7
:108B600017FE134D2C6844B1104E0127FFF746FF46
:108B700000B13760013CF9D12C600C4B1B68002B15
:108B8000BCD00C4B4FF080525A6040BFBFF34F8FA8
:108B9000BFF36F8F0124B2E7F43B0020E83B0020D5
:108BA000343C0020FC3B0020783B0020783C002037
:108BB000F03B002000ED00E0843B002008B548B900
:108BC000094B4FF080525A6040BFBFF34F8FBFF345
:108BD0006F8F08BDFFF7FCFE0021FFF73FFEFFF798
:108BE00083FF0028ECD0F4E700ED00E0F8B51B4C63
:108BF0001B4F1C4D2368EBB91B4B1B68012B08D97D
:108C00001A4B4FF080525A6040BFBFF34F8FBFF3F3
:108C10006F8F00F095FEFFF79DFD0128E9D9FFF762
:108C2000D7FEFFF797FD012801D900F00BFCFFF7F5
:108C30005BFFDEE700F09CFBFB68DE68301D00F0A8
:108C4000A2FF2B68013B2B602368013B236000F0EF
:108C500099FB3046FFF7F1FDCCE700BFEC3B00206D
:108C6000603C0020E83B0020843B002000ED00E059
:108C7000F8B5194B1A68194B12B101221A60F8BDE8
:108C8000174C1A602268236812681B6B9A4204D83A
:108C900020682168343100F051FE124E124B3268C8
:108CA0004FF0140C1F460CFB02F158185D5885B1AB
:108CB000456808316D6845600B449D4204BF6B6890
:108CC0004360142303FB02735B68DB68236032603C
:108CD000D5E7013AE7E700BFF43B0020783C0020ED
:108CE000783B0020FC3B0020843B002010B5064B65
:108CF0000C461968183100F02FFF20460121BDE80D
:108D00001040FFF7ABBD00BF783B002038B5084BE3
:108D10000D4619681446183100F012FF002C214648
:108D20000CBF28464FF0FF30BDE83840FFF796BD36
:108D3000783B002038B5C368DC6804F11805284684
:108D400000F021FF114B1B68EBB9251D284600F0F0
:108D50001AFF0F4AE36A11688B4288BF13600D4AFD
:108D60001420294600FB032000F0EAFE0A4BE26AC9
:108D70001B68DB6A9A4285BF084B012000201860FF
:108D8000FFF706FD38BD29460548EDE7F43B002016
:108D9000FC3B0020843B0020783B0020783C0020F6
:108DA000343C0020034B1B680360034B1B6843608B
:108DB000704700BF303C0020743C002070B50C466A
:108DC000054600F0D5FA0F4B1A682368591C0FD0DE
:108DD0000D482E6800686968864201D091420ED91C
:108DE000521A934209D99B1A23602846FFF7DAFFEB
:108DF000002400F0C7FA204670BD00232360012440
:108E0000F7E700BF743C0020303C0020014B0122FA
:108E10001A607047783C0020084B186860B9084B0E
:108E20001B6853B9074B1868074B1B68013B9842F6
:108E300014BF01200220704700207047343C0020FE
:108E4000783C00204C3C0020E83B0020054B1B6890
:108E500033B1054B1B68002B0CBF0220002070476C
:108E600001207047483C0020F43B0020F8B5044640
:108E700000282BD01B4AC36A1168C96A8B42164668
:108E800027D28269184D002AA1BF3268D26AC2F186
:108E900005028261142202FB035342699A4211D1F6
:108EA000071D384600F06FFE3368104ADB6A116810
:108EB000E3628B420BD81420394600FB035000F0CC
:108EC0003FFE02E03368DB6AC3620120F8BD136035
:108ED000F1E71368406CDC6AA0422CBF002001203F
:108EE000F4E700BF783B0020843B0020FC3B0020DF
:108EF00038B5044608B9002038BD836CC16A426C9D
:108F0000013B91428364F6D0002BF4D1051D284625
:108F100000F039FE636CE362C3F10502A261074A07
:108F200011688B4288BF1360054A142000FB0320A0
:108F3000294600F005FE0120DEE700BFFC3B0020D3
:108F4000843B002070B5044650B3436C994238BF4F
:108F50001946C36A8B4223D0826C012A20D18269D0
:108F6000104DC162002A4FF0140202FB0353426904
:108F7000A4BFC1F1050181619A4211D1061D30469D
:108F800000F001FE084AE36A116814208B4200FBDE
:108F900003503146BDE8704088BF136000F0D0BD7B
:108FA00070BD00BF843B0020FC3B0020044B1A68CE
:108FB0001AB119688A6C01328A641868704700BF58
:108FC000783B0020F7B5114C00F0D2F92568BDB907
:108FD0000F4F104E384600F0A5FD304600F0A2FDC0
:108FE0000D4B0E4A1F600E4B10211E602020009575
:108FF0000C4BFFF7CDF8206010B10B49FFF7CEFA0C
:1090000003B0BDE8F04000F0BDB900BF003F002054
:10901000843E0020983E00207C3C0020843C0020C0
:10902000803C0020B03E002011DA0200914208B5D9
:10903000416000610AD8D21A83699A420DD2084B66
:10904000011D186800F088FD002008BD9A4201D279
:10905000994202D2011D034BF3E70120F5E700BF5F
:10906000803C00207C3C002010B588B0FFF7AAFFB0
:109070000E4B18680024B8B107AA06A905A8CDE9C7
:10908000054400F071FC059B0293069B01930223AB
:109090000093079A064907482346FFF719FC064B39
:1090A0001860001B18BF012008B010BD003F002051
:1090B00016DA020069910200043F00207FB50F4CD0
:1090C0000546206816461A4680B10529CDE90016E6
:1090D00002950DDCFFF7BAFE0023022808BF089AAC
:1090E000206818BF1A466946FFF786F804B070BDBD
:1090F00000236946FFF712F9F8E700BF003F0020A0
:109100002DE9F341164D4FF000082B681A6832B96B
:10911000144A11682960136002B0BDE8F081DB6871
:10912000DC681E68271D384600F02DFD636A204666
:109130009847E369012BE8D1A36933449E4206D2E4
:10914000636024613946286800F006FDDDE70023EE
:10915000CDF80080324619462046FFF7AFFFD4E72E
:109160007C3C0020803C00202DE9F04F5D4D89B013
:10917000A9464FF0000A2A681368002B4ED0D26827
:10918000D2F800B0584C0393FFF722FCFFF728FCFD
:109190002268564E039B90428046274640D2FFF7F6
:1091A000AFFFC4F80080FFF79FFC4FF0010B0022D7
:1091B00004A93068FFF7E2F80028DCD0049B002BFC
:1091C00003DADDE90601059B9847049B002BEEDBE3
:1091D000069C636913B1201D00F0D5FCFFF700FC6D
:1091E0003B689842024603D20390FFF789FF039A37
:1091F000049B3A60092BDAD80BFA03F313F40478D2
:1092000068D113F0C70F4AD19B06D0D594F82C3003
:10921000002BCCD1204600F0D6FCC8E79B46B1E736
:1092200020600BB3834538D8FFF75EFCD9F80030D7
:10923000DB68DC68201D00F0A6FCE369012B0FD180
:10924000A1695B46424659442046FFF7EFFE38B11C
:109250000023CDF800A05A4619462046FFF72EFFFE
:10926000636A20469847A0E7214B1B681A68B2FA48
:1092700082F25209ABEB08013068FFF7BCF9FFF747
:1092800033FC002891D11B4B4FF080525A6040BFF5
:10929000BFF34F8FBFF36F8F87E70022EAE7A16923
:1092A000059B20461944FFF7C1FE00283FF47FAF1D
:1092B000636A20469847E369012B7FF478AFA2697F
:1092C0000599CDF800800A44434641462046FFF701
:1092D000F5FE6CE70599A161134611442046FFF79E
:1092E000A5FE64E77C3C0020AC3E0020003F00204F
:1092F000803C002000ED00E0402383F31188FEE76E
:109300004FF0807340E90213054B40F80C3C6FF0BE
:10931000020340F8202C40F8243C4438704700BF3A
:10932000F99202000F4C08B5E02384F8223000F0D7
:109330006DF80D4B00221A60D4F888300B4A43F4C4
:109340007003C4F88830536843F040435360236986
:1093500043F01003236100F0F9F8402383F31188F0
:10936000FEE700BF00ED00E0083F002030EF00E026
:10937000402383F31188024A136801331360704756
:10938000083F0020034A1368013B13600BB983F3C5
:1093900011887047083F002073B5194B00221A60EE
:1093A0001B680193019BEFF31186402383F311881F
:1093B000144BD3F80445C3F8002103F580731B68F0
:1093C0000093009BFFF70CFB241A24F07F44012C30
:1093D00004D9FFF73BFD022818BF0124002514F132
:1093E000FF3409D225B1084B4FF080525A6040BF7C
:1093F00086F3118802B070BDFFF700FB0543EEE76E
:10940000401101400010014000ED00E00A4B0B4903
:109410001F22C3F808250122C3F804230A601A603A
:109420000222C3F84423064BE02283F811234FF4B1
:1094300000321A60704700BF001001400810014060
:1094400000E100E0F0B5054685B0EFF3108072B69C
:10945000374CA36883B90123A360364B3649D3F850
:1094600080200A402260C3F88010D3F88420626014
:109470004FF0FF32C3F8842000B962B62F4FD7F8FF
:109480000465FFF7C9FC3B46002841D02C49A9429E
:1094900028BF2946721822F07F420120C7F808032E
:1094A000C7F84025274A00201060106801900198F5
:1094B0004FF48030C7F80403BFF34F8F3DB11D4810
:1094C00020BFD0F80071D0F804513D43F8D04FF4DC
:1094D0008030C3F808030020106012680392039ADA
:1094E000194A106012680292029A0122C3F80423FA
:1094F000D3F804359B1B23F07F4088420D4B4FF47B
:10950000003228BF0846C3F8802108B1FFF76EFA81
:10951000A3685BB1EFF3108372B6064A216811604D
:10952000616851600022A26003B962B605B0F0BD67
:109530002443002000E100E0FC06FFBD00100140D4
:10954000FDFFFF0040110140001101400748006885
:1095500080F3088862B661B6BFF34F8FBFF36F8F99
:109560004FF0E00080F3118800DF00BF00600200D0
:10957000064B19680868B0E8F04F80F30988BFF31C
:109580006F8F4FF0000080F311887047783B002008
:10959000EFF30980BFF36F8F144B1A681EF0100FA2
:1095A00008BF20ED108A20E9F04F10604DF8043D0F
:1095B0004FF0400080F31188BFF34F8FBFF36F8FE0
:1095C000FFF756FB4FF0000080F3118808BC1968C4
:1095D0000868B0E8F04F1EF0100F08BFB0EC108A1A
:1095E00080F30988BFF36F8F704700BF783B00207E
:1095F0000A490B4A0B4B9B1A03DD043BC858D05059
:10960000FBDC094809494FF0AD32026004300439EF
:10961000FBD100F0A3F8FCF713FE000034DD0200DC
:1096200000340020C839002000F8002000080000A5
:10963000FEE7FEE7FEE7FEE7FEE7FEE7FEE7FEE702
:10964000FEE7FEE708B5FCF7D9FF054C054DFCF732
:10965000FBFF002CFBD0002DF9D0FEF76FFCF6E7E6
:10966000000000003D7F02007047000007B500F0D9
:10967000F5F9FFF7F9FF104B104C13B1AFF3008071
:1096800020600F4B0193012322880E4900930E485E
:109690000023FFF738F900F0C5F9FFF761F9BFF3D0
:1096A0004F8F0A490A4BCA6802F4E0621343CB6049
:1096B000BFF34F8F00BFFDE70000000034380020EB
:1096C0000C3F00201EDA02004596020000ED00E08B
:1096D0000400FA05034890F862300BB1FEF787BA30
:1096E00018467047103B00200C4B1B78062B10D1FE
:1096F0000B4B1B681A070CD10A4B186800F0F003DB
:10970000302B08D000F0E000A0F14003584258414F
:109710007047002070470120704700BFE00F00F045
:10972000E40F00F0E80F00F0094B1B78062B0CD17A
:10973000084B1B681A0708D1074B186800F0F000A7
:10974000A0F130035842584170470020704700BFD5
:10975000E00F00F0E40F00F0E80F00F008B5FFF7AD
:10976000C3FF28B1604B614A1B68C3F30423136035
:10977000FFF7DAFF10B15E4B5E4A1A60FFF7B4FFE5
:1097800028B15D4B5D4A1B68C3F342331360FFF79A
:10979000CBFF20B15A4AD36823F08073D360FFF720
:1097A000A3FF40B14FF080430022C3F80C21C3F85F
:1097B0001021C3F83825FFF7B7FF10B1514B032232
:1097C0001A60FFF7B1FF40B14F4B05221A6001222A
:1097D0009A6700229A603F225A604C4B1B78062BF6
:1097E00050D14B4B1B6819074CD14A4B1B6803F0F7
:1097F000F003502B46D14FF08052474BD2F804145F
:10980000C3F82015D2F80814C3F82415D2F80C14A4
:10981000C3F82815D2F81014C3F82C15D2F8141474
:10982000C3F83015D2F81814C3F83415D2F81C1444
:10983000C3F84015D2F82014C3F84415D2F8241404
:10984000C3F84815D2F82814C3F84C15D2F82C14D4
:10985000C3F85015D2F83014C3F85415D2F83414A4
:10986000C3F86015D2F83814C3F86415D2F83C1464
:10987000C3F86815D2F84014C3F86C15D2F8442424
:10988000C3F87025FFF730FF28B1244B244A1B682A
:1098900003F04F031360FFF727FF48B14FF08043F9
:1098A000D3F80024D20744BF6FF00102C3F80024AC
:1098B0001C4B1B68062B08D11B4B1B68062B01BFDA
:1098C0001A4A136843F480631360194AD2F8883047
:1098D00043F47003C2F88830BFF34F8FBFF36F8F2C
:1098E000144B154A1A6008BD24030010403501408E
:1098F00074C007400DF0ADBA440200103C050040B2
:10990000F0ED00E0A005004010560040E00F00F030
:10991000E40F00F0E80F00F000C000405802001013
:10992000E40E004030010010340100103C170040EC
:1099300000ED00E0383800200090D00370477047F9
:1099400008B5024B0BB1AFF3008008BD000000006A
:10995000034B0360034B0B6064231360704700BF2D
:10996000143F0020683F0020034B0360034B0B6053
:1099700064231360704700BFF84000204C41002072
:10998000014B01221A707047103F002010B50446A9
:10999000FFF75CFA0128204603D1BDE8104000F033
:1099A0006BB9BDE8104000F00EB9000030B51C4D99
:1099B00085B04FF0FF3203A92868FEF7DFFC0028CE
:1099C000F7D00398037A4468052B05D8DFE803F045
:1099D000030D1014191FA047039B186808B1FFF767
:1099E000D5FF0398FFF7D2FFE3E7C068A047F3E78E
:1099F000D0E90301A047EFE7D0E90412C068A0470F
:109A0000EAE7D0E90523D0E90301A047E4E7C36909
:109A10000093D0E90523D0E90301A047DCE700BFAC
:109A2000DC4200201FB5002204211420FEF7C6FBF3
:109A3000074B0849186003AB0193022300934FF4CE
:109A4000806200230448FEF75EFF05B05DF804FB6A
:109A5000DC42002023DA0200AD990200114BD3F85A
:109A60004025114B1A604FF080430122C3F818259E
:109A70009A600E4B4FF40031C3F8801003F1C043DD
:109A800003F53C534FF48031C3F84813C3F808136F
:109A90005A609A604FF0A0434FF0FF32C3F8082598
:109AA000704700BF00A00040E042002000E100E05D
:109AB0001E280FD8114B53F8203003290AD8DFE8AD
:109AC00001F002160A1003F5E0734FF0A0420021E6
:109AD00042F82310704703F5E0734FF0A0420C21C9
:109AE000F6E703F5E0734FF0A0420421F0E703F539
:109AF000E0734FF0A0420321EAE700BF58D902000B
:109B00001E280CD8064B53F82020012393404FF019
:109B1000A04211B9C2F80C357047C2F80835704739
:109B200058D9020000F108034FF0FF324360C0E94A
:109B30000223036100230360704700230361704721
:109B400043684B609A688A609A68516099600368BC
:109B500008610133036070470A68531C30B50AD1AD
:109B600003695A684A6091608B60596003680861B4
:109B70000133036030BD00F108035C68256895423D
:109B8000EFD82346F9E7D0E9011203698A608268B9
:109B900051605968814208BF5A60002202611A6808
:109BA000013A1A601868704710B50446FEF710FFB6
:109BB000204600F059F80446FEF796FF0CB9FFF76F
:109BC000BEFE204610BD10B5044640B1FEF700FFB2
:109BD000204600F051F8BDE81040FEF785BF10BDEB
:109BE0000B460146184600F01FB800001FB51C4682
:109BF000094B1B680546D86852B1084B0091CDE966
:109C0000013207492B46224600F01CF800F062FFA3
:109C1000044B1A46F2E700BF043400202CDA02009D
:109C200039DA0200DAD9020010B5054C13462CB11E
:109C30000A4601460220FCF75DFC10BD2046FCE709
:109C4000F56402000EB403B5014603AB054853F8B2
:109C5000042B0068019300F0F5F802B05DF804EB06
:109C600003B0704704340020024B0146186800F02E
:109C700065B800BF04340020024B0146186800F0AC
:109C80000FB800BF0434002010B5431E0A449142AF
:109C900000D110BD11F8014B03F8014FF7E70000A8
:109CA00038B50546002945D051F8043C0C1F002B5F
:109CB000B8BFE41801F09CFF1F4A1368104633B97F
:109CC000636014602846BDE8384001F092BFA342AB
:109CD0000CD921686218934204BF1A685B686360FC
:109CE00004BF521822600460ECE713465A680AB1B8
:109CF000A242FAD919685818A0420BD12068014431
:109D0000581882421960DDD1106852685A600144C7
:109D10001960D7E702D90C232B60D3E720682118FC
:109D20008A4204BF11685268626004BF091821604A
:109D30005C60C7E738BD00BFE442002070B5CD1CB1
:109D400025F0030508350C2D38BF0C25002D0646DF
:109D500001DBA94203D90C233360002070BD01F060
:109D600047FF214A1468214691B9204C23681BB94A
:109D7000304600F0D7FD20602946304600F0D2FD85
:109D8000431C24D10C233360304601F032FFE4E75A
:109D90000B685B1B18D40B2B0FD90B60CD50CC1864
:109DA000304601F026FF04F10B00231D20F00700D0
:109DB000C31AD3D05A42E250D0E78C424B6816BF48
:109DC000636013600C46EBE70C464968CCE7C41CA3
:109DD00024F00304A04205D0211A304600F0A2FD71
:109DE0000130CFD02560DBE7E4420020E8420020CC
:109DF0009368013B002B10B4936008DA9469A34286
:109E000001DB0A2903D15DF8044B00F0A3BD136800
:109E1000581C1060197008465DF8044B7047F8B57F
:109E200006460F461446D518AC4201D1002007E083
:109E30003A4614F8011B3046FFF7DAFF431CF3D112
:109E4000F8BD00002DE9F04F9DB00C461746039376
:109E5000064618B183690BB901F07AFD7B4B9C4231
:109E600057D17468A38918075DD52369002B5AD090
:109E70000023099320238DF8293030238DF82A30D0
:109E80004FF0010BB846454615F8013B0BB1252BA9
:109E900054D1B8EB070A0BD053463A462146304618
:109EA000FFF7BDFF013000F0C280099B53440993C6
:109EB00098F80030002B00F0BA8000234FF0FF32FA
:109EC000CDE90523049307938DF853301A93A846E0
:109ED000052218F8011B5E4801F03AFE049B78BB8E
:109EE000D90644BF20228DF853201A0744BF2B22E5
:109EF0008DF853202A782A2A2AD0079AA8460020CB
:109F00000A25414611F8013B303B092B69D960B362
:109F100024E0504B9C4201D1B468A3E74E4B9C42D5
:109F200008BFF4689EE72146304600F065FD002832
:109F30009ED04FF0FF301DB0BDE8F08FA846A2E7DD
:109F4000434A801A0BFA00F0184304904546BEE7D6
:109F5000039A111D12680391002A01DB079204E0A5
:109F6000524243F002030792049398F800302E2BDC
:109F70000ED198F801302A2B38D1039B1A1D1B688B
:109F80000392002BB8BF4FF0FF3308F1020805938E
:109F9000324D98F800100322284601F0D9FD40B157
:109FA0004023401B03FA00F0049B034308F101081F
:109FB000049398F800102A488DF82810062208F11A
:109FC000010701F0C5FD002837D0264B1BBB039BC2
:109FD000073323F0070308330393099B4B4409938A
:109FE00050E705FB0232012088468AE7002308F18A
:109FF0000108059319460A25404610F8012B303A0E
:10A00000092A03D9002BC3D00591C1E705FB012123
:10A0100001238046F0E703AB00932246124B04A9CC
:10A02000304600F0B7F8B0F1FF3F8146D5D1A389A3
:10A030005B063FF57EAF09987DE703AB00932246B0
:10A04000094B04A9304600F05BFBECE7DCDA0200C8
:10A0500068DA0200FCDA0200BCDA02006EDA020002
:10A0600072DA020095A102001F9E02002DE9FF474F
:10A0700055EC104B0D9FDDF830A0002D0E4691469B
:10A080001946B8BF22462B4627F02007BBBF05F173
:10A0900000431D4600232D23B8BF1446462F0B70E6
:10A0A00004D0452F00D10136022100E0032103AB8B
:10A0B000019302AB00933246534645EC104B00F03F
:10A0C0009FFD472F804602D119F0010F26D0462F61
:10A0D00008EB060911D198F80030302B0AD1002284
:10A0E00000232046294602F0A3FD18B9C6F1010657
:10A0F000CAF80060DAF800309944002200232046B4
:10A10000294602F095FD38B93022039B4B4505D214
:10A11000591C03911A70F8E7CDF80C90039B0E9A26
:10A12000A3EB08034046136004B0BDE8F087F7B521
:10A1300000290446BABF49422D232B23092904F8DC
:10A14000022B437020DD0DF107031F460A2691FB09
:10A15000F6F506FB15113031092D03F8011C03F14A
:10A16000FF32294609DC3031023B02F8011CBB42B8
:10A17000224604D3101A03B0F0BD1346E7E713F8E4
:10A18000012B04F8012BF2E7302319448370021DE0
:10A19000C170EFE72DE9F04F8DB00C46DDF8588027
:10A1A00016461F46054601F05DFC036804931846F9
:10A1B00000F0C8FB00230A93D8F80030059007335D
:10A1C00023F0070303F1080294F818A0D4F800B0B4
:10A1D000C8F80020D3E90023C4E91223D4E9128986
:10A1E00029F000430793CDF818804FF0FF32A74BBA
:10A1F000DDE9060102F04EFD70BB4FF0FF32A34BCC
:10A20000DDE9060102F028FD30BB002200234046B4
:10A21000494602F017FD10B12D2384F843309C4AC3
:10A220009C4BBAF1470F8CBF9046984603232BF006
:10A230000402236122604FF00009009733460BAA05
:10A240002146284600F0E6F9013040F08D804FF0BD
:10A25000FF300DB0BDE8F08F42464B4640464946C0
:10A2600002F018FD10B18C4A8C4BDAE761684B1C88
:10A270004BF480620AA83ED1062363600023CDE937
:10A28000020309AB009349EC108B0DF1230322600C
:10A29000CDF804A061682846FFF7E8FE0AF0DF0366
:10A2A000472B804609D1099BD81C02DB6268934288
:10A2B00047DDAAF1020A5FFA8AFABAF1650F099935
:10A2C00024D80139524604F150000991FFF72FFFBD
:10A2D0000A9A1318012A8146236102DC2268D107F9
:10A2E00001D5013323619DF82330002BA5D02D2308
:10A2F00084F84330A1E7BAF1670F00F07781BAF133
:10A30000470FBBD10029B9D10123B6E7BAF1660FD7
:10A3100019D1002963680CDD216113B92268D207C5
:10A3200002D501330B442361099BA3654FF000095B
:10A33000D9E713B92268D00701D50233F3E7012327
:10A34000F1E74FF0670ADDE90932934205DB226845
:10A350002361D107E8D50133E5E7002BD4BFC3F172
:10A36000020301231344DEE723685A0507D4236957
:10A37000424631462846B84701302BD167E7BAF14B
:10A38000650F40F2DC8000220023D4E9120102F0C4
:10A390004FFC002833D00123414A31462846B847B4
:10A3A00001303FF454AFDDE909239A4202DB236810
:10A3B000D8070FD5DDE9042331462846B8470130D8
:10A3C0003FF445AF4FF0000804F11A090A9B013B26
:10A3D000434509DC23689B0700F10381E0680B9B80
:10A3E0009842B8BF184634E701234A46314628460A
:10A3F000B84701303FF42BAF08F10108E6E7099BAD
:10A40000002B2BDC0123264A31462846B847013071
:10A410003FF41DAF099B23B90A9B13B92368D907E1
:10A42000D8D5DDE9042331462846B84701303FF44A
:10A430000EAF4FF0000904F11A0A099B5B424B452D
:10A4400001DC0A9B94E70123524631462846B8476F
:10A4500001303FF4FCAE09F10109EEE70A9AA36D61
:10A460009A42A8BF1A46002A914607DD1346314694
:10A4700042462846B84701303FF4E9AE04F11A03DA
:10A480004FF0000B29EAE979069315E0FFFFEF7F13
:10A490007DDA020079DA020085DA020081DA020050
:10A4A00089DA02000123069A31462846B84701306E
:10A4B0003FF4CDAE0BF1010BD4F858A0AAEB090381
:10A4C0005B45EFDCDDE909239A42D04415DB2368C4
:10A4D000DA0712D40A9B0999A3EB0A02A3EB010A3B
:10A4E0009245A8BF9246BAF1000F0EDC4FF000086B
:10A4F0002AEAEA7A04F11A0919E0DDE9042331466F
:10A500002846B8470130E5D1A1E6534642463146D8
:10A510002846B8470130E9D199E601234A46314639
:10A520002846B84701303FF492AE08F10108DDE952
:10A5300009239B1AA3EB0A034345EEDC4AE70A9A78
:10A54000012A01DCDB073AD5012342463146284681
:10A55000B84701303FF47BAEDDE90423314628469D
:10A56000B847013008F101083FF471AE0A9B0022A0
:10A5700003F1FF3AD4E91201002302F059FBC8B9F4
:10A580005346424631462846B84701300ED15EE672
:10A590000123524631462846B84701303FF457AEB2
:10A5A00008F101080A9B013B4345F1DC4B4604F1ED
:10A5B0005002DEE64FF0000804F11A0AF2E7012328
:10A5C000DFE701234A4631462846B84701303FF4C9
:10A5D0003EAE08F10108E3680B9A9B1A4345F0DC94
:10A5E000FCE64FF0000804F11909F4E700293FF4F4
:10A5F0008BAE0023CDE9020309AB009349EC108B2D
:10A600002260CDF804A00DF123032846FFF72EFDAC
:10A61000804648E62DE9F04791461F468A680B6957
:10A62000DDF820809342B8BF1346C9F8003091F896
:10A63000432006460C4612B10133C9F800302368A6
:10A64000990642BFD9F800300233C9F800302568B6
:10A6500015F0060507D104F1190AE368D9F80020BE
:10A660009B1AAB4228DC94F843302268003318BFB1
:10A67000012392062DD404F1430239463046C047E7
:10A68000013020D02368E568D9F8002003F00603E4
:10A69000042B08BFAD1AA36822690CBF25EAE57533
:10A6A00000259342C4BF9B1AED184FF000091A34DD
:10A6B0004D451AD1002008E0012352463946304664
:10A6C000C047013003D14FF0FF30BDE8F0870135BE
:10A6D000C3E7E1185A1C302081F84300224494F863
:10A6E000451082F843100233C5E70123224639465C
:10A6F0003046C0470130E6D009F10109D8E7000033
:10A700002DE9F04301F1430C0C46097E85B06E291A
:10A710001746064698460C9A00F0B38022D8632963
:10A7200036D00AD8002900F0B980582900F083807B
:10A7300004F1420584F8421032E0642901D069290D
:10A74000F6D120681368050603F104012AD51B68B9
:10A750001160002B03DA2D225B4284F843206F48FE
:10A760000A2239E0732900F09D8008D86F2920D093
:10A770007029DDD1236843F02003236003E07529AD
:10A7800017D07829D4D1782384F84530644855E02F
:10A790001368191D1B68116004F1420584F84230EA
:10A7A00001238CE01B68116010F0400F18BF1BB232
:10A7B000CFE713682568181D1060280601D51B68AF
:10A7C00002E06806FBD51B8854486F2914BF0A2293
:10A7D0000822002184F843106568A560002DC0F2AE
:10A7E0009580216821F004012160002B3DD1002DCE
:10A7F00040F08E806546082A0BD12368DB0708D518
:10A80000236962689A42DEBF302305F8013C05F1F6
:10A81000FF35ACEB05032361CDF800803B4603AA6E
:10A8200021463046FFF7F6FE01304DD14FF0FF30A4
:10A8300005B0BDE8F083394884F8451013682168F5
:10A840001D1D1B6815600A060BD5CA0744BF41F0E1
:10A85000200121601BB9226822F020022260102210
:10A86000B7E74D0648BF9BB2EFE76546B3FBF2F191
:10A8700002FB1133C35C05F8013D0B460029F5D1FD
:10A88000B9E7136825686169181D106028061B6800
:10A8900001D5196002E06A06FBD519800023236107
:10A8A0006546B9E71368191D11601D6862680021CB
:10A8B000284601F04DF908B1401B606063682361D0
:10A8C000002384F84330A7E723692A4639463046F7
:10A8D000C0470130AAD023689B0713D4E068039BCC
:10A8E0009842B8BF1846A3E701234A463946304686
:10A8F000C04701309AD00135E368039A9B1AAB42F6
:10A90000F2DCEBE7002504F11909F5E7002BACD1E7
:10A91000037884F8423004F142056CE78BDA0200D8
:10A920009CDA020038B5064C002305460846236031
:10A9300002F026FA431C02D1236803B12B6038BD14
:10A9400030430020034613F8012B002AFBD1181ACC
:10A9500001387047F8B50E461446054618B18369AC
:10A960000BB900F0F5FF214B9C422AD16C68A3691A
:10A97000A360A3891A072ED5236963B323692068CE
:10A98000C01A6369F6B28342374604DC2146284682
:10A9900000F074FF28BBA368013BA36023685A1C26
:10A9A00022601E7063690130834204D0A389DB07F3
:10A9B00019D50A2E17D12146284600F05FFF90B125
:10A9C0000FE00B4B9C4201D1AC68D0E7094B9C4295
:10A9D00008BFEC68CBE72146284600F00DF80028B8
:10A9E000CCD04FF0FF373846F8BD00BFDCDA0200AC
:10A9F000FCDA0200BCDA0200324B70B51D68064674
:10AA00000C4625B1AB6913B9284600F0A1FF2E4BC7
:10AA10009C420FD16C68B4F90C309AB215072CD453
:10AA2000D00611D40922326043F04003A3814FF0D5
:10AA3000FF303EE0254B9C4201D1AC68EBE7244B54
:10AA40009C4208BFEC68E6E7510712D5616B41B143
:10AA500004F14403994202D03046FFF721F9002364
:10AA60006363A38923F02403A38100236360236924
:10AA70002360A38943F00803A38123694BB9A38909
:10AA800003F42073B3F5007F03D02146304601F074
:10AA90001BF8A28912F001030CD00023A3606369A4
:10AAA0005B42A361236953B9B4F90C3013F0800001
:10AAB000BAD170BD920758BF6369A360F2E7002066
:10AAC000F7E700BF04340020DCDA0200FCDA020001
:10AAD000BCDA020008B5062001F09EFB0120FBF75E
:10AAE00069FD2DE9F74F03690C69A3428046C0F266
:10AAF0008280013C01F114074FEA840C00F1140636
:10AB000057F8245056F8240006EB0C03013507EBE8
:10AB10000C090193B0FBF5F595B34FF0000A3846E8
:10AB2000B646D34650F8042B93B205FB03A34FEA75
:10AB3000134A9BB2ABEB0303120CDEF800B005FB2B
:10AB400002A213FA8BF34FEA124A1FFA82FBDEF8D5
:10AB50000020CBEB124202EB23429BB243EA0243BA
:10AB600081454FEA224B4EF8043BDBD256F80C30BD
:10AB700033B9019B043B9E421A4630D3C8F81040BB
:10AB8000404601F04DFA002825DB013530464FF0F4
:10AB9000000C57F8042BD0F800E093B2ACEB0303A1
:10ABA000120C13FA8EF3C2EB1E4202EB23429BB24D
:10ABB00043EA0243B9454FEA224C40F8043BE8D24D
:10ABC00056F8242006EB84032AB9043B9E421A4619
:10ABD0000BD3C8F81040284603B0BDE8F08F1268C8
:10ABE000043B002ACAD1013CC5E71268043B002A95
:10ABF000EFD1013CEAE70020EEE700000000000092
:10AC00002DE9F04F57EC106B97B0456A069104465A
:10AC10000B921293DDF88080CDE900673DB91020DA
:10AC2000FFF722F86062C0E901550560C560636AFC
:10AC3000196851B15A684A60012393408B602046DD
:10AC400001F00CF8636A00221A603B1EBBBF23F0C0
:10AC50000043019300230122ACBFC8F80030C8F8BC
:10AC60000020AF4BDDF8048033EA080314D1129AB8
:10AC700042F20F731360009B23B9C8F3130000283E
:10AC800000F04285219BDFF8ACB2002B00F0448538
:10AC90000BF1030300F03EBDDDE900670022002355
:10ACA0003046394601F0C4FF814668B1129A01234B
:10ACB0001360219B002B00F024859A4B219A03F10D
:10ACC000FF3B136000F028BD14AA15A947EC106BD8
:10ACD000204601F01CFAC8F30A550490002D7CD0E0
:10ACE000C7F3130343F07F5BB2464BF4401BA5F25E
:10ACF000FF35CDF84C9000228B4B5046594601F061
:10AD000077FB81A3D3E9002301F02AFD80A3D3E9D7
:10AD1000002301F06FFB064628460F4601F0B6FC03
:10AD20007DA3D3E9002301F01BFD02460B4630460C
:10AD3000394601F05FFB06460F4601F0C1FF0022D5
:10AD4000824600233046394601F07CFF48B1504628
:10AD500001F09CFC32463B4601F06AFF08B90AF15B
:10AD6000FF3ABAF1160F59D8704901EBCA01DDE973
:10AD70000023D1E9000101F083FF002850D00AF13F
:10AD8000FF3A00230F93149B5D1BB5F1010849BFE7
:10AD9000C5F10103002305934FF0000858BF059348
:10ADA000BAF1000F3EDB0023D044CDF838A0079362
:10ADB000069B092B00F29080052BC4BF043B069331
:10ADC000069BA3F10203CCBF00250125032B00F253
:10ADD0008F80DFE803F07D7F3171DDE914531D447E
:10ADE00005F23240202813DDC0F14000009B08FA34
:10ADF00000F805F2124023FA00F048EA000001F0E2
:10AE000035FC01238246A1F1F87B013D139372E7E3
:10AE1000009BC0F1200003FA00F0F0E70123B1E746
:10AE20000F90B0E7059BA3EB0A030593CAF100035B
:10AE3000079300230E93BBE701230A930B9B002B80
:10AE400059DD02939946666A00227260042202F17B
:10AE500014009842716853D9204600F0CBFE636A13
:10AE60003060B9F10E0FD3F800B000F2E680002D8B
:10AE700000F0E3809DED007BBAF1000F8DED107BBB
:10AE800074DD2A4A0AF00F0302EBC30393ED007B43
:10AE90004FEA2A16F0068DED087B65D5244BDDE9D7
:10AEA0001001D3E9082301F085FDCDE9000106F08A
:10AEB0000F0603251E4F4CE001230A930B9B5344BE
:10AEC00003F1010902934B46012BB8BF0123BAE7F6
:10AED0000023B2E70023F0E70125002306930A953B
:10AEE0004FF0FF3302939946002212230B92AAE7F8
:10AEF00001230A93F4E70123029399461A46F5E7E2
:10AF0000013171605200A2E761436F63A787D23FAE
:10AF1000B3C8608B288AC63FFB799F501344D33F48
:10AF20000000F07F8ADA02000000F83F48DB0200F0
:10AF300020DB0200B6DA0200F10708D5DDE90801DE
:10AF4000D7E9002301F00CFCCDE9080101357610AA
:10AF50000837002EF0D1DDE90823DDE9000101F01A
:10AF600029FDCDE900011AE00225A3E700F0A08049
:10AF7000CAF100069F4BA04F06F00F0203EBC2037D
:10AF8000D3E90023DDE9100101F0EAFBCDE900017E
:10AF9000361100230225002E7FD1002BE1D10F9B1B
:10AFA000002B00F08780DDE900670022934B3046DC
:10AFB000394601F047FE00287CD0B9F1000F79D066
:10AFC000029B002B35DD0AF1FF330893394600223E
:10AFD0008B4B304601F0C4FBCDE90001029F0135E7
:10AFE000284601F053FBDDE9002301F0B9FB002204
:10AFF000844B01F0FFF90546A1F15076002F5DD199
:10B000000022814BDDE9000101F0F2F92A463346C6
:10B01000CDE9000101F034FE002840F088822A4684
:10B0200006F10043DDE9000101F00CFE002840F0CC
:10B030007C82DDE91023CDE90023159B002BC0F2B3
:10B040005081BAF10E0F00F34C816A4B03EBCA0337
:10B0500093ED007B0B9B002B8DED027B80F2D88063
:10B06000B9F1000F00F3D48040F05E820022664BFD
:10B0700051EC170B01F074FBDDE9002301F0F6FD44
:10B080004F464E46002840F0348231230BF1010533
:10B090008BF800300AF1010A2FE2F20705D5D7E953
:10B0A000002301F05DFB013501237610083772E7BC
:10B0B000022574E7CDF820A04F4691E74D4B03EBF6
:10B0C000C70353E902010A9B002B47D002460B46F7
:10B0D00000204E4901F06EFC2A46334601F088F903
:10B0E000CDE90C015D46DDE9000101F0E9FD064610
:10B0F00001F0CCFA02460B46DDE9000101F078F9D7
:10B10000303605F8016BDDE90C23CDE9000101F0D3
:10B1100099FD002863D1DDE900230020374901F0C3
:10B1200067F9DDE90C2301F08DFD002840F0B780C0
:10B13000A5EB0B039F427FF77CAF0022304BDDE98C
:10B140000C0101F00DFB0022CDE90C012C4BDDE9D7
:10B15000000101F005FBCDE90001C4E72A463346B2
:10B1600001F0FEFACDE90C010BEB07055E46DDE9C7
:10B17000000101F0A5FD074601F088FA30370246CC
:10B180000B46DDE9000101F033F906F8017BAE4220
:10B19000CDE900014FF0000226D11C4BDDE90C0186
:10B1A00001F028F902460B46DDE9000101F068FDD7
:10B1B000002874D1DDE90C230020144901F018F9AE
:10B1C00002460B46DDE9000101F03CFD00283FF49A
:10B1D00030AF15F8013C302B05F1FF3202D0DDF81D
:10B1E00020A04AE01546F4E7054B01F0B9FACDE995
:10B1F0000001BCE748DB020020DB02000000F03F5A
:10B200000000244000001C40000014400000E03F0B
:10B21000DDE900675D46DDE902233046394601F08D
:10B22000C9FB01F04DFD804601F030FADDE9022353
:10B2300001F096FA02460B463046394608F13006D0
:10B2400001F0D6F805F8016BA5EB0B06B1450246F7
:10B250000B4639D101F0CEF8DDE9022306460F4650
:10B2600001F00EFDC8B9DDE902233046394601F090
:10B27000DFFC10B118F0010F0FD10499204600F047
:10B28000EDFC0023129A2B700AF101031360219B3D
:10B29000002B00F041821D603EE2CDF820A015F8A1
:10B2A000012C392A05F1FF3308D19B450AD1089BAF
:10B2B0000133089330238BF800305B461A78013253
:10B2C0001A708CE71D46EAE700229B4B01F048FA12
:10B2D0000022002306460F4601F0AAFC00289AD05F
:10B2E000CBE70A9A002A00F08B80069A012A6EDCCE
:10B2F000139A002A67D003F23343079F059D059AEE
:10B3000001211A4420460592984400F047FD064664
:10B31000002D0CDDB8F1000F09DD4545059A2B46DF
:10B32000A8BF4346D21A0592ED1AA8EB0308079B63
:10B33000EBB10A9B002B67D08FB131463A462046CD
:10B3400000F0CCFD049A01460646204600F02FFD91
:10B3500004990890204600F081FC089B0493079B09
:10B36000DA1B04D00499204600F0B8FD04900121B6
:10B37000204600F013FD0E9B0746002B00F0D08105
:10B380001A460146204600F0A9FD069B012B074600
:10B3900040DC009B002B39D1019BC3F31303002B2E
:10B3A00036D1019B23F000431B0D1B052BB1059BE0
:10B3B0000133059308F10108012307930E9B002B2D
:10B3C0002AD1012030E0149BC3F1360395E7079B97
:10B3D00009F1FF37BB42BFBF079B0797FA1A0E9BC5
:10B3E000BBBF9B180E93DF1B0027B9F1000FB5BF41
:10B3F000059B059DA3EB09054B46B8BF00237EE7DF
:10B40000079F059D0A9E83E7079AABE70023D4E7D1
:10B41000009BD2E7002307933B6907EB830318697E
:10B4200000F06EFCC0F12000404410F01F0047D037
:10B43000C0F12003042B3BDD059BC0F11C0003443D
:10B44000059305448044059B002B05DD1A460499AD
:10B45000204600F091FD0490B8F1000F05DD39465B
:10B460004246204600F088FD07460F9B53B33946FD
:10B47000049800F0D5FD002824DA00230A2204995C
:10B48000204600F002FC0A9B04900AF1FF3A002BD0
:10B4900000F04D81002331460A22204600F0F5FBE2
:10B4A000029B002B06464FDC069B022B4CDD11E075
:10B4B000C9D0059A1C331A4405921D449844C2E72A
:10B4C0000346F6E7B9F1000F38DC069B022B35DDA9
:10B4D000CDF80890029B63B939460522204600F05A
:10B4E000D4FB01460746049800F09AFD00283FF778
:10B4F000CCAD0B9B5D466FEA030A4FF0000939465D
:10B50000204600F0ABFB002E3FF4B7AEB9F1000FC0
:10B5100005D0B14503D04946204600F09FFB314697
:10B52000204600F09BFBA8E600273E46E1E7DDF859
:10B5300020A03E46A9E500BF000024400A9BCDF8AC
:10B540000890002B00F0FA80002D05DD31462A46D8
:10B55000204600F011FD0646079B002B4CD0716879
:10B56000204600F047FB326902320546920006F1A0
:10B570000C010C30FEF788FB01222946204600F022
:10B58000FBFC009BCDF814B003F00103B146079318
:10B59000064639460498FFF7A4FA4946054600F1E5
:10B5A0003008049800F03CFD3246009039462046B1
:10B5B00000F050FDC368024603BB014608900498A2
:10B5C00000F02EFD089A034611462046089300F02D
:10B5D00045FB089BA3B9069A92B9079A82B9B8F1BC
:10B5E000390F29D0009B002B01DD05F13108059BA7
:10B5F0005D1C83F8008082E73046C2E70123E3E761
:10B60000009A002A04DB25D1069A1ABB079A0ABBC6
:10B61000002BECDD01220499204600F0ADFC3946F8
:10B62000049000F0FDFC002803DCE0D118F0010FCD
:10B63000DDD0B8F1390FD8D1059B059A5D1C3923AF
:10B64000137015F8013C392B05F1FF324FD001334F
:10B65000137054E7059A002B02F1010506DDB8F1DD
:10B66000390FE9D008F10108059BC2E7029A05F8F5
:10B67000018CA5EB0B03934221D000230A220499ED
:10B68000204600F002FBB14504904FF000034FF05C
:10B690000A024946204605D100F0F7FA81460646DF
:10B6A000059576E700F0F1FA3146814600230A223B
:10B6B000204600F0EAFA0646F2E74FF000090122C0
:10B6C0000499204600F058FC3946049000F0A8FC8C
:10B6D0000028B6DC02D118F0010FB2D115F8013CF8
:10B6E000302B05F1FF327FF40AAF1546F6E793459C
:10B6F00005D131230AF1010A8BF80030FFE6154627
:10B700009FE7DFF864B007E0219BDFF860B01BB172
:10B710000BF10803219A1360584617B0BDE8F08F6B
:10B72000069B012B7FF735AE0E9B079349E6029BE4
:10B73000002B03DC069B022B3FF7CCAE5D4639465F
:10B740000498FFF7CEF900F1300805F8018B029A52
:10B75000A5EB0B039A42B0DD00230A220499204690
:10B7600000F093FA0490EAE789DA0200ADDA020009
:10B770008A892DE9F041054610070C4658D44B68DC
:10B78000002B05DC0B6C002B02DC0020BDE8F081F7
:10B79000E66A002EF9D0002312F480522F68216A45
:10B7A0002B6032D0606DA3895A0705D56368C01A33
:10B7B000636B0BB1236CC01A00230246E66A216A50
:10B7C0002846B047431CA38906D129681D2948D8BB
:10B7D000294ACA40D60744D500226260D9042269AA
:10B7E000226004D5421C01D12B6803B96065616BEE
:10B7F0002F600029C9D004F14403994202D02846A1
:10B80000FEF74EFA00206063C0E701232846B047E8
:10B81000411CC8D12B68002BC5D01D2B01D0162B85
:10B8200001D12F60B1E7A38943F04003A381ADE7C5
:10B830000F69002FA9D093070E6808BF4B690F60EE
:10B8400018BF0023A6EB07088B60B8F1000F9CDD42
:10B8500043463A46216AA66A2846B047002806DCD5
:10B86000A38943F04003A3814FF0FF308EE70744E4
:10B87000A8EB0008E9E700BF0100402038B50B69DC
:10B8800005460C46DBB118B183690BB900F060F8CE
:10B890000C4B9C4209D16C68B4F90C307BB1214649
:10B8A0002846BDE83840FFF763BF074B9C4201D1F3
:10B8B000AC68F1E7054B9C4208BFEC68ECE7002060
:10B8C00038BD00BFDCDA0200FCDA0200BCDA02009C
:10B8D000002310B50446C0E90033836081814366CC
:10B8E000C281C0E904338361194608225C30FAF74B
:10B8F00015FD054B6362054BA362054BE362054BE7
:10B900002462236310BD00BF51C2020073C2020053
:10B91000ABC20200CFC20200014900F085B800BFEF
:10B920007DB8020070B54A1E682555430E4605F1E4
:10B930007401FEF703FA044640B10021C0E9001685
:10B940000C30A06005F16802FAF7E8FC204670BDF3
:10B95000836910B5044633BBC0E912330365124B4B
:10B96000124A1B688262984204BF0123836100F07F
:10B970001FF86060204600F01BF8A060204600F031
:10B9800017F80022E06004216068FFF7A1FF0122A0
:10B990000921A068FFF79CFF02221221E068FFF74F
:10B9A00097FF0123A36110BDB4CD020019B90200B5
:10B9B000F8B51B4B1E68B369074613B93046FFF74D
:10B9C000C7FF4836D6E90134013B03D5336833B1AC
:10B9D0003668F7E7B4F90C506DB16834F4E7042128
:10B9E0003846FFF79FFF30600028F1D10C233B6001
:10B9F00004462046F8BD0B4B6566C4E90055A560BA
:10BA0000C4E90335C4E905550822294604F15C0060
:10BA1000FAF784FCC4E90D55C4E91255E9E700BF03
:10BA2000B4CD02000100FFFF2DE9F84380468946AE
:10BA300000F14804002614B93046BDE8F883D4E983
:10BA40000175013F01D52468F5E7AB89012B07D9C2
:10BA5000B5F90E30013303D029464046C8470643A6
:10BA60006835EEE7044B1B68186A044B002808BFD2
:10BA70001846F030704700BF043400203C380020E6
:10BA800070B50E46B1F90E10002996B014461D4649
:10BA900007DA00232B60B3891A0610D44FF48063B1
:10BAA0000EE06A4600F03AFC0028F2DB019A02F44C
:10BAB0007042A2F500535A425A412A60EEE74023F1
:10BAC0000020236016B070BD8B8973B59D070646B4
:10BAD0000C4607D504F1470323602361012363610A
