:020000022000DC
:1060000000000120E1AD020021AE020023AE02003B
:1060100025AE020027AE020029AE020000000000FB
:1060200000000000000000000000000061AD020060
:106030002DAE02000000000081AD020031AE020072
:1060400033AE020033AE0200D996020033AE020036
:106050000992020033AE020033AE020033AE0200FA
:1060600033AE020033AE020033AE020033AE0200A4
:1060700033AE020033AE020033AE020033AE020094
:1060800033AE020089AB020033AE020033AE020031
:1060900033AE020033AE02006980020033AE02006C
:1060A00033AE020033AE020033AE020033AE020064
:1060B00033AE020033AE020000000000000000001A
:1060C00033AE020033AE020033AE020033AE020044
:1060D00033AE020033AE020033AE02000000000017
:1060E00000000000000000000000000000000000B0
:1060F00000000000000000000000000000000000A0
:10610000000000000000000000000000000000008F
:10611000000000000000000000000000000000007F
:10612000000000000000000000000000000000006F
:10613000000000000000000000000000000000005F
:10614000000000000000000000000000000000004F
:10615000000000000000000000000000000000003F
:10616000000000000000000000000000000000002F
:10617000000000000000000000000000000000001F
:10618000000000000000000000000000000000000F
:1061900000000000000000000000000000000000FF
:1061A00000000000000000000000000000000000EF
:1061B00000000000000000000000000000000000DF
:1061C00000000000000000000000000000000000CF
:1061D00000000000000000000000000000000000BF
:1061E00000000000000000000000000000000000AF
:1061F000000000000000000000000000000000009F
:1062000010B5054C237833B9044B13B10448AFF3F0
:1062100000800123237010BD202E0020000000000C
:10622000641A030008B5034B1BB103490348AFF3DD
:10623000008008BD00000000242E0020641A030026
:10624000154B002B08BF134B9D46A3F5803A002148
:106250008B460F461348144A121A00F05FF80F4B92
:10626000002B00D098470E4B002B00D09847002001
:10627000002104000D000D48002802D00C4800F059
:1062800015F900F027F82000290004F0E7FD00F0E0
:1062900011F800BF0000080000000120000000000D
:1062A00000000000202E0020684C0020AD64020099
:1062B000B964020008B50021044600F083F8044BDD
:1062C0001868C36B03B19847204600F073F900BF0C
:1062D000480F030070B50D4E0D4D761BB61006D05D
:1062E0000024013455F8043B9847A642F9D1094EE1
:1062F000094D761B0AF01CFEB61006D000240134AE
:1063000055F8043B9847A642F9D170BDF82D0020FE
:10631000F82D00201C2E0020F82D0020F0B4860758
:1063200043D0541E002A3ED0CAB2034602E014F104
:10633000FF3438D303F8012B9D07F8D1032C2BD958
:10634000CDB245EA05250F2C45EA054516D9A4F13D
:1063500010073F0903F1200606EB071603F11002B0
:1063600042E9045542E902551032B242F8D104F034
:106370000F040137032C03EB07130DD91E462246E9
:10638000043A032A46F8045BFAD8221F22F00302DB
:106390000432134404F003042CB1C9B21C4403F8C2
:1063A000011B9C42FBD1F0BC704714460346C5E775
:1063B000024B13B1024800F079B8704700000000AA
:1063C000B96402002DE9F04F354B85B00F460390BC
:1063D000186800F08BF8334B1B68019303F5A47326
:1063E0000293B946019BD3F848613EB3DDF808A09B
:1063F0004FF001087468651E0FD4013406EB840465
:106400000027B9F1000F20D0D4F800314B451CD043
:10641000013D6B1CA4F10404F3D1234B73B1D6E905
:106420000032002A34D1002B32D03046CAF8003076
:1064300007F086FCDAF80060002EDBD1184B1868F4
:1064400005B0BDE8F04F00F053B873682268013B17
:10645000AB420CBF75602760002AD9D0D6F88811EE
:10646000D6F804B008FA05F30B4208D190477368D8
:106470005B45B7D1DAF80030B342C9D0B2E7D6F8FD
:106480008C01D4F88010034207D103989047EEE7BF
:10649000B2461E46002EADD1D0E708469047E6E74B
:1064A000302C0020480F030041DD0200002301468C
:1064B0001A46184600F01EB838B50A4C0A4D641B3F
:1064C000A4100AD004F18043013B05EB8305013C95
:1064D00055F804399847002CF9D1BDE838400AF046
:1064E0002DBD00BF202E00201C2E0020704700BFB5
:1064F000704700BF2DE9F8432B4D064628689846A3
:106500000F469146FFF7F2FF284B1C68D4F848313C
:10651000002B3DD05A681F2A0DDC02F1010C16BB7E
:106520000232C3F804C0286843F82270FFF7E0FF86
:106530000020BDE8F8831E4B7BB34FF4C87007F012
:10654000F7FB034648B3D4F848210021C0E90021F5
:106550004FF0010CC4F848010A46C0F88811C0F891
:106560008C11002EDCD003EB82010124C1F888904D
:10657000D3F8880194402043022EC3F88801C1F863
:106580000881CDD1D3F88C110C43C3F88C41C7E7F7
:1065900004F5A673C4F84831BCE72868FFF7A8FFE4
:1065A0004FF0FF30C5E700BF302C0020480F03003C
:1065B00031DD0200FEE700BF10B5054C054920465D
:1065C00002F070FE20460449BDE8104002F06ABEA9
:1065D000C0330020BC0F0300C90F030030B50146D3
:1065E00089B00D4801F038FD2024054622460021DF
:1065F0006846FFF793FE2246084C6946284600F09D
:106600006FFF0749204602F040FE6946204602F02F
:1066100049FE09B030BD00BF782F0020C0330020F4
:10662000AE0F030010B5044B044640F8103B00F0D9
:106630005DFB204610BD00BF6012030070B516461A
:106640000C4605460F49104802F01FFE0A2231464B
:106650000D4802F070FE0D490B4802F023FE0C4974
:10666000201D01F062FA60B12946204600F06AFE62
:1066700028B108490448BDE8704002F013BE06493D
:10668000F8E770BD4E0F0300C03300205A1403001A
:106690000C2F00205D0F0300850F030010B5114C77
:1066A0000621204600F00CFA204600F0F7F90E49CA
:1066B000204600F0C5F9204600F0D0F9204601211F
:1066C00000F02AFA2046F422202100F021FA204688
:1066D0001E2100F01BFA20460021BDE8104000F00A
:1066E00077BA00BF78310020502F002013B513482F
:1066F00001F098FCB8B1124C124806238DF8043012
:1067000023788DF805305A1C227001A9022200F06E
:1067100089FE70B10C490D4802F0B7FD0A222178BC
:106720000A4802F017FE4FF47A7002F0EBFF02B055
:1067300010BD0749054802F0B5FDF4E7782F0020A9
:10674000BC2E0020082F0020D60F0300C0330020ED
:10675000FA0F0300F7B56C46204641F60D0101F033
:10676000BFF91A4E1A481B4D1B4F94E8060001F062
:106770009FF9204642F6372101F0B2F994E806006D
:10678000304600F04FFD2A4639463046134E07F09A
:10679000BBF8204642F6382101F0A2F994E8060041
:1067A000304600F03FFD0E4C2A463946304607F091
:1067B000ABF80C4801F02CFE204601F0E7FD2A461C
:1067C0000949204607F0A0F803B0F0BD082F0020CB
:1067D000502F002000280020ED6C0200C02E002069
:1067E0003C2E0020942E00202566020013B51C4C80
:1067F0001C4801F041F92046102100F02AFD00223A
:106800002046112100F034FD2046022100F024FD35
:1068100001221549204600F030FD204600F06EFAB6
:10682000124B2046124C1B88ADF80430022201A9FD
:1068300000F02FFD2046022100F00BFD0022204633
:10684000112100F015FD0121204600F005FD204634
:1068500000F054FA0221204600F040FD02B010BDC5
:10686000082F0020502F00203D6602004C0F03002F
:10687000C02E002010B54FF416412E482D4C02F0CA
:10688000B3FD94F862301BB90A2002F03BFFF8E731
:106890002949284802F006FD2849264802F002FD51
:1068A0002749244802F0FEFC00220121254801F07E
:1068B000FDF925491F4802F0F5FC2449214801F063
:1068C00061FB2349234801F0B7F82349214801F02F
:1068D000B5F82249174802F0E5FC2149214801F0AA
:1068E000BDFD21491F4801F0B7FD1E4801F0B8FD6C
:1068F0001E49104802F0D6FC1D4801F06FFD6421CE
:106900001B4801F063FD1B490A4802F0CBFCFFF76E
:106910006DFF1949074802F0C5FCFFF7BFFE174994
:10692000044802F0BFFC16490248BDE8104002F0DE
:10693000B9BC00BFC03300202E1003004610030076
:106940005F100300782F002085100300AC100300B7
:10695000DD65020028320020B9650200BC1003008A
:10696000E7100300942E0020FB1003000F1103001A
:106970003C2E00202F1103005A1103008011030048
:106980009411030072DF704773DF704777DF704741
:106990000022C2770270704770B51C46C37F0E4656
:1069A0001146E2181D2A05460EDC1844621CEA5402
:1069B000023000F8016C224607F0D9F9EB7F02346F
:1069C0001C44EC77012070BD0020FCE72DE9F0416C
:1069D000002688B007460D4601EBC20834464545FF
:1069E00018D0284601F082F8102803D080280AD059
:1069F0000835F4E708AA631C02EB44042A8824F84B
:106A0000202CDCB2F4E71EB1002008B0BDE8F08114
:106A10006E68EDE714B966B90120F6E7630003F08C
:106A2000FE036A4603213846FFF7B6FF0028F2D17D
:106A3000EAE71023324607213846FFF7ADFFE4E7C7
:106A400013B50831044603C96B4683E803000122ED
:106A500019462046FFF7BAFF02B010BD30B589B025
:106A60000546202269460C4801F0A0FAEA7F131877
:106A70001D2BC3BFC2F11D02D0B208240924034656
:106A80006A4621462846FFF787FF18B1A4F109039B
:106A90005842584109B030BD782F002013B5044644
:106AA000064801F092FA02AA012302F8010D0A2118
:106AB0002046FFF771FF02B010BD00BF782F002005
:106AC00007B502AA012302F8011D1946FFF764FF6A
:106AD00003B05DF804FB000008B50346FFF758FF5C
:106AE00040F2FF1208491A84012283F82220996299
:106AF0000022A1F5560183F823205A62C3E90B1244
:106B0000C3E90D22184608BD2000F400C185704776
:106B1000018542858185704780F82210704700000A
:106B2000F0B5044687B00E46154600211822684687
:106B3000FFF7F4FB94F821308DF8003005EB850366
:106B400003EB83031E4A02969B00ADF80C301368DA
:106B5000DB0709D41B4BE17F99801B499960C97FF2
:106B60001C609981012313606A46164904F12000D4
:106B7000FFF708FF10B1002007B0F0BD134894F8EC
:106B8000207001F022FA394602460120FFF7FEFE8E
:106B90000028F0D1012194F82000FFF7F5FE00282D
:106BA000E9D10A4801F070FA628EA68595424FF04D
:106BB000010094BF521B921A84F823006286DBE71F
:106BC000602F0020642F0020B4310020782F002097
:106BD00010B5044641860186FA21054801F0F8F90E
:106BE000E28D218D2046BDE81040FFF799BF00BF20
:106BF000782F002038B50B888D88112B04460ED0D5
:106C0000262B2AD0102B09D1CB7B012B06D1426A2F
:106C1000AB4013434362002380F8233038BD436AFE
:106C2000EB40DB07FAD5294800F0F6FE0028F5D145
:106C3000012202FA05F3626A22EA030294F8233081
:106C40006262002BEAD194F82230002BE6D0218E2C
:106C50002046BDE83840FFF7BBBF0B7A012BDDD1E2
:106C6000002380F823304FF4FA71194801F0B0F98D
:106C7000238E4BB9A36B03B198470022618D204648
:106C8000BDE83840FFF74CBF638E23B1A36B03B15F
:106C90009847628EF2E70E4801F007FA636B002B0B
:106CA000BCD003F0A1FC01284FF010000AD107F07E
:106CB0003FF80021636B017243600160BDE838401A
:106CC00004F0CABA02F025FDF3E700BF2832002025
:106CD000782F0020AADF7047ABDF7047ACDF70472A
:106CE000ADDF7047AEDF7047B0DF7047704710B55B
:106CF000044604F011F9204610BD000070B5554B54
:106D000004461B680361061D96B0304600F0FCFE89
:106D100094F8223013F0320208BF84F8232013F0D5
:106D20000C0208BF84F8242013F030050ED04FF079
:106D30000003012262F342038DF80630464B1B78B4
:106D40008DF8043094F823308DF805301C22002192
:106D50000FA8FFF7E3FA94F822308DF83C300023B7
:106D6000002D72D001AAADF8083014924FF0000344
:106D7000012262F3420360698DF80A3094F82330EF
:106D80008DF8083058B103784BB1109007F093FE9E
:106D900002AB80B2ADF84400ADF846001393A37E79
:106DA00013B104F11A03129394F82520059604F107
:106DB00023030693E389002012F0010F0CBF1A464B
:106DC0000246CDF81E00ADF81C20ADF8203005AA13
:106DD00004F126030FA9CDF82200ADF82600FFF735
:106DE00079FF054670BB627E32B30246012161F332
:106DF00042028DF80E2094F82320ADF80C008DF897
:106E00000C20164ACDF83250106804900222ADF8DA
:106E10003020ADF8342004AA0A9203AA0B9204F1A0
:106E200018020E9228460DF102020AA9ADF836505A
:106E3000FFF752FF054628B9657B45B9214608484A
:106E400000F09AFD284616B070BD1A468BE7002563
:106E5000F8E700BF742F0020A2110300A411030063
:106E6000782F002010B5044603F0BEFB0128204611
:106E700003D1BDE8104006F05BBFBDE8104002F052
:106E800048BC2DE9F0430B888E88502B89B004460E
:106E90000D4600F02B81512B40F087808B79012B20
:106EA00035D1836B9BB3027B520701F1080973D57F
:106EB0001820FFF7D7FF4FF000080746C0F8008002
:106EC0000820FFF7CFFF3860D9F800300360D9F809
:106ED00004304360A36B7B6003233B72CDE9046401
:106EE000CDF81890414604AB53F82120914504BFDA
:106EF0003A6843F8212001310329F5D103CB3961E8
:106F0000F860186878610021384604F0A5F9AF7977
:106F1000022F4AD1AB7B042B4AD0062B00F0848091
:106F2000012B42D1E36B002B3FD0227B170705F1E9
:106F3000080836D51820FFF795FF002303600746A1
:106F40000E20FFF78FFF14353860434653F8042BAB
:106F500040F8042BAB42F9D11B880380E36B7B60C4
:106F600003233B72CDE90464CDF81880002104AB03
:106F700053F82120904504BF3A6843F8212001319D
:106F80000329F5D103CB3961F860186878610021D5
:106F9000384604F061F908E001464A463046984711
:106FA000B5E7424621463046984709B0BDE8F08330
:106FB000276B37B94FF48060A086FFF753FFE78651
:106FC0002063102200210DEB0200FFF7A7F9022336
:106FD0008DF810306A8A2B8AA18E9818884208DDB5
:106FE00040F20913ADF8143004A93046FFF77CFED7
:106FF000DBE79DF81600ADF8183040F001008DF881
:107000001600206BADF81A2005F114011844079101
:1070100006F0ADFE6A8A2B8A1344E28E9BB293423D
:1070200038BF1346E386DFE7236B002BBDD0102269
:1070300000216846FFF772F9694630468DF8007006
:10704000FFF752FE256C002D3BD0237BD80744D59B
:107050001C20FFF707FF00230360236B054643B1A5
:10706000E08E30B1FFF7FEFEE28E2860216B06F065
:107070007EFE236C6B6004232B72216BE28E0691E3
:10708000CDE90464079204AB59B152B1002253F820
:107090002200814204BF286843F822000132042AFA
:1070A000F5D105F10C0608AF1A4603CABA423060A2
:1070B0007160134606F10806F6D10021284604F057
:1070C000CBF8256B03F090FA012828460BD106F087
:1070D00037FE0023C4E90C3367E7E38E226B2146B9
:1070E0003046A847EDE702F023FBF2E7CA88C38CDD
:1070F0009A4240D1076C002F3DD0037B01F112086A
:10710000D9075BD51C20FFF7ADFE002303600746BF
:10711000288A30B1FFF7A6FE38602A8A414606F079
:1071200026FE236C7B6004233B722A8ACDF81880EC
:10713000CDE90464079204AB52B1002253F8221047
:10714000884504BF396843F822100132042AF5D17A
:1071500007F10C0C0DF1200E1A4603CA7245CCF84B
:107160000000CCF8041013460CF1080CF4D10021F7
:10717000384604F071F8EA88638D9A427FF415AFBF
:10718000636C002B3FF411AF227B6D8A92071BD5F5
:107190001820FFF767FE626C42600027032202722C
:1071A0000760CDE90464069504AA034603CA196181
:1071B000D8601068586139461846EAE601462B8ABD
:1071C00042463046B847D6E72A46214630469847D9
:1071D000EBE600001422C281114A127880F82420C4
:1071E00080F8232001214FF00102002361F34202C5
:1071F00003734373C0E904330383C0F81A30C0F843
:107200001E3080F8223080F82520C38403858385D2
:107210004385C0E90C33C0E90E33C0E91033704731
:10722000A211030013B50446684680E80600234611
:10723000054943F8041B03C883E805002046FFF70F
:10724000C9FF02B010BD00BFB0110300012343739A
:10725000704780F82210704790F8253029B1C1811D
:107260006FF3000380F82530704743F00103F9E71E
:1072700080F8231080F824207047037B416462F378
:1072800041030373704751F8263F03604B68436026
:10729000704713B5C4890191A24228BF224600233A
:1072A000ADF80020C18CADF802306A464FF6FF7091
:1072B000FFF714FD18B9BDF8000002B010BD184664
:1072C000FBE738B5054608460C4607F0F4FB2146B7
:1072D00082B22846BDE83840FFF7DBBF07B502ABF6
:1072E000012203F8011D1946FFF7D3FF03B05DF833
:1072F00004FB000030B5054685B011480C4600F08F
:1073000086FED8B1688DC8B10222ADF808200DF113
:10731000060200230392014602AA2046ADF80A3075
:10732000FFF7DEFC43F20142904204D1ADF8063093
:10733000BDF8060002E00028FAD080B205B030BDEA
:10734000782F002008B590F8223013F0100304D0F5
:10735000FFF7D0FF00F0010008BD1846FCE7000071
:107360002DE9F04F1C4690F82230DB0689B0054627
:107370000E46904604D40027384609B0BDE8F08F89
:107380004FF6FF73994203D1254800F05BFE064695
:10739000EB8931469C42284628BF1C46FFF7D2FFA6
:1073A0000746002835D031461D4800F055FE83467B
:1073B0000028E0D000F090F8033883B201934FF03A
:1073C00000094FF0010A002CD6D0584600F0A4F86E
:1073D0000028D0D0019BCDF81290A34228BF2346AD
:1073E000ADF80E30EB8CADF8103004A90DF10E03A2
:1073F0003046ADF816908DF812A0CDE90638FFF7AB
:1074000071FC0028B7D1BDF80E20A41AA4B2904494
:10741000D9E7224641462846FFF73BFFACE700BFCD
:10742000782F002013460A464FF6FF71FFF798BFEA
:107430007FDF704786DF7047B1DF7047B5DF704789
:1074400010B5074B03600446806902F097FCE069C1
:1074500002F094FC206A08B102F090FC204610BDB6
:10746000C811030010B50446FFF7EAFF204603F0F9
:1074700053FD204610BD000038B504460025A1800C
:1074800001216173104820601721E180258192E875
:107490000300A182090C2061A175D27922731946DB
:1074A000184602F046FA9DF81010A061084602F056
:1074B00040FA4FF6FF73E061A5732562E5736562DC
:1074C0006381A562204638BDC8110300407B704728
:1074D000807B7047007B7047C08870470089704789
:1074E000F0B587B004AC85880E4620464FF428518D
:1074F000174600F0F5FA01234FF6FF72CDE902328C
:10750000CDE90067294694E80C00024800F01AF91A
:1075100007B0F0BD782F002008B56621806902F021
:1075200075FB003018BF012008BD42898188007BAF
:1075300001F0C8B870B50B881A2B96B004460D46FA
:1075400000F09C8023D8132B49D006D8112B43D0B0
:10755000122B00F0AE8016B070BD142B73D0192B17
:10756000F9D10B7A43B9826A818801238373538AE4
:107570004381007B01F070F8A56A03F035F801281B
:1075800028465DD106F0DCFB0023A362E3E7532B22
:1075900000F0B0800BD83C2B00F09D80522BDAD14C
:1075A00000231A4619468088FFF746FFD3E7562B7B
:1075B00000F0A480572B7FD0552BCCD1017B5448B1
:1075C00000F043FDE988814228BF014689B2E1808D
:1075D000A088FFF733FFBEE700234373BBE703F048
:1075E00003F801284FF0500027D106F0A1FBA0625C
:1075F0000028B0D050220021FEF790FE4FF6FF7316
:1076000063811C22002103A8FEF788FEA36A02936F
:1076100003F11C02383307933E4B06926A46186802
:107620001B791371237B0090012B18BF002202AB42
:107630000021A088FFF7FCFE8DE702F06AF8D6E78C
:1076400002F076F8A0E75022002102A8FEF766FEBD
:1076500002AA298A207B01F05DF80346A08843B185
:10766000002310AA02A9FFF7E5FEBDF81A306381D6
:1076700071E71A461946FFF7DDFE6CE70B7A112B0E
:107680000DD042898188007B01F07EF8034620B945
:1076900002460146A088FFF7CFFE0123A373606A6C
:1076A00000283FF458AF00231A46194602F04AF961
:1076B00051E74B8903814EE70026AA79F3B29A423B
:1076C00006F101067FF647AF00231A461946A06966
:1076D00002F038F9F1E70026AA7AF3B29A4206F1ED
:1076E00001067FF638AF00231A461946E06902F01A
:1076F00029F9F1E70123C373006AD1E78B79002BE5
:107700007FF429AFC373006A0028CDD123E700BFFF
:10771000782F002077320020A0DF704738B504466C
:10772000F82500F5F87000F0E9FE2A460021204611
:10773000FEF7F4FD2A4600216019FEF7EFFD204612
:1077400038BD00002DE9FF416E4686E80C00BDF80B
:107750003030ADF80C300546BDF834301948ADF87E
:107760000E300F4600F078FC05F5F8758046284687
:1077700000F00CFF044628B14046FFF7AFFE01F0D1
:10778000C1FFF4E70121284600F0BCFEBDF82C2023
:107790000A99284600F0CBFE03AA31463846FFF787
:1077A000BBFF28B94FF4FA71284600F0C5FE044625
:1077B000284600F0B0FE24EAE474A0B204B0BDE8AC
:1077C000F08100BF782F00202DE9F04F8F880E88C0
:1077D00085B005460C466748394600F03DFCA6F1E9
:1077E0001003012B83462FD94FF0000A95F854203F
:1077F0005FFA8AF39A4253D91633502E55F82390E4
:1078000036D0512E49D1A379B4F80880022B31D15A
:10781000A37B062B2ED1D9F800304846DB682146E1
:1078200098475846FFF754FE002836D0502E34D1E2
:10783000494602A8FFF727FDBDF80C3043452CD17F
:107840005846FFF772FE28E04FF000082A785FFAEA
:1078500088F39A42C8D905EB8303112E5868036850
:1078600039460CBF1B685B68984708F10108EDE7D3
:10787000B4F80680B8F1000F0FD049466846FFF70C
:1078800002FDBDF800304345C5D0494602A8FFF7C8
:10789000FAFCBDF80C304345BDD00AF1010AA5E75A
:1078A0004FF0000895F84C31434520DD05EB880A80
:1078B000DAF8500101F0D3F8B84215D1382E03D0D0
:1078C000392E01D0362E0FD1B4F80A90B9F1000F3D
:1078D0000AD0DAF850A1504601F0C4F8484503D167
:1078E0002146504601F0C0F808F10108DAE7112EF0
:1078F00025D1002495F8F820E3B29A420BD905EB84
:107900008303D3F8FC008388BB4202D103681B6861
:1079100098470134EEE7002695F84C31F4B2A342C3
:1079200025D905EB8404D4F8500101F098F8B84249
:1079300003D1D4F8500101F08FF80136ECE7352E71
:1079400015D1618999B1A2890E34231B901CB3FB18
:10795000F0F38B4205F5F87503D2A11C284600F020
:1079600017FE284605B0BDE8F04F00F028BE05B070
:10797000BDE8F08F782F002090F85430282B1FBFDF
:107980005A1C163380F8542040F8231014BF0120ED
:10799000002070470378132B9FBF5A1C027000EB26
:1079A0008300416094BF01200020704775DF70475D
:1079B00078DF70477ADF704705490022C0E902226C
:1079C000034602460868496803C21846704700BF6C
:1079D000D011030008B5FFF7EDFF28B9FFF7E8FF66
:1079E000B0FA80F0400908BD0020FCE710B5094856
:1079F00000F032FB044608B9002010BDFFF766FD19
:107A00000028F9D02046FFF765FD431E5842584133
:107A1000F3E700BF782F002070B5002506462C46FE
:107A2000A9B23046FFF7E2FF08B10134E4B20135F4
:107A3000142DF5D1204670BD81607047C16070473C
:107A400010B40A88102A0B460FD1CA7B012A0CD128
:107A50000A8A04884188944201D88A4205D901469D
:107A60005DF8044B9888FFF7A1BF5DF8044B7047A1
:107A7000A8DF70477047000037B500F108050446DD
:107A8000284600F041F829460DF106020120FFF7D3
:107A9000EFFF054628B9044B04481C602146FFF758
:107AA00079FF284603B030BD742F0020782F0020C6
:107AB00013B50446684680E806002346054943F8A6
:107AC000081B03C883E8050000232046A38002B0FA
:107AD00010BD00BFE011030062DF704763DF704735
:107AE0000123837000230180436070478378012B5A
:107AF00006D0426832B9012B8CBF8020002070472D
:107B0000102070478020704708B58378024653B92B
:107B1000406840B1911CFFF7DFFF10205168BDE8BD
:107B20000840FFF7DBBF002008BD00680B6820F0AD
:107B30007F4023F07F43C31A5842584170474BDFC0
:107B4000704710DF70477CDF70477DDF70478FDF45
:107B5000704790DF704760DF704769DF704761DF13
:107B6000704766DF704767DF7047704770470000F7
:107B700037B50D4C0D4DD4F808034FF0FF3102F02E
:107B800045F80028F7D001A8FFF7D9FF0528F2D063
:107B90000028F8D10198831E012BF4D8002DF2D0D3
:107BA00005F0F6FDEFE700BF782F002091D7020027
:107BB00010B5044602F018FD0128204603D1BDE8A7
:107BC000104006F0B5B8BDE8104001F0A2BD0000BD
:107BD00070B50446FFF7A2FD04F50070FEF77CFFC8
:107BE00004F50F70FEF7D4FE04F5177001F0A7F846
:107BF00004F52C70FFF7E0FE04F5307000F0CCFEC9
:107C000004F5347001F040F84FF40063C4F8E83232
:107C1000244BC4F8EC3240F2031300250126A4F8EB
:107C2000F032214BC4F8F252C4F8F652A4F8FA52DA
:107C3000C4F8F43284F8F26284F8F862A4F8FC52D2
:107C40005022294604F54570FEF768FBC4F8FF5240
:107C50004FF6FF73A4F8123394F8FF32C4F80453BC
:107C60000322334362F3061384F8FF32072384F8B8
:107C70000033102384F8013394F80233C4F8085316
:107C80001343C4F80C5384F8106384F8FE52C4F80C
:107C90006853C4F8645384F8023384F803232046FD
:107CA00070BD00BF010A17001700030170B5AB4D8E
:107CB00080F8FC128CB0044680F8FD2228680390FE
:107CC000A74903A8FFF73DFF18B1002630460CB0C6
:107CD00070BDCDE90900A34A0B9094F8ED320492EF
:107CE00009A901208DF82430FFF737FF0028ECD1D7
:107CF00094F8FC320B90CDE909008DF8253094F80A
:107D0000FD328DF82630003318BF0123049A8DF818
:107D1000273009A94020FFF720FF0028D5D194F88B
:107D2000EC320B90CDE9090063F300008DF82400DC
:107D3000049A09A9A020FFF710FF0028C5D1CDE9BA
:107D40000A00D4F8E832049A099309A9A120FFF7A0
:107D500004FF0028B9D194F8FC32002B68D194F8C4
:107D6000FD32002B40F0AE8004A8FFF7F4FE00289F
:107D7000ABD1CDE90700C0B240F001008DF81C0086
:107D800007A90220FFF7EFFE00289ED104F52C7012
:107D9000FFF720FE0646002897D00CA82B7900F8A4
:107DA000283D0B227049FFF7CEFE00288DD194F8B4
:107DB000FD321BB104F5307000F0F8FD0322002104
:107DC000012001F099FDC4F8040300283FF47DAFC1
:107DD00005AB032501934FF4C0620023634900956E
:107DE000634802F05EF92A460021012001F084FD7B
:107DF000C4F8080300283FF468AF06ABCDE9005390
:107E0000C82200235B495C4802F04BF95B4B4FF4FE
:107E100080021A605A4B0093002301224FF48071B4
:107E2000184602F019FDC4F80C0300F0F5FB4DE70D
:107E3000B4F8EE220B90CDE909000123ADF826201D
:107E400009A9049A8DF824302320FFF786FE002824
:107E50007FF43BAF94F8FC220B90CDE909008DF83C
:107E6000262094F8F022ADF8282009A9049A8DF86C
:107E700024302020FFF771FE00287FF426AF94F80D
:107E8000F1220B90CDE9090009A98DF826202220C6
:107E9000049A8DF82430FFF760FE00287FF415AFB8
:107EA000CDE909000B908DF82430049A94F8F23251
:107EB0008DF8263009A92120FFF74FFE00283FF456
:107EC0004EAF02E70023B4F8F4220B93CDE9093357
:107ED00009A90223ADF826202320049A8DF8243026
:107EE000FFF73BFE00287FF4F0AE94F8FD220B90E4
:107EF000CDE909008DF8262094F8F622ADF8282067
:107F000009A9049A8DF824302020FFF726FE0028C6
:107F10007FF4DBAE94F8F7220B90CDE9090009A9B4
:107F20008DF826202220049A8DF82430FFF715FEC4
:107F300000287FF4CAAECDE909000B908DF82430FB
:107F4000049A94F8F8328DF8263009A92120FFF719
:107F500004FE00283FF408AFB7E600BFEC110300B1
:107F60006D7B0200002800200C1203001812030091
:107F7000398302001C120300717B020000E100E063
:107F80006B7B020037B5084B02AC1B7904F8043D4B
:107F900008460D4606F08FFD294682B22046FFF7BF
:107FA000D2FD03B030BD00BFEC11030007B5084699
:107FB00002A921F8022DFFF7C8FD20B99DF806009F
:107FC00003B05DF804FB0020FAE790F9FE02704769
:107FD00073B50446D0F80C030E4602F079FD002379
:107FE0000546B6024FF47A720093B6FBF2F2042112
:107FF000D4F80C0302F04EFC3DB900952B462A46FE
:108000000321D4F80C0302F045FC02B070BD132923
:1080100006D800EB8100D0F8140308B1FFF756BA78
:108020000020704770B5002506462C46A9B23046A0
:10803000FFF7EDFF08B10134E4B20135142DF5D19D
:10804000204670BDB0F81203704701290CBFB0F88C
:10805000EE02B0F8F402704713299ABF00EB8100DA
:10806000D0F814030020704710B5064C0021D4F856
:10807000080301F028FDD4F804030021BDE81040F6
:1080800001F021BD782F002013B590F8103353B1C3
:10809000D0F80C4302F072F800230246009301214D
:1080A000204602F0F7FB02B010BD13B50023009389
:1080B00004461A460321D0F80C0302F0EBFB2046DD
:1080C00002B0BDE81040FFF7ADBF2DE9F04F8E883C
:1080D000132E85B004460D462CD800EB8603D3F84A
:1080E000147317B13846FFF725FA2B88112B00F0CF
:1080F000998021D8012B00F0E680102B40D0294632
:1081000004F50070FEF776FD294604F5177000F0BF
:10811000CFFEB4F81233B3422B8800F0D980102B75
:1081200040F0DB80EB7B012B40F0D780AB88A4F8DC
:108130001233D2E00027D8E7212B00F0BC80232B9C
:1081400000F0AE801C2BDAD1D4F86433002BD6D0EB
:108150001420FFF72DFD4FF0000CC0F800C0D4F83C
:10816000642342600222027295F90820039202966B
:1081700002AA034603CAD8601961184661463DE069
:1081800004EB86082046FFF790FFD8F8140305F1AA
:10819000080A28B103685B6898470023C8F81433BD
:1081A000EB7B2C20012B07BF94F8F19294F8F2B2EC
:1081B00094F8F79294F8F8B202F0ACFE4B460746FA
:1081C00052463146CDF800B0FFF756F9C8F814739F
:1081D0003846FFF77FF90128804612D1D4F8B8322B
:1081E000002B8CD01020FFF7E3FC00210160D4F8B5
:1081F000B8224260034680F80880DE6003F02CF865
:108200007DE7D4F8C832002B3FF479AF1020FFF798
:10821000CFFC00210160D4F8C8224260012203464D
:108220000272EAE72046FFF7FDFE3846FFF752F9F3
:10823000012826D1D4F8BC32BBB11420FFF7B8FC1A
:108240004FF0000CC0F800C0D4F8BC2203465A60BE
:1082500002221A722A7A0392029602AA03CAD860EC
:1082600019611846614602F0F7FF04EB8608D8F85A
:10827000140310B103685B6898470023C8F81433EF
:108280003DE7D4F8CC32002BEFD01420FFF790FC60
:108290004FF0000CC0F800C00346D4F8CC22D6E75B
:1082A000002211463046FFF754FC00283FF427AF68
:1082B00005B0BDE8F08F04A9002321F8083D304641
:1082C000FFF745FC1BE700213046FFF74AFC16E7A5
:1082D000102B3FF427AF112B25D03FBB294604F5C7
:1082E0002C70FFF7ADFB27B13846FFF7F3F80228F3
:1082F00004D1294604F5307000F084FB04F534768F
:10830000304600F0D9FC18B12946304600F0D6FCC2
:1083100029462046FFF758FAD4F86833002BC7D017
:1083200028469847C4E74FF6FF7300E73846FFF743
:10833000D1F80128D8D1D1E773B54FF4FA70FFF71F
:1083400037FC0E4D04464FF4FA764FF0FF31D5F866
:10835000040301F05BFC0028F7D00DF10601204674
:10836000ADF80660FFF7FBFB20B921462846FFF772
:10837000ACFEF2E70528E8D0EFE700BF782F002039
:108380000148FFF725BC00BF782F002073B56C466D
:10839000054641F60F012046FFF7A2FB2E4694E862
:1083A00006002846FFF784FB074B46F8103B2046A3
:1083B00042F61921FFF794FB94E806003046FEF7D9
:1083C00031FF284602B070BD6012030008B51030BE
:1083D000FEF784FF003018BF012008BD38B5044601
:1083E000FFF74AFB054690B9103420461221FEF7EC
:1083F00030FF2A4620461121FEF73AFF2046012190
:10840000FEF72AFF2046BDE83840FEF777BC38BDAE
:1084100037B56D46044641F60A012846FFF760FB72
:1084200095E806002046FFF743FB074B2360074B08
:1084300023610023C4E90533E361054B2362054B47
:108440006362204603B030BD981203006C12030033
:1084500087120300E7100300016170474162704713
:10846000F0B595B00446FFF707FB064658BB02F08F
:1084700055FF606102F022FF0C34E06042F62425D3
:108480006F4654F8043F43B329463846FFF728FBAC
:1084900097E8060002A8FEF7C5FE02A8FEF7D6FE82
:1084A000022102A8FEF7D5FE206806F004FB81B287
:1084B00002A8FEF7D1FE02A8FEF720FC064628B16E
:1084C00002A8FEF713FC304615B0F0BD216802A8E3
:1084D000FEF7F7FE02A8FEF709FC0135ADB242F641
:1084E0002A239D42CDD10026EDE70123037000230E
:1084F0004370C0E90133C3818381704708B5FFF73A
:10850000F4FF08BD10B50446217019B90A2001F026
:1085100010FA606010BD037810B5044613B94068C6
:1085200001F02CFC2046BDE81040FFF7DEBF002321
:1085300081608281C3817047037870B504460D461F
:10854000B3B90123AD024FF47A716370B5FBF1F159
:10855000606801F05BFBB0B94FF0FF35237800266F
:1085600066701BB1606801F009FC6660284670BD4A
:1085700003220021012001F0BFF960600028E0D152
:108580004FF0FF35F2E7E589ADB2E7E74078704795
:1085900038B585899542044628BF154619B12A4643
:1085A000806805F0E4FBA3682B44A360A3895B1BF0
:1085B000A381E3892B449BB2E381284638BD406800
:1085C00020B100231A46194601F0BCB97047B1DF4B
:1085D0007047B2DF7047000010B4054B054C01290D
:1085E0000CBF214619465DF8044B06F01DBA00BFCA
:1085F00003130300EA12030010B5044601F0F4FF70
:108600000128204603D1BDE8104005F091BBBDE82C
:10861000104001F07EB8000008B50C4805F022F8C3
:108620000B490A4802F05AFF18B90949074802F0F5
:1086300061FF0849054802F051FF28B90549034880
:10864000BDE8084002F056BF08BD00BFC43B002093
:10865000A4120300B8120300F0B5074685B0182035
:108660000E461546FFF7C8FF0023044603603DB1E0
:108670005020FFF7C1FF50222060294605F077FB0C
:108680000F4B636003232372CDE90176039501ABA1
:1086900055B1002253F822108D4204BF216843F8DF
:1086A00022100132032AF5D103CBE0601868216162
:1086B00060610021204602F0CFFD012005B0F0BD31
:1086C000D9880200F0B54FF6FF739A4285B007468D
:1086D0000D4616464FF0000417D01820FFF78CFF08
:1086E000CDE901750A4A42600396032201AD0346B3
:1086F0000460027203CD5E61D8601961184621469C
:1087000002F0AAFD012005B0F0BD2046FBE700BF46
:108710003D88020030B5D1B015460A46014601A891
:10872000FFF75AFF0E4B002201A908A803F08DF8AD
:1087300008A803F098F8044618B90024204651B060
:1087400030BD08A802F0DAFF50280246F5D12946CC
:1087500008A802F0C2FF08A803F025F8EEE700BF62
:10876000C43B002038B5044602F0C8FF051E08DDF2
:10877000204602F0E4FF2918204602F0D1FF012034
:1087800038BD0020FCE70000F0B54FF6FF73D1B014
:108790009A420E4600AF3FD00146381DFFF71CFF3E
:1087A0001E4B0022391D07F1200003F04EF807F19F
:1087B000200003F058F848B9002407F1200002F027
:1087C000F2FF204607F5A277BD46F0BD07F1200075
:1087D000FFF7C8FF07F12000FFF7C4FF07F12000F3
:1087E00002F08CFF0028E7DDC31D23F0070384B2ED
:1087F0006D46ADEB030D2246694607F1200002F0FD
:108800006CFF2246694603233046FFF7E0FEB0FACC
:1088100080F46409AD46D0E70024D2E7C43B0020D1
:1088200070B505460E461446D1B202F0B1FE22469E
:1088300031462846BDE8704002F0D8BE2DE9F0412F
:10884000D0B00D4600AF00210323064690462846CF
:10885000BA1C7980FFF7BDFE7B886C46A3B3073353
:10886000DB08A4EBC3039D4628460323BA1C6946D4
:10887000FFF7AFFE054638BB42463146381DFFF7CD
:10888000ABFE144B0122391D07F1200002F0DDFF81
:1088900007F1200002F0E7FFB0B1294607F1200000
:1088A00002F03EFF07F12000FFF75CFF07F1200018
:1088B000FFF758FF07F120007A886946FFF7B0FFFD
:1088C00007F1200002F06FFF07F5A077A546BD462F
:1088D000BDE8F081C43B002030B514460128DDB06E
:1088E0000CBF528AE28D0D46014605A8FFF774FEC3
:1088F00005A9254802F0F2FD18B105A9224802F0A9
:108900003FFE214B012205A914A802F09EFF14A8E6
:1089100002F0A9FF002835D050220DEB02002146BD
:10892000FFF77EFF202200210CA8FDF7F7FC294667
:108930001648FFF791FB20220CA9FEF7D1FD9DF808
:1089400030309BB994F84910039194F84A10029181
:1089500094F84B10019194F84C10009194F84D301C
:1089600094F84E200A490CA806F05EF80CA806F010
:10897000A2F8421C92B214A80CA9FFF751FF14A848
:1089800002F011FF5DB030BDC43B0020782F002005
:10899000CC12030075DF70474FF010114FF44802FE
:1089A000C0E900120022C0E902227047014800F02D
:1089B00079B900BF4832002010B50948FFF74CFBD9
:1089C000044608B9002010BDFEF780FD0028F9D04C
:1089D0002046FEF77FFD831E58425841F3E700BF53
:1089E000782F002070B5002506462C46A9B23046E7
:1089F000FFF7E2FF08B10134E4B20135142DF5D1DF
:108A0000204670BD07B50B881F2B0DD18A8851F801
:108A1000080F49686B4603C36946BDF80030ADF8DE
:108A200002301046FFF7B6FF03B05DF804FBA1DF8C
:108A30007047A3DF7047A4DF704710B5044601F00C
:108A4000D3FD0128204603D1BDE8104005F070B9E0
:108A5000BDE8104000F05DBE00238382704780694E
:108A600000F010B9808A70472DE9FF410B88CF884C
:108A7000382B05460C4600F09980392B12D0362B46
:108A800015D1806900F0FEF801467D48FFF7E4FA51
:108A9000FEF722FD05F11C080646002F00F0D480E9
:108AA000404687E00B7B012B04D0022B3DD004B065
:108AB000BDE8F081C36A002BF9D090F8342001F1B1
:108AC0001007D1072DD51820FFF7B7FF002303604B
:108AD0000646E08930B1FFF7B0FF3060E2893946E1
:108AE00005F045F9EB6A736003233372E289039260
:108AF000CDE9015701AB52B1002253F822108F4249
:108B000004BF316843F822100132032AF5D103CBA8
:108B10003161F060186870610021304602F09CFB02
:108B2000C5E7E28939469847C1E7036B002BBED001
:108B300090F83420B1F80480920701F1100731D584
:108B40001820FFF77AFF002303600646E08930B162
:108B5000FFF773FF3060E289394605F008F92B6BA7
:108B6000736003233372E2890392CDE9015701ABAD
:108B700052B1002253F822108F4204BF316843F8EB
:108B800022100132032AF5D103CB3161F06018685D
:108B900070610021304602F05FFB61894046FFF7BB
:108BA0004AFF84E7CA8939469847F6E700F11C0670
:108BB0001FB13046FFF703FD79E70A8A3046394690
:108BC000FFF7E6FC94F80C80B8F1010FF1D0B8F192
:108BD000040F7FF46CAFA86900F054F801462848F0
:108BE000FFF73AFAFEF778FC431F288D9BB29842B4
:108BF00028BF1846AB8AC0B1ADF80630228AE38997
:108C0000ADF80A001344ADF80830A8696B6AADF8F6
:108C1000047003938DF8048000F034F801A9FFF785
:108C200008FF00283FF443AFC3E7CDE9020040F25C
:108C30000512A869ADF80420ADF8063000F022F85E
:108C400001A9FFF7F6FEB4E7E28904F110014046FE
:108C5000FFF79EFC2B8D002B3FF422AF033EE389F0
:108C6000B6B2013EB342FFF61BAFA86900F00AF8A6
:108C70006A8DA98AFFF7DBFE00287FF411AF16E7A3
:108C8000782F00208088704710B504460430FFF725
:108C900035FC034B236000232375204610BD00BF25
:108CA0000100FFFF017D10B5044621B90430FFF734
:108CB00029FC0123237510BD007D704710B50B887A
:108CC000322B12D0332B1ED0302B26D1CB88041D53
:108CD00033B94B8923B10A2211442046FFF758FCCF
:108CE0002046BDE81040FFF76ABCCB88041D002B6E
:108CF000F6D14A89002AF3D002EB820252000232F6
:108D000092B20A31E9E7CB88041D002BE8D14A89E9
:108D1000002AE5D002EB4202F0E710BD8ADF70477F
:108D200010B5044601F060FC0128204603D1BDE8DF
:108D3000104004F0FDBFBDE8104000F0EABC10B5E3
:108D400004461F23206283840123002180F82D30F4
:108D50008023816280F82C1080F82E3080F82F104C
:108D6000018680F838104163C0E90F110E224430AB
:108D7000FDF7D4FAA023A4F846305023A4F84830D5
:108D8000204610BD10B504461F232062A0F84A10EB
:108D9000838400F120014430FFF7C0FF30B904485C
:108DA000FFF772F9012084F82C0010BD0020FCE7C9
:108DB000782F002000F1200108B50020FFF7AEFF5A
:108DC000B0FA80F0400908BD38B5012A14469DF874
:108DD00014001BD94D780A789D4205D1541E0231EA
:108DE000E4B20AD10C4606E0D5432C44013214F01B
:108DF000FF041144EED1204638BD10B1844228BF93
:108E000004462246049804F0B2FFF4E70024F2E797
:108E100037B59DF818500C7FCDE9003513468969A8
:108E20002246FFF7D1FF03B030BD2DE9F04F8FB0E0
:108E300002AF8046384687E80C008946FEF756FEAA
:108E4000C0B210280CBF40F2023340F206734FF05C
:108E5000000616BF039FADF81430ADF81430C508F6
:108E6000B2461F22002106A8FDF758FA05AB494675
:108E7000F25CCDF800A006AB4046FFF7C9FF0DF14C
:108E8000180B04467CB12A463946584604F060FF68
:108E900028B901200FB0BDE8F08F0126E1E7641B7F
:108EA000AB44E4B2EEE7002EF7D02046F2E7000034
:108EB000F0B50B888D88112B85B004466ED003D891
:108EC000102B5ED005B0F0BD1B2B00F087801D2B52
:108ED000F8D190F92E2091F91B309A424DDC90F890
:108EE000383001F108059BBB94F82F307BB1022389
:108EF0000093FF220DF10E0329462046FFF788FF5D
:108F000000283AD0228EBDF80E309A4235D1E36B5C
:108F1000002BD7D01020FFF703FF00230360064685
:108F20002420FFF7FDFE2946306005F1240351F8A7
:108F3000042B40F8042B9942F9D1E36B73600123B1
:108F400033723368F3600021304602F085F9B9E7E7
:108F5000002794F83830FEB2B3420AD9636B03EBB2
:108F6000C6030CCB29462046FFF75FFF01370028D8
:108F7000EFD094F83830B342B6D12046FFF71AFF4D
:108F8000A0E7CB7B022B9DD1012101FA05F2816A7A
:108F900000231143816280F82C3093E7836AEB4011
:108FA000DB078FD51948FFF71DFD00288AD1012363
:108FB00003FA05F2A36A23EA0203A36294F82C30B1
:108FC000002B7FF47FAF94F82D30002B3FF47AAF65
:108FD000B4F84A102046FFF7D5FE73E70B7A012B51
:108FE0007FF470AF002580F82C500948FFF75DF83A
:108FF000236C002B3FF466AF1020FFF791FE056055
:10900000226C4260057229469FE700BF383200207B
:10901000782F002038B50025057329B90B4B0C4A71
:109020000C48232104F046FE01600B4951F8222030
:10903000027151F8233083719DF8103051F82330BC
:1090400043710223C371856038BD00BF1C13030048
:109050007A1303002A130300D813030007B5094B42
:1090600009490A484FF080421A6000229A600222A1
:109070001A7106230093FF220523FFF7CBFF03B0ED
:109080005DF804FBF832002000300040E43200209C
:109090002DE9F84380460D46174601EB02090C46C0
:1090A0004C45A4EB05060BD0D8F8003014F8011B92
:1090B0001B68404698470028F2D13046BDE8F88347
:1090C0003E46FAE77047203000F074B9203000F0D7
:1090D00063B9203000F074B938B5437F0D460BB941
:1090E000002038BD00F16804204600F071F9002826
:1090F000F6D12046294600F040F90120F1E70000B2
:109100002DE9F0411E4600254FF47A73C0E9015362
:109110000E4B044640F8203B1746884600F024F9E1
:1091200004F1680000F020F9C4E90487084B9DF8B9
:109130001820267653F8222062769DF81C2053F8DA
:109140002230A37665772046BDE8F081C013030086
:10915000D813030070B54369D3F86421044692B173
:109160000022012500F12006C3F86421057730466E
:1091700000F00EF96369C3F8346563694022C3F8EF
:10918000382563691D636369D3F86821DAB1002566
:10919000C3F8685104F168060123637725773046E8
:1091A00000F0F6F8D4F8B43003B1984763696577F6
:1091B0003046C3F8446500F0FDF86369C3F848051C
:1091C000636901225A636369D3F8042162B1002202
:1091D000C3F80421237F3BB16369D3F83C05D4F87D
:1091E000B830206603B198476369D3F8242152B19F
:1091F0000022C3F824216369D3F8D024C3F8D02413
:10920000636901225A6170BD0148FFF7A3BF00BF27
:109210000433002007B50E230D22CDE900324FF0B4
:109220004022042311460348FFF76AFF03B05DF8AC
:1092300004FB00BF043300202DE9F04106460D4633
:1092400001EB02080C464445A4EB050707D0336840
:1092500014F8011B1B68304698470028F3D13846A4
:10926000BDE8F08170B5044608460D4605F023FCC4
:1092700023680246294620465B68BDE870401847CF
:1092800009B1FFF7EFBF0846704708B5FFF7F8FFD1
:1092900008BD03681B6818470149FFF7E3BF00BF1B
:1092A0005814030038B50546FFF7EAFF0446284680
:1092B000FFF7F2FF204438BD70B58AB00D460AA909
:1092C000002301F8043D012A98BF0A22B5FBF2F4FD
:1092D00002FB1456F3B2092E94BF30333733DBB29E
:1092E000254601F8013D002CF0D1FFF7C9FF0AB077
:1092F00070BD2DE9F04107460E4615462AB90368B0
:10930000C9B21B68BDE8F04118470A2A05D10029F7
:1093100005DBBDE8F041FFF7CFBFD2B2F9E72D2161
:10932000FFF7B7FF2A46044671423846FFF7C4FFED
:109330002044BDE8F081FFF7DCBF10B42AB9036810
:109340005DF8044B1B68C9B21847D2B25DF8044BF4
:10935000FFF7B2BF38B50546FFF7EFFF04462846D2
:10936000FFF79AFF204438BD08B540220021FCF7E2
:10937000D5FF0022C0E9102208BD026C10B5531CB5
:10938000446C03F03F039C421CBF8154036410BD36
:109390000023C0E910337047D0E9102393421FBF68
:1093A000C25C013303F03F03436414BF10464FF027
:1093B000FF307047D0E91030181A48BF403070476E
:1093C000D0E91023934214BFC05C4FF0FF307047C8
:1093D000036C406C013303F03F031B1A58425841A1
:1093E000704790F86200704703681322DB691847E2
:1093F0001430FFF7CDBF000038B590F95C30590943
:10940000044601222031164803F01F0302FA03F339
:1094100040F8213023690421C3F8081323695A60F6
:109420002369DA6023690025C3F8005522694FF0EB
:10943000FF33C2F80C352269C2F814352269C2F82C
:109440000835226904F11400C2F81035FFF7A0FFB7
:10945000606E00F093FC656684F8625038BD00BF12
:1094600000E100E01430FFF7A5BF1430FFF7A8BFFC
:109470001430FFF791BF38B504460D46406E4FF0EB
:10948000FF3100F0C3FB2369C3F81C552269D2F8F1
:109490001C31002BFBD00023C2F81C3119461A46A0
:1094A000606E00F04FFA012038BD000038B590F82A
:1094B00062200446002A40F09080036990F85E0024
:1094C000C3F80C05236994F85D00C3F8140594F8FB
:1094D00061002369012801BF94F85F20C3F81025BB
:1094E000236994F8602005BFC3F808252369C3F8F1
:1094F0006C25C3F86C05B1F5966F6FD9B1F5166F91
:109500006FD9B1F5965F6FD9B1F5165F6ED9B1F528
:10951000615F6DD9B1F5964F6CD9B1F5E14F6BD95B
:10952000B1F5164F6AD9B1F5614F6AD9B1F5963FD9
:109530006AD9B1F5E13F69D9B1F5613F69D9394BD4
:10954000994269D9B1F5E12F69D9B1F5612F94BF7D
:109550004FF070634FF080532269C2F824352369BD
:109560000422C3F8002521690023C1F808312169CC
:10957000C1F81C31216901230B6021698B602169CD
:10958000C1F8042394F95C20510902F01F029340B2
:109590006031254A42F8213094F95C30002BBDBF80
:1095A00003F00F0302F6FC32D2189B18B5BF6023FC
:1095B0006022137683F8002394F95C301A4A590923
:1095C000012503F01F0305FA03F342F82130284672
:1095D00000F038FA84F86250606638BD4FF49E237C
:1095E000BAE74FF41D23B7E7104BB5E7104BB3E7CD
:1095F000104BB1E7104BAFE7104BADE74FF41D0335
:10960000AAE74FF46B03A7E70D4BA5E74FF0EB7309
:10961000A2E74FF06C739FE74FF080639CE74FF039
:10962000E86399E790D0030000E100E000B0130088
:109630000050270000F03A0000A04E0000C0750066
:1096400000903A0108B5044B2BB10448FFF7B2FE75
:1096500008B1AFF3008008BD00000000D433002043
:109660002DE9F04100251E464FF47A73C0E90153FD
:109670000F4B044640F8143B17468846FFF774FE2C
:109680000C4AC4F8108084F85C7052F8263084F8D4
:109690005D309DF8183052F8233084F85E3084F83D
:1096A0006150656684F862502046BDE8F08100BFD5
:1096B00064140300D81303000369D3F808214AB1E6
:1096C0000022C3F808210369D3F818151430C9B271
:1096D000FFF753BE704700000148FFF7EDBF00BF22
:1096E000C033002007B51723009302221623034935
:1096F0000348FFF7B5FF03B05DF804FB002000400E
:10970000C033002080024FF47A73B0FBF3F000F016
:1097100023BE10B5044600F029FD204604F008FBE6
:10972000044600F0AFFD0CB901F023FD204610BD4A
:1097300010B5044640B100F019FD204604F000FBCE
:10974000BDE8104000F09EBD10BD10B5044601F00C
:1097500007FAA46B01F00EFAB4FA84F0400910BDC8
:1097600070B51546026C866B044642B905689DB912
:10977000406800F08BFF65600136A66370BD6DB96F
:10978000806804F0F4FAA368226C13446268A36052
:10979000934201D32368A3600020EDE7C06804F082
:1097A000E6FA236CE26821685B421A448A42E2606E
:1097B0003EBF62689B18E360022DEDD10EB1013E01
:1097C000EAE73046D8E7034610B41A6C084662B19F
:1097D000D9685C681144A142D96024BF1968D96076
:1097E000D9685DF8044B04F0C2BA5DF8044B7047C9
:1097F00070B5044601F0B4F994F8455004F124061C
:109800006DB2002D14DCFF2384F8453001F0B2F96D
:1098100001F0A6F994F8445004F110066DB2002D41
:1098200012DCFF2384F84430BDE8704001F0A2B997
:10983000636A002BE7D0304600F04AFE08B100F022
:10984000B3FE013D6DB2DCE72369002BE9D0304661
:1098500000F03EFE08B100F0A7FE013D6DB2DEE76C
:1098600038B504460D4601F07BF9D4E90F30226883
:10987000A2604343D1181B1A13446160E3600021C6
:10988000FF23A16384F8443084F845309DB92369EF
:109890006BB104F1100000F01BFE40B10A4B4FF019
:1098A00080525A6040BFBFF34F8FBFF36F8F01F0FC
:1098B00061F9012038BD04F1100001F083FD04F1CD
:1098C000240001F07FFDF2E700ED00E010B51C463A
:1098D00083B10123002908BF2246C4E90F0184F89F
:1098E0004630194622602046FFF7BAFF9DF808303F
:1098F00084F84C30204610BDF8B506464843503039
:109900000D461746FFF705FF044660B1002380F8B7
:10991000463055B92060C4E90F6501212046FFF7A4
:109920009FFF84F84C702046F8BD00F1500303609F
:10993000F1E710B502220C460021FFF7DDFF00B170
:10994000846310BD2DE9FF470026DFF8F4900192F3
:1099500004468A461F46B04601F002F9A26BE36B4B
:109960009A4201D3022F1AD13A4651462046FFF7B8
:10997000F7FE636A1BB104F1240000F0A9FD40B1B9
:109980002F4B4FF080525A6040BFBFF34F8FBFF351
:109990006F8F01F0EFF8012004B0BDE8F087019D62
:1099A0001DB901F0E7F80020F6E716B902A800F0AB
:1099B000C7FD01F0DFF800F0D9FB01F0D1F894F811
:1099C0004430FF2B08BF84F8448094F84530FF2BC7
:1099D00008BF84F8458001F0CDF801A902A800F085
:1099E000BBFD30BB01F0BCF8A26BE36B9A420ED119
:1099F00001F0C0F8019904F1100000F045FD204687
:109A0000FFF7F6FE00F03EFC48B10126A4E701F0A6
:109A1000B1F82046FFF7ECFE00F034FCF5E74FF01C
:109A20008053C9F8043040BFBFF34F8FBFF36F8F2F
:109A3000EBE72046FFF7DCFE00F024FCB3E700BFB5
:109A400000ED00E010B5024600210120FFF754FFB1
:109A5000044638B10023C0E90033C3601A461946F2
:109A6000FFF770FF204610BDF8B505461746EFF327
:109A70001186402282F31188806BEA6B904201D3F9
:109A8000022B1ED195F845401A4664B22846FFF7CE
:109A900067FE631C10D16B6A0BB9012009E005F168
:109AA000240000F015FD0028F7D0002FF5D001208C
:109AB000386086F31188F8BD013464B285F84540FA
:109AC000EBE70020F5E738B50C46EFF311854023AE
:109AD00083F31188826BC36B93421BD990F8453096
:109AE00001325BB282635A1C0FD1436A0BB9012069
:109AF00008E0243000F0ECFC0028F8D0002CF6D070
:109B00000120206085F3118838BD01335BB280F8F5
:109B10004530ECE70020F5E72DE9F04385B000265D
:109B2000DFF8E490019204468846374601F018F8C1
:109B3000A56BDDB141462046013DFFF744FEA5631C
:109B400023696BB104F1100000F0C2FC40B12E4B50
:109B50004FF080525A6040BFBFF34F8FBFF36F8FFB
:109B600001F008F8012005B0BDE8F083019D1DB9A2
:109B700001F000F80020F6E716B902A800F0E0FCBA
:109B800000F0F8FF00F0F2FA00F0EAFF94F8443039
:109B9000FF2B08BF84F8447094F84530FF2B08BFB2
:109BA00084F8457000F0E6FF01A902A800F0D4FC9B
:109BB000F8B92046FFF7C9FDA8B1019904F12400C6
:109BC00000F062FC2046FFF713FE00F05BFB40B99B
:109BD0004FF08053C9F8043040BFBFF34F8FBFF33D
:109BE0006F8F0126A2E72046FFF702FE00F04AFB36
:109BF000F7E72046FFF7FCFD00F044FB2046FFF7A7
:109C0000A4FD0028EDD0B5E700ED00E02DE9F0431C
:109C100085B00025DFF81C91019104462F462E46A1
:109C200000F09EFFA36BEBB1013BA363236813B964
:109C300000F08AFD606023696BB104F1100000F050
:109C400047FC40B13B4B4FF080525A6040BFBFF3DE
:109C50004F8FBFF36F8F00F08DFF0125284605B0B1
:109C6000BDE8F083DDF80480B8F1000F03D100F007
:109C700081FF0025F2E717B902A800F061FC00F0AF
:109C800079FF00F073FA00F06BFF94F84430FF2B7B
:109C900008BF84F8446094F84530FF2B08BF84F86F
:109CA000456000F067FF01A902A800F055FC48BB21
:109CB0002046FFF74AFDF8B123683BB900F050FF9A
:109CC000606800F0A1FC054600F054FF019904F122
:109CD000240000F0D9FB2046FFF78AFD00F0D2FAFD
:109CE00040B94FF08053C9F8043040BFBFF34F8FE5
:109CF000BFF36F8F012793E72046FFF779FD00F050
:109D0000C1FAF7E72046FFF773FD00F0BBFA2046E3
:109D1000FFF71BFD0028EDD0002D9FD000F020FFA5
:109D2000616A19B1236B1968C1F10501606800F01F
:109D3000D7FC9CE700ED00E0054B1A6812B19A6869
:109D40002AB9012243F8321003EBC203586070476E
:109D5000484C0020084B5A6890420AD0DA6890427A
:109D600006D10122002143F8321003EBC2035960EF
:109D700070470022F6E700BF484C002010B5FFF7FF
:109D8000E9FF90F846301BB9BDE81040FFF7D0BCA2
:109D900010BD70B504460D46164600F0E1FE94F87D
:109DA0004430FF2B04BF002384F8443094F845303E
:109DB000FF2B04BF002384F8453000F0DBFEA36BCB
:109DC0002BB93246294604F1240000F06DFB2046F1
:109DD000BDE87040FFF70CBD2DE9F041044600F0EE
:109DE000BFFE314B314D1A68314E01321A602A687C
:109DF000002A4FD12C601B68012B25D12D48DFF89C
:109E0000EC802D4F01F0DEFA2C4801F0DBFA2C48F3
:109E100001F0D8FA2B4801F0D5FA2B4801F0D2FA1C
:109E2000404601F0CFFA384601F0CCFA274801F05D
:109E3000C9FA274801F0C6FA264801F0C3FA264BB2
:109E4000C3F80080254B1F60254A13680133136057
:109E5000244AE3631168E36A8B4288BF1360154AA2
:109E6000142000FB0320211D01F0BAFA00F082FE4D
:109E700033686BB12B68DA6AE36A9A4208D21A4BEC
:109E80004FF080525A6040BFBFF34F8FBFF36F8FC8
:109E9000BDE8F0813368002BD6D12B68DA6AE36A1B
:109EA0009A4298BF2C60CFE79834002028340020D5
:109EB000F834002034340020C4340020483400201A
:109EC0005C3400207034002084340020E43400200E
:109ED00010350020FC3400202C34002030340020C9
:109EE000A8340020AC34002000ED00E0B0340020A5
:109EF000094B0A4A1B681268D06A50B9084A1268AE
:109F0000012A07D833B9074B1868074B1B68C01ADA
:109F100070470020704700BFAC3400202834002078
:109F200034340020DC34002024350020064A136835
:109F30001968064B19B94FF0FF321A607047126862
:109F4000D268D2685268F8E72C340020DC34002054
:109F50002DE9F047DDE9097496000D46324680464A
:109F6000A521206B9946FCF7D9F9236B043E1E44CA
:109F700026F007066B1E04F13402073513F8011FA3
:109F800002F8011B197809B1AB42F7D1089D042DE5
:109F900028BF04254FF0000AE562C4E9115A201DCC
:109FA00084F83BA001F019FAC5F1050504F1180089
:109FB00001F013FAC4F84CA02461A561646284F82E
:109FC00050A04A464146304600F092FD206007B15D
:109FD0003C60BDE8F08710B590F8513004463BB9BD
:109FE000006BFFF7A5FB2046BDE81040FFF7A0BBC4
:109FF000012BF9D010BD0000F8B5164B164E1C68A9
:10A000000546306804300F4601F00DFA6B1C3346EC
:10A0100007D137B1316811480431BDE8F84001F08B
:10A02000DFB91A686419546007D30D4A10681968BB
:10A03000BDE8F840043101F0DFB90A4A1068196838
:10A04000043101F0D9F9084B1A68A24288BF1C609C
:10A05000F8BD00BF2435002028340020FC34002047
:10A06000303400202C340020DC34002030B587B0A0
:10A07000DDE90B458DB194B12C63022485F8514084
:10A0800005AC01940A9C02950094FFF761FF2846F5
:10A09000FFF7A2FE059807B030BD2846FBE7204633
:10A0A000F9E72DE9F043074685B09000884616464B
:10A0B0009946FFF72EFB0546E8B15420FFF729FB30
:10A0C0000446A8B1002380F851300D9B056301932D
:10A0D0000C9B0290009332464B4641463846FFF7B0
:10A0E00037FF2046FFF778FE012005B0BDE8F0837A
:10A0F0002846FFF71DFB4FF0FF30F6E710B588B09C
:10A10000002407AA06A905A8CDE9054401F03AF8FC
:10A11000059B0293069B079A0E490F48CDE9004321
:10A120002346FFF7A3FF0D4B186080B100F06AFBD8
:10A1300001280CD1402383F31188094B4FF0FF32E3
:10A140001A60084B1860084B1C6000F0E3FC08B074
:10A1500010BD00BF8C14030089A30200D834002076
:10A16000DC340020F834002024350020024A136833
:10A1700001331360704700BFA4340020014B1868FE
:10A18000704700BF24350020024A1368184410604D
:10A19000704700BF243500202DE9F84F2E4B1B6877
:10A1A000002B53D12D4B1D6801351D605DB92C4A24
:10A1B0002C4B1168186810602B4A19601368013322
:10A1C0001360FFF7B3FE294F3B68AB424FF0000628
:10A1D00007D9274B1B68002B0CBF30460120BDE878
:10A1E000F88FDFF87C90DFF894A0DFF894B0D9F80E
:10A1F00000301B681BB94FF0FF333B60E9E7D9F82B
:10A200000030DB68DC6863689D42F6D304F1040823
:10A21000404601F008F9A36A1BB104F1180001F0EF
:10A2200002F9E36ADAF800201420934200FB03B03D
:10A23000414688BFCAF8003001F0D2F80D4BE26AFF
:10A240001B68DB6A9A4228BF0126D0E70A4A1368D6
:10A25000013313600026BCE7A4340020243500201D
:10A260002C34002030340020E0340020DC34002086
:10A270002835002028340020A0340020AC340020F1
:10A28000343400202DE9F04100F06AFC294B1A68B3
:10A29000013A1A601C682CB1002400F06BFC2046C7
:10A2A000BDE8F081244B1B68002BF5D0234D244ED4
:10A2B000DFF8A0801DE0EB68DC68271D04F11800C2
:10A2C00001F0B1F8384601F0AEF8E36A32681420C4
:10A2D000934200FB0380394688BF336001F080F869
:10A2E000184BE26A1B68DB6A9A4202D3164B0122C2
:10A2F0001A602B68002BDED10CB1FFF717FE134D4F
:10A300002C6844B1104E0127FFF746FF00B13760BB
:10A31000013CF9D12C600C4B1B68002BBCD00C4BC2
:10A320004FF080525A6040BFBFF34F8FBFF36F8F23
:10A330000124B2E7A434002098340020E434002043
:10A34000AC3400202834002028350020A034002020
:10A3500000ED00E03434002008B548B9094B4FF057
:10A3600080525A6040BFBFF34F8FBFF36F8F08BD5D
:10A37000FFF7FCFE0021FFF73FFEFFF783FF0028F9
:10A38000ECD0F4E700ED00E0F8B51B4C1B4F1C4D82
:10A390002368EBB91B4B1B68012B08D91A4B4FF0F4
:10A3A00080525A6040BFBFF34F8FBFF36F8F00F0F2
:10A3B000E1FEFFF79DFD0128E9D9FFF7D7FEFFF782
:10A3C00097FD012801D900F035FCFFF75BFFDEE7C0
:10A3D00000F0C6FBFB68DE68301D01F024F82B6836
:10A3E000013B2B602368013B236000F0C3FB304638
:10A3F000FFF7F1FDCCE700BF9C34002010350020B2
:10A40000983400203434002000ED00E0F8B5194BFA
:10A410001A68194B12B101221A60F8BD174C1A6064
:10A420002268236812681B6B9A4204D8206821684E
:10A43000343100F09DFE124E124B32684FF0140C76
:10A440001F460CFB02F158185D5885B1456808316C
:10A450006D6845600B449D4204BF6B6843601423E4
:10A4600003FB02735B68DB6823603260D5E7013A67
:10A47000E7E700BFA434002028350020283400205E
:10A48000AC3400203434002010B5064B0C4619685B
:10A49000183100F0B1FF20460121BDE81040FFF760
:10A4A000ABBD00BF2834002038B5084B0D461968F5
:10A4B0001446183100F094FF002C21460CBF2846AA
:10A4C0004FF0FF30BDE83840FFF796BD283400203C
:10A4D00038B5C368DC6804F11805284600F0A3FF0E
:10A4E000114B1B68EBB9251D284600F09CFF0F4A55
:10A4F000E36A11688B4288BF13600D4A1420294615
:10A5000000FB032000F06CFF0A4BE26A1B68DB6A69
:10A510009A4285BF084B012000201860FFF706FD16
:10A5200038BD29460548EDE7A4340020AC340020AE
:10A53000343400202834002028350020E434002062
:10A54000034B1B680360034B1B684360704700BFED
:10A55000E03400202435002070B50C46054600F09C
:10A56000FFFA0F4B1A682368591C0FD00D482E684C
:10A5700000686968864201D091420ED9521A93420E
:10A5800009D99B1A23602846FFF7DAFF002400F060
:10A59000F1FA204670BD002323600124F7E700BFD5
:10A5A00024350020E0340020014B01221A6070475E
:10A5B00028350020084B186860B9084B1B6853B950
:10A5C000074B1868074B1B68013B984214BF0120DA
:10A5D0000220704700207047E43400202835002016
:10A5E000FC34002098340020054B1B6833B1054B28
:10A5F0001B68002B0CBF0220002070470120704711
:10A60000F8340020A4340020F8B5044600282BD0EC
:10A610001B4AC36A1168C96A8B42164627D28269EF
:10A62000184D002AA1BF3268D26AC2F105028261C8
:10A63000142202FB035342699A4211D1071D384686
:10A6400000F0F1FE3368104ADB6A1168E3628B4266
:10A650000BD81420394600FB035000F0C1FE02E085
:10A660003368DB6AC3620120F8BD1360F1E7136849
:10A67000406CDC6AA0422CBF00200120F4E700BF40
:10A680002834002034340020AC34002038B504468F
:10A6900008B9002038BD836CC16A426C013B91420D
:10A6A0008364F6D0002BF4D1051D284600F0BBFED4
:10A6B000636CE362C3F10502A261074A11688B4231
:10A6C00088BF1360054A142000FB0320294600F0D0
:10A6D00087FE0120DEE700BFAC34002034340020C8
:10A6E00070B5044650B3436C994238BF1946C36AEB
:10A6F0008B4223D0826C012A20D18269104DC16225
:10A70000002A4FF0140202FB03534269A4BFC1F1B7
:10A71000050181619A4211D1061D304600F083FE89
:10A72000084AE36A116814208B4200FB035031464B
:10A73000BDE8704088BF136000F052BE70BD00BF1E
:10A7400034340020AC340020044B1A681AB1196864
:10A750008A6C01328A641868704700BF2834002070
:10A76000F7B5114C00F0FCF92568BDB90F4F104E3C
:10A77000384600F027FE304600F024FE0D4B0E4A0E
:10A780001F600E4B10211E60202000950C4BFFF720
:10A790009DF8206010B10B49FFF7CEFA03B0BDE879
:10A7A000F04000F0E7B900BFB03700203437002098
:10A7B000483700202C35002034350020303500206B
:10A7C0006037002091140300914208B54160006198
:10A7D0000AD8D21A83699A420DD2084B011D186813
:10A7E00000F00AFE002008BD9A4201D2994202D22E
:10A7F000011D034BF3E70120F5E700BF30350020D2
:10A800002C35002010B588B0FFF7AAFF0E4B186852
:10A810000024B8B107AA06A905A8CDE9054400F0AF
:10A82000BDFC059B0293069B019302230093079AAC
:10A83000064907482346FFF719FC064B1860001B22
:10A8400018BF012008B010BDB037002096140300D7
:10A8500041A90200B43700202DE9F04180463020A4
:10A860000F4616461D46FEF754FF044670B1FFF72B
:10A8700077FF069B6362C4F80080C4E90676256210
:10A88000201D00F0AAFD002384F82C302046BDE8EE
:10A89000F08100007FB50F4C0546206816461A4629
:10A8A00080B10529CDE9001602950DDCFFF79CFE6D
:10A8B0000023022808BF089A206818BF1A46694674
:10A8C000FFF740F804B070BD00236946FFF7CCF8ED
:10A8D000F8E700BFB03700202DE9F341164D4FF0E7
:10A8E00000082B681A6832B9144A1168296013608D
:10A8F00002B0BDE8F081DB68DC681E68271D3846C1
:10A9000000F091FD636A20469847E369012BE8D186
:10A91000A36933449E4206D26360246139462868A5
:10A9200000F06AFDDDE70023CDF8008032461946CD
:10A930002046FFF7AFFFD4E72C350020303500204C
:10A940002DE9F04F5D4D89B0A9464FF0000A2A6805
:10A950001368002B4ED0D268D2F800B0584C039345
:10A96000FFF704FCFFF70AFC2268564E039B904257
:10A970008046274640D2FFF7AFFFC4F80080FFF7BC
:10A9800081FC4FF0010B002204A93068FFF7C4F8E6
:10A990000028DCD0049B002B03DADDE90601059BCF
:10A9A0009847049B002BEEDB069C636913B1201DC6
:10A9B00000F039FDFFF7E2FB3B689842024603D204
:10A9C0000390FFF789FF039A049B3A60092BDAD8BA
:10A9D0000BFA03F313F4047868D113F0C70F4AD1CC
:10A9E0009B06D0D594F82C30002BCCD12046FEF716
:10A9F0009FFEC8E79B46B1E720600BB3834538D87C
:10AA0000FFF740FCD9F80030DB68DC68201D00F05F
:10AA10000AFDE369012B0FD1A1695B464246594407
:10AA20002046FFF7D1FE38B10023CDF800A05A46EA
:10AA300019462046FFF72EFF636A20469847A0E795
:10AA4000214B1B681A68B2FA82F25209ABEB08017B
:10AA50003068FFF79EF9FFF715FC002891D11B4BDA
:10AA60004FF080525A6040BFBFF34F8FBFF36F8FDC
:10AA700087E70022EAE7A169059B20461944FFF712
:10AA8000A3FE00283FF47FAF636A20469847E3693E
:10AA9000012B7FF478AFA2690599CDF800800A44B4
:10AAA000434641462046FFF7F5FE6CE70599A16154
:10AAB000134611442046FFF787FE64E72C3500203B
:10AAC0005C370020B03700203035002000ED00E07A
:10AAD00010B5044600F044F86469003418BF01243E
:10AAE00000F048F8204610BD402383F31188FEE7AC
:10AAF0004FF0807340E90213054B40F80C3C6FF0B7
:10AB0000020340F8202C40F8243C4438704700BF32
:10AB1000E9AA02000F4C08B5E02384F8223000F0C7
:10AB20006DF80D4B00221A60D4F888300B4A43F4BC
:10AB30007003C4F88830536843F04043536023697E
:10AB400043F01003236100F0F9F8402383F31188E8
:10AB5000FEE700BF00ED00E0B837002030EF00E076
:10AB6000402383F31188024A13680133136070474E
:10AB7000B8370020034A1368013B13600BB983F315
:10AB800011887047B837002073B5194B00221A603E
:10AB90001B680193019BEFF31186402383F3118817
:10ABA000144BD3F80445C3F8002103F580731B68E8
:10ABB0000093009BFFF7E2FA241A24F07F44012C53
:10ABC00004D9FFF711FD022818BF0124002514F154
:10ABD000FF3409D225B1084B4FF080525A6040BF74
:10ABE00086F3118802B070BDFFF7D6FA0543EEE791
:10ABF000401101400010014000ED00E00A4B0B49FC
:10AC00001F22C3F808250122C3F804230A601A6032
:10AC10000222C3F84423064BE02283F811234FF4A9
:10AC200000321A60704700BF001001400810014058
:10AC300000E100E0F0B5054685B0EFF3108072B694
:10AC4000374CA36883B90123A360364B3649D3F848
:10AC500080200A402260C3F88010D3F8842062600C
:10AC60004FF0FF32C3F8842000B962B62F4FD7F8F7
:10AC70000465FFF79FFC3B46002841D02C49A942C0
:10AC800028BF2946721822F07F420120C7F8080326
:10AC9000C7F84025274A00201060106801900198ED
:10ACA0004FF48030C7F80403BFF34F8F3DB11D4808
:10ACB00020BFD0F80071D0F804513D43F8D04FF4D4
:10ACC0008030C3F808030020106012680392039AD2
:10ACD000194A106012680292029A0122C3F80423F2
:10ACE000D3F804359B1B23F07F4088420D4B4FF473
:10ACF000003228BF0846C3F8802108B1FFF744FAA4
:10AD0000A3685BB1EFF3108372B6064A2168116045
:10AD1000616851600022A26003B962B605B0F0BD5F
:10AD2000584C002000E100E0FC06FFBD001001408F
:10AD3000FDFFFF004011014000110140074800687D
:10AD400080F3088862B661B6BFF34F8FBFF36F8F91
:10AD50004FF0E00080F3118800DF00BF00600200C8
:10AD6000064B19680868B0E8F04F80F30988BFF314
:10AD70006F8F4FF0000080F3118870472834002057
:10AD8000EFF30980BFF36F8F144B1A681EF0100F9A
:10AD900008BF20ED108A20E9F04F10604DF8043D07
:10ADA0004FF0400080F31188BFF34F8FBFF36F8FD8
:10ADB000FFF72CFB4FF0000080F3118808BC1968E6
:10ADC0000868B0E8F04F1EF0100F08BFB0EC108A12
:10ADD00080F30988BFF36F8F704700BF28340020CD
:10ADE0000A490B4A0B4B9B1A03DD043BC858D05051
:10ADF000FBDC094809494FF0AD32026004300439E8
:10AE0000FBD100F0C5F8FBF71BFA0000701A030035
:10AE100000280020202E002000F80020000800005C
:10AE2000FEE7FEE7FEE7FEE7FEE7FEE7FEE7FEE7FA
:10AE3000FEE7FEE708B5FBF71DFD054C054DFBF7EA
:10AE400055FC002CFBD0002DF9D0FEF7FBFBF6E7FC
:10AE500000000000459602007047000007B500F0B2
:10AE60006FFAFFF7F9FF104B104C13B1AFF30080EE
:10AE700020600F4B0193012322880E4900930E4856
:10AE80000023FFF70EF900F0FDF9FFF737F9BFF3E4
:10AE90004F8F0A490A4BCA6802F4E0621343CB6041
:10AEA000BFF34F8F00BFFDE700000000342C0020EF
:10AEB000BC3700209E14030035AE020000ED00E018
:10AEC0000400FA05034890F862300BB1FEF7B4B9FC
:10AED00018467047C033002010B50446FFF784FBC6
:10AEE0000128204603D1BDE8104002F021BFBDE893
:10AEF0001040FEF70EBC10B50446FFF775FB0128A5
:10AF0000204603D1BDE8104002F01ABFBDE8104052
:10AF1000FEF70EBCFFF7E0BFFFF7EDBF0C4B1B7851
:10AF2000062B10D10B4B1B681A070CD10A4B186863
:10AF300000F0F003302B08D000F0E000A0F1400357
:10AF4000584258417047002070470120704700BFA9
:10AF5000E00F00F0E40F00F0E80F00F0094B1B7861
:10AF6000062B0CD1084B1B681A0708D1074B186831
:10AF700000F0F000A0F13003584258417047002023
:10AF8000704700BFE00F00F0E40F00F0E80F00F0A2
:10AF900008B5FFF7C3FF28B1604B614A1B68C3F3D4
:10AFA00004231360FFF7DAFF10B15E4B5E4A1A60AC
:10AFB000FFF7B4FF28B15D4B5D4A1B68C3F3423312
:10AFC0001360FFF7CBFF20B15A4AD36823F0807398
:10AFD000D360FFF7A3FF40B14FF080430022C3F8D6
:10AFE0000C21C3F81021C3F83825FFF7B7FF10B1C3
:10AFF000514B03221A60FFF7B1FF40B14F4B0522BE
:10B000001A6001229A6700229A603F225A604C4BD4
:10B010001B78062B50D14B4B1B6819074CD14A4B60
:10B020001B6803F0F003502B46D14FF08052474B82
:10B03000D2F80414C3F82015D2F80814C3F8241564
:10B04000D2F80C14C3F82815D2F81014C3F82C1534
:10B05000D2F81414C3F83015D2F81814C3F8341504
:10B06000D2F81C14C3F84015D2F82014C3F84415C4
:10B07000D2F82414C3F84815D2F82814C3F84C1594
:10B08000D2F82C14C3F85015D2F83014C3F8541564
:10B09000D2F83414C3F86015D2F83814C3F8641524
:10B0A000D2F83C14C3F86815D2F84014C3F86C15F4
:10B0B000D2F84424C3F87025FFF730FF28B1244BA1
:10B0C000244A1B6803F04F031360FFF727FF48B1C2
:10B0D0004FF08043D3F80024D20744BF6FF0010241
:10B0E000C3F800241C4B1B68062B08D11B4B1B68A4
:10B0F000062B01BF1A4A136843F480631360194A90
:10B10000D2F8883043F47003C2F88830BFF34F8F11
:10B11000BFF36F8F144B154A1A6008BD240300104B
:10B120004035014074C007400DF0ADBA4402001034
:10B130003C050040F0ED00E0A00500401056004046
:10B14000E00F00F0E40F00F0E80F00F000C0004056
:10B1500058020010E40E00403001001034010010CD
:10B160003C17004000ED00E0382C00200090D00398
:10B170007047704708B5024B0BB1AFF3008008BDB4
:10B1800000000000034B0360034B0B60642313605B
:10B19000704700BFC437002018380020034B0360FD
:10B1A000034B0B6064231360704700BFA839002075
:10B1B000FC390020014B01221A707047C037002073
:10B1C00010B50446FFF710FA0128204603D1BDE868
:10B1D000104002F0B5BDBDE81040FEF7A9BA00006E
:10B1E00030B51C4D85B04FF0FF3203A92868FEF73B
:10B1F00093FC0028F7D00398037A4468052B05D800
:10B20000DFE803F0030D1014191FA047039B186813
:10B2100008B1FFF7D5FF0398FFF7D2FFE3E7C06857
:10B22000A047F3E7D0E90301A047EFE7D0E9041214
:10B23000C068A047EAE7D0E90523D0E90301A047A9
:10B24000E4E7C3690093D0E90523D0E90301A047EF
:10B25000DCE700BF8C3B002013B5094B02AC44F87F
:10B26000040D18680B4631B100231A462146FEF73B
:10B27000FBFB02B010BD64222146FEF763FBF8E73A
:10B280008C3B00201FB5002204211420FEF734FB64
:10B29000074B0849186003AB0193022300934FF456
:10B2A000806200230448FEF7FCFE05B05DF804FB55
:10B2B0008C3B0020A3140300E1B1020037B5144B0E
:10B2C0001978F9B94FF440531B78102B1DD943F26C
:10B2D0001002142B126802D943F2140319680D48A6
:10B2E000B1FBF0F34FF47A74B1FBF4F504FB1515E0
:10B2F000019500FB13110648B1FBF4F100910649DA
:10B3000003F092FB024803B030BD0A46E7E700BFF6
:10B31000903B002040420F00AC14030008B50648E3
:10B32000037833B94FF0805304495A6E1B6E03F013
:10B330007BFB014808BD00BFAF3B0020B9140300F0
:10B34000114BD3F84025114B1A604FF08043002277
:10B35000C3F8182501229A600D4B4FF40031C3F851
:10B36000801003F1C04303F53C534FF48031C3F820
:10B370004813C3F808135A609A604FF0A0434FF087
:10B38000FF32C3F80825704700A00040C03B0020F2
:10B3900000E100E01E280CD8064B53F820200123C2
:10B3A00093404FF0A04211B9C2F80C357047C2F873
:10B3B00008357047D81303000121FFF7EBBF0021C8
:10B3C000FFF7E8BF00F108034FF0FF324360C0E928
:10B3D0000223036100230360704700230361704769
:10B3E00043684B609A688A609A6851609960036804
:10B3F00008610133036070470A68531C30B50AD1F5
:10B4000003695A684A6091608B60596003680861FB
:10B410000133036030BD00F108035C682568954284
:10B42000EFD82346F9E7D0E9011203698A60826800
:10B4300051605968814208BF5A60002202611A684F
:10B44000013A1A6018687047704710B50446FFF754
:10B4500063FD204610BD000038B5074B04460D467D
:10B4600040F80C3B44220021FAF758FF0023A56066
:10B470002371204638BD00BFCC14030038B50479D1
:10B48000054654B901B18160A96831B105F10C00DC
:10B4900000F06EFF08B901242C71204638BD38B584
:10B4A0000379044600F10C0533B9A168284601F080
:10B4B00091FE38B1002038BD284600F09BFF0028DF
:10B4C000F3D0F7E723793BB1A168284600F050FF9D
:10B4D000B0FA80F04009EEE70120ECE700B5C3B018
:10B4E0006A460C3000F008FFB0FA80F0400943B023
:10B4F0005DF804FB2DE9F0470B782F2B064600AFD3
:10B500000D460CBF481C08464FF000082F2103F0E1
:10B51000ABFA044630B3421B02F1080323F00703E1
:10B52000E946ADEB030D6B46EA4603F8018B511E6D
:10B53000002903DB03F8018B0139F9E7294650465E
:10B5400002F015FC514606F10C0001F0D1FE30B1BD
:10B55000113004D00020CD46BD46BDE8F087601C08
:10B56000CD46D3E7294606F10C0001F0C1FE28B113
:10B5700010F1110F14BF00200120EDE70120EBE7CF
:10B5800008B50C3001F0B4FFB0FA80F0400908BDF6
:10B5900007B5027D8DF8071042B9036801225B6888
:10B5A0000DF10701984703B05DF804FB0020FAE7AE
:10B5B00010B50446FFF718F80128204603D1BDE86E
:10B5C000104002F0B5BBBDE81040FEF7A2B810B5C0
:10B5D0000446FFF709F80128204603D1BDE81040D2
:10B5E00002F0AEBBBDE81040FEF7A2B810B513469E
:10B5F000027D0AB1002010BD04690A46816904F188
:10B600000C0001F06DF80028F5DCF3E7037D2BB9A1
:10B610000369816903F10C0001F080BC70470000F0
:10B6200010B500224FF47A74C0E90124044C046080
:10B630000161027580F82020C0E9062210BD00BF1C
:10B64000DC1403002DE9F0410446884615465AB142
:10B65000012A20D140F203163820FFF7A9FFA0618C
:10B6600020B90020BDE8F0810126F5E727694246B0
:10B670000146334607F10C0001F033FF0246002873
:10B68000EFD1012D05D12069A16902230C3001F011
:10B690003BFA002323750120E4E770B505462C2012
:10B6A0000E46FFF785FF0146A86108B9002070BD6E
:10B6B000286932460C3000F0DDFD0028F6D1012467
:10B6C0002C75304603F0F7F92044FFF771FF31463F
:10B6D000E86103F0D6F92046E9E710B41346027D8D
:10B6E00042B904690A46816904F10C005DF8044B13
:10B6F00001F0A7B900205DF8044B704707B5037D42
:10B7000023B14FF0FF3003B05DF804FB01220DF1CF
:10B710000701FFF7E2FF0028F3DD9DF80700F2E7DD
:10B7200010B5037D0A4643B90469816904F10C0030
:10B7300001F0EAF9C043C00F10BD0020FCE7037D13
:10B740002BB90369816903F10C0000F0C9BD002029
:10B75000704738B5037D044673B90368DB689847C2
:10B7600005462046FFF7EBFF014600B1411E20468B
:10B77000FFF7D6FF284638BD4FF0FF35FAE7037DC7
:10B780002BB90369816903F10C0000F0ABBD002007
:10B79000704738B50546FFF7F2FF04462846FFF725
:10B7A000CEFF201A38BD38B58169044679B10069E9
:10B7B000257D0C3065B100F086FDA069FFF707FF1D
:10B7C000E0690025A56108B1FFF701FFE56138BD1B
:10B7D00001F0F4FBA069FFF7FAFEA561F7E770B589
:10B7E0008369C2B004460D4616460BB1FFF7DBFF76
:10B7F00020696A4629460C3000F07EFDE0B99DF8CC
:10B800000030112B05D1324629462046FFF71AFF9A
:10B8100003E029462046FFF740FF064670B12F217E
:10B82000284603F065F9203400B1451CFF22294663
:10B83000204603F048F902E0023003D000263046EB
:10B8400042B070BD012EF9D1DDE770B504460D465A
:10B8500016461946FFF7E4FE324629462046FFF712
:10B86000BEFF204670BD8069003018BF01207047C0
:10B8700003681A6AC36AD31A1944B1FBF2F302FBD4
:10B880001311036B8B4210B50BD94C09C26B01230A
:10B8900001F01F0103FA01F152F824300B4342F882
:10B8A0002430002010BD0368013304D04068431CDD
:10B8B0005842584170470120704710B50B68046822
:10B8C0009C4209D040684A68904205D0944203D017
:10B8D000181A18BF012010BD0020FCE703689B6AFE
:10B8E00010B5044613B9C069FDF722FF2368DB6A6F
:10B8F00013B9A06AFDF71CFF23681B6B23B9E06B2B
:10B90000BDE81040FDF714BF10BD00002DE9F74F52
:10B91000984603680C9C1B6A0E9D434583460F4660
:10B9200091462AD8354B364A3648122102F0C2F9E0
:10B93000DBF80000B9F1000F23D0D9F800309845AA
:10B940001FD1D9F80410A1421BD8836901EB030A67
:10B95000544516D2AAEB040AAA45D9F8083028BFE4
:10B96000AA46611A194452460D9802F000FA0D9B3E
:10B9700053440D935444A5EB0A05002DD8D1284615
:10B9800039E03A68436990450ED179688C420BD30F
:10B9900001EB030A544507D2AAEB040AAA4528BFC3
:10B9A000AA46611ABB68DDE74168B4FBF3F203FB0A
:10B9B00012428C46A2B99D4212D3B5FBF3FA03FBA7
:10B9C0001A5AA5EB0A0600960D9B2246414665468B
:10B9D000A84780B90D9B33440D9334445546CCE7BA
:10B9E000A21AC7F800807A600093BB684146664699
:10B9F000B0470028C1D003B0BDE8F08F6C1503003C
:10BA0000F41403008A1503001FB5069C0092CDE9CB
:10BA1000013400220B4600F11401FFF777FF04B058
:10BA200010BD10B50C468269A068FF21FAF776FCBC
:10BA30004FF0FF33236010BD8B6A10B504460160E0
:10BA4000BBB1C3612368DA6AFAB1A262206804F16B
:10BA50002001FFF7E6FF4FF0FF3363612368586A68
:10BA6000C20619D02D4B2E4A40F613012D4802F084
:10BA700021F94869FDF74DFEE0610028E2D120463A
:10BA8000FFF72CFF6FF00B0047E09869FDF741FED0
:10BA9000A0620028DAD1F2E720B9234B204A40F611
:10BAA0001401E3E71B6B6BB1E3632268D2E9050382
:10BAB000B3FBF0F100FB113159B11C4B184A40F6B1
:10BAC0001F01D3E7C008FDF724FEE0630028ECD196
:10BAD000D5E7D269B2FBF3F003FB102020B1144B81
